{
	"data": {
		"bytecode": {
			"linkReferences": {},
			"object": "60c06040525f60105f6101000a81548160ff021916908315150217905550612af860135534801561002e575f5ffd5b5060405161594238038061594283398181016040528101906100509190610def565b86868686868686838282885f73ffffffffffffffffffffffffffffffffffffffff168173ffffffffffffffffffffffffffffffffffffffff16036100cb575f6040517f1e4fbdf70000000000000000000000000000000000000000000000000000000081526004016100c29190610ed3565b60405180910390fd5b6100da8161037e60201b60201c565b5081600490816100ea91906110f3565b5080600590816100fa91906110f3565b5050505f5f61010e8361043f60201b60201c565b915091508161011e576012610120565b805b60ff1660a08160ff16815250508273ffffffffffffffffffffffffffffffffffffffff1660808173ffffffffffffffffffffffffffffffffffffffff16815250505050508660065f6101000a81548173ffffffffffffffffffffffffffffffffffffffff021916908373ffffffffffffffffffffffffffffffffffffffff1602179055508260075f6101000a81548173ffffffffffffffffffffffffffffffffffffffff021916908373ffffffffffffffffffffffffffffffffffffffff1602179055505f6101f48661054860201b60201c565b905080600e5f8973ffffffffffffffffffffffffffffffffffffffff1673ffffffffffffffffffffffffffffffffffffffff1681526020019081526020015f205f018190555042600e5f8973ffffffffffffffffffffffffffffffffffffffff1673ffffffffffffffffffffffffffffffffffffffff1681526020019081526020015f206001018190555042600d819055508060088190555080600f5f8973ffffffffffffffffffffffffffffffffffffffff1673ffffffffffffffffffffffffffffffffffffffff1681526020019081526020015f205f01819055506102fa876102e361056560201b60201c565b600a6102ef919061132a565b61058660201b60201c565b7f49b15d0536554a8fbc082a1fab1f1f7fe05e6f13f44b3c05dac82f103257d6c84261032a61060b60201b60201c565b61033861081e60201b60201c565b60405161034793929190611383565b60405180910390a150505050505050504260118190555061036c61081e60201b60201c565b60128190555050505050505050611552565b5f5f5f9054906101000a900473ffffffffffffffffffffffffffffffffffffffff169050815f5f6101000a81548173ffffffffffffffffffffffffffffffffffffffff021916908373ffffffffffffffffffffffffffffffffffffffff1602179055508173ffffffffffffffffffffffffffffffffffffffff168173ffffffffffffffffffffffffffffffffffffffff167f8be0079c531659141344cd1fd0a4f28419497f9722a3daafe3b4186f6b6457e060405160405180910390a35050565b5f5f5f5f8473ffffffffffffffffffffffffffffffffffffffff1660405160240160405160208183030381529060405263313ce56760e01b6020820180517bffffffffffffffffffffffffffffffffffffffffffffffffffffffff83818316178352505050506040516104b291906113fc565b5f60405180830381855afa9150503d805f81146104ea576040519150601f19603f3d011682016040523d82523d5f602084013e6104ef565b606091505b509150915081801561050357506020815110155b1561053a575f8180602001905181019061051d9190611412565b905060ff801681116105385760018194509450505050610543565b505b5f5f9350935050505b915091565b5f61055e82600162278d0061082760201b60201c565b9050919050565b5f61057461091860201b60201c565b60a051610581919061143d565b905090565b5f73ffffffffffffffffffffffffffffffffffffffff168273ffffffffffffffffffffffffffffffffffffffff16036105f6575f6040517fec442f050000000000000000000000000000000000000000000000000000000081526004016105ed9190610ed3565b60405180910390fd5b6106075f838361092060201b60201c565b5050565b5f5f61061b610b3c60201b60201c565b73ffffffffffffffffffffffffffffffffffffffff166370a08231306040518263ffffffff1660e01b81526004016106539190610ed3565b602060405180830381865afa15801561066e573d5f5f3e3d5ffd5b505050506040513d601f19601f820116820180604052508101906106929190611412565b90505f6106a3610b4560201b60201c565b90505f5f90505f5f60075f9054906101000a900473ffffffffffffffffffffffffffffffffffffffff1673ffffffffffffffffffffffffffffffffffffffff16306040516024016106f49190610ed3565b6040516020818303038152906040527f402914f5000000000000000000000000000000000000000000000000000000007bffffffffffffffffffffffffffffffffffffffffffffffffffffffff19166020820180517bffffffffffffffffffffffffffffffffffffffffffffffffffffffff838183161783525050505060405161077e91906113fc565b5f60405180830381855afa9150503d805f81146107b6576040519150601f19603f3d011682016040523d82523d5f602084013e6107bb565b606091505b509150915081156107dd57808060200190518101906107da9190611412565b92505b8383866107ea9190611471565b10610812578383866107fc9190611471565b61080691906114a4565b9550505050505061081b565b5f955050505050505b90565b5f600354905090565b5f5f83850290505f5f19858709828110838203039150505f810361085f57838281610855576108546114d7565b5b0492505050610911565b80841161088a5761088961087e5f861460126011610b6660201b60201c565b610b8560201b60201c565b5b5f8486880990508281118203915080830392505f855f038616905080860495508084049350600181825f0304019050808302841793505f600287600302189050808702600203810290508087026002038102905080870260020381029050808702600203810290508087026002038102905080870260020381029050808502955050505050505b9392505050565b5f6008905090565b5f73ffffffffffffffffffffffffffffffffffffffff168373ffffffffffffffffffffffffffffffffffffffff1603610970578060035f8282546109649190611471565b92505081905550610a40565b5f60015f8573ffffffffffffffffffffffffffffffffffffffff1673ffffffffffffffffffffffffffffffffffffffff1681526020019081526020015f20549050818110156109fa578381836040517fe450d38c0000000000000000000000000000000000000000000000000000000081526004016109f193929190611504565b60405180910390fd5b81810360015f8673ffffffffffffffffffffffffffffffffffffffff1673ffffffffffffffffffffffffffffffffffffffff1681526020019081526020015f2081905550505b5f73ffffffffffffffffffffffffffffffffffffffff168273ffffffffffffffffffffffffffffffffffffffff1603610a87578060035f8282540392505081905550610ad2565b8060015f8473ffffffffffffffffffffffffffffffffffffffff1673ffffffffffffffffffffffffffffffffffffffff1681526020019081526020015f205f82825401925050819055505b8173ffffffffffffffffffffffffffffffffffffffff168373ffffffffffffffffffffffffffffffffffffffff167fddf252ad1be2c89b69c2b068fc378daa952ba7f163c4a11628f55a4df523b3ef83604051610b2f9190611539565b60405180910390a3505050565b5f608051905090565b5f600b54610b57610b9660201b60201c565b610b6191906114a4565b905090565b5f610b7684610bcf60201b60201c565b82841802821890509392505050565b634e487b715f52806020526024601cfd5b5f5f600d5442610ba691906114a4565b9050610bbc60085482600161082760201b60201c565b600c54610bc99190611471565b91505090565b5f8115159050919050565b5f604051905090565b5f5ffd5b5f5ffd5b5f73ffffffffffffffffffffffffffffffffffffffff82169050919050565b5f610c1482610beb565b9050919050565b610c2481610c0a565b8114610c2e575f5ffd5b50565b5f81519050610c3f81610c1b565b92915050565b5f819050919050565b610c5781610c45565b8114610c61575f5ffd5b50565b5f81519050610c7281610c4e565b92915050565b5f610c8282610c0a565b9050919050565b610c9281610c78565b8114610c9c575f5ffd5b50565b5f81519050610cad81610c89565b92915050565b5f5ffd5b5f5ffd5b5f601f19601f8301169050919050565b7f4e487b71000000000000000000000000000000000000000000000000000000005f52604160045260245ffd5b610d0182610cbb565b810181811067ffffffffffffffff82111715610d2057610d1f610ccb565b5b80604052505050565b5f610d32610bda565b9050610d3e8282610cf8565b919050565b5f67ffffffffffffffff821115610d5d57610d5c610ccb565b5b610d6682610cbb565b9050602081019050919050565b8281835e5f83830152505050565b5f610d93610d8e84610d43565b610d29565b905082815260208101848484011115610daf57610dae610cb7565b5b610dba848285610d73565b509392505050565b5f82601f830112610dd657610dd5610cb3565b5b8151610de6848260208601610d81565b91505092915050565b5f5f5f5f5f5f5f60e0888a031215610e0a57610e09610be3565b5b5f610e178a828b01610c31565b9750506020610e288a828b01610c31565b9650506040610e398a828b01610c64565b9550506060610e4a8a828b01610c9f565b9450506080610e5b8a828b01610c31565b93505060a088015167ffffffffffffffff811115610e7c57610e7b610be7565b5b610e888a828b01610dc2565b92505060c088015167ffffffffffffffff811115610ea957610ea8610be7565b5b610eb58a828b01610dc2565b91505092959891949750929550565b610ecd81610c0a565b82525050565b5f602082019050610ee65f830184610ec4565b92915050565b5f81519050919050565b7f4e487b71000000000000000000000000000000000000000000000000000000005f52602260045260245ffd5b5f6002820490506001821680610f3a57607f821691505b602082108103610f4d57610f4c610ef6565b5b50919050565b5f819050815f5260205f209050919050565b5f6020601f8301049050919050565b5f82821b905092915050565b5f60088302610faf7fffffffffffffffffffffffffffffffffffffffffffffffffffffffffffffffff82610f74565b610fb98683610f74565b95508019841693508086168417925050509392505050565b5f819050919050565b5f610ff4610fef610fea84610c45565b610fd1565b610c45565b9050919050565b5f819050919050565b61100d83610fda565b61102161101982610ffb565b848454610f80565b825550505050565b5f5f905090565b611038611029565b611043818484611004565b505050565b5b818110156110665761105b5f82611030565b600181019050611049565b5050565b601f8211156110ab5761107c81610f53565b61108584610f65565b81016020851015611094578190505b6110a86110a085610f65565b830182611048565b50505b505050565b5f82821c905092915050565b5f6110cb5f19846008026110b0565b1980831691505092915050565b5f6110e383836110bc565b9150826002028217905092915050565b6110fc82610eec565b67ffffffffffffffff81111561111557611114610ccb565b5b61111f8254610f23565b61112a82828561106a565b5f60209050601f83116001811461115b575f8415611149578287015190505b61115385826110d8565b8655506111ba565b601f19841661116986610f53565b5f5b828110156111905784890151825560018201915060208501945060208101905061116b565b868310156111ad57848901516111a9601f8916826110bc565b8355505b6001600288020188555050505b505050505050565b7f4e487b71000000000000000000000000000000000000000000000000000000005f52601160045260245ffd5b5f8160011c9050919050565b5f5f8291508390505b6001851115611244578086048111156112205761121f6111c2565b5b600185161561122f5780820291505b808102905061123d856111ef565b9450611204565b94509492505050565b5f8261125c5760019050611317565b81611269575f9050611317565b816001811461127f5760028114611289576112b8565b6001915050611317565b60ff84111561129b5761129a6111c2565b5b8360020a9150848211156112b2576112b16111c2565b5b50611317565b5060208310610133831016604e8410600b84101617156112ed5782820a9050838111156112e8576112e76111c2565b5b611317565b6112fa84848460016111fb565b92509050818404811115611311576113106111c2565b5b81810290505b9392505050565b5f60ff82169050919050565b5f61133482610c45565b915061133f8361131e565b925061136c7fffffffffffffffffffffffffffffffffffffffffffffffffffffffffffffffff848461124d565b905092915050565b61137d81610c45565b82525050565b5f6060820190506113965f830186611374565b6113a36020830185611374565b6113b06040830184611374565b949350505050565b5f81519050919050565b5f81905092915050565b5f6113d6826113b8565b6113e081856113c2565b93506113f0818560208601610d73565b80840191505092915050565b5f61140782846113cc565b915081905092915050565b5f6020828403121561142757611426610be3565b5b5f61143484828501610c64565b91505092915050565b5f6114478261131e565b91506114528361131e565b9250828201905060ff81111561146b5761146a6111c2565b5b92915050565b5f61147b82610c45565b915061148683610c45565b925082820190508082111561149e5761149d6111c2565b5b92915050565b5f6114ae82610c45565b91506114b983610c45565b92508282039050818111156114d1576114d06111c2565b5b92915050565b7f4e487b71000000000000000000000000000000000000000000000000000000005f52601260045260245ffd5b5f6060820190506115175f830186610ec4565b6115246020830185611374565b6115316040830184611374565b949350505050565b5f60208201905061154c5f830184611374565b92915050565b60805160a0516143c16115815f395f61138401525f81816119640152818161323c015261332801526143c15ff3fe608060405234801561000f575f5ffd5b50600436106102d4575f3560e01c806395d89b4111610180578063c6e6f592116100e7578063dc9a1535116100a0578063ef8b30f71161007a578063ef8b30f714610985578063f0bfa6c1146109b5578063f2fde38b146109e6578063f8b8e80e14610a02576102d4565b8063dc9a153514610919578063dd62ed3e14610937578063e6c4ffee14610967576102d4565b8063c6e6f59214610831578063c920c60914610861578063ce96cb771461086b578063d0b06f5d1461089b578063d643fa05146108b9578063d905777e146108e9576102d4565b8063ba08765211610139578063ba08765214610781578063c06b8287146107b1578063c1955c78146107cf578063c2ce7af3146107d9578063c32e8459146107e3578063c63d75b614610801576102d4565b806395d89b4114610672578063a3f8eace14610690578063a9059cbb146106c0578063af86a953146106f0578063b3d7f6b914610721578063b460af9414610751576102d4565b8063313ce5671161023f57806340f2ba59116101f857806370a08231116101d257806370a08231146105ea578063715018a61461061a5780638da5cb5b1461062457806394bf804d14610642576102d4565b806340f2ba591461056c5780634cdad5061461058a5780636e553f65146105ba576102d4565b8063313ce56714610496578063334c356e146104b45780633795309e146104d057806338d52e0f1461050057806339e761d61461051e578063402d267d1461053c576102d4565b80630b4b1c44116102915780630b4b1c44146103c257806318160ddd146103de57806319165587146103fc57806320212cb71461042c57806322003f101461044a57806323b872dd14610466576102d4565b806301e1d114146102d857806305b182ea146102f657806306fdde031461031457806307a2d13a14610332578063095ea7b3146103625780630a28a47714610392575b5f5ffd5b6102e0610a0c565b6040516102ed91906134e9565b60405180910390f35b6102fe610c13565b60405161030b91906134e9565b60405180910390f35b61031c610c19565b6040516103299190613572565b60405180910390f35b61034c600480360381019061034791906135cd565b610ca9565b60405161035991906134e9565b60405180910390f35b61037c60048036038101906103779190613652565b610cbb565b60405161038991906136aa565b60405180910390f35b6103ac60048036038101906103a791906135cd565b610cdd565b6040516103b991906134e9565b60405180910390f35b6103dc60048036038101906103d791906135cd565b610cf0565b005b6103e6610db3565b6040516103f391906134e9565b60405180910390f35b610416600480360381019061041191906136c3565b610dbc565b60405161042391906134e9565b60405180910390f35b610434610edb565b60405161044191906134e9565b60405180910390f35b610464600480360381019061045f9190613652565b610ee1565b005b610480600480360381019061047b91906136ee565b61134b565b60405161048d91906136aa565b60405180910390f35b61049e611379565b6040516104ab9190613759565b60405180910390f35b6104ce60048036038101906104c991906136c3565b6113b2565b005b6104ea60048036038101906104e591906135cd565b61194a565b6040516104f791906134e9565b60405180910390f35b610508611961565b6040516105159190613781565b60405180910390f35b610526611988565b60405161053391906134e9565b60405180910390f35b610556600480360381019061055191906136c3565b61198e565b60405161056391906134e9565b60405180910390f35b6105746119c2565b60405161058191906134e9565b60405180910390f35b6105a4600480360381019061059f91906135cd565b6119dd565b6040516105b191906134e9565b60405180910390f35b6105d460048036038101906105cf919061379a565b6119ef565b6040516105e191906134e9565b60405180910390f35b61060460048036038101906105ff91906136c3565b611a0a565b60405161061191906134e9565b60405180910390f35b610622611a50565b005b61062c611a63565b6040516106399190613781565b60405180910390f35b61065c6004803603810190610657919061379a565b611a8a565b60405161066991906134e9565b60405180910390f35b61067a611aa5565b6040516106879190613572565b60405180910390f35b6106aa60048036038101906106a591906136c3565b611b35565b6040516106b791906134e9565b60405180910390f35b6106da60048036038101906106d59190613652565b611bd8565b6040516106e791906136aa565b60405180910390f35b61070a600480360381019061070591906136c3565b611bfa565b6040516107189291906137d8565b60405180910390f35b61073b600480360381019061073691906135cd565b611c1a565b60405161074891906134e9565b60405180910390f35b61076b600480360381019061076691906137ff565b611c2d565b60405161077891906134e9565b60405180910390f35b61079b600480360381019061079691906137ff565b611c4a565b6040516107a891906134e9565b60405180910390f35b6107b9611c67565b6040516107c69190613867565b60405180910390f35b6107d7611c6d565b005b6107e1611dcf565b005b6107eb611e2a565b6040516107f891906134e9565b60405180910390f35b61081b600480360381019061081691906136c3565b611e30565b60405161082891906134e9565b60405180910390f35b61084b600480360381019061084691906135cd565b611e5b565b60405161085891906134e9565b60405180910390f35b610869611e6d565b005b610885600480360381019061088091906136c3565b612084565b60405161089291906134e9565b60405180910390f35b6108a36120fa565b6040516108b091906134e9565b60405180910390f35b6108d360048036038101906108ce91906135cd565b612100565b6040516108e091906134e9565b60405180910390f35b61090360048036038101906108fe91906136c3565b612117565b60405161091091906134e9565b60405180910390f35b61092161217b565b60405161092e91906136aa565b60405180910390f35b610951600480360381019061094c9190613880565b61218d565b60405161095e91906134e9565b60405180910390f35b61096f61220f565b60405161097c91906134e9565b60405180910390f35b61099f600480360381019061099a91906135cd565b612242565b6040516109ac91906134e9565b60405180910390f35b6109cf60048036038101906109ca91906136c3565b612254565b6040516109dd9291906137d8565b60405180910390f35b610a0060048036038101906109fb91906136c3565b612274565b005b610a0a6122f8565b005b5f5f610a16611961565b73ffffffffffffffffffffffffffffffffffffffff166370a08231306040518263ffffffff1660e01b8152600401610a4e9190613781565b602060405180830381865afa158015610a69573d5f5f3e3d5ffd5b505050506040513d601f19601f82011682018060405250810190610a8d91906138d2565b90505f610a986119c2565b90505f5f90505f5f60075f9054906101000a900473ffffffffffffffffffffffffffffffffffffffff1673ffffffffffffffffffffffffffffffffffffffff1630604051602401610ae99190613781565b6040516020818303038152906040527f402914f5000000000000000000000000000000000000000000000000000000007bffffffffffffffffffffffffffffffffffffffffffffffffffffffff19166020820180517bffffffffffffffffffffffffffffffffffffffffffffffffffffffff8381831617835250505050604051610b739190613941565b5f60405180830381855afa9150503d805f8114610bab576040519150601f19603f3d011682016040523d82523d5f602084013e610bb0565b606091505b50915091508115610bd25780806020019051810190610bcf91906138d2565b92505b838386610bdf9190613984565b10610c0757838386610bf19190613984565b610bfb91906139b7565b95505050505050610c10565b5f955050505050505b90565b60135481565b606060048054610c2890613a17565b80601f0160208091040260200160405190810160405280929190818152602001828054610c5490613a17565b8015610c9f5780601f10610c7657610100808354040283529160200191610c9f565b820191905f5260205f20905b815481529060010190602001808311610c8257829003601f168201915b5050505050905090565b5f610cb4825f612338565b9050919050565b5f5f610cc5612390565b9050610cd2818585612397565b600191505092915050565b5f610ce98260016123a9565b9050919050565b610cf8612401565b610d0b610d03611961565b333084612488565b5f610d158261194a565b905080600a5f828254610d289190613984565b925050819055507ff6b55bab6d7e270c7d22c26e35d0aac12c5c55ec34526cf4e7fff7015bbdf56282604051610d5e91906134e9565b60405180910390a17f49b15d0536554a8fbc082a1fab1f1f7fe05e6f13f44b3c05dac82f103257d6c842610d90610a0c565b610d98610db3565b604051610da793929190613a47565b60405180910390a15050565b5f600354905090565b5f610dc56122f8565b610dce82611b35565b905042600e5f8473ffffffffffffffffffffffffffffffffffffffff1673ffffffffffffffffffffffffffffffffffffffff1681526020019081526020015f206001018190555080600b5f828254610e269190613984565b92505081905550610e3f610e38611961565b838361250a565b8173ffffffffffffffffffffffffffffffffffffffff167fbb838a6261ee73aa6c6e5ffe262e016e3032e03406b6f3233d523874a2d1bfd582604051610e8591906134e9565b60405180910390a27f49b15d0536554a8fbc082a1fab1f1f7fe05e6f13f44b3c05dac82f103257d6c842610eb7610a0c565b610ebf610db3565b604051610ece93929190613a47565b60405180910390a1919050565b60125481565b610ee9612401565b5f610ef38261194a565b90505f600e5f8573ffffffffffffffffffffffffffffffffffffffff1673ffffffffffffffffffffffffffffffffffffffff1681526020019081526020015f205f0154905060075f9054906101000a900473ffffffffffffffffffffffffffffffffffffffff1673ffffffffffffffffffffffffffffffffffffffff168473ffffffffffffffffffffffffffffffffffffffff1603610fc7576040517f08c379a0000000000000000000000000000000000000000000000000000000008152600401610fbe90613ac6565b60405180910390fd5b5f600f5f8673ffffffffffffffffffffffffffffffffffffffff1673ffffffffffffffffffffffffffffffffffffffff1681526020019081526020015f206001015414611049576040517f08c379a000000000000000000000000000000000000000000000000000000000815260040161104090613b2e565b60405180910390fd5b80820361108b576040517f08c379a000000000000000000000000000000000000000000000000000000000815260040161108290613b96565b60405180910390fd5b7f7fffffffffffffffffffffffffffffffffffffffffffffffffffffffffffffff8211156110ee576040517f08c379a00000000000000000000000000000000000000000000000000000000081526004016110e590613bfe565b60405180910390fd5b5f81836110fb9190613c1c565b90505f8160095461110c9190613c5c565b90505f600a60085461111e9190613cca565b905080821261120a57806009541261119b57600a54831315611175576040517f08c379a000000000000000000000000000000000000000000000000000000000815260040161116c90613d44565b60405180910390fd5b5f8313156111965782600a5f82825461118e91906139b7565b925050819055505b611209565b5f81836111a891906139b7565b9050600a548111156111ef576040517f08c379a00000000000000000000000000000000000000000000000000000000081526004016111e690613d44565b60405180910390fd5b80600a5f82825461120091906139b7565b92505081905550505b5b8160098190555062015180426112209190613984565b600f5f8973ffffffffffffffffffffffffffffffffffffffff1673ffffffffffffffffffffffffffffffffffffffff1681526020019081526020015f206001018190555084600f5f8973ffffffffffffffffffffffffffffffffffffffff1673ffffffffffffffffffffffffffffffffffffffff1681526020019081526020015f205f01819055508673ffffffffffffffffffffffffffffffffffffffff167f64144ae9d460c32cc32e8f5dc77d40fbae4600c5575bcb07d755d2a2a4046d7f600f5f8a73ffffffffffffffffffffffffffffffffffffffff1673ffffffffffffffffffffffffffffffffffffffff1681526020019081526020015f206001015461132a87612100565b8960405161133a93929190613a47565b60405180910390a250505050505050565b5f5f611355612390565b9050611362858285612589565b61136d85858561261b565b60019150509392505050565b5f61138261270b565b7f00000000000000000000000000000000000000000000000000000000000000006113ad9190613d62565b905090565b5f600f5f8373ffffffffffffffffffffffffffffffffffffffff1673ffffffffffffffffffffffffffffffffffffffff1681526020019081526020015f206001015403611434576040517f08c379a000000000000000000000000000000000000000000000000000000000815260040161142b90613de0565b60405180910390fd5b42600f5f8373ffffffffffffffffffffffffffffffffffffffff1673ffffffffffffffffffffffffffffffffffffffff1681526020019081526020015f206001015411156114b7576040517f08c379a00000000000000000000000000000000000000000000000000000000081526004016114ae90613e48565b60405180910390fd5b6114c081610dbc565b505f600e5f8373ffffffffffffffffffffffffffffffffffffffff1673ffffffffffffffffffffffffffffffffffffffff1681526020019081526020015f205f01540361158f5760065f9054906101000a900473ffffffffffffffffffffffffffffffffffffffff1673ffffffffffffffffffffffffffffffffffffffff16638cecfb0f826040518263ffffffff1660e01b81526004016115619190613781565b5f604051808303815f87803b158015611578575f5ffd5b505af115801561158a573d5f5f3e3d5ffd5b505050505b5f600f5f8373ffffffffffffffffffffffffffffffffffffffff1673ffffffffffffffffffffffffffffffffffffffff1681526020019081526020015f205f01540361165d5760065f9054906101000a900473ffffffffffffffffffffffffffffffffffffffff1673ffffffffffffffffffffffffffffffffffffffff16635d11e38d826040518263ffffffff1660e01b815260040161162f9190613781565b5f604051808303815f87803b158015611646575f5ffd5b505af1158015611658573d5f5f3e3d5ffd5b505050505b600f5f8273ffffffffffffffffffffffffffffffffffffffff1673ffffffffffffffffffffffffffffffffffffffff1681526020019081526020015f205f0154600e5f8373ffffffffffffffffffffffffffffffffffffffff1673ffffffffffffffffffffffffffffffffffffffff1681526020019081526020015f205f01546008546116ea91906139b7565b6116f49190613984565b600881905550600e5f8273ffffffffffffffffffffffffffffffffffffffff1673ffffffffffffffffffffffffffffffffffffffff1681526020019081526020015f205f0154600f5f8373ffffffffffffffffffffffffffffffffffffffff1673ffffffffffffffffffffffffffffffffffffffff1681526020019081526020015f205f01546009546117879190613c1c565b6117919190613c5c565b600981905550600f5f8273ffffffffffffffffffffffffffffffffffffffff1673ffffffffffffffffffffffffffffffffffffffff1681526020019081526020015f205f0154600e5f8373ffffffffffffffffffffffffffffffffffffffff1673ffffffffffffffffffffffffffffffffffffffff1681526020019081526020015f205f0181905550600f5f8273ffffffffffffffffffffffffffffffffffffffff1673ffffffffffffffffffffffffffffffffffffffff1681526020019081526020015f205f5f82015f9055600182015f905550508073ffffffffffffffffffffffffffffffffffffffff167f9668d0b1dff55cebfe2e208f5feb38be63a65f650e3ec79f1e0bb98a883538db6118e7600e5f8573ffffffffffffffffffffffffffffffffffffffff1673ffffffffffffffffffffffffffffffffffffffff1681526020019081526020015f205f0154612100565b426040516118f69291906137d8565b60405180910390a27f49b15d0536554a8fbc082a1fab1f1f7fe05e6f13f44b3c05dac82f103257d6c842611928610a0c565b611930610db3565b60405161193f93929190613a47565b60405180910390a150565b5f61195a82600162278d00612713565b9050919050565b5f7f0000000000000000000000000000000000000000000000000000000000000000905090565b60085481565b5f6119bb61199a610db3565b6119ab601254601354612710612713565b6119b591906139b7565b5f612338565b9050919050565b5f600b546119ce61220f565b6119d891906139b7565b905090565b5f6119e8825f612338565b9050919050565b5f6119f8611c6d565b611a0283836127f8565b905092915050565b5f60015f8373ffffffffffffffffffffffffffffffffffffffff1673ffffffffffffffffffffffffffffffffffffffff1681526020019081526020015f20549050919050565b611a58612401565b611a615f612878565b565b5f5f5f9054906101000a900473ffffffffffffffffffffffffffffffffffffffff16905090565b5f611a93611c6d565b611a9d8383612939565b905092915050565b606060058054611ab490613a17565b80601f0160208091040260200160405190810160405280929190818152602001828054611ae090613a17565b8015611b2b5780601f10611b0257610100808354040283529160200191611b2b565b820191905f5260205f20905b815481529060010190602001808311611b0e57829003601f168201915b5050505050905090565b5f5f600e5f8473ffffffffffffffffffffffffffffffffffffffff1673ffffffffffffffffffffffffffffffffffffffff1681526020019081526020015f206001015442611b8391906139b7565b9050611bd0600e5f8573ffffffffffffffffffffffffffffffffffffffff1673ffffffffffffffffffffffffffffffffffffffff1681526020019081526020015f205f0154826001612713565b915050919050565b5f5f611be2612390565b9050611bef81858561261b565b600191505092915050565b600f602052805f5260405f205f91509050805f0154908060010154905082565b5f611c26826001612338565b9050919050565b5f611c36611c6d565b611c418484846129b9565b90509392505050565b5f611c53611c6d565b611c5e848484612a3b565b90509392505050565b60095481565b5f60075f9054906101000a900473ffffffffffffffffffffffffffffffffffffffff1673ffffffffffffffffffffffffffffffffffffffff1630604051602401611cb79190613781565b6040516020818303038152906040527f1e83409a000000000000000000000000000000000000000000000000000000007bffffffffffffffffffffffffffffffffffffffffffffffffffffffff19166020820180517bffffffffffffffffffffffffffffffffffffffffffffffffffffffff8381831617835250505050604051611d419190613941565b5f604051808303815f865af19150503d805f8114611d7a576040519150601f19603f3d011682016040523d82523d5f602084013e611d7f565b606091505b505090507f49b15d0536554a8fbc082a1fab1f1f7fe05e6f13f44b3c05dac82f103257d6c842611dad610a0c565b611db5610db3565b604051611dc493929190613a47565b60405180910390a150565b611dd7612401565b600160105f6101000a81548160ff0219169083151502179055507f6a5afb95497bfd913ced90018d9ce3aadefa8842c2969b3da15ac9775e3fbceb42604051611e2091906134e9565b60405180910390a1565b600a5481565b5f611e39610db3565b611e4a601254601354612710612713565b611e5491906139b7565b9050919050565b5f611e66825f6123a9565b9050919050565b5f60065f9054906101000a900473ffffffffffffffffffffffffffffffffffffffff1673ffffffffffffffffffffffffffffffffffffffff16638342b22b306040518263ffffffff1660e01b8152600401611ec89190613781565b5f60405180830381865afa158015611ee2573d5f5f3e3d5ffd5b505050506040513d5f823e3d601f19601f82011682018060405250810190611f0a9190613fba565b90505f5f90505b8151811015612037575f828281518110611f2e57611f2d614001565b5b602002602001015173ffffffffffffffffffffffffffffffffffffffff1630604051602401611f5d9190613781565b6040516020818303038152906040527f1e83409a000000000000000000000000000000000000000000000000000000007bffffffffffffffffffffffffffffffffffffffffffffffffffffffff19166020820180517bffffffffffffffffffffffffffffffffffffffffffffffffffffffff8381831617835250505050604051611fe79190613941565b5f604051808303815f865af19150503d805f8114612020576040519150601f19603f3d011682016040523d82523d5f602084013e612025565b606091505b50509050508080600101915050611f11565b507f49b15d0536554a8fbc082a1fab1f1f7fe05e6f13f44b3c05dac82f103257d6c842612062610a0c565b61206a610db3565b60405161207993929190613a47565b60405180910390a150565b5f5f612097601254612710601354612713565b90506120a283611a0a565b816120ab610db3565b6120b591906139b7565b11156120d5576120cd6120c784611a0a565b5f612338565b9150506120f5565b6120f1816120e1610db3565b6120eb91906139b7565b5f612338565b9150505b919050565b60115481565b5f6121108262278d006001612713565b9050919050565b5f5f61212a601254612710601354612713565b905061213583611a0a565b8161213e610db3565b61214891906139b7565b111561215f5761215783611a0a565b915050612176565b80612168610db3565b61217291906139b7565b9150505b919050565b60105f9054906101000a900460ff1681565b5f60025f8473ffffffffffffffffffffffffffffffffffffffff1673ffffffffffffffffffffffffffffffffffffffff1681526020019081526020015f205f8373ffffffffffffffffffffffffffffffffffffffff1673ffffffffffffffffffffffffffffffffffffffff1681526020019081526020015f2054905092915050565b5f5f600d544261221f91906139b7565b905061222f600854826001612713565b600c5461223c9190613984565b91505090565b5f61224d825f6123a9565b9050919050565b600e602052805f5260405f205f91509050805f0154908060010154905082565b61227c612401565b5f73ffffffffffffffffffffffffffffffffffffffff168173ffffffffffffffffffffffffffffffffffffffff16036122ec575f6040517f1e4fbdf70000000000000000000000000000000000000000000000000000000081526004016122e39190613781565b60405180910390fd5b6122f581612878565b50565b5f600d544261230791906139b7565b9050612317600854826001612713565b600c5f8282546123279190613984565b9250508190555042600d8190555050565b5f6123886001612346610a0c565b6123509190613984565b61235861270b565b600a612364919061415d565b61236c610db3565b6123769190613984565b8486612abd909392919063ffffffff16565b905092915050565b5f33905090565b6123a48383836001612b0a565b505050565b5f6123f96123b561270b565b600a6123c1919061415d565b6123c9610db3565b6123d39190613984565b60016123dd610a0c565b6123e79190613984565b8486612abd909392919063ffffffff16565b905092915050565b612409612390565b73ffffffffffffffffffffffffffffffffffffffff16612427611a63565b73ffffffffffffffffffffffffffffffffffffffff16146124865761244a612390565b6040517f118cdaa700000000000000000000000000000000000000000000000000000000815260040161247d9190613781565b60405180910390fd5b565b612504848573ffffffffffffffffffffffffffffffffffffffff166323b872dd8686866040516024016124bd939291906141a7565b604051602081830303815290604052915060e01b6020820180517bffffffffffffffffffffffffffffffffffffffffffffffffffffffff8381831617835250505050612cd9565b50505050565b612584838473ffffffffffffffffffffffffffffffffffffffff1663a9059cbb858560405160240161253d9291906141dc565b604051602081830303815290604052915060e01b6020820180517bffffffffffffffffffffffffffffffffffffffffffffffffffffffff8381831617835250505050612cd9565b505050565b5f612594848461218d565b90507fffffffffffffffffffffffffffffffffffffffffffffffffffffffffffffffff81146126155781811015612606578281836040517ffb8f41b20000000000000000000000000000000000000000000000000000000081526004016125fd93929190614203565b60405180910390fd5b61261484848484035f612b0a565b5b50505050565b5f73ffffffffffffffffffffffffffffffffffffffff168373ffffffffffffffffffffffffffffffffffffffff160361268b575f6040517f96c6fd1e0000000000000000000000000000000000000000000000000000000081526004016126829190613781565b60405180910390fd5b5f73ffffffffffffffffffffffffffffffffffffffff168273ffffffffffffffffffffffffffffffffffffffff16036126fb575f6040517fec442f050000000000000000000000000000000000000000000000000000000081526004016126f29190613781565b60405180910390fd5b612706838383612d74565b505050565b5f6008905090565b5f5f83850290505f5f19858709828110838203039150505f810361274b5783828161274157612740613c9d565b5b04925050506127f1565b80841161276a576127696127645f861460126011612f90565b612fa9565b5b5f8486880990508281118203915080830392505f855f038616905080860495508084049350600181825f0304019050808302841793505f600287600302189050808702600203810290508087026002038102905080870260020381029050808702600203810290508087026002038102905080870260020381029050808502955050505050505b9392505050565b5f5f6128038361198e565b90508084111561284e578284826040517f79012fb200000000000000000000000000000000000000000000000000000000815260040161284593929190614203565b60405180910390fd5b5f61285885612242565b905061286d612865612390565b858784612fba565b809250505092915050565b5f5f5f9054906101000a900473ffffffffffffffffffffffffffffffffffffffff169050815f5f6101000a81548173ffffffffffffffffffffffffffffffffffffffff021916908373ffffffffffffffffffffffffffffffffffffffff1602179055508173ffffffffffffffffffffffffffffffffffffffff168173ffffffffffffffffffffffffffffffffffffffff167f8be0079c531659141344cd1fd0a4f28419497f9722a3daafe3b4186f6b6457e060405160405180910390a35050565b5f5f61294483611e30565b90508084111561298f578284826040517f284ff66700000000000000000000000000000000000000000000000000000000815260040161298693929190614203565b60405180910390fd5b5f61299985611c1a565b90506129ae6129a6612390565b858388612fba565b809250505092915050565b5f5f6129c483612084565b905080851115612a0f578285826040517ffe9cceec000000000000000000000000000000000000000000000000000000008152600401612a0693929190614203565b60405180910390fd5b5f612a1986610cdd565b9050612a2f612a26612390565b86868985613086565b80925050509392505050565b5f5f612a4683612117565b905080851115612a91578285826040517fb94abeec000000000000000000000000000000000000000000000000000000008152600401612a8893929190614203565b60405180910390fd5b5f612a9b866119dd565b9050612ab1612aa8612390565b8686848a613086565b80925050509392505050565b5f612aeb612aca83613154565b8015612ae657505f8480612ae157612ae0613c9d565b5b868809115b613181565b612af6868686612713565b612b009190613984565b9050949350505050565b5f73ffffffffffffffffffffffffffffffffffffffff168473ffffffffffffffffffffffffffffffffffffffff1603612b7a575f6040517fe602df05000000000000000000000000000000000000000000000000000000008152600401612b719190613781565b60405180910390fd5b5f73ffffffffffffffffffffffffffffffffffffffff168373ffffffffffffffffffffffffffffffffffffffff1603612bea575f6040517f94280d62000000000000000000000000000000000000000000000000000000008152600401612be19190613781565b60405180910390fd5b8160025f8673ffffffffffffffffffffffffffffffffffffffff1673ffffffffffffffffffffffffffffffffffffffff1681526020019081526020015f205f8573ffffffffffffffffffffffffffffffffffffffff1673ffffffffffffffffffffffffffffffffffffffff1681526020019081526020015f20819055508015612cd3578273ffffffffffffffffffffffffffffffffffffffff168473ffffffffffffffffffffffffffffffffffffffff167f8c5be1e5ebec7d5bd14f71427d1e84f3dd0314c0f7b2291e5b200ac8c7c3b92584604051612cca91906134e9565b60405180910390a35b50505050565b5f5f60205f8451602086015f885af180612cf8576040513d5f823e3d81fd5b3d92505f519150505f8214612d11576001811415612d2c565b5f8473ffffffffffffffffffffffffffffffffffffffff163b145b15612d6e57836040517f5274afe7000000000000000000000000000000000000000000000000000000008152600401612d659190613781565b60405180910390fd5b50505050565b5f73ffffffffffffffffffffffffffffffffffffffff168373ffffffffffffffffffffffffffffffffffffffff1603612dc4578060035f828254612db89190613984565b92505081905550612e94565b5f60015f8573ffffffffffffffffffffffffffffffffffffffff1673ffffffffffffffffffffffffffffffffffffffff1681526020019081526020015f2054905081811015612e4e578381836040517fe450d38c000000000000000000000000000000000000000000000000000000008152600401612e4593929190614203565b60405180910390fd5b81810360015f8673ffffffffffffffffffffffffffffffffffffffff1673ffffffffffffffffffffffffffffffffffffffff1681526020019081526020015f2081905550505b5f73ffffffffffffffffffffffffffffffffffffffff168273ffffffffffffffffffffffffffffffffffffffff1603612edb578060035f8282540392505081905550612f26565b8060015f8473ffffffffffffffffffffffffffffffffffffffff1673ffffffffffffffffffffffffffffffffffffffff1681526020019081526020015f205f82825401925050819055505b8173ffffffffffffffffffffffffffffffffffffffff168373ffffffffffffffffffffffffffffffffffffffff167fddf252ad1be2c89b69c2b068fc378daa952ba7f163c4a11628f55a4df523b3ef83604051612f8391906134e9565b60405180910390a3505050565b5f612f9a84613181565b82841802821890509392505050565b634e487b715f52806020526024601cfd5b60105f9054906101000a900460ff16613008576040517f08c379a0000000000000000000000000000000000000000000000000000000008152600401612fff90614282565b60405180910390fd5b61302381613014610db3565b61301e9190613984565b61318c565b61302b613208565b61303784848484613237565b7f49b15d0536554a8fbc082a1fab1f1f7fe05e6f13f44b3c05dac82f103257d6c842613061610a0c565b613069610db3565b60405161307893929190613a47565b60405180910390a150505050565b60105f9054906101000a900460ff166130d4576040517f08c379a00000000000000000000000000000000000000000000000000000000081526004016130cb90614282565b60405180910390fd5b6130ef816130e0610db3565b6130ea91906139b7565b61318c565b6130f7613208565b61310485858585856132da565b7f49b15d0536554a8fbc082a1fab1f1f7fe05e6f13f44b3c05dac82f103257d6c84261312e610a0c565b613136610db3565b60405161314593929190613a47565b60405180910390a15050505050565b5f6001600283600381111561316c5761316b6142a0565b5b61317691906142cd565b60ff16149050919050565b5f8115159050919050565b5f61319e601254612710601354612713565b90505f6131b2601254601354612710612713565b90508183101580156131c45750808311155b613203576040517f08c379a00000000000000000000000000000000000000000000000000000000081526004016131fa9061436d565b60405180910390fd5b505050565b620151806011546132199190613984565b421061323557613227610db3565b601281905550426011819055505b565b6132637f0000000000000000000000000000000000000000000000000000000000000000853085612488565b61326d83826133d3565b8273ffffffffffffffffffffffffffffffffffffffff168473ffffffffffffffffffffffffffffffffffffffff167fdcbc1c05240f31ff3ad067ef1ee35ce4997762752e3a095284754544f4c709d784846040516132cc9291906137d8565b60405180910390a350505050565b8273ffffffffffffffffffffffffffffffffffffffff168573ffffffffffffffffffffffffffffffffffffffff161461331957613318838683612589565b5b6133238382613452565b61334e7f0000000000000000000000000000000000000000000000000000000000000000858461250a565b8273ffffffffffffffffffffffffffffffffffffffff168473ffffffffffffffffffffffffffffffffffffffff168673ffffffffffffffffffffffffffffffffffffffff167ffbde797d201c681b91056529119e0b02407c7bb96a4a2c75c01fc9667232c8db85856040516133c49291906137d8565b60405180910390a45050505050565b5f73ffffffffffffffffffffffffffffffffffffffff168273ffffffffffffffffffffffffffffffffffffffff1603613443575f6040517fec442f0500000000000000000000000000000000000000000000000000000000815260040161343a9190613781565b60405180910390fd5b61344e5f8383612d74565b5050565b5f73ffffffffffffffffffffffffffffffffffffffff168273ffffffffffffffffffffffffffffffffffffffff16036134c2575f6040517f96c6fd1e0000000000000000000000000000000000000000000000000000000081526004016134b99190613781565b60405180910390fd5b6134cd825f83612d74565b5050565b5f819050919050565b6134e3816134d1565b82525050565b5f6020820190506134fc5f8301846134da565b92915050565b5f81519050919050565b5f82825260208201905092915050565b8281835e5f83830152505050565b5f601f19601f8301169050919050565b5f61354482613502565b61354e818561350c565b935061355e81856020860161351c565b6135678161352a565b840191505092915050565b5f6020820190508181035f83015261358a818461353a565b905092915050565b5f604051905090565b5f5ffd5b5f5ffd5b6135ac816134d1565b81146135b6575f5ffd5b50565b5f813590506135c7816135a3565b92915050565b5f602082840312156135e2576135e161359b565b5b5f6135ef848285016135b9565b91505092915050565b5f73ffffffffffffffffffffffffffffffffffffffff82169050919050565b5f613621826135f8565b9050919050565b61363181613617565b811461363b575f5ffd5b50565b5f8135905061364c81613628565b92915050565b5f5f604083850312156136685761366761359b565b5b5f6136758582860161363e565b9250506020613686858286016135b9565b9150509250929050565b5f8115159050919050565b6136a481613690565b82525050565b5f6020820190506136bd5f83018461369b565b92915050565b5f602082840312156136d8576136d761359b565b5b5f6136e58482850161363e565b91505092915050565b5f5f5f606084860312156137055761370461359b565b5b5f6137128682870161363e565b93505060206137238682870161363e565b9250506040613734868287016135b9565b9150509250925092565b5f60ff82169050919050565b6137538161373e565b82525050565b5f60208201905061376c5f83018461374a565b92915050565b61377b81613617565b82525050565b5f6020820190506137945f830184613772565b92915050565b5f5f604083850312156137b0576137af61359b565b5b5f6137bd858286016135b9565b92505060206137ce8582860161363e565b9150509250929050565b5f6040820190506137eb5f8301856134da565b6137f860208301846134da565b9392505050565b5f5f5f606084860312156138165761381561359b565b5b5f613823868287016135b9565b93505060206138348682870161363e565b92505060406138458682870161363e565b9150509250925092565b5f819050919050565b6138618161384f565b82525050565b5f60208201905061387a5f830184613858565b92915050565b5f5f604083850312156138965761389561359b565b5b5f6138a38582860161363e565b92505060206138b48582860161363e565b9150509250929050565b5f815190506138cc816135a3565b92915050565b5f602082840312156138e7576138e661359b565b5b5f6138f4848285016138be565b91505092915050565b5f81519050919050565b5f81905092915050565b5f61391b826138fd565b6139258185613907565b935061393581856020860161351c565b80840191505092915050565b5f61394c8284613911565b915081905092915050565b7f4e487b71000000000000000000000000000000000000000000000000000000005f52601160045260245ffd5b5f61398e826134d1565b9150613999836134d1565b92508282019050808211156139b1576139b0613957565b5b92915050565b5f6139c1826134d1565b91506139cc836134d1565b92508282039050818111156139e4576139e3613957565b5b92915050565b7f4e487b71000000000000000000000000000000000000000000000000000000005f52602260045260245ffd5b5f6002820490506001821680613a2e57607f821691505b602082108103613a4157613a406139ea565b5b50919050565b5f606082019050613a5a5f8301866134da565b613a6760208301856134da565b613a7460408301846134da565b949350505050565b7f63616e206e6f742072656c6561736520746f20636f6d70616e790000000000005f82015250565b5f613ab0601a8361350c565b9150613abb82613a7c565b602082019050919050565b5f6020820190508181035f830152613add81613aa4565b9050919050565b7f73616c6172792069732077616974696e672075706461746500000000000000005f82015250565b5f613b1860188361350c565b9150613b2382613ae4565b602082019050919050565b5f6020820190508181035f830152613b4581613b0c565b9050919050565b7f73616c61727920697320657175616c20746f206f6c64206f6e650000000000005f82015250565b5f613b80601a8361350c565b9150613b8b82613b4c565b602082019050919050565b5f6020820190508181035f830152613bad81613b74565b9050919050565b7f56616c7565206578636565647320696e74323536206d61782072616e676500005f82015250565b5f613be8601e8361350c565b9150613bf382613bb4565b602082019050919050565b5f6020820190508181035f830152613c1581613bdc565b9050919050565b5f613c268261384f565b9150613c318361384f565b925082820390508181125f8412168282135f851215161715613c5657613c55613957565b5b92915050565b5f613c668261384f565b9150613c718361384f565b92508282019050828112155f8312168382125f841215161715613c9757613c96613957565b5b92915050565b7f4e487b71000000000000000000000000000000000000000000000000000000005f52601260045260245ffd5b5f613cd4826134d1565b9150613cdf836134d1565b925082613cef57613cee613c9d565b5b828204905092915050565b7f73616c61727920697320746f6f206869676800000000000000000000000000005f82015250565b5f613d2e60128361350c565b9150613d3982613cfa565b602082019050919050565b5f6020820190508181035f830152613d5b81613d22565b9050919050565b5f613d6c8261373e565b9150613d778361373e565b9250828201905060ff811115613d9057613d8f613957565b5b92915050565b7f6e6f7468696e67206e65656420757064617465000000000000000000000000005f82015250565b5f613dca60138361350c565b9150613dd582613d96565b602082019050919050565b5f6020820190508181035f830152613df781613dbe565b9050919050565b7f4e6f742074696d6520666f7220757064617465207965740000000000000000005f82015250565b5f613e3260178361350c565b9150613e3d82613dfe565b602082019050919050565b5f6020820190508181035f830152613e5f81613e26565b9050919050565b5f5ffd5b7f4e487b71000000000000000000000000000000000000000000000000000000005f52604160045260245ffd5b613ea08261352a565b810181811067ffffffffffffffff82111715613ebf57613ebe613e6a565b5b80604052505050565b5f613ed1613592565b9050613edd8282613e97565b919050565b5f67ffffffffffffffff821115613efc57613efb613e6a565b5b602082029050602081019050919050565b5f5ffd5b5f81519050613f1f81613628565b92915050565b5f613f37613f3284613ee2565b613ec8565b90508083825260208201905060208402830185811115613f5a57613f59613f0d565b5b835b81811015613f835780613f6f8882613f11565b845260208401935050602081019050613f5c565b5050509392505050565b5f82601f830112613fa157613fa0613e66565b5b8151613fb1848260208601613f25565b91505092915050565b5f60208284031215613fcf57613fce61359b565b5b5f82015167ffffffffffffffff811115613fec57613feb61359f565b5b613ff884828501613f8d565b91505092915050565b7f4e487b71000000000000000000000000000000000000000000000000000000005f52603260045260245ffd5b5f8160011c9050919050565b5f5f8291508390505b60018511156140835780860481111561405f5761405e613957565b5b600185161561406e5780820291505b808102905061407c8561402e565b9450614043565b94509492505050565b5f8261409b5760019050614156565b816140a8575f9050614156565b81600181146140be57600281146140c8576140f7565b6001915050614156565b60ff8411156140da576140d9613957565b5b8360020a9150848211156140f1576140f0613957565b5b50614156565b5060208310610133831016604e8410600b841016171561412c5782820a90508381111561412757614126613957565b5b614156565b614139848484600161403a565b925090508184048111156141505761414f613957565b5b81810290505b9392505050565b5f614167826134d1565b91506141728361373e565b925061419f7fffffffffffffffffffffffffffffffffffffffffffffffffffffffffffffffff848461408c565b905092915050565b5f6060820190506141ba5f830186613772565b6141c76020830185613772565b6141d460408301846134da565b949350505050565b5f6040820190506141ef5f830185613772565b6141fc60208301846134da565b9392505050565b5f6060820190506142165f830186613772565b61422360208301856134da565b61423060408301846134da565b949350505050565b7f6e6f74207075626c6963000000000000000000000000000000000000000000005f82015250565b5f61426c600a8361350c565b915061427782614238565b602082019050919050565b5f6020820190508181035f83015261429981614260565b9050919050565b7f4e487b71000000000000000000000000000000000000000000000000000000005f52602160045260245ffd5b5f6142d78261373e565b91506142e28361373e565b9250826142f2576142f1613c9d565b5b828206905092915050565b7f546f74616c53686172657320646576696174696f6e20657863656564732031305f8201527f2500000000000000000000000000000000000000000000000000000000000000602082015250565b5f61435760218361350c565b9150614362826142fd565b604082019050919050565b5f6020820190508181035f8301526143848161434b565b905091905056fea2646970667358221220631134939de4c453e7cec592fef6cdee402bef19f7295f685b310c5b5bcb1ac864736f6c634300081c0033",
			"opcodes": "PUSH1 0xC0 PUSH1 0x40 MSTORE PUSH0 PUSH1 0x10 PUSH0 PUSH2 0x100 EXP DUP2 SLOAD DUP2 PUSH1 0xFF MUL NOT AND SWAP1 DUP4 ISZERO ISZERO MUL OR SWAP1 SSTORE POP PUSH2 0x2AF8 PUSH1 0x13 SSTORE CALLVALUE DUP1 ISZERO PUSH2 0x2E JUMPI PUSH0 PUSH0 REVERT JUMPDEST POP PUSH1 0x40 MLOAD PUSH2 0x5942 CODESIZE SUB DUP1 PUSH2 0x5942 DUP4 CODECOPY DUP2 DUP2 ADD PUSH1 0x40 MSTORE DUP2 ADD SWAP1 PUSH2 0x50 SWAP2 SWAP1 PUSH2 0xDEF JUMP JUMPDEST DUP7 DUP7 DUP7 DUP7 DUP7 DUP7 DUP7 DUP4 DUP3 DUP3 DUP9 PUSH0 PUSH20 0xFFFFFFFFFFFFFFFFFFFFFFFFFFFFFFFFFFFFFFFF AND DUP2 PUSH20 0xFFFFFFFFFFFFFFFFFFFFFFFFFFFFFFFFFFFFFFFF AND SUB PUSH2 0xCB JUMPI PUSH0 PUSH1 0x40 MLOAD PUSH32 0x1E4FBDF700000000000000000000000000000000000000000000000000000000 DUP2 MSTORE PUSH1 0x4 ADD PUSH2 0xC2 SWAP2 SWAP1 PUSH2 0xED3 JUMP JUMPDEST PUSH1 0x40 MLOAD DUP1 SWAP2 SUB SWAP1 REVERT JUMPDEST PUSH2 0xDA DUP2 PUSH2 0x37E PUSH1 0x20 SHL PUSH1 0x20 SHR JUMP JUMPDEST POP DUP2 PUSH1 0x4 SWAP1 DUP2 PUSH2 0xEA SWAP2 SWAP1 PUSH2 0x10F3 JUMP JUMPDEST POP DUP1 PUSH1 0x5 SWAP1 DUP2 PUSH2 0xFA SWAP2 SWAP1 PUSH2 0x10F3 JUMP JUMPDEST POP POP POP PUSH0 PUSH0 PUSH2 0x10E DUP4 PUSH2 0x43F PUSH1 0x20 SHL PUSH1 0x20 SHR JUMP JUMPDEST SWAP2 POP SWAP2 POP DUP2 PUSH2 0x11E JUMPI PUSH1 0x12 PUSH2 0x120 JUMP JUMPDEST DUP1 JUMPDEST PUSH1 0xFF AND PUSH1 0xA0 DUP2 PUSH1 0xFF AND DUP2 MSTORE POP POP DUP3 PUSH20 0xFFFFFFFFFFFFFFFFFFFFFFFFFFFFFFFFFFFFFFFF AND PUSH1 0x80 DUP2 PUSH20 0xFFFFFFFFFFFFFFFFFFFFFFFFFFFFFFFFFFFFFFFF AND DUP2 MSTORE POP POP POP POP POP DUP7 PUSH1 0x6 PUSH0 PUSH2 0x100 EXP DUP2 SLOAD DUP2 PUSH20 0xFFFFFFFFFFFFFFFFFFFFFFFFFFFFFFFFFFFFFFFF MUL NOT AND SWAP1 DUP4 PUSH20 0xFFFFFFFFFFFFFFFFFFFFFFFFFFFFFFFFFFFFFFFF AND MUL OR SWAP1 SSTORE POP DUP3 PUSH1 0x7 PUSH0 PUSH2 0x100 EXP DUP2 SLOAD DUP2 PUSH20 0xFFFFFFFFFFFFFFFFFFFFFFFFFFFFFFFFFFFFFFFF MUL NOT AND SWAP1 DUP4 PUSH20 0xFFFFFFFFFFFFFFFFFFFFFFFFFFFFFFFFFFFFFFFF AND MUL OR SWAP1 SSTORE POP PUSH0 PUSH2 0x1F4 DUP7 PUSH2 0x548 PUSH1 0x20 SHL PUSH1 0x20 SHR JUMP JUMPDEST SWAP1 POP DUP1 PUSH1 0xE PUSH0 DUP10 PUSH20 0xFFFFFFFFFFFFFFFFFFFFFFFFFFFFFFFFFFFFFFFF AND PUSH20 0xFFFFFFFFFFFFFFFFFFFFFFFFFFFFFFFFFFFFFFFF AND DUP2 MSTORE PUSH1 0x20 ADD SWAP1 DUP2 MSTORE PUSH1 0x20 ADD PUSH0 KECCAK256 PUSH0 ADD DUP2 SWAP1 SSTORE POP TIMESTAMP PUSH1 0xE PUSH0 DUP10 PUSH20 0xFFFFFFFFFFFFFFFFFFFFFFFFFFFFFFFFFFFFFFFF AND PUSH20 0xFFFFFFFFFFFFFFFFFFFFFFFFFFFFFFFFFFFFFFFF AND DUP2 MSTORE PUSH1 0x20 ADD SWAP1 DUP2 MSTORE PUSH1 0x20 ADD PUSH0 KECCAK256 PUSH1 0x1 ADD DUP2 SWAP1 SSTORE POP TIMESTAMP PUSH1 0xD DUP2 SWAP1 SSTORE POP DUP1 PUSH1 0x8 DUP2 SWAP1 SSTORE POP DUP1 PUSH1 0xF PUSH0 DUP10 PUSH20 0xFFFFFFFFFFFFFFFFFFFFFFFFFFFFFFFFFFFFFFFF AND PUSH20 0xFFFFFFFFFFFFFFFFFFFFFFFFFFFFFFFFFFFFFFFF AND DUP2 MSTORE PUSH1 0x20 ADD SWAP1 DUP2 MSTORE PUSH1 0x20 ADD PUSH0 KECCAK256 PUSH0 ADD DUP2 SWAP1 SSTORE POP PUSH2 0x2FA DUP8 PUSH2 0x2E3 PUSH2 0x565 PUSH1 0x20 SHL PUSH1 0x20 SHR JUMP JUMPDEST PUSH1 0xA PUSH2 0x2EF SWAP2 SWAP1 PUSH2 0x132A JUMP JUMPDEST PUSH2 0x586 PUSH1 0x20 SHL PUSH1 0x20 SHR JUMP JUMPDEST PUSH32 0x49B15D0536554A8FBC082A1FAB1F1F7FE05E6F13F44B3C05DAC82F103257D6C8 TIMESTAMP PUSH2 0x32A PUSH2 0x60B PUSH1 0x20 SHL PUSH1 0x20 SHR JUMP JUMPDEST PUSH2 0x338 PUSH2 0x81E PUSH1 0x20 SHL PUSH1 0x20 SHR JUMP JUMPDEST PUSH1 0x40 MLOAD PUSH2 0x347 SWAP4 SWAP3 SWAP2 SWAP1 PUSH2 0x1383 JUMP JUMPDEST PUSH1 0x40 MLOAD DUP1 SWAP2 SUB SWAP1 LOG1 POP POP POP POP POP POP POP POP TIMESTAMP PUSH1 0x11 DUP2 SWAP1 SSTORE POP PUSH2 0x36C PUSH2 0x81E PUSH1 0x20 SHL PUSH1 0x20 SHR JUMP JUMPDEST PUSH1 0x12 DUP2 SWAP1 SSTORE POP POP POP POP POP POP POP POP PUSH2 0x1552 JUMP JUMPDEST PUSH0 PUSH0 PUSH0 SWAP1 SLOAD SWAP1 PUSH2 0x100 EXP SWAP1 DIV PUSH20 0xFFFFFFFFFFFFFFFFFFFFFFFFFFFFFFFFFFFFFFFF AND SWAP1 POP DUP2 PUSH0 PUSH0 PUSH2 0x100 EXP DUP2 SLOAD DUP2 PUSH20 0xFFFFFFFFFFFFFFFFFFFFFFFFFFFFFFFFFFFFFFFF MUL NOT AND SWAP1 DUP4 PUSH20 0xFFFFFFFFFFFFFFFFFFFFFFFFFFFFFFFFFFFFFFFF AND MUL OR SWAP1 SSTORE POP DUP2 PUSH20 0xFFFFFFFFFFFFFFFFFFFFFFFFFFFFFFFFFFFFFFFF AND DUP2 PUSH20 0xFFFFFFFFFFFFFFFFFFFFFFFFFFFFFFFFFFFFFFFF AND PUSH32 0x8BE0079C531659141344CD1FD0A4F28419497F9722A3DAAFE3B4186F6B6457E0 PUSH1 0x40 MLOAD PUSH1 0x40 MLOAD DUP1 SWAP2 SUB SWAP1 LOG3 POP POP JUMP JUMPDEST PUSH0 PUSH0 PUSH0 PUSH0 DUP5 PUSH20 0xFFFFFFFFFFFFFFFFFFFFFFFFFFFFFFFFFFFFFFFF AND PUSH1 0x40 MLOAD PUSH1 0x24 ADD PUSH1 0x40 MLOAD PUSH1 0x20 DUP2 DUP4 SUB SUB DUP2 MSTORE SWAP1 PUSH1 0x40 MSTORE PUSH4 0x313CE567 PUSH1 0xE0 SHL PUSH1 0x20 DUP3 ADD DUP1 MLOAD PUSH28 0xFFFFFFFFFFFFFFFFFFFFFFFFFFFFFFFFFFFFFFFFFFFFFFFFFFFFFFFF DUP4 DUP2 DUP4 AND OR DUP4 MSTORE POP POP POP POP PUSH1 0x40 MLOAD PUSH2 0x4B2 SWAP2 SWAP1 PUSH2 0x13FC JUMP JUMPDEST PUSH0 PUSH1 0x40 MLOAD DUP1 DUP4 SUB DUP2 DUP6 GAS STATICCALL SWAP2 POP POP RETURNDATASIZE DUP1 PUSH0 DUP2 EQ PUSH2 0x4EA JUMPI PUSH1 0x40 MLOAD SWAP2 POP PUSH1 0x1F NOT PUSH1 0x3F RETURNDATASIZE ADD AND DUP3 ADD PUSH1 0x40 MSTORE RETURNDATASIZE DUP3 MSTORE RETURNDATASIZE PUSH0 PUSH1 0x20 DUP5 ADD RETURNDATACOPY PUSH2 0x4EF JUMP JUMPDEST PUSH1 0x60 SWAP2 POP JUMPDEST POP SWAP2 POP SWAP2 POP DUP2 DUP1 ISZERO PUSH2 0x503 JUMPI POP PUSH1 0x20 DUP2 MLOAD LT ISZERO JUMPDEST ISZERO PUSH2 0x53A JUMPI PUSH0 DUP2 DUP1 PUSH1 0x20 ADD SWAP1 MLOAD DUP2 ADD SWAP1 PUSH2 0x51D SWAP2 SWAP1 PUSH2 0x1412 JUMP JUMPDEST SWAP1 POP PUSH1 0xFF DUP1 AND DUP2 GT PUSH2 0x538 JUMPI PUSH1 0x1 DUP2 SWAP5 POP SWAP5 POP POP POP POP PUSH2 0x543 JUMP JUMPDEST POP JUMPDEST PUSH0 PUSH0 SWAP4 POP SWAP4 POP POP POP JUMPDEST SWAP2 POP SWAP2 JUMP JUMPDEST PUSH0 PUSH2 0x55E DUP3 PUSH1 0x1 PUSH3 0x278D00 PUSH2 0x827 PUSH1 0x20 SHL PUSH1 0x20 SHR JUMP JUMPDEST SWAP1 POP SWAP2 SWAP1 POP JUMP JUMPDEST PUSH0 PUSH2 0x574 PUSH2 0x918 PUSH1 0x20 SHL PUSH1 0x20 SHR JUMP JUMPDEST PUSH1 0xA0 MLOAD PUSH2 0x581 SWAP2 SWAP1 PUSH2 0x143D JUMP JUMPDEST SWAP1 POP SWAP1 JUMP JUMPDEST PUSH0 PUSH20 0xFFFFFFFFFFFFFFFFFFFFFFFFFFFFFFFFFFFFFFFF AND DUP3 PUSH20 0xFFFFFFFFFFFFFFFFFFFFFFFFFFFFFFFFFFFFFFFF AND SUB PUSH2 0x5F6 JUMPI PUSH0 PUSH1 0x40 MLOAD PUSH32 0xEC442F0500000000000000000000000000000000000000000000000000000000 DUP2 MSTORE PUSH1 0x4 ADD PUSH2 0x5ED SWAP2 SWAP1 PUSH2 0xED3 JUMP JUMPDEST PUSH1 0x40 MLOAD DUP1 SWAP2 SUB SWAP1 REVERT JUMPDEST PUSH2 0x607 PUSH0 DUP4 DUP4 PUSH2 0x920 PUSH1 0x20 SHL PUSH1 0x20 SHR JUMP JUMPDEST POP POP JUMP JUMPDEST PUSH0 PUSH0 PUSH2 0x61B PUSH2 0xB3C PUSH1 0x20 SHL PUSH1 0x20 SHR JUMP JUMPDEST PUSH20 0xFFFFFFFFFFFFFFFFFFFFFFFFFFFFFFFFFFFFFFFF AND PUSH4 0x70A08231 ADDRESS PUSH1 0x40 MLOAD DUP3 PUSH4 0xFFFFFFFF AND PUSH1 0xE0 SHL DUP2 MSTORE PUSH1 0x4 ADD PUSH2 0x653 SWAP2 SWAP1 PUSH2 0xED3 JUMP JUMPDEST PUSH1 0x20 PUSH1 0x40 MLOAD DUP1 DUP4 SUB DUP2 DUP7 GAS STATICCALL ISZERO DUP1 ISZERO PUSH2 0x66E JUMPI RETURNDATASIZE PUSH0 PUSH0 RETURNDATACOPY RETURNDATASIZE PUSH0 REVERT JUMPDEST POP POP POP POP PUSH1 0x40 MLOAD RETURNDATASIZE PUSH1 0x1F NOT PUSH1 0x1F DUP3 ADD AND DUP3 ADD DUP1 PUSH1 0x40 MSTORE POP DUP2 ADD SWAP1 PUSH2 0x692 SWAP2 SWAP1 PUSH2 0x1412 JUMP JUMPDEST SWAP1 POP PUSH0 PUSH2 0x6A3 PUSH2 0xB45 PUSH1 0x20 SHL PUSH1 0x20 SHR JUMP JUMPDEST SWAP1 POP PUSH0 PUSH0 SWAP1 POP PUSH0 PUSH0 PUSH1 0x7 PUSH0 SWAP1 SLOAD SWAP1 PUSH2 0x100 EXP SWAP1 DIV PUSH20 0xFFFFFFFFFFFFFFFFFFFFFFFFFFFFFFFFFFFFFFFF AND PUSH20 0xFFFFFFFFFFFFFFFFFFFFFFFFFFFFFFFFFFFFFFFF AND ADDRESS PUSH1 0x40 MLOAD PUSH1 0x24 ADD PUSH2 0x6F4 SWAP2 SWAP1 PUSH2 0xED3 JUMP JUMPDEST PUSH1 0x40 MLOAD PUSH1 0x20 DUP2 DUP4 SUB SUB DUP2 MSTORE SWAP1 PUSH1 0x40 MSTORE PUSH32 0x402914F500000000000000000000000000000000000000000000000000000000 PUSH28 0xFFFFFFFFFFFFFFFFFFFFFFFFFFFFFFFFFFFFFFFFFFFFFFFFFFFFFFFF NOT AND PUSH1 0x20 DUP3 ADD DUP1 MLOAD PUSH28 0xFFFFFFFFFFFFFFFFFFFFFFFFFFFFFFFFFFFFFFFFFFFFFFFFFFFFFFFF DUP4 DUP2 DUP4 AND OR DUP4 MSTORE POP POP POP POP PUSH1 0x40 MLOAD PUSH2 0x77E SWAP2 SWAP1 PUSH2 0x13FC JUMP JUMPDEST PUSH0 PUSH1 0x40 MLOAD DUP1 DUP4 SUB DUP2 DUP6 GAS STATICCALL SWAP2 POP POP RETURNDATASIZE DUP1 PUSH0 DUP2 EQ PUSH2 0x7B6 JUMPI PUSH1 0x40 MLOAD SWAP2 POP PUSH1 0x1F NOT PUSH1 0x3F RETURNDATASIZE ADD AND DUP3 ADD PUSH1 0x40 MSTORE RETURNDATASIZE DUP3 MSTORE RETURNDATASIZE PUSH0 PUSH1 0x20 DUP5 ADD RETURNDATACOPY PUSH2 0x7BB JUMP JUMPDEST PUSH1 0x60 SWAP2 POP JUMPDEST POP SWAP2 POP SWAP2 POP DUP2 ISZERO PUSH2 0x7DD JUMPI DUP1 DUP1 PUSH1 0x20 ADD SWAP1 MLOAD DUP2 ADD SWAP1 PUSH2 0x7DA SWAP2 SWAP1 PUSH2 0x1412 JUMP JUMPDEST SWAP3 POP JUMPDEST DUP4 DUP4 DUP7 PUSH2 0x7EA SWAP2 SWAP1 PUSH2 0x1471 JUMP JUMPDEST LT PUSH2 0x812 JUMPI DUP4 DUP4 DUP7 PUSH2 0x7FC SWAP2 SWAP1 PUSH2 0x1471 JUMP JUMPDEST PUSH2 0x806 SWAP2 SWAP1 PUSH2 0x14A4 JUMP JUMPDEST SWAP6 POP POP POP POP POP POP PUSH2 0x81B JUMP JUMPDEST PUSH0 SWAP6 POP POP POP POP POP POP JUMPDEST SWAP1 JUMP JUMPDEST PUSH0 PUSH1 0x3 SLOAD SWAP1 POP SWAP1 JUMP JUMPDEST PUSH0 PUSH0 DUP4 DUP6 MUL SWAP1 POP PUSH0 PUSH0 NOT DUP6 DUP8 MULMOD DUP3 DUP2 LT DUP4 DUP3 SUB SUB SWAP2 POP POP PUSH0 DUP2 SUB PUSH2 0x85F JUMPI DUP4 DUP3 DUP2 PUSH2 0x855 JUMPI PUSH2 0x854 PUSH2 0x14D7 JUMP JUMPDEST JUMPDEST DIV SWAP3 POP POP POP PUSH2 0x911 JUMP JUMPDEST DUP1 DUP5 GT PUSH2 0x88A JUMPI PUSH2 0x889 PUSH2 0x87E PUSH0 DUP7 EQ PUSH1 0x12 PUSH1 0x11 PUSH2 0xB66 PUSH1 0x20 SHL PUSH1 0x20 SHR JUMP JUMPDEST PUSH2 0xB85 PUSH1 0x20 SHL PUSH1 0x20 SHR JUMP JUMPDEST JUMPDEST PUSH0 DUP5 DUP7 DUP9 MULMOD SWAP1 POP DUP3 DUP2 GT DUP3 SUB SWAP2 POP DUP1 DUP4 SUB SWAP3 POP PUSH0 DUP6 PUSH0 SUB DUP7 AND SWAP1 POP DUP1 DUP7 DIV SWAP6 POP DUP1 DUP5 DIV SWAP4 POP PUSH1 0x1 DUP2 DUP3 PUSH0 SUB DIV ADD SWAP1 POP DUP1 DUP4 MUL DUP5 OR SWAP4 POP PUSH0 PUSH1 0x2 DUP8 PUSH1 0x3 MUL XOR SWAP1 POP DUP1 DUP8 MUL PUSH1 0x2 SUB DUP2 MUL SWAP1 POP DUP1 DUP8 MUL PUSH1 0x2 SUB DUP2 MUL SWAP1 POP DUP1 DUP8 MUL PUSH1 0x2 SUB DUP2 MUL SWAP1 POP DUP1 DUP8 MUL PUSH1 0x2 SUB DUP2 MUL SWAP1 POP DUP1 DUP8 MUL PUSH1 0x2 SUB DUP2 MUL SWAP1 POP DUP1 DUP8 MUL PUSH1 0x2 SUB DUP2 MUL SWAP1 POP DUP1 DUP6 MUL SWAP6 POP POP POP POP POP POP JUMPDEST SWAP4 SWAP3 POP POP POP JUMP JUMPDEST PUSH0 PUSH1 0x8 SWAP1 POP SWAP1 JUMP JUMPDEST PUSH0 PUSH20 0xFFFFFFFFFFFFFFFFFFFFFFFFFFFFFFFFFFFFFFFF AND DUP4 PUSH20 0xFFFFFFFFFFFFFFFFFFFFFFFFFFFFFFFFFFFFFFFF AND SUB PUSH2 0x970 JUMPI DUP1 PUSH1 0x3 PUSH0 DUP3 DUP3 SLOAD PUSH2 0x964 SWAP2 SWAP1 PUSH2 0x1471 JUMP JUMPDEST SWAP3 POP POP DUP2 SWAP1 SSTORE POP PUSH2 0xA40 JUMP JUMPDEST PUSH0 PUSH1 0x1 PUSH0 DUP6 PUSH20 0xFFFFFFFFFFFFFFFFFFFFFFFFFFFFFFFFFFFFFFFF AND PUSH20 0xFFFFFFFFFFFFFFFFFFFFFFFFFFFFFFFFFFFFFFFF AND DUP2 MSTORE PUSH1 0x20 ADD SWAP1 DUP2 MSTORE PUSH1 0x20 ADD PUSH0 KECCAK256 SLOAD SWAP1 POP DUP2 DUP2 LT ISZERO PUSH2 0x9FA JUMPI DUP4 DUP2 DUP4 PUSH1 0x40 MLOAD PUSH32 0xE450D38C00000000000000000000000000000000000000000000000000000000 DUP2 MSTORE PUSH1 0x4 ADD PUSH2 0x9F1 SWAP4 SWAP3 SWAP2 SWAP1 PUSH2 0x1504 JUMP JUMPDEST PUSH1 0x40 MLOAD DUP1 SWAP2 SUB SWAP1 REVERT JUMPDEST DUP2 DUP2 SUB PUSH1 0x1 PUSH0 DUP7 PUSH20 0xFFFFFFFFFFFFFFFFFFFFFFFFFFFFFFFFFFFFFFFF AND PUSH20 0xFFFFFFFFFFFFFFFFFFFFFFFFFFFFFFFFFFFFFFFF AND DUP2 MSTORE PUSH1 0x20 ADD SWAP1 DUP2 MSTORE PUSH1 0x20 ADD PUSH0 KECCAK256 DUP2 SWAP1 SSTORE POP POP JUMPDEST PUSH0 PUSH20 0xFFFFFFFFFFFFFFFFFFFFFFFFFFFFFFFFFFFFFFFF AND DUP3 PUSH20 0xFFFFFFFFFFFFFFFFFFFFFFFFFFFFFFFFFFFFFFFF AND SUB PUSH2 0xA87 JUMPI DUP1 PUSH1 0x3 PUSH0 DUP3 DUP3 SLOAD SUB SWAP3 POP POP DUP2 SWAP1 SSTORE POP PUSH2 0xAD2 JUMP JUMPDEST DUP1 PUSH1 0x1 PUSH0 DUP5 PUSH20 0xFFFFFFFFFFFFFFFFFFFFFFFFFFFFFFFFFFFFFFFF AND PUSH20 0xFFFFFFFFFFFFFFFFFFFFFFFFFFFFFFFFFFFFFFFF AND DUP2 MSTORE PUSH1 0x20 ADD SWAP1 DUP2 MSTORE PUSH1 0x20 ADD PUSH0 KECCAK256 PUSH0 DUP3 DUP3 SLOAD ADD SWAP3 POP POP DUP2 SWAP1 SSTORE POP JUMPDEST DUP2 PUSH20 0xFFFFFFFFFFFFFFFFFFFFFFFFFFFFFFFFFFFFFFFF AND DUP4 PUSH20 0xFFFFFFFFFFFFFFFFFFFFFFFFFFFFFFFFFFFFFFFF AND PUSH32 0xDDF252AD1BE2C89B69C2B068FC378DAA952BA7F163C4A11628F55A4DF523B3EF DUP4 PUSH1 0x40 MLOAD PUSH2 0xB2F SWAP2 SWAP1 PUSH2 0x1539 JUMP JUMPDEST PUSH1 0x40 MLOAD DUP1 SWAP2 SUB SWAP1 LOG3 POP POP POP JUMP JUMPDEST PUSH0 PUSH1 0x80 MLOAD SWAP1 POP SWAP1 JUMP JUMPDEST PUSH0 PUSH1 0xB SLOAD PUSH2 0xB57 PUSH2 0xB96 PUSH1 0x20 SHL PUSH1 0x20 SHR JUMP JUMPDEST PUSH2 0xB61 SWAP2 SWAP1 PUSH2 0x14A4 JUMP JUMPDEST SWAP1 POP SWAP1 JUMP JUMPDEST PUSH0 PUSH2 0xB76 DUP5 PUSH2 0xBCF PUSH1 0x20 SHL PUSH1 0x20 SHR JUMP JUMPDEST DUP3 DUP5 XOR MUL DUP3 XOR SWAP1 POP SWAP4 SWAP3 POP POP POP JUMP JUMPDEST PUSH4 0x4E487B71 PUSH0 MSTORE DUP1 PUSH1 0x20 MSTORE PUSH1 0x24 PUSH1 0x1C REVERT JUMPDEST PUSH0 PUSH0 PUSH1 0xD SLOAD TIMESTAMP PUSH2 0xBA6 SWAP2 SWAP1 PUSH2 0x14A4 JUMP JUMPDEST SWAP1 POP PUSH2 0xBBC PUSH1 0x8 SLOAD DUP3 PUSH1 0x1 PUSH2 0x827 PUSH1 0x20 SHL PUSH1 0x20 SHR JUMP JUMPDEST PUSH1 0xC SLOAD PUSH2 0xBC9 SWAP2 SWAP1 PUSH2 0x1471 JUMP JUMPDEST SWAP2 POP POP SWAP1 JUMP JUMPDEST PUSH0 DUP2 ISZERO ISZERO SWAP1 POP SWAP2 SWAP1 POP JUMP JUMPDEST PUSH0 PUSH1 0x40 MLOAD SWAP1 POP SWAP1 JUMP JUMPDEST PUSH0 PUSH0 REVERT JUMPDEST PUSH0 PUSH0 REVERT JUMPDEST PUSH0 PUSH20 0xFFFFFFFFFFFFFFFFFFFFFFFFFFFFFFFFFFFFFFFF DUP3 AND SWAP1 POP SWAP2 SWAP1 POP JUMP JUMPDEST PUSH0 PUSH2 0xC14 DUP3 PUSH2 0xBEB JUMP JUMPDEST SWAP1 POP SWAP2 SWAP1 POP JUMP JUMPDEST PUSH2 0xC24 DUP2 PUSH2 0xC0A JUMP JUMPDEST DUP2 EQ PUSH2 0xC2E JUMPI PUSH0 PUSH0 REVERT JUMPDEST POP JUMP JUMPDEST PUSH0 DUP2 MLOAD SWAP1 POP PUSH2 0xC3F DUP2 PUSH2 0xC1B JUMP JUMPDEST SWAP3 SWAP2 POP POP JUMP JUMPDEST PUSH0 DUP2 SWAP1 POP SWAP2 SWAP1 POP JUMP JUMPDEST PUSH2 0xC57 DUP2 PUSH2 0xC45 JUMP JUMPDEST DUP2 EQ PUSH2 0xC61 JUMPI PUSH0 PUSH0 REVERT JUMPDEST POP JUMP JUMPDEST PUSH0 DUP2 MLOAD SWAP1 POP PUSH2 0xC72 DUP2 PUSH2 0xC4E JUMP JUMPDEST SWAP3 SWAP2 POP POP JUMP JUMPDEST PUSH0 PUSH2 0xC82 DUP3 PUSH2 0xC0A JUMP JUMPDEST SWAP1 POP SWAP2 SWAP1 POP JUMP JUMPDEST PUSH2 0xC92 DUP2 PUSH2 0xC78 JUMP JUMPDEST DUP2 EQ PUSH2 0xC9C JUMPI PUSH0 PUSH0 REVERT JUMPDEST POP JUMP JUMPDEST PUSH0 DUP2 MLOAD SWAP1 POP PUSH2 0xCAD DUP2 PUSH2 0xC89 JUMP JUMPDEST SWAP3 SWAP2 POP POP JUMP JUMPDEST PUSH0 PUSH0 REVERT JUMPDEST PUSH0 PUSH0 REVERT JUMPDEST PUSH0 PUSH1 0x1F NOT PUSH1 0x1F DUP4 ADD AND SWAP1 POP SWAP2 SWAP1 POP JUMP JUMPDEST PUSH32 0x4E487B7100000000000000000000000000000000000000000000000000000000 PUSH0 MSTORE PUSH1 0x41 PUSH1 0x4 MSTORE PUSH1 0x24 PUSH0 REVERT JUMPDEST PUSH2 0xD01 DUP3 PUSH2 0xCBB JUMP JUMPDEST DUP2 ADD DUP2 DUP2 LT PUSH8 0xFFFFFFFFFFFFFFFF DUP3 GT OR ISZERO PUSH2 0xD20 JUMPI PUSH2 0xD1F PUSH2 0xCCB JUMP JUMPDEST JUMPDEST DUP1 PUSH1 0x40 MSTORE POP POP POP JUMP JUMPDEST PUSH0 PUSH2 0xD32 PUSH2 0xBDA JUMP JUMPDEST SWAP1 POP PUSH2 0xD3E DUP3 DUP3 PUSH2 0xCF8 JUMP JUMPDEST SWAP2 SWAP1 POP JUMP JUMPDEST PUSH0 PUSH8 0xFFFFFFFFFFFFFFFF DUP3 GT ISZERO PUSH2 0xD5D JUMPI PUSH2 0xD5C PUSH2 0xCCB JUMP JUMPDEST JUMPDEST PUSH2 0xD66 DUP3 PUSH2 0xCBB JUMP JUMPDEST SWAP1 POP PUSH1 0x20 DUP2 ADD SWAP1 POP SWAP2 SWAP1 POP JUMP JUMPDEST DUP3 DUP2 DUP4 MCOPY PUSH0 DUP4 DUP4 ADD MSTORE POP POP POP JUMP JUMPDEST PUSH0 PUSH2 0xD93 PUSH2 0xD8E DUP5 PUSH2 0xD43 JUMP JUMPDEST PUSH2 0xD29 JUMP JUMPDEST SWAP1 POP DUP3 DUP2 MSTORE PUSH1 0x20 DUP2 ADD DUP5 DUP5 DUP5 ADD GT ISZERO PUSH2 0xDAF JUMPI PUSH2 0xDAE PUSH2 0xCB7 JUMP JUMPDEST JUMPDEST PUSH2 0xDBA DUP5 DUP3 DUP6 PUSH2 0xD73 JUMP JUMPDEST POP SWAP4 SWAP3 POP POP POP JUMP JUMPDEST PUSH0 DUP3 PUSH1 0x1F DUP4 ADD SLT PUSH2 0xDD6 JUMPI PUSH2 0xDD5 PUSH2 0xCB3 JUMP JUMPDEST JUMPDEST DUP2 MLOAD PUSH2 0xDE6 DUP5 DUP3 PUSH1 0x20 DUP7 ADD PUSH2 0xD81 JUMP JUMPDEST SWAP2 POP POP SWAP3 SWAP2 POP POP JUMP JUMPDEST PUSH0 PUSH0 PUSH0 PUSH0 PUSH0 PUSH0 PUSH0 PUSH1 0xE0 DUP9 DUP11 SUB SLT ISZERO PUSH2 0xE0A JUMPI PUSH2 0xE09 PUSH2 0xBE3 JUMP JUMPDEST JUMPDEST PUSH0 PUSH2 0xE17 DUP11 DUP3 DUP12 ADD PUSH2 0xC31 JUMP JUMPDEST SWAP8 POP POP PUSH1 0x20 PUSH2 0xE28 DUP11 DUP3 DUP12 ADD PUSH2 0xC31 JUMP JUMPDEST SWAP7 POP POP PUSH1 0x40 PUSH2 0xE39 DUP11 DUP3 DUP12 ADD PUSH2 0xC64 JUMP JUMPDEST SWAP6 POP POP PUSH1 0x60 PUSH2 0xE4A DUP11 DUP3 DUP12 ADD PUSH2 0xC9F JUMP JUMPDEST SWAP5 POP POP PUSH1 0x80 PUSH2 0xE5B DUP11 DUP3 DUP12 ADD PUSH2 0xC31 JUMP JUMPDEST SWAP4 POP POP PUSH1 0xA0 DUP9 ADD MLOAD PUSH8 0xFFFFFFFFFFFFFFFF DUP2 GT ISZERO PUSH2 0xE7C JUMPI PUSH2 0xE7B PUSH2 0xBE7 JUMP JUMPDEST JUMPDEST PUSH2 0xE88 DUP11 DUP3 DUP12 ADD PUSH2 0xDC2 JUMP JUMPDEST SWAP3 POP POP PUSH1 0xC0 DUP9 ADD MLOAD PUSH8 0xFFFFFFFFFFFFFFFF DUP2 GT ISZERO PUSH2 0xEA9 JUMPI PUSH2 0xEA8 PUSH2 0xBE7 JUMP JUMPDEST JUMPDEST PUSH2 0xEB5 DUP11 DUP3 DUP12 ADD PUSH2 0xDC2 JUMP JUMPDEST SWAP2 POP POP SWAP3 SWAP6 SWAP9 SWAP2 SWAP5 SWAP8 POP SWAP3 SWAP6 POP JUMP JUMPDEST PUSH2 0xECD DUP2 PUSH2 0xC0A JUMP JUMPDEST DUP3 MSTORE POP POP JUMP JUMPDEST PUSH0 PUSH1 0x20 DUP3 ADD SWAP1 POP PUSH2 0xEE6 PUSH0 DUP4 ADD DUP5 PUSH2 0xEC4 JUMP JUMPDEST SWAP3 SWAP2 POP POP JUMP JUMPDEST PUSH0 DUP2 MLOAD SWAP1 POP SWAP2 SWAP1 POP JUMP JUMPDEST PUSH32 0x4E487B7100000000000000000000000000000000000000000000000000000000 PUSH0 MSTORE PUSH1 0x22 PUSH1 0x4 MSTORE PUSH1 0x24 PUSH0 REVERT JUMPDEST PUSH0 PUSH1 0x2 DUP3 DIV SWAP1 POP PUSH1 0x1 DUP3 AND DUP1 PUSH2 0xF3A JUMPI PUSH1 0x7F DUP3 AND SWAP2 POP JUMPDEST PUSH1 0x20 DUP3 LT DUP2 SUB PUSH2 0xF4D JUMPI PUSH2 0xF4C PUSH2 0xEF6 JUMP JUMPDEST JUMPDEST POP SWAP2 SWAP1 POP JUMP JUMPDEST PUSH0 DUP2 SWAP1 POP DUP2 PUSH0 MSTORE PUSH1 0x20 PUSH0 KECCAK256 SWAP1 POP SWAP2 SWAP1 POP JUMP JUMPDEST PUSH0 PUSH1 0x20 PUSH1 0x1F DUP4 ADD DIV SWAP1 POP SWAP2 SWAP1 POP JUMP JUMPDEST PUSH0 DUP3 DUP3 SHL SWAP1 POP SWAP3 SWAP2 POP POP JUMP JUMPDEST PUSH0 PUSH1 0x8 DUP4 MUL PUSH2 0xFAF PUSH32 0xFFFFFFFFFFFFFFFFFFFFFFFFFFFFFFFFFFFFFFFFFFFFFFFFFFFFFFFFFFFFFFFF DUP3 PUSH2 0xF74 JUMP JUMPDEST PUSH2 0xFB9 DUP7 DUP4 PUSH2 0xF74 JUMP JUMPDEST SWAP6 POP DUP1 NOT DUP5 AND SWAP4 POP DUP1 DUP7 AND DUP5 OR SWAP3 POP POP POP SWAP4 SWAP3 POP POP POP JUMP JUMPDEST PUSH0 DUP2 SWAP1 POP SWAP2 SWAP1 POP JUMP JUMPDEST PUSH0 PUSH2 0xFF4 PUSH2 0xFEF PUSH2 0xFEA DUP5 PUSH2 0xC45 JUMP JUMPDEST PUSH2 0xFD1 JUMP JUMPDEST PUSH2 0xC45 JUMP JUMPDEST SWAP1 POP SWAP2 SWAP1 POP JUMP JUMPDEST PUSH0 DUP2 SWAP1 POP SWAP2 SWAP1 POP JUMP JUMPDEST PUSH2 0x100D DUP4 PUSH2 0xFDA JUMP JUMPDEST PUSH2 0x1021 PUSH2 0x1019 DUP3 PUSH2 0xFFB JUMP JUMPDEST DUP5 DUP5 SLOAD PUSH2 0xF80 JUMP JUMPDEST DUP3 SSTORE POP POP POP POP JUMP JUMPDEST PUSH0 PUSH0 SWAP1 POP SWAP1 JUMP JUMPDEST PUSH2 0x1038 PUSH2 0x1029 JUMP JUMPDEST PUSH2 0x1043 DUP2 DUP5 DUP5 PUSH2 0x1004 JUMP JUMPDEST POP POP POP JUMP JUMPDEST JUMPDEST DUP2 DUP2 LT ISZERO PUSH2 0x1066 JUMPI PUSH2 0x105B PUSH0 DUP3 PUSH2 0x1030 JUMP JUMPDEST PUSH1 0x1 DUP2 ADD SWAP1 POP PUSH2 0x1049 JUMP JUMPDEST POP POP JUMP JUMPDEST PUSH1 0x1F DUP3 GT ISZERO PUSH2 0x10AB JUMPI PUSH2 0x107C DUP2 PUSH2 0xF53 JUMP JUMPDEST PUSH2 0x1085 DUP5 PUSH2 0xF65 JUMP JUMPDEST DUP2 ADD PUSH1 0x20 DUP6 LT ISZERO PUSH2 0x1094 JUMPI DUP2 SWAP1 POP JUMPDEST PUSH2 0x10A8 PUSH2 0x10A0 DUP6 PUSH2 0xF65 JUMP JUMPDEST DUP4 ADD DUP3 PUSH2 0x1048 JUMP JUMPDEST POP POP JUMPDEST POP POP POP JUMP JUMPDEST PUSH0 DUP3 DUP3 SHR SWAP1 POP SWAP3 SWAP2 POP POP JUMP JUMPDEST PUSH0 PUSH2 0x10CB PUSH0 NOT DUP5 PUSH1 0x8 MUL PUSH2 0x10B0 JUMP JUMPDEST NOT DUP1 DUP4 AND SWAP2 POP POP SWAP3 SWAP2 POP POP JUMP JUMPDEST PUSH0 PUSH2 0x10E3 DUP4 DUP4 PUSH2 0x10BC JUMP JUMPDEST SWAP2 POP DUP3 PUSH1 0x2 MUL DUP3 OR SWAP1 POP SWAP3 SWAP2 POP POP JUMP JUMPDEST PUSH2 0x10FC DUP3 PUSH2 0xEEC JUMP JUMPDEST PUSH8 0xFFFFFFFFFFFFFFFF DUP2 GT ISZERO PUSH2 0x1115 JUMPI PUSH2 0x1114 PUSH2 0xCCB JUMP JUMPDEST JUMPDEST PUSH2 0x111F DUP3 SLOAD PUSH2 0xF23 JUMP JUMPDEST PUSH2 0x112A DUP3 DUP3 DUP6 PUSH2 0x106A JUMP JUMPDEST PUSH0 PUSH1 0x20 SWAP1 POP PUSH1 0x1F DUP4 GT PUSH1 0x1 DUP2 EQ PUSH2 0x115B JUMPI PUSH0 DUP5 ISZERO PUSH2 0x1149 JUMPI DUP3 DUP8 ADD MLOAD SWAP1 POP JUMPDEST PUSH2 0x1153 DUP6 DUP3 PUSH2 0x10D8 JUMP JUMPDEST DUP7 SSTORE POP PUSH2 0x11BA JUMP JUMPDEST PUSH1 0x1F NOT DUP5 AND PUSH2 0x1169 DUP7 PUSH2 0xF53 JUMP JUMPDEST PUSH0 JUMPDEST DUP3 DUP2 LT ISZERO PUSH2 0x1190 JUMPI DUP5 DUP10 ADD MLOAD DUP3 SSTORE PUSH1 0x1 DUP3 ADD SWAP2 POP PUSH1 0x20 DUP6 ADD SWAP5 POP PUSH1 0x20 DUP2 ADD SWAP1 POP PUSH2 0x116B JUMP JUMPDEST DUP7 DUP4 LT ISZERO PUSH2 0x11AD JUMPI DUP5 DUP10 ADD MLOAD PUSH2 0x11A9 PUSH1 0x1F DUP10 AND DUP3 PUSH2 0x10BC JUMP JUMPDEST DUP4 SSTORE POP JUMPDEST PUSH1 0x1 PUSH1 0x2 DUP9 MUL ADD DUP9 SSTORE POP POP POP JUMPDEST POP POP POP POP POP POP JUMP JUMPDEST PUSH32 0x4E487B7100000000000000000000000000000000000000000000000000000000 PUSH0 MSTORE PUSH1 0x11 PUSH1 0x4 MSTORE PUSH1 0x24 PUSH0 REVERT JUMPDEST PUSH0 DUP2 PUSH1 0x1 SHR SWAP1 POP SWAP2 SWAP1 POP JUMP JUMPDEST PUSH0 PUSH0 DUP3 SWAP2 POP DUP4 SWAP1 POP JUMPDEST PUSH1 0x1 DUP6 GT ISZERO PUSH2 0x1244 JUMPI DUP1 DUP7 DIV DUP2 GT ISZERO PUSH2 0x1220 JUMPI PUSH2 0x121F PUSH2 0x11C2 JUMP JUMPDEST JUMPDEST PUSH1 0x1 DUP6 AND ISZERO PUSH2 0x122F JUMPI DUP1 DUP3 MUL SWAP2 POP JUMPDEST DUP1 DUP2 MUL SWAP1 POP PUSH2 0x123D DUP6 PUSH2 0x11EF JUMP JUMPDEST SWAP5 POP PUSH2 0x1204 JUMP JUMPDEST SWAP5 POP SWAP5 SWAP3 POP POP POP JUMP JUMPDEST PUSH0 DUP3 PUSH2 0x125C JUMPI PUSH1 0x1 SWAP1 POP PUSH2 0x1317 JUMP JUMPDEST DUP2 PUSH2 0x1269 JUMPI PUSH0 SWAP1 POP PUSH2 0x1317 JUMP JUMPDEST DUP2 PUSH1 0x1 DUP2 EQ PUSH2 0x127F JUMPI PUSH1 0x2 DUP2 EQ PUSH2 0x1289 JUMPI PUSH2 0x12B8 JUMP JUMPDEST PUSH1 0x1 SWAP2 POP POP PUSH2 0x1317 JUMP JUMPDEST PUSH1 0xFF DUP5 GT ISZERO PUSH2 0x129B JUMPI PUSH2 0x129A PUSH2 0x11C2 JUMP JUMPDEST JUMPDEST DUP4 PUSH1 0x2 EXP SWAP2 POP DUP5 DUP3 GT ISZERO PUSH2 0x12B2 JUMPI PUSH2 0x12B1 PUSH2 0x11C2 JUMP JUMPDEST JUMPDEST POP PUSH2 0x1317 JUMP JUMPDEST POP PUSH1 0x20 DUP4 LT PUSH2 0x133 DUP4 LT AND PUSH1 0x4E DUP5 LT PUSH1 0xB DUP5 LT AND OR ISZERO PUSH2 0x12ED JUMPI DUP3 DUP3 EXP SWAP1 POP DUP4 DUP2 GT ISZERO PUSH2 0x12E8 JUMPI PUSH2 0x12E7 PUSH2 0x11C2 JUMP JUMPDEST JUMPDEST PUSH2 0x1317 JUMP JUMPDEST PUSH2 0x12FA DUP5 DUP5 DUP5 PUSH1 0x1 PUSH2 0x11FB JUMP JUMPDEST SWAP3 POP SWAP1 POP DUP2 DUP5 DIV DUP2 GT ISZERO PUSH2 0x1311 JUMPI PUSH2 0x1310 PUSH2 0x11C2 JUMP JUMPDEST JUMPDEST DUP2 DUP2 MUL SWAP1 POP JUMPDEST SWAP4 SWAP3 POP POP POP JUMP JUMPDEST PUSH0 PUSH1 0xFF DUP3 AND SWAP1 POP SWAP2 SWAP1 POP JUMP JUMPDEST PUSH0 PUSH2 0x1334 DUP3 PUSH2 0xC45 JUMP JUMPDEST SWAP2 POP PUSH2 0x133F DUP4 PUSH2 0x131E JUMP JUMPDEST SWAP3 POP PUSH2 0x136C PUSH32 0xFFFFFFFFFFFFFFFFFFFFFFFFFFFFFFFFFFFFFFFFFFFFFFFFFFFFFFFFFFFFFFFF DUP5 DUP5 PUSH2 0x124D JUMP JUMPDEST SWAP1 POP SWAP3 SWAP2 POP POP JUMP JUMPDEST PUSH2 0x137D DUP2 PUSH2 0xC45 JUMP JUMPDEST DUP3 MSTORE POP POP JUMP JUMPDEST PUSH0 PUSH1 0x60 DUP3 ADD SWAP1 POP PUSH2 0x1396 PUSH0 DUP4 ADD DUP7 PUSH2 0x1374 JUMP JUMPDEST PUSH2 0x13A3 PUSH1 0x20 DUP4 ADD DUP6 PUSH2 0x1374 JUMP JUMPDEST PUSH2 0x13B0 PUSH1 0x40 DUP4 ADD DUP5 PUSH2 0x1374 JUMP JUMPDEST SWAP5 SWAP4 POP POP POP POP JUMP JUMPDEST PUSH0 DUP2 MLOAD SWAP1 POP SWAP2 SWAP1 POP JUMP JUMPDEST PUSH0 DUP2 SWAP1 POP SWAP3 SWAP2 POP POP JUMP JUMPDEST PUSH0 PUSH2 0x13D6 DUP3 PUSH2 0x13B8 JUMP JUMPDEST PUSH2 0x13E0 DUP2 DUP6 PUSH2 0x13C2 JUMP JUMPDEST SWAP4 POP PUSH2 0x13F0 DUP2 DUP6 PUSH1 0x20 DUP7 ADD PUSH2 0xD73 JUMP JUMPDEST DUP1 DUP5 ADD SWAP2 POP POP SWAP3 SWAP2 POP POP JUMP JUMPDEST PUSH0 PUSH2 0x1407 DUP3 DUP5 PUSH2 0x13CC JUMP JUMPDEST SWAP2 POP DUP2 SWAP1 POP SWAP3 SWAP2 POP POP JUMP JUMPDEST PUSH0 PUSH1 0x20 DUP3 DUP5 SUB SLT ISZERO PUSH2 0x1427 JUMPI PUSH2 0x1426 PUSH2 0xBE3 JUMP JUMPDEST JUMPDEST PUSH0 PUSH2 0x1434 DUP5 DUP3 DUP6 ADD PUSH2 0xC64 JUMP JUMPDEST SWAP2 POP POP SWAP3 SWAP2 POP POP JUMP JUMPDEST PUSH0 PUSH2 0x1447 DUP3 PUSH2 0x131E JUMP JUMPDEST SWAP2 POP PUSH2 0x1452 DUP4 PUSH2 0x131E JUMP JUMPDEST SWAP3 POP DUP3 DUP3 ADD SWAP1 POP PUSH1 0xFF DUP2 GT ISZERO PUSH2 0x146B JUMPI PUSH2 0x146A PUSH2 0x11C2 JUMP JUMPDEST JUMPDEST SWAP3 SWAP2 POP POP JUMP JUMPDEST PUSH0 PUSH2 0x147B DUP3 PUSH2 0xC45 JUMP JUMPDEST SWAP2 POP PUSH2 0x1486 DUP4 PUSH2 0xC45 JUMP JUMPDEST SWAP3 POP DUP3 DUP3 ADD SWAP1 POP DUP1 DUP3 GT ISZERO PUSH2 0x149E JUMPI PUSH2 0x149D PUSH2 0x11C2 JUMP JUMPDEST JUMPDEST SWAP3 SWAP2 POP POP JUMP JUMPDEST PUSH0 PUSH2 0x14AE DUP3 PUSH2 0xC45 JUMP JUMPDEST SWAP2 POP PUSH2 0x14B9 DUP4 PUSH2 0xC45 JUMP JUMPDEST SWAP3 POP DUP3 DUP3 SUB SWAP1 POP DUP2 DUP2 GT ISZERO PUSH2 0x14D1 JUMPI PUSH2 0x14D0 PUSH2 0x11C2 JUMP JUMPDEST JUMPDEST SWAP3 SWAP2 POP POP JUMP JUMPDEST PUSH32 0x4E487B7100000000000000000000000000000000000000000000000000000000 PUSH0 MSTORE PUSH1 0x12 PUSH1 0x4 MSTORE PUSH1 0x24 PUSH0 REVERT JUMPDEST PUSH0 PUSH1 0x60 DUP3 ADD SWAP1 POP PUSH2 0x1517 PUSH0 DUP4 ADD DUP7 PUSH2 0xEC4 JUMP JUMPDEST PUSH2 0x1524 PUSH1 0x20 DUP4 ADD DUP6 PUSH2 0x1374 JUMP JUMPDEST PUSH2 0x1531 PUSH1 0x40 DUP4 ADD DUP5 PUSH2 0x1374 JUMP JUMPDEST SWAP5 SWAP4 POP POP POP POP JUMP JUMPDEST PUSH0 PUSH1 0x20 DUP3 ADD SWAP1 POP PUSH2 0x154C PUSH0 DUP4 ADD DUP5 PUSH2 0x1374 JUMP JUMPDEST SWAP3 SWAP2 POP POP JUMP JUMPDEST PUSH1 0x80 MLOAD PUSH1 0xA0 MLOAD PUSH2 0x43C1 PUSH2 0x1581 PUSH0 CODECOPY PUSH0 PUSH2 0x1384 ADD MSTORE PUSH0 DUP2 DUP2 PUSH2 0x1964 ADD MSTORE DUP2 DUP2 PUSH2 0x323C ADD MSTORE PUSH2 0x3328 ADD MSTORE PUSH2 0x43C1 PUSH0 RETURN INVALID PUSH1 0x80 PUSH1 0x40 MSTORE CALLVALUE DUP1 ISZERO PUSH2 0xF JUMPI PUSH0 PUSH0 REVERT JUMPDEST POP PUSH1 0x4 CALLDATASIZE LT PUSH2 0x2D4 JUMPI PUSH0 CALLDATALOAD PUSH1 0xE0 SHR DUP1 PUSH4 0x95D89B41 GT PUSH2 0x180 JUMPI DUP1 PUSH4 0xC6E6F592 GT PUSH2 0xE7 JUMPI DUP1 PUSH4 0xDC9A1535 GT PUSH2 0xA0 JUMPI DUP1 PUSH4 0xEF8B30F7 GT PUSH2 0x7A JUMPI DUP1 PUSH4 0xEF8B30F7 EQ PUSH2 0x985 JUMPI DUP1 PUSH4 0xF0BFA6C1 EQ PUSH2 0x9B5 JUMPI DUP1 PUSH4 0xF2FDE38B EQ PUSH2 0x9E6 JUMPI DUP1 PUSH4 0xF8B8E80E EQ PUSH2 0xA02 JUMPI PUSH2 0x2D4 JUMP JUMPDEST DUP1 PUSH4 0xDC9A1535 EQ PUSH2 0x919 JUMPI DUP1 PUSH4 0xDD62ED3E EQ PUSH2 0x937 JUMPI DUP1 PUSH4 0xE6C4FFEE EQ PUSH2 0x967 JUMPI PUSH2 0x2D4 JUMP JUMPDEST DUP1 PUSH4 0xC6E6F592 EQ PUSH2 0x831 JUMPI DUP1 PUSH4 0xC920C609 EQ PUSH2 0x861 JUMPI DUP1 PUSH4 0xCE96CB77 EQ PUSH2 0x86B JUMPI DUP1 PUSH4 0xD0B06F5D EQ PUSH2 0x89B JUMPI DUP1 PUSH4 0xD643FA05 EQ PUSH2 0x8B9 JUMPI DUP1 PUSH4 0xD905777E EQ PUSH2 0x8E9 JUMPI PUSH2 0x2D4 JUMP JUMPDEST DUP1 PUSH4 0xBA087652 GT PUSH2 0x139 JUMPI DUP1 PUSH4 0xBA087652 EQ PUSH2 0x781 JUMPI DUP1 PUSH4 0xC06B8287 EQ PUSH2 0x7B1 JUMPI DUP1 PUSH4 0xC1955C78 EQ PUSH2 0x7CF JUMPI DUP1 PUSH4 0xC2CE7AF3 EQ PUSH2 0x7D9 JUMPI DUP1 PUSH4 0xC32E8459 EQ PUSH2 0x7E3 JUMPI DUP1 PUSH4 0xC63D75B6 EQ PUSH2 0x801 JUMPI PUSH2 0x2D4 JUMP JUMPDEST DUP1 PUSH4 0x95D89B41 EQ PUSH2 0x672 JUMPI DUP1 PUSH4 0xA3F8EACE EQ PUSH2 0x690 JUMPI DUP1 PUSH4 0xA9059CBB EQ PUSH2 0x6C0 JUMPI DUP1 PUSH4 0xAF86A953 EQ PUSH2 0x6F0 JUMPI DUP1 PUSH4 0xB3D7F6B9 EQ PUSH2 0x721 JUMPI DUP1 PUSH4 0xB460AF94 EQ PUSH2 0x751 JUMPI PUSH2 0x2D4 JUMP JUMPDEST DUP1 PUSH4 0x313CE567 GT PUSH2 0x23F JUMPI DUP1 PUSH4 0x40F2BA59 GT PUSH2 0x1F8 JUMPI DUP1 PUSH4 0x70A08231 GT PUSH2 0x1D2 JUMPI DUP1 PUSH4 0x70A08231 EQ PUSH2 0x5EA JUMPI DUP1 PUSH4 0x715018A6 EQ PUSH2 0x61A JUMPI DUP1 PUSH4 0x8DA5CB5B EQ PUSH2 0x624 JUMPI DUP1 PUSH4 0x94BF804D EQ PUSH2 0x642 JUMPI PUSH2 0x2D4 JUMP JUMPDEST DUP1 PUSH4 0x40F2BA59 EQ PUSH2 0x56C JUMPI DUP1 PUSH4 0x4CDAD506 EQ PUSH2 0x58A JUMPI DUP1 PUSH4 0x6E553F65 EQ PUSH2 0x5BA JUMPI PUSH2 0x2D4 JUMP JUMPDEST DUP1 PUSH4 0x313CE567 EQ PUSH2 0x496 JUMPI DUP1 PUSH4 0x334C356E EQ PUSH2 0x4B4 JUMPI DUP1 PUSH4 0x3795309E EQ PUSH2 0x4D0 JUMPI DUP1 PUSH4 0x38D52E0F EQ PUSH2 0x500 JUMPI DUP1 PUSH4 0x39E761D6 EQ PUSH2 0x51E JUMPI DUP1 PUSH4 0x402D267D EQ PUSH2 0x53C JUMPI PUSH2 0x2D4 JUMP JUMPDEST DUP1 PUSH4 0xB4B1C44 GT PUSH2 0x291 JUMPI DUP1 PUSH4 0xB4B1C44 EQ PUSH2 0x3C2 JUMPI DUP1 PUSH4 0x18160DDD EQ PUSH2 0x3DE JUMPI DUP1 PUSH4 0x19165587 EQ PUSH2 0x3FC JUMPI DUP1 PUSH4 0x20212CB7 EQ PUSH2 0x42C JUMPI DUP1 PUSH4 0x22003F10 EQ PUSH2 0x44A JUMPI DUP1 PUSH4 0x23B872DD EQ PUSH2 0x466 JUMPI PUSH2 0x2D4 JUMP JUMPDEST DUP1 PUSH4 0x1E1D114 EQ PUSH2 0x2D8 JUMPI DUP1 PUSH4 0x5B182EA EQ PUSH2 0x2F6 JUMPI DUP1 PUSH4 0x6FDDE03 EQ PUSH2 0x314 JUMPI DUP1 PUSH4 0x7A2D13A EQ PUSH2 0x332 JUMPI DUP1 PUSH4 0x95EA7B3 EQ PUSH2 0x362 JUMPI DUP1 PUSH4 0xA28A477 EQ PUSH2 0x392 JUMPI JUMPDEST PUSH0 PUSH0 REVERT JUMPDEST PUSH2 0x2E0 PUSH2 0xA0C JUMP JUMPDEST PUSH1 0x40 MLOAD PUSH2 0x2ED SWAP2 SWAP1 PUSH2 0x34E9 JUMP JUMPDEST PUSH1 0x40 MLOAD DUP1 SWAP2 SUB SWAP1 RETURN JUMPDEST PUSH2 0x2FE PUSH2 0xC13 JUMP JUMPDEST PUSH1 0x40 MLOAD PUSH2 0x30B SWAP2 SWAP1 PUSH2 0x34E9 JUMP JUMPDEST PUSH1 0x40 MLOAD DUP1 SWAP2 SUB SWAP1 RETURN JUMPDEST PUSH2 0x31C PUSH2 0xC19 JUMP JUMPDEST PUSH1 0x40 MLOAD PUSH2 0x329 SWAP2 SWAP1 PUSH2 0x3572 JUMP JUMPDEST PUSH1 0x40 MLOAD DUP1 SWAP2 SUB SWAP1 RETURN JUMPDEST PUSH2 0x34C PUSH1 0x4 DUP1 CALLDATASIZE SUB DUP2 ADD SWAP1 PUSH2 0x347 SWAP2 SWAP1 PUSH2 0x35CD JUMP JUMPDEST PUSH2 0xCA9 JUMP JUMPDEST PUSH1 0x40 MLOAD PUSH2 0x359 SWAP2 SWAP1 PUSH2 0x34E9 JUMP JUMPDEST PUSH1 0x40 MLOAD DUP1 SWAP2 SUB SWAP1 RETURN JUMPDEST PUSH2 0x37C PUSH1 0x4 DUP1 CALLDATASIZE SUB DUP2 ADD SWAP1 PUSH2 0x377 SWAP2 SWAP1 PUSH2 0x3652 JUMP JUMPDEST PUSH2 0xCBB JUMP JUMPDEST PUSH1 0x40 MLOAD PUSH2 0x389 SWAP2 SWAP1 PUSH2 0x36AA JUMP JUMPDEST PUSH1 0x40 MLOAD DUP1 SWAP2 SUB SWAP1 RETURN JUMPDEST PUSH2 0x3AC PUSH1 0x4 DUP1 CALLDATASIZE SUB DUP2 ADD SWAP1 PUSH2 0x3A7 SWAP2 SWAP1 PUSH2 0x35CD JUMP JUMPDEST PUSH2 0xCDD JUMP JUMPDEST PUSH1 0x40 MLOAD PUSH2 0x3B9 SWAP2 SWAP1 PUSH2 0x34E9 JUMP JUMPDEST PUSH1 0x40 MLOAD DUP1 SWAP2 SUB SWAP1 RETURN JUMPDEST PUSH2 0x3DC PUSH1 0x4 DUP1 CALLDATASIZE SUB DUP2 ADD SWAP1 PUSH2 0x3D7 SWAP2 SWAP1 PUSH2 0x35CD JUMP JUMPDEST PUSH2 0xCF0 JUMP JUMPDEST STOP JUMPDEST PUSH2 0x3E6 PUSH2 0xDB3 JUMP JUMPDEST PUSH1 0x40 MLOAD PUSH2 0x3F3 SWAP2 SWAP1 PUSH2 0x34E9 JUMP JUMPDEST PUSH1 0x40 MLOAD DUP1 SWAP2 SUB SWAP1 RETURN JUMPDEST PUSH2 0x416 PUSH1 0x4 DUP1 CALLDATASIZE SUB DUP2 ADD SWAP1 PUSH2 0x411 SWAP2 SWAP1 PUSH2 0x36C3 JUMP JUMPDEST PUSH2 0xDBC JUMP JUMPDEST PUSH1 0x40 MLOAD PUSH2 0x423 SWAP2 SWAP1 PUSH2 0x34E9 JUMP JUMPDEST PUSH1 0x40 MLOAD DUP1 SWAP2 SUB SWAP1 RETURN JUMPDEST PUSH2 0x434 PUSH2 0xEDB JUMP JUMPDEST PUSH1 0x40 MLOAD PUSH2 0x441 SWAP2 SWAP1 PUSH2 0x34E9 JUMP JUMPDEST PUSH1 0x40 MLOAD DUP1 SWAP2 SUB SWAP1 RETURN JUMPDEST PUSH2 0x464 PUSH1 0x4 DUP1 CALLDATASIZE SUB DUP2 ADD SWAP1 PUSH2 0x45F SWAP2 SWAP1 PUSH2 0x3652 JUMP JUMPDEST PUSH2 0xEE1 JUMP JUMPDEST STOP JUMPDEST PUSH2 0x480 PUSH1 0x4 DUP1 CALLDATASIZE SUB DUP2 ADD SWAP1 PUSH2 0x47B SWAP2 SWAP1 PUSH2 0x36EE JUMP JUMPDEST PUSH2 0x134B JUMP JUMPDEST PUSH1 0x40 MLOAD PUSH2 0x48D SWAP2 SWAP1 PUSH2 0x36AA JUMP JUMPDEST PUSH1 0x40 MLOAD DUP1 SWAP2 SUB SWAP1 RETURN JUMPDEST PUSH2 0x49E PUSH2 0x1379 JUMP JUMPDEST PUSH1 0x40 MLOAD PUSH2 0x4AB SWAP2 SWAP1 PUSH2 0x3759 JUMP JUMPDEST PUSH1 0x40 MLOAD DUP1 SWAP2 SUB SWAP1 RETURN JUMPDEST PUSH2 0x4CE PUSH1 0x4 DUP1 CALLDATASIZE SUB DUP2 ADD SWAP1 PUSH2 0x4C9 SWAP2 SWAP1 PUSH2 0x36C3 JUMP JUMPDEST PUSH2 0x13B2 JUMP JUMPDEST STOP JUMPDEST PUSH2 0x4EA PUSH1 0x4 DUP1 CALLDATASIZE SUB DUP2 ADD SWAP1 PUSH2 0x4E5 SWAP2 SWAP1 PUSH2 0x35CD JUMP JUMPDEST PUSH2 0x194A JUMP JUMPDEST PUSH1 0x40 MLOAD PUSH2 0x4F7 SWAP2 SWAP1 PUSH2 0x34E9 JUMP JUMPDEST PUSH1 0x40 MLOAD DUP1 SWAP2 SUB SWAP1 RETURN JUMPDEST PUSH2 0x508 PUSH2 0x1961 JUMP JUMPDEST PUSH1 0x40 MLOAD PUSH2 0x515 SWAP2 SWAP1 PUSH2 0x3781 JUMP JUMPDEST PUSH1 0x40 MLOAD DUP1 SWAP2 SUB SWAP1 RETURN JUMPDEST PUSH2 0x526 PUSH2 0x1988 JUMP JUMPDEST PUSH1 0x40 MLOAD PUSH2 0x533 SWAP2 SWAP1 PUSH2 0x34E9 JUMP JUMPDEST PUSH1 0x40 MLOAD DUP1 SWAP2 SUB SWAP1 RETURN JUMPDEST PUSH2 0x556 PUSH1 0x4 DUP1 CALLDATASIZE SUB DUP2 ADD SWAP1 PUSH2 0x551 SWAP2 SWAP1 PUSH2 0x36C3 JUMP JUMPDEST PUSH2 0x198E JUMP JUMPDEST PUSH1 0x40 MLOAD PUSH2 0x563 SWAP2 SWAP1 PUSH2 0x34E9 JUMP JUMPDEST PUSH1 0x40 MLOAD DUP1 SWAP2 SUB SWAP1 RETURN JUMPDEST PUSH2 0x574 PUSH2 0x19C2 JUMP JUMPDEST PUSH1 0x40 MLOAD PUSH2 0x581 SWAP2 SWAP1 PUSH2 0x34E9 JUMP JUMPDEST PUSH1 0x40 MLOAD DUP1 SWAP2 SUB SWAP1 RETURN JUMPDEST PUSH2 0x5A4 PUSH1 0x4 DUP1 CALLDATASIZE SUB DUP2 ADD SWAP1 PUSH2 0x59F SWAP2 SWAP1 PUSH2 0x35CD JUMP JUMPDEST PUSH2 0x19DD JUMP JUMPDEST PUSH1 0x40 MLOAD PUSH2 0x5B1 SWAP2 SWAP1 PUSH2 0x34E9 JUMP JUMPDEST PUSH1 0x40 MLOAD DUP1 SWAP2 SUB SWAP1 RETURN JUMPDEST PUSH2 0x5D4 PUSH1 0x4 DUP1 CALLDATASIZE SUB DUP2 ADD SWAP1 PUSH2 0x5CF SWAP2 SWAP1 PUSH2 0x379A JUMP JUMPDEST PUSH2 0x19EF JUMP JUMPDEST PUSH1 0x40 MLOAD PUSH2 0x5E1 SWAP2 SWAP1 PUSH2 0x34E9 JUMP JUMPDEST PUSH1 0x40 MLOAD DUP1 SWAP2 SUB SWAP1 RETURN JUMPDEST PUSH2 0x604 PUSH1 0x4 DUP1 CALLDATASIZE SUB DUP2 ADD SWAP1 PUSH2 0x5FF SWAP2 SWAP1 PUSH2 0x36C3 JUMP JUMPDEST PUSH2 0x1A0A JUMP JUMPDEST PUSH1 0x40 MLOAD PUSH2 0x611 SWAP2 SWAP1 PUSH2 0x34E9 JUMP JUMPDEST PUSH1 0x40 MLOAD DUP1 SWAP2 SUB SWAP1 RETURN JUMPDEST PUSH2 0x622 PUSH2 0x1A50 JUMP JUMPDEST STOP JUMPDEST PUSH2 0x62C PUSH2 0x1A63 JUMP JUMPDEST PUSH1 0x40 MLOAD PUSH2 0x639 SWAP2 SWAP1 PUSH2 0x3781 JUMP JUMPDEST PUSH1 0x40 MLOAD DUP1 SWAP2 SUB SWAP1 RETURN JUMPDEST PUSH2 0x65C PUSH1 0x4 DUP1 CALLDATASIZE SUB DUP2 ADD SWAP1 PUSH2 0x657 SWAP2 SWAP1 PUSH2 0x379A JUMP JUMPDEST PUSH2 0x1A8A JUMP JUMPDEST PUSH1 0x40 MLOAD PUSH2 0x669 SWAP2 SWAP1 PUSH2 0x34E9 JUMP JUMPDEST PUSH1 0x40 MLOAD DUP1 SWAP2 SUB SWAP1 RETURN JUMPDEST PUSH2 0x67A PUSH2 0x1AA5 JUMP JUMPDEST PUSH1 0x40 MLOAD PUSH2 0x687 SWAP2 SWAP1 PUSH2 0x3572 JUMP JUMPDEST PUSH1 0x40 MLOAD DUP1 SWAP2 SUB SWAP1 RETURN JUMPDEST PUSH2 0x6AA PUSH1 0x4 DUP1 CALLDATASIZE SUB DUP2 ADD SWAP1 PUSH2 0x6A5 SWAP2 SWAP1 PUSH2 0x36C3 JUMP JUMPDEST PUSH2 0x1B35 JUMP JUMPDEST PUSH1 0x40 MLOAD PUSH2 0x6B7 SWAP2 SWAP1 PUSH2 0x34E9 JUMP JUMPDEST PUSH1 0x40 MLOAD DUP1 SWAP2 SUB SWAP1 RETURN JUMPDEST PUSH2 0x6DA PUSH1 0x4 DUP1 CALLDATASIZE SUB DUP2 ADD SWAP1 PUSH2 0x6D5 SWAP2 SWAP1 PUSH2 0x3652 JUMP JUMPDEST PUSH2 0x1BD8 JUMP JUMPDEST PUSH1 0x40 MLOAD PUSH2 0x6E7 SWAP2 SWAP1 PUSH2 0x36AA JUMP JUMPDEST PUSH1 0x40 MLOAD DUP1 SWAP2 SUB SWAP1 RETURN JUMPDEST PUSH2 0x70A PUSH1 0x4 DUP1 CALLDATASIZE SUB DUP2 ADD SWAP1 PUSH2 0x705 SWAP2 SWAP1 PUSH2 0x36C3 JUMP JUMPDEST PUSH2 0x1BFA JUMP JUMPDEST PUSH1 0x40 MLOAD PUSH2 0x718 SWAP3 SWAP2 SWAP1 PUSH2 0x37D8 JUMP JUMPDEST PUSH1 0x40 MLOAD DUP1 SWAP2 SUB SWAP1 RETURN JUMPDEST PUSH2 0x73B PUSH1 0x4 DUP1 CALLDATASIZE SUB DUP2 ADD SWAP1 PUSH2 0x736 SWAP2 SWAP1 PUSH2 0x35CD JUMP JUMPDEST PUSH2 0x1C1A JUMP JUMPDEST PUSH1 0x40 MLOAD PUSH2 0x748 SWAP2 SWAP1 PUSH2 0x34E9 JUMP JUMPDEST PUSH1 0x40 MLOAD DUP1 SWAP2 SUB SWAP1 RETURN JUMPDEST PUSH2 0x76B PUSH1 0x4 DUP1 CALLDATASIZE SUB DUP2 ADD SWAP1 PUSH2 0x766 SWAP2 SWAP1 PUSH2 0x37FF JUMP JUMPDEST PUSH2 0x1C2D JUMP JUMPDEST PUSH1 0x40 MLOAD PUSH2 0x778 SWAP2 SWAP1 PUSH2 0x34E9 JUMP JUMPDEST PUSH1 0x40 MLOAD DUP1 SWAP2 SUB SWAP1 RETURN JUMPDEST PUSH2 0x79B PUSH1 0x4 DUP1 CALLDATASIZE SUB DUP2 ADD SWAP1 PUSH2 0x796 SWAP2 SWAP1 PUSH2 0x37FF JUMP JUMPDEST PUSH2 0x1C4A JUMP JUMPDEST PUSH1 0x40 MLOAD PUSH2 0x7A8 SWAP2 SWAP1 PUSH2 0x34E9 JUMP JUMPDEST PUSH1 0x40 MLOAD DUP1 SWAP2 SUB SWAP1 RETURN JUMPDEST PUSH2 0x7B9 PUSH2 0x1C67 JUMP JUMPDEST PUSH1 0x40 MLOAD PUSH2 0x7C6 SWAP2 SWAP1 PUSH2 0x3867 JUMP JUMPDEST PUSH1 0x40 MLOAD DUP1 SWAP2 SUB SWAP1 RETURN JUMPDEST PUSH2 0x7D7 PUSH2 0x1C6D JUMP JUMPDEST STOP JUMPDEST PUSH2 0x7E1 PUSH2 0x1DCF JUMP JUMPDEST STOP JUMPDEST PUSH2 0x7EB PUSH2 0x1E2A JUMP JUMPDEST PUSH1 0x40 MLOAD PUSH2 0x7F8 SWAP2 SWAP1 PUSH2 0x34E9 JUMP JUMPDEST PUSH1 0x40 MLOAD DUP1 SWAP2 SUB SWAP1 RETURN JUMPDEST PUSH2 0x81B PUSH1 0x4 DUP1 CALLDATASIZE SUB DUP2 ADD SWAP1 PUSH2 0x816 SWAP2 SWAP1 PUSH2 0x36C3 JUMP JUMPDEST PUSH2 0x1E30 JUMP JUMPDEST PUSH1 0x40 MLOAD PUSH2 0x828 SWAP2 SWAP1 PUSH2 0x34E9 JUMP JUMPDEST PUSH1 0x40 MLOAD DUP1 SWAP2 SUB SWAP1 RETURN JUMPDEST PUSH2 0x84B PUSH1 0x4 DUP1 CALLDATASIZE SUB DUP2 ADD SWAP1 PUSH2 0x846 SWAP2 SWAP1 PUSH2 0x35CD JUMP JUMPDEST PUSH2 0x1E5B JUMP JUMPDEST PUSH1 0x40 MLOAD PUSH2 0x858 SWAP2 SWAP1 PUSH2 0x34E9 JUMP JUMPDEST PUSH1 0x40 MLOAD DUP1 SWAP2 SUB SWAP1 RETURN JUMPDEST PUSH2 0x869 PUSH2 0x1E6D JUMP JUMPDEST STOP JUMPDEST PUSH2 0x885 PUSH1 0x4 DUP1 CALLDATASIZE SUB DUP2 ADD SWAP1 PUSH2 0x880 SWAP2 SWAP1 PUSH2 0x36C3 JUMP JUMPDEST PUSH2 0x2084 JUMP JUMPDEST PUSH1 0x40 MLOAD PUSH2 0x892 SWAP2 SWAP1 PUSH2 0x34E9 JUMP JUMPDEST PUSH1 0x40 MLOAD DUP1 SWAP2 SUB SWAP1 RETURN JUMPDEST PUSH2 0x8A3 PUSH2 0x20FA JUMP JUMPDEST PUSH1 0x40 MLOAD PUSH2 0x8B0 SWAP2 SWAP1 PUSH2 0x34E9 JUMP JUMPDEST PUSH1 0x40 MLOAD DUP1 SWAP2 SUB SWAP1 RETURN JUMPDEST PUSH2 0x8D3 PUSH1 0x4 DUP1 CALLDATASIZE SUB DUP2 ADD SWAP1 PUSH2 0x8CE SWAP2 SWAP1 PUSH2 0x35CD JUMP JUMPDEST PUSH2 0x2100 JUMP JUMPDEST PUSH1 0x40 MLOAD PUSH2 0x8E0 SWAP2 SWAP1 PUSH2 0x34E9 JUMP JUMPDEST PUSH1 0x40 MLOAD DUP1 SWAP2 SUB SWAP1 RETURN JUMPDEST PUSH2 0x903 PUSH1 0x4 DUP1 CALLDATASIZE SUB DUP2 ADD SWAP1 PUSH2 0x8FE SWAP2 SWAP1 PUSH2 0x36C3 JUMP JUMPDEST PUSH2 0x2117 JUMP JUMPDEST PUSH1 0x40 MLOAD PUSH2 0x910 SWAP2 SWAP1 PUSH2 0x34E9 JUMP JUMPDEST PUSH1 0x40 MLOAD DUP1 SWAP2 SUB SWAP1 RETURN JUMPDEST PUSH2 0x921 PUSH2 0x217B JUMP JUMPDEST PUSH1 0x40 MLOAD PUSH2 0x92E SWAP2 SWAP1 PUSH2 0x36AA JUMP JUMPDEST PUSH1 0x40 MLOAD DUP1 SWAP2 SUB SWAP1 RETURN JUMPDEST PUSH2 0x951 PUSH1 0x4 DUP1 CALLDATASIZE SUB DUP2 ADD SWAP1 PUSH2 0x94C SWAP2 SWAP1 PUSH2 0x3880 JUMP JUMPDEST PUSH2 0x218D JUMP JUMPDEST PUSH1 0x40 MLOAD PUSH2 0x95E SWAP2 SWAP1 PUSH2 0x34E9 JUMP JUMPDEST PUSH1 0x40 MLOAD DUP1 SWAP2 SUB SWAP1 RETURN JUMPDEST PUSH2 0x96F PUSH2 0x220F JUMP JUMPDEST PUSH1 0x40 MLOAD PUSH2 0x97C SWAP2 SWAP1 PUSH2 0x34E9 JUMP JUMPDEST PUSH1 0x40 MLOAD DUP1 SWAP2 SUB SWAP1 RETURN JUMPDEST PUSH2 0x99F PUSH1 0x4 DUP1 CALLDATASIZE SUB DUP2 ADD SWAP1 PUSH2 0x99A SWAP2 SWAP1 PUSH2 0x35CD JUMP JUMPDEST PUSH2 0x2242 JUMP JUMPDEST PUSH1 0x40 MLOAD PUSH2 0x9AC SWAP2 SWAP1 PUSH2 0x34E9 JUMP JUMPDEST PUSH1 0x40 MLOAD DUP1 SWAP2 SUB SWAP1 RETURN JUMPDEST PUSH2 0x9CF PUSH1 0x4 DUP1 CALLDATASIZE SUB DUP2 ADD SWAP1 PUSH2 0x9CA SWAP2 SWAP1 PUSH2 0x36C3 JUMP JUMPDEST PUSH2 0x2254 JUMP JUMPDEST PUSH1 0x40 MLOAD PUSH2 0x9DD SWAP3 SWAP2 SWAP1 PUSH2 0x37D8 JUMP JUMPDEST PUSH1 0x40 MLOAD DUP1 SWAP2 SUB SWAP1 RETURN JUMPDEST PUSH2 0xA00 PUSH1 0x4 DUP1 CALLDATASIZE SUB DUP2 ADD SWAP1 PUSH2 0x9FB SWAP2 SWAP1 PUSH2 0x36C3 JUMP JUMPDEST PUSH2 0x2274 JUMP JUMPDEST STOP JUMPDEST PUSH2 0xA0A PUSH2 0x22F8 JUMP JUMPDEST STOP JUMPDEST PUSH0 PUSH0 PUSH2 0xA16 PUSH2 0x1961 JUMP JUMPDEST PUSH20 0xFFFFFFFFFFFFFFFFFFFFFFFFFFFFFFFFFFFFFFFF AND PUSH4 0x70A08231 ADDRESS PUSH1 0x40 MLOAD DUP3 PUSH4 0xFFFFFFFF AND PUSH1 0xE0 SHL DUP2 MSTORE PUSH1 0x4 ADD PUSH2 0xA4E SWAP2 SWAP1 PUSH2 0x3781 JUMP JUMPDEST PUSH1 0x20 PUSH1 0x40 MLOAD DUP1 DUP4 SUB DUP2 DUP7 GAS STATICCALL ISZERO DUP1 ISZERO PUSH2 0xA69 JUMPI RETURNDATASIZE PUSH0 PUSH0 RETURNDATACOPY RETURNDATASIZE PUSH0 REVERT JUMPDEST POP POP POP POP PUSH1 0x40 MLOAD RETURNDATASIZE PUSH1 0x1F NOT PUSH1 0x1F DUP3 ADD AND DUP3 ADD DUP1 PUSH1 0x40 MSTORE POP DUP2 ADD SWAP1 PUSH2 0xA8D SWAP2 SWAP1 PUSH2 0x38D2 JUMP JUMPDEST SWAP1 POP PUSH0 PUSH2 0xA98 PUSH2 0x19C2 JUMP JUMPDEST SWAP1 POP PUSH0 PUSH0 SWAP1 POP PUSH0 PUSH0 PUSH1 0x7 PUSH0 SWAP1 SLOAD SWAP1 PUSH2 0x100 EXP SWAP1 DIV PUSH20 0xFFFFFFFFFFFFFFFFFFFFFFFFFFFFFFFFFFFFFFFF AND PUSH20 0xFFFFFFFFFFFFFFFFFFFFFFFFFFFFFFFFFFFFFFFF AND ADDRESS PUSH1 0x40 MLOAD PUSH1 0x24 ADD PUSH2 0xAE9 SWAP2 SWAP1 PUSH2 0x3781 JUMP JUMPDEST PUSH1 0x40 MLOAD PUSH1 0x20 DUP2 DUP4 SUB SUB DUP2 MSTORE SWAP1 PUSH1 0x40 MSTORE PUSH32 0x402914F500000000000000000000000000000000000000000000000000000000 PUSH28 0xFFFFFFFFFFFFFFFFFFFFFFFFFFFFFFFFFFFFFFFFFFFFFFFFFFFFFFFF NOT AND PUSH1 0x20 DUP3 ADD DUP1 MLOAD PUSH28 0xFFFFFFFFFFFFFFFFFFFFFFFFFFFFFFFFFFFFFFFFFFFFFFFFFFFFFFFF DUP4 DUP2 DUP4 AND OR DUP4 MSTORE POP POP POP POP PUSH1 0x40 MLOAD PUSH2 0xB73 SWAP2 SWAP1 PUSH2 0x3941 JUMP JUMPDEST PUSH0 PUSH1 0x40 MLOAD DUP1 DUP4 SUB DUP2 DUP6 GAS STATICCALL SWAP2 POP POP RETURNDATASIZE DUP1 PUSH0 DUP2 EQ PUSH2 0xBAB JUMPI PUSH1 0x40 MLOAD SWAP2 POP PUSH1 0x1F NOT PUSH1 0x3F RETURNDATASIZE ADD AND DUP3 ADD PUSH1 0x40 MSTORE RETURNDATASIZE DUP3 MSTORE RETURNDATASIZE PUSH0 PUSH1 0x20 DUP5 ADD RETURNDATACOPY PUSH2 0xBB0 JUMP JUMPDEST PUSH1 0x60 SWAP2 POP JUMPDEST POP SWAP2 POP SWAP2 POP DUP2 ISZERO PUSH2 0xBD2 JUMPI DUP1 DUP1 PUSH1 0x20 ADD SWAP1 MLOAD DUP2 ADD SWAP1 PUSH2 0xBCF SWAP2 SWAP1 PUSH2 0x38D2 JUMP JUMPDEST SWAP3 POP JUMPDEST DUP4 DUP4 DUP7 PUSH2 0xBDF SWAP2 SWAP1 PUSH2 0x3984 JUMP JUMPDEST LT PUSH2 0xC07 JUMPI DUP4 DUP4 DUP7 PUSH2 0xBF1 SWAP2 SWAP1 PUSH2 0x3984 JUMP JUMPDEST PUSH2 0xBFB SWAP2 SWAP1 PUSH2 0x39B7 JUMP JUMPDEST SWAP6 POP POP POP POP POP POP PUSH2 0xC10 JUMP JUMPDEST PUSH0 SWAP6 POP POP POP POP POP POP JUMPDEST SWAP1 JUMP JUMPDEST PUSH1 0x13 SLOAD DUP2 JUMP JUMPDEST PUSH1 0x60 PUSH1 0x4 DUP1 SLOAD PUSH2 0xC28 SWAP1 PUSH2 0x3A17 JUMP JUMPDEST DUP1 PUSH1 0x1F ADD PUSH1 0x20 DUP1 SWAP2 DIV MUL PUSH1 0x20 ADD PUSH1 0x40 MLOAD SWAP1 DUP2 ADD PUSH1 0x40 MSTORE DUP1 SWAP3 SWAP2 SWAP1 DUP2 DUP2 MSTORE PUSH1 0x20 ADD DUP3 DUP1 SLOAD PUSH2 0xC54 SWAP1 PUSH2 0x3A17 JUMP JUMPDEST DUP1 ISZERO PUSH2 0xC9F JUMPI DUP1 PUSH1 0x1F LT PUSH2 0xC76 JUMPI PUSH2 0x100 DUP1 DUP4 SLOAD DIV MUL DUP4 MSTORE SWAP2 PUSH1 0x20 ADD SWAP2 PUSH2 0xC9F JUMP JUMPDEST DUP3 ADD SWAP2 SWAP1 PUSH0 MSTORE PUSH1 0x20 PUSH0 KECCAK256 SWAP1 JUMPDEST DUP2 SLOAD DUP2 MSTORE SWAP1 PUSH1 0x1 ADD SWAP1 PUSH1 0x20 ADD DUP1 DUP4 GT PUSH2 0xC82 JUMPI DUP3 SWAP1 SUB PUSH1 0x1F AND DUP3 ADD SWAP2 JUMPDEST POP POP POP POP POP SWAP1 POP SWAP1 JUMP JUMPDEST PUSH0 PUSH2 0xCB4 DUP3 PUSH0 PUSH2 0x2338 JUMP JUMPDEST SWAP1 POP SWAP2 SWAP1 POP JUMP JUMPDEST PUSH0 PUSH0 PUSH2 0xCC5 PUSH2 0x2390 JUMP JUMPDEST SWAP1 POP PUSH2 0xCD2 DUP2 DUP6 DUP6 PUSH2 0x2397 JUMP JUMPDEST PUSH1 0x1 SWAP2 POP POP SWAP3 SWAP2 POP POP JUMP JUMPDEST PUSH0 PUSH2 0xCE9 DUP3 PUSH1 0x1 PUSH2 0x23A9 JUMP JUMPDEST SWAP1 POP SWAP2 SWAP1 POP JUMP JUMPDEST PUSH2 0xCF8 PUSH2 0x2401 JUMP JUMPDEST PUSH2 0xD0B PUSH2 0xD03 PUSH2 0x1961 JUMP JUMPDEST CALLER ADDRESS DUP5 PUSH2 0x2488 JUMP JUMPDEST PUSH0 PUSH2 0xD15 DUP3 PUSH2 0x194A JUMP JUMPDEST SWAP1 POP DUP1 PUSH1 0xA PUSH0 DUP3 DUP3 SLOAD PUSH2 0xD28 SWAP2 SWAP1 PUSH2 0x3984 JUMP JUMPDEST SWAP3 POP POP DUP2 SWAP1 SSTORE POP PUSH32 0xF6B55BAB6D7E270C7D22C26E35D0AAC12C5C55EC34526CF4E7FFF7015BBDF562 DUP3 PUSH1 0x40 MLOAD PUSH2 0xD5E SWAP2 SWAP1 PUSH2 0x34E9 JUMP JUMPDEST PUSH1 0x40 MLOAD DUP1 SWAP2 SUB SWAP1 LOG1 PUSH32 0x49B15D0536554A8FBC082A1FAB1F1F7FE05E6F13F44B3C05DAC82F103257D6C8 TIMESTAMP PUSH2 0xD90 PUSH2 0xA0C JUMP JUMPDEST PUSH2 0xD98 PUSH2 0xDB3 JUMP JUMPDEST PUSH1 0x40 MLOAD PUSH2 0xDA7 SWAP4 SWAP3 SWAP2 SWAP1 PUSH2 0x3A47 JUMP JUMPDEST PUSH1 0x40 MLOAD DUP1 SWAP2 SUB SWAP1 LOG1 POP POP JUMP JUMPDEST PUSH0 PUSH1 0x3 SLOAD SWAP1 POP SWAP1 JUMP JUMPDEST PUSH0 PUSH2 0xDC5 PUSH2 0x22F8 JUMP JUMPDEST PUSH2 0xDCE DUP3 PUSH2 0x1B35 JUMP JUMPDEST SWAP1 POP TIMESTAMP PUSH1 0xE PUSH0 DUP5 PUSH20 0xFFFFFFFFFFFFFFFFFFFFFFFFFFFFFFFFFFFFFFFF AND PUSH20 0xFFFFFFFFFFFFFFFFFFFFFFFFFFFFFFFFFFFFFFFF AND DUP2 MSTORE PUSH1 0x20 ADD SWAP1 DUP2 MSTORE PUSH1 0x20 ADD PUSH0 KECCAK256 PUSH1 0x1 ADD DUP2 SWAP1 SSTORE POP DUP1 PUSH1 0xB PUSH0 DUP3 DUP3 SLOAD PUSH2 0xE26 SWAP2 SWAP1 PUSH2 0x3984 JUMP JUMPDEST SWAP3 POP POP DUP2 SWAP1 SSTORE POP PUSH2 0xE3F PUSH2 0xE38 PUSH2 0x1961 JUMP JUMPDEST DUP4 DUP4 PUSH2 0x250A JUMP JUMPDEST DUP2 PUSH20 0xFFFFFFFFFFFFFFFFFFFFFFFFFFFFFFFFFFFFFFFF AND PUSH32 0xBB838A6261EE73AA6C6E5FFE262E016E3032E03406B6F3233D523874A2D1BFD5 DUP3 PUSH1 0x40 MLOAD PUSH2 0xE85 SWAP2 SWAP1 PUSH2 0x34E9 JUMP JUMPDEST PUSH1 0x40 MLOAD DUP1 SWAP2 SUB SWAP1 LOG2 PUSH32 0x49B15D0536554A8FBC082A1FAB1F1F7FE05E6F13F44B3C05DAC82F103257D6C8 TIMESTAMP PUSH2 0xEB7 PUSH2 0xA0C JUMP JUMPDEST PUSH2 0xEBF PUSH2 0xDB3 JUMP JUMPDEST PUSH1 0x40 MLOAD PUSH2 0xECE SWAP4 SWAP3 SWAP2 SWAP1 PUSH2 0x3A47 JUMP JUMPDEST PUSH1 0x40 MLOAD DUP1 SWAP2 SUB SWAP1 LOG1 SWAP2 SWAP1 POP JUMP JUMPDEST PUSH1 0x12 SLOAD DUP2 JUMP JUMPDEST PUSH2 0xEE9 PUSH2 0x2401 JUMP JUMPDEST PUSH0 PUSH2 0xEF3 DUP3 PUSH2 0x194A JUMP JUMPDEST SWAP1 POP PUSH0 PUSH1 0xE PUSH0 DUP6 PUSH20 0xFFFFFFFFFFFFFFFFFFFFFFFFFFFFFFFFFFFFFFFF AND PUSH20 0xFFFFFFFFFFFFFFFFFFFFFFFFFFFFFFFFFFFFFFFF AND DUP2 MSTORE PUSH1 0x20 ADD SWAP1 DUP2 MSTORE PUSH1 0x20 ADD PUSH0 KECCAK256 PUSH0 ADD SLOAD SWAP1 POP PUSH1 0x7 PUSH0 SWAP1 SLOAD SWAP1 PUSH2 0x100 EXP SWAP1 DIV PUSH20 0xFFFFFFFFFFFFFFFFFFFFFFFFFFFFFFFFFFFFFFFF AND PUSH20 0xFFFFFFFFFFFFFFFFFFFFFFFFFFFFFFFFFFFFFFFF AND DUP5 PUSH20 0xFFFFFFFFFFFFFFFFFFFFFFFFFFFFFFFFFFFFFFFF AND SUB PUSH2 0xFC7 JUMPI PUSH1 0x40 MLOAD PUSH32 0x8C379A000000000000000000000000000000000000000000000000000000000 DUP2 MSTORE PUSH1 0x4 ADD PUSH2 0xFBE SWAP1 PUSH2 0x3AC6 JUMP JUMPDEST PUSH1 0x40 MLOAD DUP1 SWAP2 SUB SWAP1 REVERT JUMPDEST PUSH0 PUSH1 0xF PUSH0 DUP7 PUSH20 0xFFFFFFFFFFFFFFFFFFFFFFFFFFFFFFFFFFFFFFFF AND PUSH20 0xFFFFFFFFFFFFFFFFFFFFFFFFFFFFFFFFFFFFFFFF AND DUP2 MSTORE PUSH1 0x20 ADD SWAP1 DUP2 MSTORE PUSH1 0x20 ADD PUSH0 KECCAK256 PUSH1 0x1 ADD SLOAD EQ PUSH2 0x1049 JUMPI PUSH1 0x40 MLOAD PUSH32 0x8C379A000000000000000000000000000000000000000000000000000000000 DUP2 MSTORE PUSH1 0x4 ADD PUSH2 0x1040 SWAP1 PUSH2 0x3B2E JUMP JUMPDEST PUSH1 0x40 MLOAD DUP1 SWAP2 SUB SWAP1 REVERT JUMPDEST DUP1 DUP3 SUB PUSH2 0x108B JUMPI PUSH1 0x40 MLOAD PUSH32 0x8C379A000000000000000000000000000000000000000000000000000000000 DUP2 MSTORE PUSH1 0x4 ADD PUSH2 0x1082 SWAP1 PUSH2 0x3B96 JUMP JUMPDEST PUSH1 0x40 MLOAD DUP1 SWAP2 SUB SWAP1 REVERT JUMPDEST PUSH32 0x7FFFFFFFFFFFFFFFFFFFFFFFFFFFFFFFFFFFFFFFFFFFFFFFFFFFFFFFFFFFFFFF DUP3 GT ISZERO PUSH2 0x10EE JUMPI PUSH1 0x40 MLOAD PUSH32 0x8C379A000000000000000000000000000000000000000000000000000000000 DUP2 MSTORE PUSH1 0x4 ADD PUSH2 0x10E5 SWAP1 PUSH2 0x3BFE JUMP JUMPDEST PUSH1 0x40 MLOAD DUP1 SWAP2 SUB SWAP1 REVERT JUMPDEST PUSH0 DUP2 DUP4 PUSH2 0x10FB SWAP2 SWAP1 PUSH2 0x3C1C JUMP JUMPDEST SWAP1 POP PUSH0 DUP2 PUSH1 0x9 SLOAD PUSH2 0x110C SWAP2 SWAP1 PUSH2 0x3C5C JUMP JUMPDEST SWAP1 POP PUSH0 PUSH1 0xA PUSH1 0x8 SLOAD PUSH2 0x111E SWAP2 SWAP1 PUSH2 0x3CCA JUMP JUMPDEST SWAP1 POP DUP1 DUP3 SLT PUSH2 0x120A JUMPI DUP1 PUSH1 0x9 SLOAD SLT PUSH2 0x119B JUMPI PUSH1 0xA SLOAD DUP4 SGT ISZERO PUSH2 0x1175 JUMPI PUSH1 0x40 MLOAD PUSH32 0x8C379A000000000000000000000000000000000000000000000000000000000 DUP2 MSTORE PUSH1 0x4 ADD PUSH2 0x116C SWAP1 PUSH2 0x3D44 JUMP JUMPDEST PUSH1 0x40 MLOAD DUP1 SWAP2 SUB SWAP1 REVERT JUMPDEST PUSH0 DUP4 SGT ISZERO PUSH2 0x1196 JUMPI DUP3 PUSH1 0xA PUSH0 DUP3 DUP3 SLOAD PUSH2 0x118E SWAP2 SWAP1 PUSH2 0x39B7 JUMP JUMPDEST SWAP3 POP POP DUP2 SWAP1 SSTORE POP JUMPDEST PUSH2 0x1209 JUMP JUMPDEST PUSH0 DUP2 DUP4 PUSH2 0x11A8 SWAP2 SWAP1 PUSH2 0x39B7 JUMP JUMPDEST SWAP1 POP PUSH1 0xA SLOAD DUP2 GT ISZERO PUSH2 0x11EF JUMPI PUSH1 0x40 MLOAD PUSH32 0x8C379A000000000000000000000000000000000000000000000000000000000 DUP2 MSTORE PUSH1 0x4 ADD PUSH2 0x11E6 SWAP1 PUSH2 0x3D44 JUMP JUMPDEST PUSH1 0x40 MLOAD DUP1 SWAP2 SUB SWAP1 REVERT JUMPDEST DUP1 PUSH1 0xA PUSH0 DUP3 DUP3 SLOAD PUSH2 0x1200 SWAP2 SWAP1 PUSH2 0x39B7 JUMP JUMPDEST SWAP3 POP POP DUP2 SWAP1 SSTORE POP POP JUMPDEST JUMPDEST DUP2 PUSH1 0x9 DUP2 SWAP1 SSTORE POP PUSH3 0x15180 TIMESTAMP PUSH2 0x1220 SWAP2 SWAP1 PUSH2 0x3984 JUMP JUMPDEST PUSH1 0xF PUSH0 DUP10 PUSH20 0xFFFFFFFFFFFFFFFFFFFFFFFFFFFFFFFFFFFFFFFF AND PUSH20 0xFFFFFFFFFFFFFFFFFFFFFFFFFFFFFFFFFFFFFFFF AND DUP2 MSTORE PUSH1 0x20 ADD SWAP1 DUP2 MSTORE PUSH1 0x20 ADD PUSH0 KECCAK256 PUSH1 0x1 ADD DUP2 SWAP1 SSTORE POP DUP5 PUSH1 0xF PUSH0 DUP10 PUSH20 0xFFFFFFFFFFFFFFFFFFFFFFFFFFFFFFFFFFFFFFFF AND PUSH20 0xFFFFFFFFFFFFFFFFFFFFFFFFFFFFFFFFFFFFFFFF AND DUP2 MSTORE PUSH1 0x20 ADD SWAP1 DUP2 MSTORE PUSH1 0x20 ADD PUSH0 KECCAK256 PUSH0 ADD DUP2 SWAP1 SSTORE POP DUP7 PUSH20 0xFFFFFFFFFFFFFFFFFFFFFFFFFFFFFFFFFFFFFFFF AND PUSH32 0x64144AE9D460C32CC32E8F5DC77D40FBAE4600C5575BCB07D755D2A2A4046D7F PUSH1 0xF PUSH0 DUP11 PUSH20 0xFFFFFFFFFFFFFFFFFFFFFFFFFFFFFFFFFFFFFFFF AND PUSH20 0xFFFFFFFFFFFFFFFFFFFFFFFFFFFFFFFFFFFFFFFF AND DUP2 MSTORE PUSH1 0x20 ADD SWAP1 DUP2 MSTORE PUSH1 0x20 ADD PUSH0 KECCAK256 PUSH1 0x1 ADD SLOAD PUSH2 0x132A DUP8 PUSH2 0x2100 JUMP JUMPDEST DUP10 PUSH1 0x40 MLOAD PUSH2 0x133A SWAP4 SWAP3 SWAP2 SWAP1 PUSH2 0x3A47 JUMP JUMPDEST PUSH1 0x40 MLOAD DUP1 SWAP2 SUB SWAP1 LOG2 POP POP POP POP POP POP POP JUMP JUMPDEST PUSH0 PUSH0 PUSH2 0x1355 PUSH2 0x2390 JUMP JUMPDEST SWAP1 POP PUSH2 0x1362 DUP6 DUP3 DUP6 PUSH2 0x2589 JUMP JUMPDEST PUSH2 0x136D DUP6 DUP6 DUP6 PUSH2 0x261B JUMP JUMPDEST PUSH1 0x1 SWAP2 POP POP SWAP4 SWAP3 POP POP POP JUMP JUMPDEST PUSH0 PUSH2 0x1382 PUSH2 0x270B JUMP JUMPDEST PUSH32 0x0 PUSH2 0x13AD SWAP2 SWAP1 PUSH2 0x3D62 JUMP JUMPDEST SWAP1 POP SWAP1 JUMP JUMPDEST PUSH0 PUSH1 0xF PUSH0 DUP4 PUSH20 0xFFFFFFFFFFFFFFFFFFFFFFFFFFFFFFFFFFFFFFFF AND PUSH20 0xFFFFFFFFFFFFFFFFFFFFFFFFFFFFFFFFFFFFFFFF AND DUP2 MSTORE PUSH1 0x20 ADD SWAP1 DUP2 MSTORE PUSH1 0x20 ADD PUSH0 KECCAK256 PUSH1 0x1 ADD SLOAD SUB PUSH2 0x1434 JUMPI PUSH1 0x40 MLOAD PUSH32 0x8C379A000000000000000000000000000000000000000000000000000000000 DUP2 MSTORE PUSH1 0x4 ADD PUSH2 0x142B SWAP1 PUSH2 0x3DE0 JUMP JUMPDEST PUSH1 0x40 MLOAD DUP1 SWAP2 SUB SWAP1 REVERT JUMPDEST TIMESTAMP PUSH1 0xF PUSH0 DUP4 PUSH20 0xFFFFFFFFFFFFFFFFFFFFFFFFFFFFFFFFFFFFFFFF AND PUSH20 0xFFFFFFFFFFFFFFFFFFFFFFFFFFFFFFFFFFFFFFFF AND DUP2 MSTORE PUSH1 0x20 ADD SWAP1 DUP2 MSTORE PUSH1 0x20 ADD PUSH0 KECCAK256 PUSH1 0x1 ADD SLOAD GT ISZERO PUSH2 0x14B7 JUMPI PUSH1 0x40 MLOAD PUSH32 0x8C379A000000000000000000000000000000000000000000000000000000000 DUP2 MSTORE PUSH1 0x4 ADD PUSH2 0x14AE SWAP1 PUSH2 0x3E48 JUMP JUMPDEST PUSH1 0x40 MLOAD DUP1 SWAP2 SUB SWAP1 REVERT JUMPDEST PUSH2 0x14C0 DUP2 PUSH2 0xDBC JUMP JUMPDEST POP PUSH0 PUSH1 0xE PUSH0 DUP4 PUSH20 0xFFFFFFFFFFFFFFFFFFFFFFFFFFFFFFFFFFFFFFFF AND PUSH20 0xFFFFFFFFFFFFFFFFFFFFFFFFFFFFFFFFFFFFFFFF AND DUP2 MSTORE PUSH1 0x20 ADD SWAP1 DUP2 MSTORE PUSH1 0x20 ADD PUSH0 KECCAK256 PUSH0 ADD SLOAD SUB PUSH2 0x158F JUMPI PUSH1 0x6 PUSH0 SWAP1 SLOAD SWAP1 PUSH2 0x100 EXP SWAP1 DIV PUSH20 0xFFFFFFFFFFFFFFFFFFFFFFFFFFFFFFFFFFFFFFFF AND PUSH20 0xFFFFFFFFFFFFFFFFFFFFFFFFFFFFFFFFFFFFFFFF AND PUSH4 0x8CECFB0F DUP3 PUSH1 0x40 MLOAD DUP3 PUSH4 0xFFFFFFFF AND PUSH1 0xE0 SHL DUP2 MSTORE PUSH1 0x4 ADD PUSH2 0x1561 SWAP2 SWAP1 PUSH2 0x3781 JUMP JUMPDEST PUSH0 PUSH1 0x40 MLOAD DUP1 DUP4 SUB DUP2 PUSH0 DUP8 DUP1 EXTCODESIZE ISZERO DUP1 ISZERO PUSH2 0x1578 JUMPI PUSH0 PUSH0 REVERT JUMPDEST POP GAS CALL ISZERO DUP1 ISZERO PUSH2 0x158A JUMPI RETURNDATASIZE PUSH0 PUSH0 RETURNDATACOPY RETURNDATASIZE PUSH0 REVERT JUMPDEST POP POP POP POP JUMPDEST PUSH0 PUSH1 0xF PUSH0 DUP4 PUSH20 0xFFFFFFFFFFFFFFFFFFFFFFFFFFFFFFFFFFFFFFFF AND PUSH20 0xFFFFFFFFFFFFFFFFFFFFFFFFFFFFFFFFFFFFFFFF AND DUP2 MSTORE PUSH1 0x20 ADD SWAP1 DUP2 MSTORE PUSH1 0x20 ADD PUSH0 KECCAK256 PUSH0 ADD SLOAD SUB PUSH2 0x165D JUMPI PUSH1 0x6 PUSH0 SWAP1 SLOAD SWAP1 PUSH2 0x100 EXP SWAP1 DIV PUSH20 0xFFFFFFFFFFFFFFFFFFFFFFFFFFFFFFFFFFFFFFFF AND PUSH20 0xFFFFFFFFFFFFFFFFFFFFFFFFFFFFFFFFFFFFFFFF AND PUSH4 0x5D11E38D DUP3 PUSH1 0x40 MLOAD DUP3 PUSH4 0xFFFFFFFF AND PUSH1 0xE0 SHL DUP2 MSTORE PUSH1 0x4 ADD PUSH2 0x162F SWAP2 SWAP1 PUSH2 0x3781 JUMP JUMPDEST PUSH0 PUSH1 0x40 MLOAD DUP1 DUP4 SUB DUP2 PUSH0 DUP8 DUP1 EXTCODESIZE ISZERO DUP1 ISZERO PUSH2 0x1646 JUMPI PUSH0 PUSH0 REVERT JUMPDEST POP GAS CALL ISZERO DUP1 ISZERO PUSH2 0x1658 JUMPI RETURNDATASIZE PUSH0 PUSH0 RETURNDATACOPY RETURNDATASIZE PUSH0 REVERT JUMPDEST POP POP POP POP JUMPDEST PUSH1 0xF PUSH0 DUP3 PUSH20 0xFFFFFFFFFFFFFFFFFFFFFFFFFFFFFFFFFFFFFFFF AND PUSH20 0xFFFFFFFFFFFFFFFFFFFFFFFFFFFFFFFFFFFFFFFF AND DUP2 MSTORE PUSH1 0x20 ADD SWAP1 DUP2 MSTORE PUSH1 0x20 ADD PUSH0 KECCAK256 PUSH0 ADD SLOAD PUSH1 0xE PUSH0 DUP4 PUSH20 0xFFFFFFFFFFFFFFFFFFFFFFFFFFFFFFFFFFFFFFFF AND PUSH20 0xFFFFFFFFFFFFFFFFFFFFFFFFFFFFFFFFFFFFFFFF AND DUP2 MSTORE PUSH1 0x20 ADD SWAP1 DUP2 MSTORE PUSH1 0x20 ADD PUSH0 KECCAK256 PUSH0 ADD SLOAD PUSH1 0x8 SLOAD PUSH2 0x16EA SWAP2 SWAP1 PUSH2 0x39B7 JUMP JUMPDEST PUSH2 0x16F4 SWAP2 SWAP1 PUSH2 0x3984 JUMP JUMPDEST PUSH1 0x8 DUP2 SWAP1 SSTORE POP PUSH1 0xE PUSH0 DUP3 PUSH20 0xFFFFFFFFFFFFFFFFFFFFFFFFFFFFFFFFFFFFFFFF AND PUSH20 0xFFFFFFFFFFFFFFFFFFFFFFFFFFFFFFFFFFFFFFFF AND DUP2 MSTORE PUSH1 0x20 ADD SWAP1 DUP2 MSTORE PUSH1 0x20 ADD PUSH0 KECCAK256 PUSH0 ADD SLOAD PUSH1 0xF PUSH0 DUP4 PUSH20 0xFFFFFFFFFFFFFFFFFFFFFFFFFFFFFFFFFFFFFFFF AND PUSH20 0xFFFFFFFFFFFFFFFFFFFFFFFFFFFFFFFFFFFFFFFF AND DUP2 MSTORE PUSH1 0x20 ADD SWAP1 DUP2 MSTORE PUSH1 0x20 ADD PUSH0 KECCAK256 PUSH0 ADD SLOAD PUSH1 0x9 SLOAD PUSH2 0x1787 SWAP2 SWAP1 PUSH2 0x3C1C JUMP JUMPDEST PUSH2 0x1791 SWAP2 SWAP1 PUSH2 0x3C5C JUMP JUMPDEST PUSH1 0x9 DUP2 SWAP1 SSTORE POP PUSH1 0xF PUSH0 DUP3 PUSH20 0xFFFFFFFFFFFFFFFFFFFFFFFFFFFFFFFFFFFFFFFF AND PUSH20 0xFFFFFFFFFFFFFFFFFFFFFFFFFFFFFFFFFFFFFFFF AND DUP2 MSTORE PUSH1 0x20 ADD SWAP1 DUP2 MSTORE PUSH1 0x20 ADD PUSH0 KECCAK256 PUSH0 ADD SLOAD PUSH1 0xE PUSH0 DUP4 PUSH20 0xFFFFFFFFFFFFFFFFFFFFFFFFFFFFFFFFFFFFFFFF AND PUSH20 0xFFFFFFFFFFFFFFFFFFFFFFFFFFFFFFFFFFFFFFFF AND DUP2 MSTORE PUSH1 0x20 ADD SWAP1 DUP2 MSTORE PUSH1 0x20 ADD PUSH0 KECCAK256 PUSH0 ADD DUP2 SWAP1 SSTORE POP PUSH1 0xF PUSH0 DUP3 PUSH20 0xFFFFFFFFFFFFFFFFFFFFFFFFFFFFFFFFFFFFFFFF AND PUSH20 0xFFFFFFFFFFFFFFFFFFFFFFFFFFFFFFFFFFFFFFFF AND DUP2 MSTORE PUSH1 0x20 ADD SWAP1 DUP2 MSTORE PUSH1 0x20 ADD PUSH0 KECCAK256 PUSH0 PUSH0 DUP3 ADD PUSH0 SWAP1 SSTORE PUSH1 0x1 DUP3 ADD PUSH0 SWAP1 SSTORE POP POP DUP1 PUSH20 0xFFFFFFFFFFFFFFFFFFFFFFFFFFFFFFFFFFFFFFFF AND PUSH32 0x9668D0B1DFF55CEBFE2E208F5FEB38BE63A65F650E3EC79F1E0BB98A883538DB PUSH2 0x18E7 PUSH1 0xE PUSH0 DUP6 PUSH20 0xFFFFFFFFFFFFFFFFFFFFFFFFFFFFFFFFFFFFFFFF AND PUSH20 0xFFFFFFFFFFFFFFFFFFFFFFFFFFFFFFFFFFFFFFFF AND DUP2 MSTORE PUSH1 0x20 ADD SWAP1 DUP2 MSTORE PUSH1 0x20 ADD PUSH0 KECCAK256 PUSH0 ADD SLOAD PUSH2 0x2100 JUMP JUMPDEST TIMESTAMP PUSH1 0x40 MLOAD PUSH2 0x18F6 SWAP3 SWAP2 SWAP1 PUSH2 0x37D8 JUMP JUMPDEST PUSH1 0x40 MLOAD DUP1 SWAP2 SUB SWAP1 LOG2 PUSH32 0x49B15D0536554A8FBC082A1FAB1F1F7FE05E6F13F44B3C05DAC82F103257D6C8 TIMESTAMP PUSH2 0x1928 PUSH2 0xA0C JUMP JUMPDEST PUSH2 0x1930 PUSH2 0xDB3 JUMP JUMPDEST PUSH1 0x40 MLOAD PUSH2 0x193F SWAP4 SWAP3 SWAP2 SWAP1 PUSH2 0x3A47 JUMP JUMPDEST PUSH1 0x40 MLOAD DUP1 SWAP2 SUB SWAP1 LOG1 POP JUMP JUMPDEST PUSH0 PUSH2 0x195A DUP3 PUSH1 0x1 PUSH3 0x278D00 PUSH2 0x2713 JUMP JUMPDEST SWAP1 POP SWAP2 SWAP1 POP JUMP JUMPDEST PUSH0 PUSH32 0x0 SWAP1 POP SWAP1 JUMP JUMPDEST PUSH1 0x8 SLOAD DUP2 JUMP JUMPDEST PUSH0 PUSH2 0x19BB PUSH2 0x199A PUSH2 0xDB3 JUMP JUMPDEST PUSH2 0x19AB PUSH1 0x12 SLOAD PUSH1 0x13 SLOAD PUSH2 0x2710 PUSH2 0x2713 JUMP JUMPDEST PUSH2 0x19B5 SWAP2 SWAP1 PUSH2 0x39B7 JUMP JUMPDEST PUSH0 PUSH2 0x2338 JUMP JUMPDEST SWAP1 POP SWAP2 SWAP1 POP JUMP JUMPDEST PUSH0 PUSH1 0xB SLOAD PUSH2 0x19CE PUSH2 0x220F JUMP JUMPDEST PUSH2 0x19D8 SWAP2 SWAP1 PUSH2 0x39B7 JUMP JUMPDEST SWAP1 POP SWAP1 JUMP JUMPDEST PUSH0 PUSH2 0x19E8 DUP3 PUSH0 PUSH2 0x2338 JUMP JUMPDEST SWAP1 POP SWAP2 SWAP1 POP JUMP JUMPDEST PUSH0 PUSH2 0x19F8 PUSH2 0x1C6D JUMP JUMPDEST PUSH2 0x1A02 DUP4 DUP4 PUSH2 0x27F8 JUMP JUMPDEST SWAP1 POP SWAP3 SWAP2 POP POP JUMP JUMPDEST PUSH0 PUSH1 0x1 PUSH0 DUP4 PUSH20 0xFFFFFFFFFFFFFFFFFFFFFFFFFFFFFFFFFFFFFFFF AND PUSH20 0xFFFFFFFFFFFFFFFFFFFFFFFFFFFFFFFFFFFFFFFF AND DUP2 MSTORE PUSH1 0x20 ADD SWAP1 DUP2 MSTORE PUSH1 0x20 ADD PUSH0 KECCAK256 SLOAD SWAP1 POP SWAP2 SWAP1 POP JUMP JUMPDEST PUSH2 0x1A58 PUSH2 0x2401 JUMP JUMPDEST PUSH2 0x1A61 PUSH0 PUSH2 0x2878 JUMP JUMPDEST JUMP JUMPDEST PUSH0 PUSH0 PUSH0 SWAP1 SLOAD SWAP1 PUSH2 0x100 EXP SWAP1 DIV PUSH20 0xFFFFFFFFFFFFFFFFFFFFFFFFFFFFFFFFFFFFFFFF AND SWAP1 POP SWAP1 JUMP JUMPDEST PUSH0 PUSH2 0x1A93 PUSH2 0x1C6D JUMP JUMPDEST PUSH2 0x1A9D DUP4 DUP4 PUSH2 0x2939 JUMP JUMPDEST SWAP1 POP SWAP3 SWAP2 POP POP JUMP JUMPDEST PUSH1 0x60 PUSH1 0x5 DUP1 SLOAD PUSH2 0x1AB4 SWAP1 PUSH2 0x3A17 JUMP JUMPDEST DUP1 PUSH1 0x1F ADD PUSH1 0x20 DUP1 SWAP2 DIV MUL PUSH1 0x20 ADD PUSH1 0x40 MLOAD SWAP1 DUP2 ADD PUSH1 0x40 MSTORE DUP1 SWAP3 SWAP2 SWAP1 DUP2 DUP2 MSTORE PUSH1 0x20 ADD DUP3 DUP1 SLOAD PUSH2 0x1AE0 SWAP1 PUSH2 0x3A17 JUMP JUMPDEST DUP1 ISZERO PUSH2 0x1B2B JUMPI DUP1 PUSH1 0x1F LT PUSH2 0x1B02 JUMPI PUSH2 0x100 DUP1 DUP4 SLOAD DIV MUL DUP4 MSTORE SWAP2 PUSH1 0x20 ADD SWAP2 PUSH2 0x1B2B JUMP JUMPDEST DUP3 ADD SWAP2 SWAP1 PUSH0 MSTORE PUSH1 0x20 PUSH0 KECCAK256 SWAP1 JUMPDEST DUP2 SLOAD DUP2 MSTORE SWAP1 PUSH1 0x1 ADD SWAP1 PUSH1 0x20 ADD DUP1 DUP4 GT PUSH2 0x1B0E JUMPI DUP3 SWAP1 SUB PUSH1 0x1F AND DUP3 ADD SWAP2 JUMPDEST POP POP POP POP POP SWAP1 POP SWAP1 JUMP JUMPDEST PUSH0 PUSH0 PUSH1 0xE PUSH0 DUP5 PUSH20 0xFFFFFFFFFFFFFFFFFFFFFFFFFFFFFFFFFFFFFFFF AND PUSH20 0xFFFFFFFFFFFFFFFFFFFFFFFFFFFFFFFFFFFFFFFF AND DUP2 MSTORE PUSH1 0x20 ADD SWAP1 DUP2 MSTORE PUSH1 0x20 ADD PUSH0 KECCAK256 PUSH1 0x1 ADD SLOAD TIMESTAMP PUSH2 0x1B83 SWAP2 SWAP1 PUSH2 0x39B7 JUMP JUMPDEST SWAP1 POP PUSH2 0x1BD0 PUSH1 0xE PUSH0 DUP6 PUSH20 0xFFFFFFFFFFFFFFFFFFFFFFFFFFFFFFFFFFFFFFFF AND PUSH20 0xFFFFFFFFFFFFFFFFFFFFFFFFFFFFFFFFFFFFFFFF AND DUP2 MSTORE PUSH1 0x20 ADD SWAP1 DUP2 MSTORE PUSH1 0x20 ADD PUSH0 KECCAK256 PUSH0 ADD SLOAD DUP3 PUSH1 0x1 PUSH2 0x2713 JUMP JUMPDEST SWAP2 POP POP SWAP2 SWAP1 POP JUMP JUMPDEST PUSH0 PUSH0 PUSH2 0x1BE2 PUSH2 0x2390 JUMP JUMPDEST SWAP1 POP PUSH2 0x1BEF DUP2 DUP6 DUP6 PUSH2 0x261B JUMP JUMPDEST PUSH1 0x1 SWAP2 POP POP SWAP3 SWAP2 POP POP JUMP JUMPDEST PUSH1 0xF PUSH1 0x20 MSTORE DUP1 PUSH0 MSTORE PUSH1 0x40 PUSH0 KECCAK256 PUSH0 SWAP2 POP SWAP1 POP DUP1 PUSH0 ADD SLOAD SWAP1 DUP1 PUSH1 0x1 ADD SLOAD SWAP1 POP DUP3 JUMP JUMPDEST PUSH0 PUSH2 0x1C26 DUP3 PUSH1 0x1 PUSH2 0x2338 JUMP JUMPDEST SWAP1 POP SWAP2 SWAP1 POP JUMP JUMPDEST PUSH0 PUSH2 0x1C36 PUSH2 0x1C6D JUMP JUMPDEST PUSH2 0x1C41 DUP5 DUP5 DUP5 PUSH2 0x29B9 JUMP JUMPDEST SWAP1 POP SWAP4 SWAP3 POP POP POP JUMP JUMPDEST PUSH0 PUSH2 0x1C53 PUSH2 0x1C6D JUMP JUMPDEST PUSH2 0x1C5E DUP5 DUP5 DUP5 PUSH2 0x2A3B JUMP JUMPDEST SWAP1 POP SWAP4 SWAP3 POP POP POP JUMP JUMPDEST PUSH1 0x9 SLOAD DUP2 JUMP JUMPDEST PUSH0 PUSH1 0x7 PUSH0 SWAP1 SLOAD SWAP1 PUSH2 0x100 EXP SWAP1 DIV PUSH20 0xFFFFFFFFFFFFFFFFFFFFFFFFFFFFFFFFFFFFFFFF AND PUSH20 0xFFFFFFFFFFFFFFFFFFFFFFFFFFFFFFFFFFFFFFFF AND ADDRESS PUSH1 0x40 MLOAD PUSH1 0x24 ADD PUSH2 0x1CB7 SWAP2 SWAP1 PUSH2 0x3781 JUMP JUMPDEST PUSH1 0x40 MLOAD PUSH1 0x20 DUP2 DUP4 SUB SUB DUP2 MSTORE SWAP1 PUSH1 0x40 MSTORE PUSH32 0x1E83409A00000000000000000000000000000000000000000000000000000000 PUSH28 0xFFFFFFFFFFFFFFFFFFFFFFFFFFFFFFFFFFFFFFFFFFFFFFFFFFFFFFFF NOT AND PUSH1 0x20 DUP3 ADD DUP1 MLOAD PUSH28 0xFFFFFFFFFFFFFFFFFFFFFFFFFFFFFFFFFFFFFFFFFFFFFFFFFFFFFFFF DUP4 DUP2 DUP4 AND OR DUP4 MSTORE POP POP POP POP PUSH1 0x40 MLOAD PUSH2 0x1D41 SWAP2 SWAP1 PUSH2 0x3941 JUMP JUMPDEST PUSH0 PUSH1 0x40 MLOAD DUP1 DUP4 SUB DUP2 PUSH0 DUP7 GAS CALL SWAP2 POP POP RETURNDATASIZE DUP1 PUSH0 DUP2 EQ PUSH2 0x1D7A JUMPI PUSH1 0x40 MLOAD SWAP2 POP PUSH1 0x1F NOT PUSH1 0x3F RETURNDATASIZE ADD AND DUP3 ADD PUSH1 0x40 MSTORE RETURNDATASIZE DUP3 MSTORE RETURNDATASIZE PUSH0 PUSH1 0x20 DUP5 ADD RETURNDATACOPY PUSH2 0x1D7F JUMP JUMPDEST PUSH1 0x60 SWAP2 POP JUMPDEST POP POP SWAP1 POP PUSH32 0x49B15D0536554A8FBC082A1FAB1F1F7FE05E6F13F44B3C05DAC82F103257D6C8 TIMESTAMP PUSH2 0x1DAD PUSH2 0xA0C JUMP JUMPDEST PUSH2 0x1DB5 PUSH2 0xDB3 JUMP JUMPDEST PUSH1 0x40 MLOAD PUSH2 0x1DC4 SWAP4 SWAP3 SWAP2 SWAP1 PUSH2 0x3A47 JUMP JUMPDEST PUSH1 0x40 MLOAD DUP1 SWAP2 SUB SWAP1 LOG1 POP JUMP JUMPDEST PUSH2 0x1DD7 PUSH2 0x2401 JUMP JUMPDEST PUSH1 0x1 PUSH1 0x10 PUSH0 PUSH2 0x100 EXP DUP2 SLOAD DUP2 PUSH1 0xFF MUL NOT AND SWAP1 DUP4 ISZERO ISZERO MUL OR SWAP1 SSTORE POP PUSH32 0x6A5AFB95497BFD913CED90018D9CE3AADEFA8842C2969B3DA15AC9775E3FBCEB TIMESTAMP PUSH1 0x40 MLOAD PUSH2 0x1E20 SWAP2 SWAP1 PUSH2 0x34E9 JUMP JUMPDEST PUSH1 0x40 MLOAD DUP1 SWAP2 SUB SWAP1 LOG1 JUMP JUMPDEST PUSH1 0xA SLOAD DUP2 JUMP JUMPDEST PUSH0 PUSH2 0x1E39 PUSH2 0xDB3 JUMP JUMPDEST PUSH2 0x1E4A PUSH1 0x12 SLOAD PUSH1 0x13 SLOAD PUSH2 0x2710 PUSH2 0x2713 JUMP JUMPDEST PUSH2 0x1E54 SWAP2 SWAP1 PUSH2 0x39B7 JUMP JUMPDEST SWAP1 POP SWAP2 SWAP1 POP JUMP JUMPDEST PUSH0 PUSH2 0x1E66 DUP3 PUSH0 PUSH2 0x23A9 JUMP JUMPDEST SWAP1 POP SWAP2 SWAP1 POP JUMP JUMPDEST PUSH0 PUSH1 0x6 PUSH0 SWAP1 SLOAD SWAP1 PUSH2 0x100 EXP SWAP1 DIV PUSH20 0xFFFFFFFFFFFFFFFFFFFFFFFFFFFFFFFFFFFFFFFF AND PUSH20 0xFFFFFFFFFFFFFFFFFFFFFFFFFFFFFFFFFFFFFFFF AND PUSH4 0x8342B22B ADDRESS PUSH1 0x40 MLOAD DUP3 PUSH4 0xFFFFFFFF AND PUSH1 0xE0 SHL DUP2 MSTORE PUSH1 0x4 ADD PUSH2 0x1EC8 SWAP2 SWAP1 PUSH2 0x3781 JUMP JUMPDEST PUSH0 PUSH1 0x40 MLOAD DUP1 DUP4 SUB DUP2 DUP7 GAS STATICCALL ISZERO DUP1 ISZERO PUSH2 0x1EE2 JUMPI RETURNDATASIZE PUSH0 PUSH0 RETURNDATACOPY RETURNDATASIZE PUSH0 REVERT JUMPDEST POP POP POP POP PUSH1 0x40 MLOAD RETURNDATASIZE PUSH0 DUP3 RETURNDATACOPY RETURNDATASIZE PUSH1 0x1F NOT PUSH1 0x1F DUP3 ADD AND DUP3 ADD DUP1 PUSH1 0x40 MSTORE POP DUP2 ADD SWAP1 PUSH2 0x1F0A SWAP2 SWAP1 PUSH2 0x3FBA JUMP JUMPDEST SWAP1 POP PUSH0 PUSH0 SWAP1 POP JUMPDEST DUP2 MLOAD DUP2 LT ISZERO PUSH2 0x2037 JUMPI PUSH0 DUP3 DUP3 DUP2 MLOAD DUP2 LT PUSH2 0x1F2E JUMPI PUSH2 0x1F2D PUSH2 0x4001 JUMP JUMPDEST JUMPDEST PUSH1 0x20 MUL PUSH1 0x20 ADD ADD MLOAD PUSH20 0xFFFFFFFFFFFFFFFFFFFFFFFFFFFFFFFFFFFFFFFF AND ADDRESS PUSH1 0x40 MLOAD PUSH1 0x24 ADD PUSH2 0x1F5D SWAP2 SWAP1 PUSH2 0x3781 JUMP JUMPDEST PUSH1 0x40 MLOAD PUSH1 0x20 DUP2 DUP4 SUB SUB DUP2 MSTORE SWAP1 PUSH1 0x40 MSTORE PUSH32 0x1E83409A00000000000000000000000000000000000000000000000000000000 PUSH28 0xFFFFFFFFFFFFFFFFFFFFFFFFFFFFFFFFFFFFFFFFFFFFFFFFFFFFFFFF NOT AND PUSH1 0x20 DUP3 ADD DUP1 MLOAD PUSH28 0xFFFFFFFFFFFFFFFFFFFFFFFFFFFFFFFFFFFFFFFFFFFFFFFFFFFFFFFF DUP4 DUP2 DUP4 AND OR DUP4 MSTORE POP POP POP POP PUSH1 0x40 MLOAD PUSH2 0x1FE7 SWAP2 SWAP1 PUSH2 0x3941 JUMP JUMPDEST PUSH0 PUSH1 0x40 MLOAD DUP1 DUP4 SUB DUP2 PUSH0 DUP7 GAS CALL SWAP2 POP POP RETURNDATASIZE DUP1 PUSH0 DUP2 EQ PUSH2 0x2020 JUMPI PUSH1 0x40 MLOAD SWAP2 POP PUSH1 0x1F NOT PUSH1 0x3F RETURNDATASIZE ADD AND DUP3 ADD PUSH1 0x40 MSTORE RETURNDATASIZE DUP3 MSTORE RETURNDATASIZE PUSH0 PUSH1 0x20 DUP5 ADD RETURNDATACOPY PUSH2 0x2025 JUMP JUMPDEST PUSH1 0x60 SWAP2 POP JUMPDEST POP POP SWAP1 POP POP DUP1 DUP1 PUSH1 0x1 ADD SWAP2 POP POP PUSH2 0x1F11 JUMP JUMPDEST POP PUSH32 0x49B15D0536554A8FBC082A1FAB1F1F7FE05E6F13F44B3C05DAC82F103257D6C8 TIMESTAMP PUSH2 0x2062 PUSH2 0xA0C JUMP JUMPDEST PUSH2 0x206A PUSH2 0xDB3 JUMP JUMPDEST PUSH1 0x40 MLOAD PUSH2 0x2079 SWAP4 SWAP3 SWAP2 SWAP1 PUSH2 0x3A47 JUMP JUMPDEST PUSH1 0x40 MLOAD DUP1 SWAP2 SUB SWAP1 LOG1 POP JUMP JUMPDEST PUSH0 PUSH0 PUSH2 0x2097 PUSH1 0x12 SLOAD PUSH2 0x2710 PUSH1 0x13 SLOAD PUSH2 0x2713 JUMP JUMPDEST SWAP1 POP PUSH2 0x20A2 DUP4 PUSH2 0x1A0A JUMP JUMPDEST DUP2 PUSH2 0x20AB PUSH2 0xDB3 JUMP JUMPDEST PUSH2 0x20B5 SWAP2 SWAP1 PUSH2 0x39B7 JUMP JUMPDEST GT ISZERO PUSH2 0x20D5 JUMPI PUSH2 0x20CD PUSH2 0x20C7 DUP5 PUSH2 0x1A0A JUMP JUMPDEST PUSH0 PUSH2 0x2338 JUMP JUMPDEST SWAP2 POP POP PUSH2 0x20F5 JUMP JUMPDEST PUSH2 0x20F1 DUP2 PUSH2 0x20E1 PUSH2 0xDB3 JUMP JUMPDEST PUSH2 0x20EB SWAP2 SWAP1 PUSH2 0x39B7 JUMP JUMPDEST PUSH0 PUSH2 0x2338 JUMP JUMPDEST SWAP2 POP POP JUMPDEST SWAP2 SWAP1 POP JUMP JUMPDEST PUSH1 0x11 SLOAD DUP2 JUMP JUMPDEST PUSH0 PUSH2 0x2110 DUP3 PUSH3 0x278D00 PUSH1 0x1 PUSH2 0x2713 JUMP JUMPDEST SWAP1 POP SWAP2 SWAP1 POP JUMP JUMPDEST PUSH0 PUSH0 PUSH2 0x212A PUSH1 0x12 SLOAD PUSH2 0x2710 PUSH1 0x13 SLOAD PUSH2 0x2713 JUMP JUMPDEST SWAP1 POP PUSH2 0x2135 DUP4 PUSH2 0x1A0A JUMP JUMPDEST DUP2 PUSH2 0x213E PUSH2 0xDB3 JUMP JUMPDEST PUSH2 0x2148 SWAP2 SWAP1 PUSH2 0x39B7 JUMP JUMPDEST GT ISZERO PUSH2 0x215F JUMPI PUSH2 0x2157 DUP4 PUSH2 0x1A0A JUMP JUMPDEST SWAP2 POP POP PUSH2 0x2176 JUMP JUMPDEST DUP1 PUSH2 0x2168 PUSH2 0xDB3 JUMP JUMPDEST PUSH2 0x2172 SWAP2 SWAP1 PUSH2 0x39B7 JUMP JUMPDEST SWAP2 POP POP JUMPDEST SWAP2 SWAP1 POP JUMP JUMPDEST PUSH1 0x10 PUSH0 SWAP1 SLOAD SWAP1 PUSH2 0x100 EXP SWAP1 DIV PUSH1 0xFF AND DUP2 JUMP JUMPDEST PUSH0 PUSH1 0x2 PUSH0 DUP5 PUSH20 0xFFFFFFFFFFFFFFFFFFFFFFFFFFFFFFFFFFFFFFFF AND PUSH20 0xFFFFFFFFFFFFFFFFFFFFFFFFFFFFFFFFFFFFFFFF AND DUP2 MSTORE PUSH1 0x20 ADD SWAP1 DUP2 MSTORE PUSH1 0x20 ADD PUSH0 KECCAK256 PUSH0 DUP4 PUSH20 0xFFFFFFFFFFFFFFFFFFFFFFFFFFFFFFFFFFFFFFFF AND PUSH20 0xFFFFFFFFFFFFFFFFFFFFFFFFFFFFFFFFFFFFFFFF AND DUP2 MSTORE PUSH1 0x20 ADD SWAP1 DUP2 MSTORE PUSH1 0x20 ADD PUSH0 KECCAK256 SLOAD SWAP1 POP SWAP3 SWAP2 POP POP JUMP JUMPDEST PUSH0 PUSH0 PUSH1 0xD SLOAD TIMESTAMP PUSH2 0x221F SWAP2 SWAP1 PUSH2 0x39B7 JUMP JUMPDEST SWAP1 POP PUSH2 0x222F PUSH1 0x8 SLOAD DUP3 PUSH1 0x1 PUSH2 0x2713 JUMP JUMPDEST PUSH1 0xC SLOAD PUSH2 0x223C SWAP2 SWAP1 PUSH2 0x3984 JUMP JUMPDEST SWAP2 POP POP SWAP1 JUMP JUMPDEST PUSH0 PUSH2 0x224D DUP3 PUSH0 PUSH2 0x23A9 JUMP JUMPDEST SWAP1 POP SWAP2 SWAP1 POP JUMP JUMPDEST PUSH1 0xE PUSH1 0x20 MSTORE DUP1 PUSH0 MSTORE PUSH1 0x40 PUSH0 KECCAK256 PUSH0 SWAP2 POP SWAP1 POP DUP1 PUSH0 ADD SLOAD SWAP1 DUP1 PUSH1 0x1 ADD SLOAD SWAP1 POP DUP3 JUMP JUMPDEST PUSH2 0x227C PUSH2 0x2401 JUMP JUMPDEST PUSH0 PUSH20 0xFFFFFFFFFFFFFFFFFFFFFFFFFFFFFFFFFFFFFFFF AND DUP2 PUSH20 0xFFFFFFFFFFFFFFFFFFFFFFFFFFFFFFFFFFFFFFFF AND SUB PUSH2 0x22EC JUMPI PUSH0 PUSH1 0x40 MLOAD PUSH32 0x1E4FBDF700000000000000000000000000000000000000000000000000000000 DUP2 MSTORE PUSH1 0x4 ADD PUSH2 0x22E3 SWAP2 SWAP1 PUSH2 0x3781 JUMP JUMPDEST PUSH1 0x40 MLOAD DUP1 SWAP2 SUB SWAP1 REVERT JUMPDEST PUSH2 0x22F5 DUP2 PUSH2 0x2878 JUMP JUMPDEST POP JUMP JUMPDEST PUSH0 PUSH1 0xD SLOAD TIMESTAMP PUSH2 0x2307 SWAP2 SWAP1 PUSH2 0x39B7 JUMP JUMPDEST SWAP1 POP PUSH2 0x2317 PUSH1 0x8 SLOAD DUP3 PUSH1 0x1 PUSH2 0x2713 JUMP JUMPDEST PUSH1 0xC PUSH0 DUP3 DUP3 SLOAD PUSH2 0x2327 SWAP2 SWAP1 PUSH2 0x3984 JUMP JUMPDEST SWAP3 POP POP DUP2 SWAP1 SSTORE POP TIMESTAMP PUSH1 0xD DUP2 SWAP1 SSTORE POP POP JUMP JUMPDEST PUSH0 PUSH2 0x2388 PUSH1 0x1 PUSH2 0x2346 PUSH2 0xA0C JUMP JUMPDEST PUSH2 0x2350 SWAP2 SWAP1 PUSH2 0x3984 JUMP JUMPDEST PUSH2 0x2358 PUSH2 0x270B JUMP JUMPDEST PUSH1 0xA PUSH2 0x2364 SWAP2 SWAP1 PUSH2 0x415D JUMP JUMPDEST PUSH2 0x236C PUSH2 0xDB3 JUMP JUMPDEST PUSH2 0x2376 SWAP2 SWAP1 PUSH2 0x3984 JUMP JUMPDEST DUP5 DUP7 PUSH2 0x2ABD SWAP1 SWAP4 SWAP3 SWAP2 SWAP1 PUSH4 0xFFFFFFFF AND JUMP JUMPDEST SWAP1 POP SWAP3 SWAP2 POP POP JUMP JUMPDEST PUSH0 CALLER SWAP1 POP SWAP1 JUMP JUMPDEST PUSH2 0x23A4 DUP4 DUP4 DUP4 PUSH1 0x1 PUSH2 0x2B0A JUMP JUMPDEST POP POP POP JUMP JUMPDEST PUSH0 PUSH2 0x23F9 PUSH2 0x23B5 PUSH2 0x270B JUMP JUMPDEST PUSH1 0xA PUSH2 0x23C1 SWAP2 SWAP1 PUSH2 0x415D JUMP JUMPDEST PUSH2 0x23C9 PUSH2 0xDB3 JUMP JUMPDEST PUSH2 0x23D3 SWAP2 SWAP1 PUSH2 0x3984 JUMP JUMPDEST PUSH1 0x1 PUSH2 0x23DD PUSH2 0xA0C JUMP JUMPDEST PUSH2 0x23E7 SWAP2 SWAP1 PUSH2 0x3984 JUMP JUMPDEST DUP5 DUP7 PUSH2 0x2ABD SWAP1 SWAP4 SWAP3 SWAP2 SWAP1 PUSH4 0xFFFFFFFF AND JUMP JUMPDEST SWAP1 POP SWAP3 SWAP2 POP POP JUMP JUMPDEST PUSH2 0x2409 PUSH2 0x2390 JUMP JUMPDEST PUSH20 0xFFFFFFFFFFFFFFFFFFFFFFFFFFFFFFFFFFFFFFFF AND PUSH2 0x2427 PUSH2 0x1A63 JUMP JUMPDEST PUSH20 0xFFFFFFFFFFFFFFFFFFFFFFFFFFFFFFFFFFFFFFFF AND EQ PUSH2 0x2486 JUMPI PUSH2 0x244A PUSH2 0x2390 JUMP JUMPDEST PUSH1 0x40 MLOAD PUSH32 0x118CDAA700000000000000000000000000000000000000000000000000000000 DUP2 MSTORE PUSH1 0x4 ADD PUSH2 0x247D SWAP2 SWAP1 PUSH2 0x3781 JUMP JUMPDEST PUSH1 0x40 MLOAD DUP1 SWAP2 SUB SWAP1 REVERT JUMPDEST JUMP JUMPDEST PUSH2 0x2504 DUP5 DUP6 PUSH20 0xFFFFFFFFFFFFFFFFFFFFFFFFFFFFFFFFFFFFFFFF AND PUSH4 0x23B872DD DUP7 DUP7 DUP7 PUSH1 0x40 MLOAD PUSH1 0x24 ADD PUSH2 0x24BD SWAP4 SWAP3 SWAP2 SWAP1 PUSH2 0x41A7 JUMP JUMPDEST PUSH1 0x40 MLOAD PUSH1 0x20 DUP2 DUP4 SUB SUB DUP2 MSTORE SWAP1 PUSH1 0x40 MSTORE SWAP2 POP PUSH1 0xE0 SHL PUSH1 0x20 DUP3 ADD DUP1 MLOAD PUSH28 0xFFFFFFFFFFFFFFFFFFFFFFFFFFFFFFFFFFFFFFFFFFFFFFFFFFFFFFFF DUP4 DUP2 DUP4 AND OR DUP4 MSTORE POP POP POP POP PUSH2 0x2CD9 JUMP JUMPDEST POP POP POP POP JUMP JUMPDEST PUSH2 0x2584 DUP4 DUP5 PUSH20 0xFFFFFFFFFFFFFFFFFFFFFFFFFFFFFFFFFFFFFFFF AND PUSH4 0xA9059CBB DUP6 DUP6 PUSH1 0x40 MLOAD PUSH1 0x24 ADD PUSH2 0x253D SWAP3 SWAP2 SWAP1 PUSH2 0x41DC JUMP JUMPDEST PUSH1 0x40 MLOAD PUSH1 0x20 DUP2 DUP4 SUB SUB DUP2 MSTORE SWAP1 PUSH1 0x40 MSTORE SWAP2 POP PUSH1 0xE0 SHL PUSH1 0x20 DUP3 ADD DUP1 MLOAD PUSH28 0xFFFFFFFFFFFFFFFFFFFFFFFFFFFFFFFFFFFFFFFFFFFFFFFFFFFFFFFF DUP4 DUP2 DUP4 AND OR DUP4 MSTORE POP POP POP POP PUSH2 0x2CD9 JUMP JUMPDEST POP POP POP JUMP JUMPDEST PUSH0 PUSH2 0x2594 DUP5 DUP5 PUSH2 0x218D JUMP JUMPDEST SWAP1 POP PUSH32 0xFFFFFFFFFFFFFFFFFFFFFFFFFFFFFFFFFFFFFFFFFFFFFFFFFFFFFFFFFFFFFFFF DUP2 EQ PUSH2 0x2615 JUMPI DUP2 DUP2 LT ISZERO PUSH2 0x2606 JUMPI DUP3 DUP2 DUP4 PUSH1 0x40 MLOAD PUSH32 0xFB8F41B200000000000000000000000000000000000000000000000000000000 DUP2 MSTORE PUSH1 0x4 ADD PUSH2 0x25FD SWAP4 SWAP3 SWAP2 SWAP1 PUSH2 0x4203 JUMP JUMPDEST PUSH1 0x40 MLOAD DUP1 SWAP2 SUB SWAP1 REVERT JUMPDEST PUSH2 0x2614 DUP5 DUP5 DUP5 DUP5 SUB PUSH0 PUSH2 0x2B0A JUMP JUMPDEST JUMPDEST POP POP POP POP JUMP JUMPDEST PUSH0 PUSH20 0xFFFFFFFFFFFFFFFFFFFFFFFFFFFFFFFFFFFFFFFF AND DUP4 PUSH20 0xFFFFFFFFFFFFFFFFFFFFFFFFFFFFFFFFFFFFFFFF AND SUB PUSH2 0x268B JUMPI PUSH0 PUSH1 0x40 MLOAD PUSH32 0x96C6FD1E00000000000000000000000000000000000000000000000000000000 DUP2 MSTORE PUSH1 0x4 ADD PUSH2 0x2682 SWAP2 SWAP1 PUSH2 0x3781 JUMP JUMPDEST PUSH1 0x40 MLOAD DUP1 SWAP2 SUB SWAP1 REVERT JUMPDEST PUSH0 PUSH20 0xFFFFFFFFFFFFFFFFFFFFFFFFFFFFFFFFFFFFFFFF AND DUP3 PUSH20 0xFFFFFFFFFFFFFFFFFFFFFFFFFFFFFFFFFFFFFFFF AND SUB PUSH2 0x26FB JUMPI PUSH0 PUSH1 0x40 MLOAD PUSH32 0xEC442F0500000000000000000000000000000000000000000000000000000000 DUP2 MSTORE PUSH1 0x4 ADD PUSH2 0x26F2 SWAP2 SWAP1 PUSH2 0x3781 JUMP JUMPDEST PUSH1 0x40 MLOAD DUP1 SWAP2 SUB SWAP1 REVERT JUMPDEST PUSH2 0x2706 DUP4 DUP4 DUP4 PUSH2 0x2D74 JUMP JUMPDEST POP POP POP JUMP JUMPDEST PUSH0 PUSH1 0x8 SWAP1 POP SWAP1 JUMP JUMPDEST PUSH0 PUSH0 DUP4 DUP6 MUL SWAP1 POP PUSH0 PUSH0 NOT DUP6 DUP8 MULMOD DUP3 DUP2 LT DUP4 DUP3 SUB SUB SWAP2 POP POP PUSH0 DUP2 SUB PUSH2 0x274B JUMPI DUP4 DUP3 DUP2 PUSH2 0x2741 JUMPI PUSH2 0x2740 PUSH2 0x3C9D JUMP JUMPDEST JUMPDEST DIV SWAP3 POP POP POP PUSH2 0x27F1 JUMP JUMPDEST DUP1 DUP5 GT PUSH2 0x276A JUMPI PUSH2 0x2769 PUSH2 0x2764 PUSH0 DUP7 EQ PUSH1 0x12 PUSH1 0x11 PUSH2 0x2F90 JUMP JUMPDEST PUSH2 0x2FA9 JUMP JUMPDEST JUMPDEST PUSH0 DUP5 DUP7 DUP9 MULMOD SWAP1 POP DUP3 DUP2 GT DUP3 SUB SWAP2 POP DUP1 DUP4 SUB SWAP3 POP PUSH0 DUP6 PUSH0 SUB DUP7 AND SWAP1 POP DUP1 DUP7 DIV SWAP6 POP DUP1 DUP5 DIV SWAP4 POP PUSH1 0x1 DUP2 DUP3 PUSH0 SUB DIV ADD SWAP1 POP DUP1 DUP4 MUL DUP5 OR SWAP4 POP PUSH0 PUSH1 0x2 DUP8 PUSH1 0x3 MUL XOR SWAP1 POP DUP1 DUP8 MUL PUSH1 0x2 SUB DUP2 MUL SWAP1 POP DUP1 DUP8 MUL PUSH1 0x2 SUB DUP2 MUL SWAP1 POP DUP1 DUP8 MUL PUSH1 0x2 SUB DUP2 MUL SWAP1 POP DUP1 DUP8 MUL PUSH1 0x2 SUB DUP2 MUL SWAP1 POP DUP1 DUP8 MUL PUSH1 0x2 SUB DUP2 MUL SWAP1 POP DUP1 DUP8 MUL PUSH1 0x2 SUB DUP2 MUL SWAP1 POP DUP1 DUP6 MUL SWAP6 POP POP POP POP POP POP JUMPDEST SWAP4 SWAP3 POP POP POP JUMP JUMPDEST PUSH0 PUSH0 PUSH2 0x2803 DUP4 PUSH2 0x198E JUMP JUMPDEST SWAP1 POP DUP1 DUP5 GT ISZERO PUSH2 0x284E JUMPI DUP3 DUP5 DUP3 PUSH1 0x40 MLOAD PUSH32 0x79012FB200000000000000000000000000000000000000000000000000000000 DUP2 MSTORE PUSH1 0x4 ADD PUSH2 0x2845 SWAP4 SWAP3 SWAP2 SWAP1 PUSH2 0x4203 JUMP JUMPDEST PUSH1 0x40 MLOAD DUP1 SWAP2 SUB SWAP1 REVERT JUMPDEST PUSH0 PUSH2 0x2858 DUP6 PUSH2 0x2242 JUMP JUMPDEST SWAP1 POP PUSH2 0x286D PUSH2 0x2865 PUSH2 0x2390 JUMP JUMPDEST DUP6 DUP8 DUP5 PUSH2 0x2FBA JUMP JUMPDEST DUP1 SWAP3 POP POP POP SWAP3 SWAP2 POP POP JUMP JUMPDEST PUSH0 PUSH0 PUSH0 SWAP1 SLOAD SWAP1 PUSH2 0x100 EXP SWAP1 DIV PUSH20 0xFFFFFFFFFFFFFFFFFFFFFFFFFFFFFFFFFFFFFFFF AND SWAP1 POP DUP2 PUSH0 PUSH0 PUSH2 0x100 EXP DUP2 SLOAD DUP2 PUSH20 0xFFFFFFFFFFFFFFFFFFFFFFFFFFFFFFFFFFFFFFFF MUL NOT AND SWAP1 DUP4 PUSH20 0xFFFFFFFFFFFFFFFFFFFFFFFFFFFFFFFFFFFFFFFF AND MUL OR SWAP1 SSTORE POP DUP2 PUSH20 0xFFFFFFFFFFFFFFFFFFFFFFFFFFFFFFFFFFFFFFFF AND DUP2 PUSH20 0xFFFFFFFFFFFFFFFFFFFFFFFFFFFFFFFFFFFFFFFF AND PUSH32 0x8BE0079C531659141344CD1FD0A4F28419497F9722A3DAAFE3B4186F6B6457E0 PUSH1 0x40 MLOAD PUSH1 0x40 MLOAD DUP1 SWAP2 SUB SWAP1 LOG3 POP POP JUMP JUMPDEST PUSH0 PUSH0 PUSH2 0x2944 DUP4 PUSH2 0x1E30 JUMP JUMPDEST SWAP1 POP DUP1 DUP5 GT ISZERO PUSH2 0x298F JUMPI DUP3 DUP5 DUP3 PUSH1 0x40 MLOAD PUSH32 0x284FF66700000000000000000000000000000000000000000000000000000000 DUP2 MSTORE PUSH1 0x4 ADD PUSH2 0x2986 SWAP4 SWAP3 SWAP2 SWAP1 PUSH2 0x4203 JUMP JUMPDEST PUSH1 0x40 MLOAD DUP1 SWAP2 SUB SWAP1 REVERT JUMPDEST PUSH0 PUSH2 0x2999 DUP6 PUSH2 0x1C1A JUMP JUMPDEST SWAP1 POP PUSH2 0x29AE PUSH2 0x29A6 PUSH2 0x2390 JUMP JUMPDEST DUP6 DUP4 DUP9 PUSH2 0x2FBA JUMP JUMPDEST DUP1 SWAP3 POP POP POP SWAP3 SWAP2 POP POP JUMP JUMPDEST PUSH0 PUSH0 PUSH2 0x29C4 DUP4 PUSH2 0x2084 JUMP JUMPDEST SWAP1 POP DUP1 DUP6 GT ISZERO PUSH2 0x2A0F JUMPI DUP3 DUP6 DUP3 PUSH1 0x40 MLOAD PUSH32 0xFE9CCEEC00000000000000000000000000000000000000000000000000000000 DUP2 MSTORE PUSH1 0x4 ADD PUSH2 0x2A06 SWAP4 SWAP3 SWAP2 SWAP1 PUSH2 0x4203 JUMP JUMPDEST PUSH1 0x40 MLOAD DUP1 SWAP2 SUB SWAP1 REVERT JUMPDEST PUSH0 PUSH2 0x2A19 DUP7 PUSH2 0xCDD JUMP JUMPDEST SWAP1 POP PUSH2 0x2A2F PUSH2 0x2A26 PUSH2 0x2390 JUMP JUMPDEST DUP7 DUP7 DUP10 DUP6 PUSH2 0x3086 JUMP JUMPDEST DUP1 SWAP3 POP POP POP SWAP4 SWAP3 POP POP POP JUMP JUMPDEST PUSH0 PUSH0 PUSH2 0x2A46 DUP4 PUSH2 0x2117 JUMP JUMPDEST SWAP1 POP DUP1 DUP6 GT ISZERO PUSH2 0x2A91 JUMPI DUP3 DUP6 DUP3 PUSH1 0x40 MLOAD PUSH32 0xB94ABEEC00000000000000000000000000000000000000000000000000000000 DUP2 MSTORE PUSH1 0x4 ADD PUSH2 0x2A88 SWAP4 SWAP3 SWAP2 SWAP1 PUSH2 0x4203 JUMP JUMPDEST PUSH1 0x40 MLOAD DUP1 SWAP2 SUB SWAP1 REVERT JUMPDEST PUSH0 PUSH2 0x2A9B DUP7 PUSH2 0x19DD JUMP JUMPDEST SWAP1 POP PUSH2 0x2AB1 PUSH2 0x2AA8 PUSH2 0x2390 JUMP JUMPDEST DUP7 DUP7 DUP5 DUP11 PUSH2 0x3086 JUMP JUMPDEST DUP1 SWAP3 POP POP POP SWAP4 SWAP3 POP POP POP JUMP JUMPDEST PUSH0 PUSH2 0x2AEB PUSH2 0x2ACA DUP4 PUSH2 0x3154 JUMP JUMPDEST DUP1 ISZERO PUSH2 0x2AE6 JUMPI POP PUSH0 DUP5 DUP1 PUSH2 0x2AE1 JUMPI PUSH2 0x2AE0 PUSH2 0x3C9D JUMP JUMPDEST JUMPDEST DUP7 DUP9 MULMOD GT JUMPDEST PUSH2 0x3181 JUMP JUMPDEST PUSH2 0x2AF6 DUP7 DUP7 DUP7 PUSH2 0x2713 JUMP JUMPDEST PUSH2 0x2B00 SWAP2 SWAP1 PUSH2 0x3984 JUMP JUMPDEST SWAP1 POP SWAP5 SWAP4 POP POP POP POP JUMP JUMPDEST PUSH0 PUSH20 0xFFFFFFFFFFFFFFFFFFFFFFFFFFFFFFFFFFFFFFFF AND DUP5 PUSH20 0xFFFFFFFFFFFFFFFFFFFFFFFFFFFFFFFFFFFFFFFF AND SUB PUSH2 0x2B7A JUMPI PUSH0 PUSH1 0x40 MLOAD PUSH32 0xE602DF0500000000000000000000000000000000000000000000000000000000 DUP2 MSTORE PUSH1 0x4 ADD PUSH2 0x2B71 SWAP2 SWAP1 PUSH2 0x3781 JUMP JUMPDEST PUSH1 0x40 MLOAD DUP1 SWAP2 SUB SWAP1 REVERT JUMPDEST PUSH0 PUSH20 0xFFFFFFFFFFFFFFFFFFFFFFFFFFFFFFFFFFFFFFFF AND DUP4 PUSH20 0xFFFFFFFFFFFFFFFFFFFFFFFFFFFFFFFFFFFFFFFF AND SUB PUSH2 0x2BEA JUMPI PUSH0 PUSH1 0x40 MLOAD PUSH32 0x94280D6200000000000000000000000000000000000000000000000000000000 DUP2 MSTORE PUSH1 0x4 ADD PUSH2 0x2BE1 SWAP2 SWAP1 PUSH2 0x3781 JUMP JUMPDEST PUSH1 0x40 MLOAD DUP1 SWAP2 SUB SWAP1 REVERT JUMPDEST DUP2 PUSH1 0x2 PUSH0 DUP7 PUSH20 0xFFFFFFFFFFFFFFFFFFFFFFFFFFFFFFFFFFFFFFFF AND PUSH20 0xFFFFFFFFFFFFFFFFFFFFFFFFFFFFFFFFFFFFFFFF AND DUP2 MSTORE PUSH1 0x20 ADD SWAP1 DUP2 MSTORE PUSH1 0x20 ADD PUSH0 KECCAK256 PUSH0 DUP6 PUSH20 0xFFFFFFFFFFFFFFFFFFFFFFFFFFFFFFFFFFFFFFFF AND PUSH20 0xFFFFFFFFFFFFFFFFFFFFFFFFFFFFFFFFFFFFFFFF AND DUP2 MSTORE PUSH1 0x20 ADD SWAP1 DUP2 MSTORE PUSH1 0x20 ADD PUSH0 KECCAK256 DUP2 SWAP1 SSTORE POP DUP1 ISZERO PUSH2 0x2CD3 JUMPI DUP3 PUSH20 0xFFFFFFFFFFFFFFFFFFFFFFFFFFFFFFFFFFFFFFFF AND DUP5 PUSH20 0xFFFFFFFFFFFFFFFFFFFFFFFFFFFFFFFFFFFFFFFF AND PUSH32 0x8C5BE1E5EBEC7D5BD14F71427D1E84F3DD0314C0F7B2291E5B200AC8C7C3B925 DUP5 PUSH1 0x40 MLOAD PUSH2 0x2CCA SWAP2 SWAP1 PUSH2 0x34E9 JUMP JUMPDEST PUSH1 0x40 MLOAD DUP1 SWAP2 SUB SWAP1 LOG3 JUMPDEST POP POP POP POP JUMP JUMPDEST PUSH0 PUSH0 PUSH1 0x20 PUSH0 DUP5 MLOAD PUSH1 0x20 DUP7 ADD PUSH0 DUP9 GAS CALL DUP1 PUSH2 0x2CF8 JUMPI PUSH1 0x40 MLOAD RETURNDATASIZE PUSH0 DUP3 RETURNDATACOPY RETURNDATASIZE DUP2 REVERT JUMPDEST RETURNDATASIZE SWAP3 POP PUSH0 MLOAD SWAP2 POP POP PUSH0 DUP3 EQ PUSH2 0x2D11 JUMPI PUSH1 0x1 DUP2 EQ ISZERO PUSH2 0x2D2C JUMP JUMPDEST PUSH0 DUP5 PUSH20 0xFFFFFFFFFFFFFFFFFFFFFFFFFFFFFFFFFFFFFFFF AND EXTCODESIZE EQ JUMPDEST ISZERO PUSH2 0x2D6E JUMPI DUP4 PUSH1 0x40 MLOAD PUSH32 0x5274AFE700000000000000000000000000000000000000000000000000000000 DUP2 MSTORE PUSH1 0x4 ADD PUSH2 0x2D65 SWAP2 SWAP1 PUSH2 0x3781 JUMP JUMPDEST PUSH1 0x40 MLOAD DUP1 SWAP2 SUB SWAP1 REVERT JUMPDEST POP POP POP POP JUMP JUMPDEST PUSH0 PUSH20 0xFFFFFFFFFFFFFFFFFFFFFFFFFFFFFFFFFFFFFFFF AND DUP4 PUSH20 0xFFFFFFFFFFFFFFFFFFFFFFFFFFFFFFFFFFFFFFFF AND SUB PUSH2 0x2DC4 JUMPI DUP1 PUSH1 0x3 PUSH0 DUP3 DUP3 SLOAD PUSH2 0x2DB8 SWAP2 SWAP1 PUSH2 0x3984 JUMP JUMPDEST SWAP3 POP POP DUP2 SWAP1 SSTORE POP PUSH2 0x2E94 JUMP JUMPDEST PUSH0 PUSH1 0x1 PUSH0 DUP6 PUSH20 0xFFFFFFFFFFFFFFFFFFFFFFFFFFFFFFFFFFFFFFFF AND PUSH20 0xFFFFFFFFFFFFFFFFFFFFFFFFFFFFFFFFFFFFFFFF AND DUP2 MSTORE PUSH1 0x20 ADD SWAP1 DUP2 MSTORE PUSH1 0x20 ADD PUSH0 KECCAK256 SLOAD SWAP1 POP DUP2 DUP2 LT ISZERO PUSH2 0x2E4E JUMPI DUP4 DUP2 DUP4 PUSH1 0x40 MLOAD PUSH32 0xE450D38C00000000000000000000000000000000000000000000000000000000 DUP2 MSTORE PUSH1 0x4 ADD PUSH2 0x2E45 SWAP4 SWAP3 SWAP2 SWAP1 PUSH2 0x4203 JUMP JUMPDEST PUSH1 0x40 MLOAD DUP1 SWAP2 SUB SWAP1 REVERT JUMPDEST DUP2 DUP2 SUB PUSH1 0x1 PUSH0 DUP7 PUSH20 0xFFFFFFFFFFFFFFFFFFFFFFFFFFFFFFFFFFFFFFFF AND PUSH20 0xFFFFFFFFFFFFFFFFFFFFFFFFFFFFFFFFFFFFFFFF AND DUP2 MSTORE PUSH1 0x20 ADD SWAP1 DUP2 MSTORE PUSH1 0x20 ADD PUSH0 KECCAK256 DUP2 SWAP1 SSTORE POP POP JUMPDEST PUSH0 PUSH20 0xFFFFFFFFFFFFFFFFFFFFFFFFFFFFFFFFFFFFFFFF AND DUP3 PUSH20 0xFFFFFFFFFFFFFFFFFFFFFFFFFFFFFFFFFFFFFFFF AND SUB PUSH2 0x2EDB JUMPI DUP1 PUSH1 0x3 PUSH0 DUP3 DUP3 SLOAD SUB SWAP3 POP POP DUP2 SWAP1 SSTORE POP PUSH2 0x2F26 JUMP JUMPDEST DUP1 PUSH1 0x1 PUSH0 DUP5 PUSH20 0xFFFFFFFFFFFFFFFFFFFFFFFFFFFFFFFFFFFFFFFF AND PUSH20 0xFFFFFFFFFFFFFFFFFFFFFFFFFFFFFFFFFFFFFFFF AND DUP2 MSTORE PUSH1 0x20 ADD SWAP1 DUP2 MSTORE PUSH1 0x20 ADD PUSH0 KECCAK256 PUSH0 DUP3 DUP3 SLOAD ADD SWAP3 POP POP DUP2 SWAP1 SSTORE POP JUMPDEST DUP2 PUSH20 0xFFFFFFFFFFFFFFFFFFFFFFFFFFFFFFFFFFFFFFFF AND DUP4 PUSH20 0xFFFFFFFFFFFFFFFFFFFFFFFFFFFFFFFFFFFFFFFF AND PUSH32 0xDDF252AD1BE2C89B69C2B068FC378DAA952BA7F163C4A11628F55A4DF523B3EF DUP4 PUSH1 0x40 MLOAD PUSH2 0x2F83 SWAP2 SWAP1 PUSH2 0x34E9 JUMP JUMPDEST PUSH1 0x40 MLOAD DUP1 SWAP2 SUB SWAP1 LOG3 POP POP POP JUMP JUMPDEST PUSH0 PUSH2 0x2F9A DUP5 PUSH2 0x3181 JUMP JUMPDEST DUP3 DUP5 XOR MUL DUP3 XOR SWAP1 POP SWAP4 SWAP3 POP POP POP JUMP JUMPDEST PUSH4 0x4E487B71 PUSH0 MSTORE DUP1 PUSH1 0x20 MSTORE PUSH1 0x24 PUSH1 0x1C REVERT JUMPDEST PUSH1 0x10 PUSH0 SWAP1 SLOAD SWAP1 PUSH2 0x100 EXP SWAP1 DIV PUSH1 0xFF AND PUSH2 0x3008 JUMPI PUSH1 0x40 MLOAD PUSH32 0x8C379A000000000000000000000000000000000000000000000000000000000 DUP2 MSTORE PUSH1 0x4 ADD PUSH2 0x2FFF SWAP1 PUSH2 0x4282 JUMP JUMPDEST PUSH1 0x40 MLOAD DUP1 SWAP2 SUB SWAP1 REVERT JUMPDEST PUSH2 0x3023 DUP2 PUSH2 0x3014 PUSH2 0xDB3 JUMP JUMPDEST PUSH2 0x301E SWAP2 SWAP1 PUSH2 0x3984 JUMP JUMPDEST PUSH2 0x318C JUMP JUMPDEST PUSH2 0x302B PUSH2 0x3208 JUMP JUMPDEST PUSH2 0x3037 DUP5 DUP5 DUP5 DUP5 PUSH2 0x3237 JUMP JUMPDEST PUSH32 0x49B15D0536554A8FBC082A1FAB1F1F7FE05E6F13F44B3C05DAC82F103257D6C8 TIMESTAMP PUSH2 0x3061 PUSH2 0xA0C JUMP JUMPDEST PUSH2 0x3069 PUSH2 0xDB3 JUMP JUMPDEST PUSH1 0x40 MLOAD PUSH2 0x3078 SWAP4 SWAP3 SWAP2 SWAP1 PUSH2 0x3A47 JUMP JUMPDEST PUSH1 0x40 MLOAD DUP1 SWAP2 SUB SWAP1 LOG1 POP POP POP POP JUMP JUMPDEST PUSH1 0x10 PUSH0 SWAP1 SLOAD SWAP1 PUSH2 0x100 EXP SWAP1 DIV PUSH1 0xFF AND PUSH2 0x30D4 JUMPI PUSH1 0x40 MLOAD PUSH32 0x8C379A000000000000000000000000000000000000000000000000000000000 DUP2 MSTORE PUSH1 0x4 ADD PUSH2 0x30CB SWAP1 PUSH2 0x4282 JUMP JUMPDEST PUSH1 0x40 MLOAD DUP1 SWAP2 SUB SWAP1 REVERT JUMPDEST PUSH2 0x30EF DUP2 PUSH2 0x30E0 PUSH2 0xDB3 JUMP JUMPDEST PUSH2 0x30EA SWAP2 SWAP1 PUSH2 0x39B7 JUMP JUMPDEST PUSH2 0x318C JUMP JUMPDEST PUSH2 0x30F7 PUSH2 0x3208 JUMP JUMPDEST PUSH2 0x3104 DUP6 DUP6 DUP6 DUP6 DUP6 PUSH2 0x32DA JUMP JUMPDEST PUSH32 0x49B15D0536554A8FBC082A1FAB1F1F7FE05E6F13F44B3C05DAC82F103257D6C8 TIMESTAMP PUSH2 0x312E PUSH2 0xA0C JUMP JUMPDEST PUSH2 0x3136 PUSH2 0xDB3 JUMP JUMPDEST PUSH1 0x40 MLOAD PUSH2 0x3145 SWAP4 SWAP3 SWAP2 SWAP1 PUSH2 0x3A47 JUMP JUMPDEST PUSH1 0x40 MLOAD DUP1 SWAP2 SUB SWAP1 LOG1 POP POP POP POP POP JUMP JUMPDEST PUSH0 PUSH1 0x1 PUSH1 0x2 DUP4 PUSH1 0x3 DUP2 GT ISZERO PUSH2 0x316C JUMPI PUSH2 0x316B PUSH2 0x42A0 JUMP JUMPDEST JUMPDEST PUSH2 0x3176 SWAP2 SWAP1 PUSH2 0x42CD JUMP JUMPDEST PUSH1 0xFF AND EQ SWAP1 POP SWAP2 SWAP1 POP JUMP JUMPDEST PUSH0 DUP2 ISZERO ISZERO SWAP1 POP SWAP2 SWAP1 POP JUMP JUMPDEST PUSH0 PUSH2 0x319E PUSH1 0x12 SLOAD PUSH2 0x2710 PUSH1 0x13 SLOAD PUSH2 0x2713 JUMP JUMPDEST SWAP1 POP PUSH0 PUSH2 0x31B2 PUSH1 0x12 SLOAD PUSH1 0x13 SLOAD PUSH2 0x2710 PUSH2 0x2713 JUMP JUMPDEST SWAP1 POP DUP2 DUP4 LT ISZERO DUP1 ISZERO PUSH2 0x31C4 JUMPI POP DUP1 DUP4 GT ISZERO JUMPDEST PUSH2 0x3203 JUMPI PUSH1 0x40 MLOAD PUSH32 0x8C379A000000000000000000000000000000000000000000000000000000000 DUP2 MSTORE PUSH1 0x4 ADD PUSH2 0x31FA SWAP1 PUSH2 0x436D JUMP JUMPDEST PUSH1 0x40 MLOAD DUP1 SWAP2 SUB SWAP1 REVERT JUMPDEST POP POP POP JUMP JUMPDEST PUSH3 0x15180 PUSH1 0x11 SLOAD PUSH2 0x3219 SWAP2 SWAP1 PUSH2 0x3984 JUMP JUMPDEST TIMESTAMP LT PUSH2 0x3235 JUMPI PUSH2 0x3227 PUSH2 0xDB3 JUMP JUMPDEST PUSH1 0x12 DUP2 SWAP1 SSTORE POP TIMESTAMP PUSH1 0x11 DUP2 SWAP1 SSTORE POP JUMPDEST JUMP JUMPDEST PUSH2 0x3263 PUSH32 0x0 DUP6 ADDRESS DUP6 PUSH2 0x2488 JUMP JUMPDEST PUSH2 0x326D DUP4 DUP3 PUSH2 0x33D3 JUMP JUMPDEST DUP3 PUSH20 0xFFFFFFFFFFFFFFFFFFFFFFFFFFFFFFFFFFFFFFFF AND DUP5 PUSH20 0xFFFFFFFFFFFFFFFFFFFFFFFFFFFFFFFFFFFFFFFF AND PUSH32 0xDCBC1C05240F31FF3AD067EF1EE35CE4997762752E3A095284754544F4C709D7 DUP5 DUP5 PUSH1 0x40 MLOAD PUSH2 0x32CC SWAP3 SWAP2 SWAP1 PUSH2 0x37D8 JUMP JUMPDEST PUSH1 0x40 MLOAD DUP1 SWAP2 SUB SWAP1 LOG3 POP POP POP POP JUMP JUMPDEST DUP3 PUSH20 0xFFFFFFFFFFFFFFFFFFFFFFFFFFFFFFFFFFFFFFFF AND DUP6 PUSH20 0xFFFFFFFFFFFFFFFFFFFFFFFFFFFFFFFFFFFFFFFF AND EQ PUSH2 0x3319 JUMPI PUSH2 0x3318 DUP4 DUP7 DUP4 PUSH2 0x2589 JUMP JUMPDEST JUMPDEST PUSH2 0x3323 DUP4 DUP3 PUSH2 0x3452 JUMP JUMPDEST PUSH2 0x334E PUSH32 0x0 DUP6 DUP5 PUSH2 0x250A JUMP JUMPDEST DUP3 PUSH20 0xFFFFFFFFFFFFFFFFFFFFFFFFFFFFFFFFFFFFFFFF AND DUP5 PUSH20 0xFFFFFFFFFFFFFFFFFFFFFFFFFFFFFFFFFFFFFFFF AND DUP7 PUSH20 0xFFFFFFFFFFFFFFFFFFFFFFFFFFFFFFFFFFFFFFFF AND PUSH32 0xFBDE797D201C681B91056529119E0B02407C7BB96A4A2C75C01FC9667232C8DB DUP6 DUP6 PUSH1 0x40 MLOAD PUSH2 0x33C4 SWAP3 SWAP2 SWAP1 PUSH2 0x37D8 JUMP JUMPDEST PUSH1 0x40 MLOAD DUP1 SWAP2 SUB SWAP1 LOG4 POP POP POP POP POP JUMP JUMPDEST PUSH0 PUSH20 0xFFFFFFFFFFFFFFFFFFFFFFFFFFFFFFFFFFFFFFFF AND DUP3 PUSH20 0xFFFFFFFFFFFFFFFFFFFFFFFFFFFFFFFFFFFFFFFF AND SUB PUSH2 0x3443 JUMPI PUSH0 PUSH1 0x40 MLOAD PUSH32 0xEC442F0500000000000000000000000000000000000000000000000000000000 DUP2 MSTORE PUSH1 0x4 ADD PUSH2 0x343A SWAP2 SWAP1 PUSH2 0x3781 JUMP JUMPDEST PUSH1 0x40 MLOAD DUP1 SWAP2 SUB SWAP1 REVERT JUMPDEST PUSH2 0x344E PUSH0 DUP4 DUP4 PUSH2 0x2D74 JUMP JUMPDEST POP POP JUMP JUMPDEST PUSH0 PUSH20 0xFFFFFFFFFFFFFFFFFFFFFFFFFFFFFFFFFFFFFFFF AND DUP3 PUSH20 0xFFFFFFFFFFFFFFFFFFFFFFFFFFFFFFFFFFFFFFFF AND SUB PUSH2 0x34C2 JUMPI PUSH0 PUSH1 0x40 MLOAD PUSH32 0x96C6FD1E00000000000000000000000000000000000000000000000000000000 DUP2 MSTORE PUSH1 0x4 ADD PUSH2 0x34B9 SWAP2 SWAP1 PUSH2 0x3781 JUMP JUMPDEST PUSH1 0x40 MLOAD DUP1 SWAP2 SUB SWAP1 REVERT JUMPDEST PUSH2 0x34CD DUP3 PUSH0 DUP4 PUSH2 0x2D74 JUMP JUMPDEST POP POP JUMP JUMPDEST PUSH0 DUP2 SWAP1 POP SWAP2 SWAP1 POP JUMP JUMPDEST PUSH2 0x34E3 DUP2 PUSH2 0x34D1 JUMP JUMPDEST DUP3 MSTORE POP POP JUMP JUMPDEST PUSH0 PUSH1 0x20 DUP3 ADD SWAP1 POP PUSH2 0x34FC PUSH0 DUP4 ADD DUP5 PUSH2 0x34DA JUMP JUMPDEST SWAP3 SWAP2 POP POP JUMP JUMPDEST PUSH0 DUP2 MLOAD SWAP1 POP SWAP2 SWAP1 POP JUMP JUMPDEST PUSH0 DUP3 DUP3 MSTORE PUSH1 0x20 DUP3 ADD SWAP1 POP SWAP3 SWAP2 POP POP JUMP JUMPDEST DUP3 DUP2 DUP4 MCOPY PUSH0 DUP4 DUP4 ADD MSTORE POP POP POP JUMP JUMPDEST PUSH0 PUSH1 0x1F NOT PUSH1 0x1F DUP4 ADD AND SWAP1 POP SWAP2 SWAP1 POP JUMP JUMPDEST PUSH0 PUSH2 0x3544 DUP3 PUSH2 0x3502 JUMP JUMPDEST PUSH2 0x354E DUP2 DUP6 PUSH2 0x350C JUMP JUMPDEST SWAP4 POP PUSH2 0x355E DUP2 DUP6 PUSH1 0x20 DUP7 ADD PUSH2 0x351C JUMP JUMPDEST PUSH2 0x3567 DUP2 PUSH2 0x352A JUMP JUMPDEST DUP5 ADD SWAP2 POP POP SWAP3 SWAP2 POP POP JUMP JUMPDEST PUSH0 PUSH1 0x20 DUP3 ADD SWAP1 POP DUP2 DUP2 SUB PUSH0 DUP4 ADD MSTORE PUSH2 0x358A DUP2 DUP5 PUSH2 0x353A JUMP JUMPDEST SWAP1 POP SWAP3 SWAP2 POP POP JUMP JUMPDEST PUSH0 PUSH1 0x40 MLOAD SWAP1 POP SWAP1 JUMP JUMPDEST PUSH0 PUSH0 REVERT JUMPDEST PUSH0 PUSH0 REVERT JUMPDEST PUSH2 0x35AC DUP2 PUSH2 0x34D1 JUMP JUMPDEST DUP2 EQ PUSH2 0x35B6 JUMPI PUSH0 PUSH0 REVERT JUMPDEST POP JUMP JUMPDEST PUSH0 DUP2 CALLDATALOAD SWAP1 POP PUSH2 0x35C7 DUP2 PUSH2 0x35A3 JUMP JUMPDEST SWAP3 SWAP2 POP POP JUMP JUMPDEST PUSH0 PUSH1 0x20 DUP3 DUP5 SUB SLT ISZERO PUSH2 0x35E2 JUMPI PUSH2 0x35E1 PUSH2 0x359B JUMP JUMPDEST JUMPDEST PUSH0 PUSH2 0x35EF DUP5 DUP3 DUP6 ADD PUSH2 0x35B9 JUMP JUMPDEST SWAP2 POP POP SWAP3 SWAP2 POP POP JUMP JUMPDEST PUSH0 PUSH20 0xFFFFFFFFFFFFFFFFFFFFFFFFFFFFFFFFFFFFFFFF DUP3 AND SWAP1 POP SWAP2 SWAP1 POP JUMP JUMPDEST PUSH0 PUSH2 0x3621 DUP3 PUSH2 0x35F8 JUMP JUMPDEST SWAP1 POP SWAP2 SWAP1 POP JUMP JUMPDEST PUSH2 0x3631 DUP2 PUSH2 0x3617 JUMP JUMPDEST DUP2 EQ PUSH2 0x363B JUMPI PUSH0 PUSH0 REVERT JUMPDEST POP JUMP JUMPDEST PUSH0 DUP2 CALLDATALOAD SWAP1 POP PUSH2 0x364C DUP2 PUSH2 0x3628 JUMP JUMPDEST SWAP3 SWAP2 POP POP JUMP JUMPDEST PUSH0 PUSH0 PUSH1 0x40 DUP4 DUP6 SUB SLT ISZERO PUSH2 0x3668 JUMPI PUSH2 0x3667 PUSH2 0x359B JUMP JUMPDEST JUMPDEST PUSH0 PUSH2 0x3675 DUP6 DUP3 DUP7 ADD PUSH2 0x363E JUMP JUMPDEST SWAP3 POP POP PUSH1 0x20 PUSH2 0x3686 DUP6 DUP3 DUP7 ADD PUSH2 0x35B9 JUMP JUMPDEST SWAP2 POP POP SWAP3 POP SWAP3 SWAP1 POP JUMP JUMPDEST PUSH0 DUP2 ISZERO ISZERO SWAP1 POP SWAP2 SWAP1 POP JUMP JUMPDEST PUSH2 0x36A4 DUP2 PUSH2 0x3690 JUMP JUMPDEST DUP3 MSTORE POP POP JUMP JUMPDEST PUSH0 PUSH1 0x20 DUP3 ADD SWAP1 POP PUSH2 0x36BD PUSH0 DUP4 ADD DUP5 PUSH2 0x369B JUMP JUMPDEST SWAP3 SWAP2 POP POP JUMP JUMPDEST PUSH0 PUSH1 0x20 DUP3 DUP5 SUB SLT ISZERO PUSH2 0x36D8 JUMPI PUSH2 0x36D7 PUSH2 0x359B JUMP JUMPDEST JUMPDEST PUSH0 PUSH2 0x36E5 DUP5 DUP3 DUP6 ADD PUSH2 0x363E JUMP JUMPDEST SWAP2 POP POP SWAP3 SWAP2 POP POP JUMP JUMPDEST PUSH0 PUSH0 PUSH0 PUSH1 0x60 DUP5 DUP7 SUB SLT ISZERO PUSH2 0x3705 JUMPI PUSH2 0x3704 PUSH2 0x359B JUMP JUMPDEST JUMPDEST PUSH0 PUSH2 0x3712 DUP7 DUP3 DUP8 ADD PUSH2 0x363E JUMP JUMPDEST SWAP4 POP POP PUSH1 0x20 PUSH2 0x3723 DUP7 DUP3 DUP8 ADD PUSH2 0x363E JUMP JUMPDEST SWAP3 POP POP PUSH1 0x40 PUSH2 0x3734 DUP7 DUP3 DUP8 ADD PUSH2 0x35B9 JUMP JUMPDEST SWAP2 POP POP SWAP3 POP SWAP3 POP SWAP3 JUMP JUMPDEST PUSH0 PUSH1 0xFF DUP3 AND SWAP1 POP SWAP2 SWAP1 POP JUMP JUMPDEST PUSH2 0x3753 DUP2 PUSH2 0x373E JUMP JUMPDEST DUP3 MSTORE POP POP JUMP JUMPDEST PUSH0 PUSH1 0x20 DUP3 ADD SWAP1 POP PUSH2 0x376C PUSH0 DUP4 ADD DUP5 PUSH2 0x374A JUMP JUMPDEST SWAP3 SWAP2 POP POP JUMP JUMPDEST PUSH2 0x377B DUP2 PUSH2 0x3617 JUMP JUMPDEST DUP3 MSTORE POP POP JUMP JUMPDEST PUSH0 PUSH1 0x20 DUP3 ADD SWAP1 POP PUSH2 0x3794 PUSH0 DUP4 ADD DUP5 PUSH2 0x3772 JUMP JUMPDEST SWAP3 SWAP2 POP POP JUMP JUMPDEST PUSH0 PUSH0 PUSH1 0x40 DUP4 DUP6 SUB SLT ISZERO PUSH2 0x37B0 JUMPI PUSH2 0x37AF PUSH2 0x359B JUMP JUMPDEST JUMPDEST PUSH0 PUSH2 0x37BD DUP6 DUP3 DUP7 ADD PUSH2 0x35B9 JUMP JUMPDEST SWAP3 POP POP PUSH1 0x20 PUSH2 0x37CE DUP6 DUP3 DUP7 ADD PUSH2 0x363E JUMP JUMPDEST SWAP2 POP POP SWAP3 POP SWAP3 SWAP1 POP JUMP JUMPDEST PUSH0 PUSH1 0x40 DUP3 ADD SWAP1 POP PUSH2 0x37EB PUSH0 DUP4 ADD DUP6 PUSH2 0x34DA JUMP JUMPDEST PUSH2 0x37F8 PUSH1 0x20 DUP4 ADD DUP5 PUSH2 0x34DA JUMP JUMPDEST SWAP4 SWAP3 POP POP POP JUMP JUMPDEST PUSH0 PUSH0 PUSH0 PUSH1 0x60 DUP5 DUP7 SUB SLT ISZERO PUSH2 0x3816 JUMPI PUSH2 0x3815 PUSH2 0x359B JUMP JUMPDEST JUMPDEST PUSH0 PUSH2 0x3823 DUP7 DUP3 DUP8 ADD PUSH2 0x35B9 JUMP JUMPDEST SWAP4 POP POP PUSH1 0x20 PUSH2 0x3834 DUP7 DUP3 DUP8 ADD PUSH2 0x363E JUMP JUMPDEST SWAP3 POP POP PUSH1 0x40 PUSH2 0x3845 DUP7 DUP3 DUP8 ADD PUSH2 0x363E JUMP JUMPDEST SWAP2 POP POP SWAP3 POP SWAP3 POP SWAP3 JUMP JUMPDEST PUSH0 DUP2 SWAP1 POP SWAP2 SWAP1 POP JUMP JUMPDEST PUSH2 0x3861 DUP2 PUSH2 0x384F JUMP JUMPDEST DUP3 MSTORE POP POP JUMP JUMPDEST PUSH0 PUSH1 0x20 DUP3 ADD SWAP1 POP PUSH2 0x387A PUSH0 DUP4 ADD DUP5 PUSH2 0x3858 JUMP JUMPDEST SWAP3 SWAP2 POP POP JUMP JUMPDEST PUSH0 PUSH0 PUSH1 0x40 DUP4 DUP6 SUB SLT ISZERO PUSH2 0x3896 JUMPI PUSH2 0x3895 PUSH2 0x359B JUMP JUMPDEST JUMPDEST PUSH0 PUSH2 0x38A3 DUP6 DUP3 DUP7 ADD PUSH2 0x363E JUMP JUMPDEST SWAP3 POP POP PUSH1 0x20 PUSH2 0x38B4 DUP6 DUP3 DUP7 ADD PUSH2 0x363E JUMP JUMPDEST SWAP2 POP POP SWAP3 POP SWAP3 SWAP1 POP JUMP JUMPDEST PUSH0 DUP2 MLOAD SWAP1 POP PUSH2 0x38CC DUP2 PUSH2 0x35A3 JUMP JUMPDEST SWAP3 SWAP2 POP POP JUMP JUMPDEST PUSH0 PUSH1 0x20 DUP3 DUP5 SUB SLT ISZERO PUSH2 0x38E7 JUMPI PUSH2 0x38E6 PUSH2 0x359B JUMP JUMPDEST JUMPDEST PUSH0 PUSH2 0x38F4 DUP5 DUP3 DUP6 ADD PUSH2 0x38BE JUMP JUMPDEST SWAP2 POP POP SWAP3 SWAP2 POP POP JUMP JUMPDEST PUSH0 DUP2 MLOAD SWAP1 POP SWAP2 SWAP1 POP JUMP JUMPDEST PUSH0 DUP2 SWAP1 POP SWAP3 SWAP2 POP POP JUMP JUMPDEST PUSH0 PUSH2 0x391B DUP3 PUSH2 0x38FD JUMP JUMPDEST PUSH2 0x3925 DUP2 DUP6 PUSH2 0x3907 JUMP JUMPDEST SWAP4 POP PUSH2 0x3935 DUP2 DUP6 PUSH1 0x20 DUP7 ADD PUSH2 0x351C JUMP JUMPDEST DUP1 DUP5 ADD SWAP2 POP POP SWAP3 SWAP2 POP POP JUMP JUMPDEST PUSH0 PUSH2 0x394C DUP3 DUP5 PUSH2 0x3911 JUMP JUMPDEST SWAP2 POP DUP2 SWAP1 POP SWAP3 SWAP2 POP POP JUMP JUMPDEST PUSH32 0x4E487B7100000000000000000000000000000000000000000000000000000000 PUSH0 MSTORE PUSH1 0x11 PUSH1 0x4 MSTORE PUSH1 0x24 PUSH0 REVERT JUMPDEST PUSH0 PUSH2 0x398E DUP3 PUSH2 0x34D1 JUMP JUMPDEST SWAP2 POP PUSH2 0x3999 DUP4 PUSH2 0x34D1 JUMP JUMPDEST SWAP3 POP DUP3 DUP3 ADD SWAP1 POP DUP1 DUP3 GT ISZERO PUSH2 0x39B1 JUMPI PUSH2 0x39B0 PUSH2 0x3957 JUMP JUMPDEST JUMPDEST SWAP3 SWAP2 POP POP JUMP JUMPDEST PUSH0 PUSH2 0x39C1 DUP3 PUSH2 0x34D1 JUMP JUMPDEST SWAP2 POP PUSH2 0x39CC DUP4 PUSH2 0x34D1 JUMP JUMPDEST SWAP3 POP DUP3 DUP3 SUB SWAP1 POP DUP2 DUP2 GT ISZERO PUSH2 0x39E4 JUMPI PUSH2 0x39E3 PUSH2 0x3957 JUMP JUMPDEST JUMPDEST SWAP3 SWAP2 POP POP JUMP JUMPDEST PUSH32 0x4E487B7100000000000000000000000000000000000000000000000000000000 PUSH0 MSTORE PUSH1 0x22 PUSH1 0x4 MSTORE PUSH1 0x24 PUSH0 REVERT JUMPDEST PUSH0 PUSH1 0x2 DUP3 DIV SWAP1 POP PUSH1 0x1 DUP3 AND DUP1 PUSH2 0x3A2E JUMPI PUSH1 0x7F DUP3 AND SWAP2 POP JUMPDEST PUSH1 0x20 DUP3 LT DUP2 SUB PUSH2 0x3A41 JUMPI PUSH2 0x3A40 PUSH2 0x39EA JUMP JUMPDEST JUMPDEST POP SWAP2 SWAP1 POP JUMP JUMPDEST PUSH0 PUSH1 0x60 DUP3 ADD SWAP1 POP PUSH2 0x3A5A PUSH0 DUP4 ADD DUP7 PUSH2 0x34DA JUMP JUMPDEST PUSH2 0x3A67 PUSH1 0x20 DUP4 ADD DUP6 PUSH2 0x34DA JUMP JUMPDEST PUSH2 0x3A74 PUSH1 0x40 DUP4 ADD DUP5 PUSH2 0x34DA JUMP JUMPDEST SWAP5 SWAP4 POP POP POP POP JUMP JUMPDEST PUSH32 0x63616E206E6F742072656C6561736520746F20636F6D70616E79000000000000 PUSH0 DUP3 ADD MSTORE POP JUMP JUMPDEST PUSH0 PUSH2 0x3AB0 PUSH1 0x1A DUP4 PUSH2 0x350C JUMP JUMPDEST SWAP2 POP PUSH2 0x3ABB DUP3 PUSH2 0x3A7C JUMP JUMPDEST PUSH1 0x20 DUP3 ADD SWAP1 POP SWAP2 SWAP1 POP JUMP JUMPDEST PUSH0 PUSH1 0x20 DUP3 ADD SWAP1 POP DUP2 DUP2 SUB PUSH0 DUP4 ADD MSTORE PUSH2 0x3ADD DUP2 PUSH2 0x3AA4 JUMP JUMPDEST SWAP1 POP SWAP2 SWAP1 POP JUMP JUMPDEST PUSH32 0x73616C6172792069732077616974696E67207570646174650000000000000000 PUSH0 DUP3 ADD MSTORE POP JUMP JUMPDEST PUSH0 PUSH2 0x3B18 PUSH1 0x18 DUP4 PUSH2 0x350C JUMP JUMPDEST SWAP2 POP PUSH2 0x3B23 DUP3 PUSH2 0x3AE4 JUMP JUMPDEST PUSH1 0x20 DUP3 ADD SWAP1 POP SWAP2 SWAP1 POP JUMP JUMPDEST PUSH0 PUSH1 0x20 DUP3 ADD SWAP1 POP DUP2 DUP2 SUB PUSH0 DUP4 ADD MSTORE PUSH2 0x3B45 DUP2 PUSH2 0x3B0C JUMP JUMPDEST SWAP1 POP SWAP2 SWAP1 POP JUMP JUMPDEST PUSH32 0x73616C61727920697320657175616C20746F206F6C64206F6E65000000000000 PUSH0 DUP3 ADD MSTORE POP JUMP JUMPDEST PUSH0 PUSH2 0x3B80 PUSH1 0x1A DUP4 PUSH2 0x350C JUMP JUMPDEST SWAP2 POP PUSH2 0x3B8B DUP3 PUSH2 0x3B4C JUMP JUMPDEST PUSH1 0x20 DUP3 ADD SWAP1 POP SWAP2 SWAP1 POP JUMP JUMPDEST PUSH0 PUSH1 0x20 DUP3 ADD SWAP1 POP DUP2 DUP2 SUB PUSH0 DUP4 ADD MSTORE PUSH2 0x3BAD DUP2 PUSH2 0x3B74 JUMP JUMPDEST SWAP1 POP SWAP2 SWAP1 POP JUMP JUMPDEST PUSH32 0x56616C7565206578636565647320696E74323536206D61782072616E67650000 PUSH0 DUP3 ADD MSTORE POP JUMP JUMPDEST PUSH0 PUSH2 0x3BE8 PUSH1 0x1E DUP4 PUSH2 0x350C JUMP JUMPDEST SWAP2 POP PUSH2 0x3BF3 DUP3 PUSH2 0x3BB4 JUMP JUMPDEST PUSH1 0x20 DUP3 ADD SWAP1 POP SWAP2 SWAP1 POP JUMP JUMPDEST PUSH0 PUSH1 0x20 DUP3 ADD SWAP1 POP DUP2 DUP2 SUB PUSH0 DUP4 ADD MSTORE PUSH2 0x3C15 DUP2 PUSH2 0x3BDC JUMP JUMPDEST SWAP1 POP SWAP2 SWAP1 POP JUMP JUMPDEST PUSH0 PUSH2 0x3C26 DUP3 PUSH2 0x384F JUMP JUMPDEST SWAP2 POP PUSH2 0x3C31 DUP4 PUSH2 0x384F JUMP JUMPDEST SWAP3 POP DUP3 DUP3 SUB SWAP1 POP DUP2 DUP2 SLT PUSH0 DUP5 SLT AND DUP3 DUP3 SGT PUSH0 DUP6 SLT ISZERO AND OR ISZERO PUSH2 0x3C56 JUMPI PUSH2 0x3C55 PUSH2 0x3957 JUMP JUMPDEST JUMPDEST SWAP3 SWAP2 POP POP JUMP JUMPDEST PUSH0 PUSH2 0x3C66 DUP3 PUSH2 0x384F JUMP JUMPDEST SWAP2 POP PUSH2 0x3C71 DUP4 PUSH2 0x384F JUMP JUMPDEST SWAP3 POP DUP3 DUP3 ADD SWAP1 POP DUP3 DUP2 SLT ISZERO PUSH0 DUP4 SLT AND DUP4 DUP3 SLT PUSH0 DUP5 SLT ISZERO AND OR ISZERO PUSH2 0x3C97 JUMPI PUSH2 0x3C96 PUSH2 0x3957 JUMP JUMPDEST JUMPDEST SWAP3 SWAP2 POP POP JUMP JUMPDEST PUSH32 0x4E487B7100000000000000000000000000000000000000000000000000000000 PUSH0 MSTORE PUSH1 0x12 PUSH1 0x4 MSTORE PUSH1 0x24 PUSH0 REVERT JUMPDEST PUSH0 PUSH2 0x3CD4 DUP3 PUSH2 0x34D1 JUMP JUMPDEST SWAP2 POP PUSH2 0x3CDF DUP4 PUSH2 0x34D1 JUMP JUMPDEST SWAP3 POP DUP3 PUSH2 0x3CEF JUMPI PUSH2 0x3CEE PUSH2 0x3C9D JUMP JUMPDEST JUMPDEST DUP3 DUP3 DIV SWAP1 POP SWAP3 SWAP2 POP POP JUMP JUMPDEST PUSH32 0x73616C61727920697320746F6F20686967680000000000000000000000000000 PUSH0 DUP3 ADD MSTORE POP JUMP JUMPDEST PUSH0 PUSH2 0x3D2E PUSH1 0x12 DUP4 PUSH2 0x350C JUMP JUMPDEST SWAP2 POP PUSH2 0x3D39 DUP3 PUSH2 0x3CFA JUMP JUMPDEST PUSH1 0x20 DUP3 ADD SWAP1 POP SWAP2 SWAP1 POP JUMP JUMPDEST PUSH0 PUSH1 0x20 DUP3 ADD SWAP1 POP DUP2 DUP2 SUB PUSH0 DUP4 ADD MSTORE PUSH2 0x3D5B DUP2 PUSH2 0x3D22 JUMP JUMPDEST SWAP1 POP SWAP2 SWAP1 POP JUMP JUMPDEST PUSH0 PUSH2 0x3D6C DUP3 PUSH2 0x373E JUMP JUMPDEST SWAP2 POP PUSH2 0x3D77 DUP4 PUSH2 0x373E JUMP JUMPDEST SWAP3 POP DUP3 DUP3 ADD SWAP1 POP PUSH1 0xFF DUP2 GT ISZERO PUSH2 0x3D90 JUMPI PUSH2 0x3D8F PUSH2 0x3957 JUMP JUMPDEST JUMPDEST SWAP3 SWAP2 POP POP JUMP JUMPDEST PUSH32 0x6E6F7468696E67206E6565642075706461746500000000000000000000000000 PUSH0 DUP3 ADD MSTORE POP JUMP JUMPDEST PUSH0 PUSH2 0x3DCA PUSH1 0x13 DUP4 PUSH2 0x350C JUMP JUMPDEST SWAP2 POP PUSH2 0x3DD5 DUP3 PUSH2 0x3D96 JUMP JUMPDEST PUSH1 0x20 DUP3 ADD SWAP1 POP SWAP2 SWAP1 POP JUMP JUMPDEST PUSH0 PUSH1 0x20 DUP3 ADD SWAP1 POP DUP2 DUP2 SUB PUSH0 DUP4 ADD MSTORE PUSH2 0x3DF7 DUP2 PUSH2 0x3DBE JUMP JUMPDEST SWAP1 POP SWAP2 SWAP1 POP JUMP JUMPDEST PUSH32 0x4E6F742074696D6520666F722075706461746520796574000000000000000000 PUSH0 DUP3 ADD MSTORE POP JUMP JUMPDEST PUSH0 PUSH2 0x3E32 PUSH1 0x17 DUP4 PUSH2 0x350C JUMP JUMPDEST SWAP2 POP PUSH2 0x3E3D DUP3 PUSH2 0x3DFE JUMP JUMPDEST PUSH1 0x20 DUP3 ADD SWAP1 POP SWAP2 SWAP1 POP JUMP JUMPDEST PUSH0 PUSH1 0x20 DUP3 ADD SWAP1 POP DUP2 DUP2 SUB PUSH0 DUP4 ADD MSTORE PUSH2 0x3E5F DUP2 PUSH2 0x3E26 JUMP JUMPDEST SWAP1 POP SWAP2 SWAP1 POP JUMP JUMPDEST PUSH0 PUSH0 REVERT JUMPDEST PUSH32 0x4E487B7100000000000000000000000000000000000000000000000000000000 PUSH0 MSTORE PUSH1 0x41 PUSH1 0x4 MSTORE PUSH1 0x24 PUSH0 REVERT JUMPDEST PUSH2 0x3EA0 DUP3 PUSH2 0x352A JUMP JUMPDEST DUP2 ADD DUP2 DUP2 LT PUSH8 0xFFFFFFFFFFFFFFFF DUP3 GT OR ISZERO PUSH2 0x3EBF JUMPI PUSH2 0x3EBE PUSH2 0x3E6A JUMP JUMPDEST JUMPDEST DUP1 PUSH1 0x40 MSTORE POP POP POP JUMP JUMPDEST PUSH0 PUSH2 0x3ED1 PUSH2 0x3592 JUMP JUMPDEST SWAP1 POP PUSH2 0x3EDD DUP3 DUP3 PUSH2 0x3E97 JUMP JUMPDEST SWAP2 SWAP1 POP JUMP JUMPDEST PUSH0 PUSH8 0xFFFFFFFFFFFFFFFF DUP3 GT ISZERO PUSH2 0x3EFC JUMPI PUSH2 0x3EFB PUSH2 0x3E6A JUMP JUMPDEST JUMPDEST PUSH1 0x20 DUP3 MUL SWAP1 POP PUSH1 0x20 DUP2 ADD SWAP1 POP SWAP2 SWAP1 POP JUMP JUMPDEST PUSH0 PUSH0 REVERT JUMPDEST PUSH0 DUP2 MLOAD SWAP1 POP PUSH2 0x3F1F DUP2 PUSH2 0x3628 JUMP JUMPDEST SWAP3 SWAP2 POP POP JUMP JUMPDEST PUSH0 PUSH2 0x3F37 PUSH2 0x3F32 DUP5 PUSH2 0x3EE2 JUMP JUMPDEST PUSH2 0x3EC8 JUMP JUMPDEST SWAP1 POP DUP1 DUP4 DUP3 MSTORE PUSH1 0x20 DUP3 ADD SWAP1 POP PUSH1 0x20 DUP5 MUL DUP4 ADD DUP6 DUP2 GT ISZERO PUSH2 0x3F5A JUMPI PUSH2 0x3F59 PUSH2 0x3F0D JUMP JUMPDEST JUMPDEST DUP4 JUMPDEST DUP2 DUP2 LT ISZERO PUSH2 0x3F83 JUMPI DUP1 PUSH2 0x3F6F DUP9 DUP3 PUSH2 0x3F11 JUMP JUMPDEST DUP5 MSTORE PUSH1 0x20 DUP5 ADD SWAP4 POP POP PUSH1 0x20 DUP2 ADD SWAP1 POP PUSH2 0x3F5C JUMP JUMPDEST POP POP POP SWAP4 SWAP3 POP POP POP JUMP JUMPDEST PUSH0 DUP3 PUSH1 0x1F DUP4 ADD SLT PUSH2 0x3FA1 JUMPI PUSH2 0x3FA0 PUSH2 0x3E66 JUMP JUMPDEST JUMPDEST DUP2 MLOAD PUSH2 0x3FB1 DUP5 DUP3 PUSH1 0x20 DUP7 ADD PUSH2 0x3F25 JUMP JUMPDEST SWAP2 POP POP SWAP3 SWAP2 POP POP JUMP JUMPDEST PUSH0 PUSH1 0x20 DUP3 DUP5 SUB SLT ISZERO PUSH2 0x3FCF JUMPI PUSH2 0x3FCE PUSH2 0x359B JUMP JUMPDEST JUMPDEST PUSH0 DUP3 ADD MLOAD PUSH8 0xFFFFFFFFFFFFFFFF DUP2 GT ISZERO PUSH2 0x3FEC JUMPI PUSH2 0x3FEB PUSH2 0x359F JUMP JUMPDEST JUMPDEST PUSH2 0x3FF8 DUP5 DUP3 DUP6 ADD PUSH2 0x3F8D JUMP JUMPDEST SWAP2 POP POP SWAP3 SWAP2 POP POP JUMP JUMPDEST PUSH32 0x4E487B7100000000000000000000000000000000000000000000000000000000 PUSH0 MSTORE PUSH1 0x32 PUSH1 0x4 MSTORE PUSH1 0x24 PUSH0 REVERT JUMPDEST PUSH0 DUP2 PUSH1 0x1 SHR SWAP1 POP SWAP2 SWAP1 POP JUMP JUMPDEST PUSH0 PUSH0 DUP3 SWAP2 POP DUP4 SWAP1 POP JUMPDEST PUSH1 0x1 DUP6 GT ISZERO PUSH2 0x4083 JUMPI DUP1 DUP7 DIV DUP2 GT ISZERO PUSH2 0x405F JUMPI PUSH2 0x405E PUSH2 0x3957 JUMP JUMPDEST JUMPDEST PUSH1 0x1 DUP6 AND ISZERO PUSH2 0x406E JUMPI DUP1 DUP3 MUL SWAP2 POP JUMPDEST DUP1 DUP2 MUL SWAP1 POP PUSH2 0x407C DUP6 PUSH2 0x402E JUMP JUMPDEST SWAP5 POP PUSH2 0x4043 JUMP JUMPDEST SWAP5 POP SWAP5 SWAP3 POP POP POP JUMP JUMPDEST PUSH0 DUP3 PUSH2 0x409B JUMPI PUSH1 0x1 SWAP1 POP PUSH2 0x4156 JUMP JUMPDEST DUP2 PUSH2 0x40A8 JUMPI PUSH0 SWAP1 POP PUSH2 0x4156 JUMP JUMPDEST DUP2 PUSH1 0x1 DUP2 EQ PUSH2 0x40BE JUMPI PUSH1 0x2 DUP2 EQ PUSH2 0x40C8 JUMPI PUSH2 0x40F7 JUMP JUMPDEST PUSH1 0x1 SWAP2 POP POP PUSH2 0x4156 JUMP JUMPDEST PUSH1 0xFF DUP5 GT ISZERO PUSH2 0x40DA JUMPI PUSH2 0x40D9 PUSH2 0x3957 JUMP JUMPDEST JUMPDEST DUP4 PUSH1 0x2 EXP SWAP2 POP DUP5 DUP3 GT ISZERO PUSH2 0x40F1 JUMPI PUSH2 0x40F0 PUSH2 0x3957 JUMP JUMPDEST JUMPDEST POP PUSH2 0x4156 JUMP JUMPDEST POP PUSH1 0x20 DUP4 LT PUSH2 0x133 DUP4 LT AND PUSH1 0x4E DUP5 LT PUSH1 0xB DUP5 LT AND OR ISZERO PUSH2 0x412C JUMPI DUP3 DUP3 EXP SWAP1 POP DUP4 DUP2 GT ISZERO PUSH2 0x4127 JUMPI PUSH2 0x4126 PUSH2 0x3957 JUMP JUMPDEST JUMPDEST PUSH2 0x4156 JUMP JUMPDEST PUSH2 0x4139 DUP5 DUP5 DUP5 PUSH1 0x1 PUSH2 0x403A JUMP JUMPDEST SWAP3 POP SWAP1 POP DUP2 DUP5 DIV DUP2 GT ISZERO PUSH2 0x4150 JUMPI PUSH2 0x414F PUSH2 0x3957 JUMP JUMPDEST JUMPDEST DUP2 DUP2 MUL SWAP1 POP JUMPDEST SWAP4 SWAP3 POP POP POP JUMP JUMPDEST PUSH0 PUSH2 0x4167 DUP3 PUSH2 0x34D1 JUMP JUMPDEST SWAP2 POP PUSH2 0x4172 DUP4 PUSH2 0x373E JUMP JUMPDEST SWAP3 POP PUSH2 0x419F PUSH32 0xFFFFFFFFFFFFFFFFFFFFFFFFFFFFFFFFFFFFFFFFFFFFFFFFFFFFFFFFFFFFFFFF DUP5 DUP5 PUSH2 0x408C JUMP JUMPDEST SWAP1 POP SWAP3 SWAP2 POP POP JUMP JUMPDEST PUSH0 PUSH1 0x60 DUP3 ADD SWAP1 POP PUSH2 0x41BA PUSH0 DUP4 ADD DUP7 PUSH2 0x3772 JUMP JUMPDEST PUSH2 0x41C7 PUSH1 0x20 DUP4 ADD DUP6 PUSH2 0x3772 JUMP JUMPDEST PUSH2 0x41D4 PUSH1 0x40 DUP4 ADD DUP5 PUSH2 0x34DA JUMP JUMPDEST SWAP5 SWAP4 POP POP POP POP JUMP JUMPDEST PUSH0 PUSH1 0x40 DUP3 ADD SWAP1 POP PUSH2 0x41EF PUSH0 DUP4 ADD DUP6 PUSH2 0x3772 JUMP JUMPDEST PUSH2 0x41FC PUSH1 0x20 DUP4 ADD DUP5 PUSH2 0x34DA JUMP JUMPDEST SWAP4 SWAP3 POP POP POP JUMP JUMPDEST PUSH0 PUSH1 0x60 DUP3 ADD SWAP1 POP PUSH2 0x4216 PUSH0 DUP4 ADD DUP7 PUSH2 0x3772 JUMP JUMPDEST PUSH2 0x4223 PUSH1 0x20 DUP4 ADD DUP6 PUSH2 0x34DA JUMP JUMPDEST PUSH2 0x4230 PUSH1 0x40 DUP4 ADD DUP5 PUSH2 0x34DA JUMP JUMPDEST SWAP5 SWAP4 POP POP POP POP JUMP JUMPDEST PUSH32 0x6E6F74207075626C696300000000000000000000000000000000000000000000 PUSH0 DUP3 ADD MSTORE POP JUMP JUMPDEST PUSH0 PUSH2 0x426C PUSH1 0xA DUP4 PUSH2 0x350C JUMP JUMPDEST SWAP2 POP PUSH2 0x4277 DUP3 PUSH2 0x4238 JUMP JUMPDEST PUSH1 0x20 DUP3 ADD SWAP1 POP SWAP2 SWAP1 POP JUMP JUMPDEST PUSH0 PUSH1 0x20 DUP3 ADD SWAP1 POP DUP2 DUP2 SUB PUSH0 DUP4 ADD MSTORE PUSH2 0x4299 DUP2 PUSH2 0x4260 JUMP JUMPDEST SWAP1 POP SWAP2 SWAP1 POP JUMP JUMPDEST PUSH32 0x4E487B7100000000000000000000000000000000000000000000000000000000 PUSH0 MSTORE PUSH1 0x21 PUSH1 0x4 MSTORE PUSH1 0x24 PUSH0 REVERT JUMPDEST PUSH0 PUSH2 0x42D7 DUP3 PUSH2 0x373E JUMP JUMPDEST SWAP2 POP PUSH2 0x42E2 DUP4 PUSH2 0x373E JUMP JUMPDEST SWAP3 POP DUP3 PUSH2 0x42F2 JUMPI PUSH2 0x42F1 PUSH2 0x3C9D JUMP JUMPDEST JUMPDEST DUP3 DUP3 MOD SWAP1 POP SWAP3 SWAP2 POP POP JUMP JUMPDEST PUSH32 0x546F74616C53686172657320646576696174696F6E2065786365656473203130 PUSH0 DUP3 ADD MSTORE PUSH32 0x2500000000000000000000000000000000000000000000000000000000000000 PUSH1 0x20 DUP3 ADD MSTORE POP JUMP JUMPDEST PUSH0 PUSH2 0x4357 PUSH1 0x21 DUP4 PUSH2 0x350C JUMP JUMPDEST SWAP2 POP PUSH2 0x4362 DUP3 PUSH2 0x42FD JUMP JUMPDEST PUSH1 0x40 DUP3 ADD SWAP1 POP SWAP2 SWAP1 POP JUMP JUMPDEST PUSH0 PUSH1 0x20 DUP3 ADD SWAP1 POP DUP2 DUP2 SUB PUSH0 DUP4 ADD MSTORE PUSH2 0x4384 DUP2 PUSH2 0x434B JUMP JUMPDEST SWAP1 POP SWAP2 SWAP1 POP JUMP INVALID LOG2 PUSH5 0x6970667358 0x22 SLT KECCAK256 PUSH4 0x1134939D 0xE4 0xC4 MSTORE8 0xE7 0xCE 0xC5 SWAP3 INVALID 0xF6 0xCD 0xEE BLOCKHASH 0x2B 0xEF NOT 0xF7 0x29 PUSH0 PUSH9 0x5B310C5B5BCB1AC864 PUSH20 0x6F6C634300081C00330000000000000000000000 "
		},
		"gasEstimates": {
			"creation": {
				"codeDepositCost": "3469000",
				"executionCost": "infinite",
				"totalCost": "infinite"
			},
			"external": {
				"allowance(address,address)": "infinite",
				"allowedDeviation()": "2494",
				"approve(address,uint256)": "infinite",
				"asset()": "infinite",
				"balanceOf(address)": "2896",
				"callAllClaim()": "infinite",
				"callClaim()": "infinite",
				"convertToAssets(uint256)": "infinite",
				"convertToShares(uint256)": "infinite",
				"decimals()": "infinite",
				"deposit(uint256,address)": "infinite",
				"finishUpdate(address)": "infinite",
				"increaseRegisteredCapital(uint256)": "infinite",
				"isPublic()": "2533",
				"lastTotalShares()": "2537",
				"lastUpdated()": "2536",
				"maxDeposit(address)": "infinite",
				"maxMint(address)": "infinite",
				"maxRedeem(address)": "infinite",
				"maxWithdraw(address)": "infinite",
				"minPendingSps()": "2558",
				"mint(uint256,address)": "infinite",
				"name()": "infinite",
				"owner()": "2625",
				"pendingSps()": "2492",
				"previewDeposit(uint256)": "infinite",
				"previewMint(uint256)": "infinite",
				"previewRedeem(uint256)": "infinite",
				"previewWithdraw(uint256)": "infinite",
				"redeem(uint256,address,address)": "infinite",
				"releasable(address)": "infinite",
				"release(address)": "infinite",
				"renounceOwnership()": "infinite",
				"salaryDataOf(address)": "infinite",
				"salaryToSps(uint256)": "infinite",
				"spsToSalary(uint256)": "infinite",
				"symbol()": "infinite",
				"totalAccumulatedSalary()": "infinite",
				"totalAssets()": "infinite",
				"totalPendingSalary()": "infinite",
				"totalSps()": "2559",
				"totalSupply()": "2500",
				"transfer(address,uint256)": "infinite",
				"transferFrom(address,address,uint256)": "infinite",
				"transferOwnership(address)": "infinite",
				"turnPublic()": "infinite",
				"updateDataOf(address)": "infinite",
				"updateOldTotalAccumulatedSalary()": "infinite",
				"updateSalary(address,uint256)": "infinite",
				"withdraw(uint256,address,address)": "infinite"
			},
			"internal": {
				"_checkTotalShares(uint256)": "infinite",
				"_deposit(address,address,uint256,uint256)": "infinite",
				"_updateTotalShares()": "infinite",
				"_withdraw(address,address,address,uint256,uint256)": "infinite"
			}
		},
		"methodIdentifiers": {
			"allowance(address,address)": "dd62ed3e",
			"allowedDeviation()": "05b182ea",
			"approve(address,uint256)": "095ea7b3",
			"asset()": "38d52e0f",
			"balanceOf(address)": "70a08231",
			"callAllClaim()": "c920c609",
			"callClaim()": "c1955c78",
			"convertToAssets(uint256)": "07a2d13a",
			"convertToShares(uint256)": "c6e6f592",
			"decimals()": "313ce567",
			"deposit(uint256,address)": "6e553f65",
			"finishUpdate(address)": "334c356e",
			"increaseRegisteredCapital(uint256)": "0b4b1c44",
			"isPublic()": "dc9a1535",
			"lastTotalShares()": "20212cb7",
			"lastUpdated()": "d0b06f5d",
			"maxDeposit(address)": "402d267d",
			"maxMint(address)": "c63d75b6",
			"maxRedeem(address)": "d905777e",
			"maxWithdraw(address)": "ce96cb77",
			"minPendingSps()": "c32e8459",
			"mint(uint256,address)": "94bf804d",
			"name()": "06fdde03",
			"owner()": "8da5cb5b",
			"pendingSps()": "c06b8287",
			"previewDeposit(uint256)": "ef8b30f7",
			"previewMint(uint256)": "b3d7f6b9",
			"previewRedeem(uint256)": "4cdad506",
			"previewWithdraw(uint256)": "0a28a477",
			"redeem(uint256,address,address)": "ba087652",
			"releasable(address)": "a3f8eace",
			"release(address)": "19165587",
			"renounceOwnership()": "715018a6",
			"salaryDataOf(address)": "f0bfa6c1",
			"salaryToSps(uint256)": "3795309e",
			"spsToSalary(uint256)": "d643fa05",
			"symbol()": "95d89b41",
			"totalAccumulatedSalary()": "e6c4ffee",
			"totalAssets()": "01e1d114",
			"totalPendingSalary()": "40f2ba59",
			"totalSps()": "39e761d6",
			"totalSupply()": "18160ddd",
			"transfer(address,uint256)": "a9059cbb",
			"transferFrom(address,address,uint256)": "23b872dd",
			"transferOwnership(address)": "f2fde38b",
			"turnPublic()": "c2ce7af3",
			"updateDataOf(address)": "af86a953",
			"updateOldTotalAccumulatedSalary()": "f8b8e80e",
			"updateSalary(address,uint256)": "22003f10",
			"withdraw(uint256,address,address)": "b460af94"
		}
	},
	"abi": [
		{
			"inputs": [
				{
					"internalType": "address",
					"name": "router_",
					"type": "address"
				},
				{
					"internalType": "address",
					"name": "owner_",
					"type": "address"
				},
				{
					"internalType": "uint256",
					"name": "amount",
					"type": "uint256"
				},
				{
					"internalType": "contract IERC20",
					"name": "_token",
					"type": "address"
				},
				{
					"internalType": "address",
					"name": "company",
					"type": "address"
				},
				{
					"internalType": "string",
					"name": "name",
					"type": "string"
				},
				{
					"internalType": "string",
					"name": "symbol",
					"type": "string"
				}
			],
			"stateMutability": "nonpayable",
			"type": "constructor"
		},
		{
			"inputs": [
				{
					"internalType": "address",
					"name": "spender",
					"type": "address"
				},
				{
					"internalType": "uint256",
					"name": "allowance",
					"type": "uint256"
				},
				{
					"internalType": "uint256",
					"name": "needed",
					"type": "uint256"
				}
			],
			"name": "ERC20InsufficientAllowance",
			"type": "error"
		},
		{
			"inputs": [
				{
					"internalType": "address",
					"name": "sender",
					"type": "address"
				},
				{
					"internalType": "uint256",
					"name": "balance",
					"type": "uint256"
				},
				{
					"internalType": "uint256",
					"name": "needed",
					"type": "uint256"
				}
			],
			"name": "ERC20InsufficientBalance",
			"type": "error"
		},
		{
			"inputs": [
				{
					"internalType": "address",
					"name": "approver",
					"type": "address"
				}
			],
			"name": "ERC20InvalidApprover",
			"type": "error"
		},
		{
			"inputs": [
				{
					"internalType": "address",
					"name": "receiver",
					"type": "address"
				}
			],
			"name": "ERC20InvalidReceiver",
			"type": "error"
		},
		{
			"inputs": [
				{
					"internalType": "address",
					"name": "sender",
					"type": "address"
				}
			],
			"name": "ERC20InvalidSender",
			"type": "error"
		},
		{
			"inputs": [
				{
					"internalType": "address",
					"name": "spender",
					"type": "address"
				}
			],
			"name": "ERC20InvalidSpender",
			"type": "error"
		},
		{
			"inputs": [
				{
					"internalType": "address",
					"name": "receiver",
					"type": "address"
				},
				{
					"internalType": "uint256",
					"name": "assets",
					"type": "uint256"
				},
				{
					"internalType": "uint256",
					"name": "max",
					"type": "uint256"
				}
			],
			"name": "ERC4626ExceededMaxDeposit",
			"type": "error"
		},
		{
			"inputs": [
				{
					"internalType": "address",
					"name": "receiver",
					"type": "address"
				},
				{
					"internalType": "uint256",
					"name": "shares",
					"type": "uint256"
				},
				{
					"internalType": "uint256",
					"name": "max",
					"type": "uint256"
				}
			],
			"name": "ERC4626ExceededMaxMint",
			"type": "error"
		},
		{
			"inputs": [
				{
					"internalType": "address",
					"name": "owner",
					"type": "address"
				},
				{
					"internalType": "uint256",
					"name": "shares",
					"type": "uint256"
				},
				{
					"internalType": "uint256",
					"name": "max",
					"type": "uint256"
				}
			],
			"name": "ERC4626ExceededMaxRedeem",
			"type": "error"
		},
		{
			"inputs": [
				{
					"internalType": "address",
					"name": "owner",
					"type": "address"
				},
				{
					"internalType": "uint256",
					"name": "assets",
					"type": "uint256"
				},
				{
					"internalType": "uint256",
					"name": "max",
					"type": "uint256"
				}
			],
			"name": "ERC4626ExceededMaxWithdraw",
			"type": "error"
		},
		{
			"inputs": [
				{
					"internalType": "address",
					"name": "owner",
					"type": "address"
				}
			],
			"name": "OwnableInvalidOwner",
			"type": "error"
		},
		{
			"inputs": [
				{
					"internalType": "address",
					"name": "account",
					"type": "address"
				}
			],
			"name": "OwnableUnauthorizedAccount",
			"type": "error"
		},
		{
			"inputs": [
				{
					"internalType": "address",
					"name": "token",
					"type": "address"
				}
			],
			"name": "SafeERC20FailedOperation",
			"type": "error"
		},
		{
			"anonymous": false,
			"inputs": [
				{
					"indexed": true,
					"internalType": "address",
					"name": "owner",
					"type": "address"
				},
				{
					"indexed": true,
					"internalType": "address",
					"name": "spender",
					"type": "address"
				},
				{
					"indexed": false,
					"internalType": "uint256",
					"name": "value",
					"type": "uint256"
				}
			],
			"name": "Approval",
			"type": "event"
		},
		{
			"anonymous": false,
			"inputs": [
				{
					"indexed": false,
					"internalType": "uint256",
					"name": "amount",
					"type": "uint256"
				}
			],
			"name": "CapitalIncreased",
			"type": "event"
		},
		{
			"anonymous": false,
			"inputs": [
				{
					"indexed": true,
					"internalType": "address",
					"name": "sender",
					"type": "address"
				},
				{
					"indexed": true,
					"internalType": "address",
					"name": "owner",
					"type": "address"
				},
				{
					"indexed": false,
					"internalType": "uint256",
					"name": "assets",
					"type": "uint256"
				},
				{
					"indexed": false,
					"internalType": "uint256",
					"name": "shares",
					"type": "uint256"
				}
			],
			"name": "Deposit",
			"type": "event"
		},
		{
			"anonymous": false,
			"inputs": [
				{
					"indexed": true,
					"internalType": "address",
					"name": "previousOwner",
					"type": "address"
				},
				{
					"indexed": true,
					"internalType": "address",
					"name": "newOwner",
					"type": "address"
				}
			],
			"name": "OwnershipTransferred",
			"type": "event"
		},
		{
			"anonymous": false,
			"inputs": [
				{
					"indexed": true,
					"internalType": "address",
					"name": "creator",
					"type": "address"
				},
				{
					"indexed": false,
					"internalType": "uint256",
					"name": "amount",
					"type": "uint256"
				}
			],
			"name": "SalaryReleased",
			"type": "event"
		},
		{
			"anonymous": false,
			"inputs": [
				{
					"indexed": true,
					"internalType": "address",
					"name": "creator",
					"type": "address"
				},
				{
					"indexed": false,
					"internalType": "uint256",
					"name": "amount",
					"type": "uint256"
				},
				{
					"indexed": false,
					"internalType": "uint256",
					"name": "timestamp",
					"type": "uint256"
				}
			],
			"name": "SalaryUpdateFinished",
			"type": "event"
		},
		{
			"anonymous": false,
			"inputs": [
				{
					"indexed": true,
					"internalType": "address",
					"name": "creator",
					"type": "address"
				},
				{
					"indexed": false,
					"internalType": "uint256",
					"name": "updateTime",
					"type": "uint256"
				},
				{
					"indexed": false,
					"internalType": "uint256",
					"name": "currentAmount",
					"type": "uint256"
				},
				{
					"indexed": false,
					"internalType": "uint256",
					"name": "pendingAmount",
					"type": "uint256"
				}
			],
			"name": "SalaryUpdateScheduled",
			"type": "event"
		},
		{
			"anonymous": false,
			"inputs": [
				{
					"indexed": false,
					"internalType": "uint256",
					"name": "time",
					"type": "uint256"
				},
				{
					"indexed": false,
					"internalType": "uint256",
					"name": "totalAssets",
					"type": "uint256"
				},
				{
					"indexed": false,
					"internalType": "uint256",
					"name": "totalSupply",
					"type": "uint256"
				}
			],
			"name": "TotalAssetsAndSupplyUpdated",
			"type": "event"
		},
		{
			"anonymous": false,
			"inputs": [
				{
					"indexed": true,
					"internalType": "address",
					"name": "from",
					"type": "address"
				},
				{
					"indexed": true,
					"internalType": "address",
					"name": "to",
					"type": "address"
				},
				{
					"indexed": false,
					"internalType": "uint256",
					"name": "value",
					"type": "uint256"
				}
			],
			"name": "Transfer",
			"type": "event"
		},
		{
			"anonymous": false,
			"inputs": [
				{
					"indexed": false,
					"internalType": "uint256",
					"name": "timestamp",
					"type": "uint256"
				}
			],
			"name": "TurnPublicAt",
			"type": "event"
		},
		{
			"anonymous": false,
			"inputs": [
				{
					"indexed": true,
					"internalType": "address",
					"name": "sender",
					"type": "address"
				},
				{
					"indexed": true,
					"internalType": "address",
					"name": "receiver",
					"type": "address"
				},
				{
					"indexed": true,
					"internalType": "address",
					"name": "owner",
					"type": "address"
				},
				{
					"indexed": false,
					"internalType": "uint256",
					"name": "assets",
					"type": "uint256"
				},
				{
					"indexed": false,
					"internalType": "uint256",
					"name": "shares",
					"type": "uint256"
				}
			],
			"name": "Withdraw",
			"type": "event"
		},
		{
			"inputs": [
				{
					"internalType": "address",
					"name": "owner",
					"type": "address"
				},
				{
					"internalType": "address",
					"name": "spender",
					"type": "address"
				}
			],
			"name": "allowance",
			"outputs": [
				{
					"internalType": "uint256",
					"name": "",
					"type": "uint256"
				}
			],
			"stateMutability": "view",
			"type": "function"
		},
		{
			"inputs": [],
			"name": "allowedDeviation",
			"outputs": [
				{
					"internalType": "uint256",
					"name": "",
					"type": "uint256"
				}
			],
			"stateMutability": "view",
			"type": "function"
		},
		{
			"inputs": [
				{
					"internalType": "address",
					"name": "spender",
					"type": "address"
				},
				{
					"internalType": "uint256",
					"name": "value",
					"type": "uint256"
				}
			],
			"name": "approve",
			"outputs": [
				{
					"internalType": "bool",
					"name": "",
					"type": "bool"
				}
			],
			"stateMutability": "nonpayable",
			"type": "function"
		},
		{
			"inputs": [],
			"name": "asset",
			"outputs": [
				{
					"internalType": "address",
					"name": "",
					"type": "address"
				}
			],
			"stateMutability": "view",
			"type": "function"
		},
		{
			"inputs": [
				{
					"internalType": "address",
					"name": "account",
					"type": "address"
				}
			],
			"name": "balanceOf",
			"outputs": [
				{
					"internalType": "uint256",
					"name": "",
					"type": "uint256"
				}
			],
			"stateMutability": "view",
			"type": "function"
		},
		{
			"inputs": [],
			"name": "callAllClaim",
			"outputs": [],
			"stateMutability": "nonpayable",
			"type": "function"
		},
		{
			"inputs": [],
			"name": "callClaim",
			"outputs": [],
			"stateMutability": "nonpayable",
			"type": "function"
		},
		{
			"inputs": [
				{
					"internalType": "uint256",
					"name": "shares",
					"type": "uint256"
				}
			],
			"name": "convertToAssets",
			"outputs": [
				{
					"internalType": "uint256",
					"name": "",
					"type": "uint256"
				}
			],
			"stateMutability": "view",
			"type": "function"
		},
		{
			"inputs": [
				{
					"internalType": "uint256",
					"name": "assets",
					"type": "uint256"
				}
			],
			"name": "convertToShares",
			"outputs": [
				{
					"internalType": "uint256",
					"name": "",
					"type": "uint256"
				}
			],
			"stateMutability": "view",
			"type": "function"
		},
		{
			"inputs": [],
			"name": "decimals",
			"outputs": [
				{
					"internalType": "uint8",
					"name": "",
					"type": "uint8"
				}
			],
			"stateMutability": "view",
			"type": "function"
		},
		{
			"inputs": [
				{
					"internalType": "uint256",
					"name": "assets",
					"type": "uint256"
				},
				{
					"internalType": "address",
					"name": "receiver",
					"type": "address"
				}
			],
			"name": "deposit",
			"outputs": [
				{
					"internalType": "uint256",
					"name": "",
					"type": "uint256"
				}
			],
			"stateMutability": "nonpayable",
			"type": "function"
		},
		{
			"inputs": [
				{
					"internalType": "address",
					"name": "creator_",
					"type": "address"
				}
			],
			"name": "finishUpdate",
			"outputs": [],
			"stateMutability": "nonpayable",
			"type": "function"
		},
		{
			"inputs": [
				{
					"internalType": "uint256",
					"name": "amount",
					"type": "uint256"
				}
			],
			"name": "increaseRegisteredCapital",
			"outputs": [],
			"stateMutability": "nonpayable",
			"type": "function"
		},
		{
			"inputs": [],
			"name": "isPublic",
			"outputs": [
				{
					"internalType": "bool",
					"name": "",
					"type": "bool"
				}
			],
			"stateMutability": "view",
			"type": "function"
		},
		{
			"inputs": [],
			"name": "lastTotalShares",
			"outputs": [
				{
					"internalType": "uint256",
					"name": "",
					"type": "uint256"
				}
			],
			"stateMutability": "view",
			"type": "function"
		},
		{
			"inputs": [],
			"name": "lastUpdated",
			"outputs": [
				{
					"internalType": "uint256",
					"name": "",
					"type": "uint256"
				}
			],
			"stateMutability": "view",
			"type": "function"
		},
		{
			"inputs": [
				{
					"internalType": "address",
					"name": "",
					"type": "address"
				}
			],
			"name": "maxDeposit",
			"outputs": [
				{
					"internalType": "uint256",
					"name": "",
					"type": "uint256"
				}
			],
			"stateMutability": "view",
			"type": "function"
		},
		{
			"inputs": [
				{
					"internalType": "address",
					"name": "",
					"type": "address"
				}
			],
			"name": "maxMint",
			"outputs": [
				{
					"internalType": "uint256",
					"name": "",
					"type": "uint256"
				}
			],
			"stateMutability": "view",
			"type": "function"
		},
		{
			"inputs": [
				{
					"internalType": "address",
					"name": "owner",
					"type": "address"
				}
			],
			"name": "maxRedeem",
			"outputs": [
				{
					"internalType": "uint256",
					"name": "",
					"type": "uint256"
				}
			],
			"stateMutability": "view",
			"type": "function"
		},
		{
			"inputs": [
				{
					"internalType": "address",
					"name": "owner",
					"type": "address"
				}
			],
			"name": "maxWithdraw",
			"outputs": [
				{
					"internalType": "uint256",
					"name": "",
					"type": "uint256"
				}
			],
			"stateMutability": "view",
			"type": "function"
		},
		{
			"inputs": [],
			"name": "minPendingSps",
			"outputs": [
				{
					"internalType": "uint256",
					"name": "",
					"type": "uint256"
				}
			],
			"stateMutability": "view",
			"type": "function"
		},
		{
			"inputs": [
				{
					"internalType": "uint256",
					"name": "shares",
					"type": "uint256"
				},
				{
					"internalType": "address",
					"name": "receiver",
					"type": "address"
				}
			],
			"name": "mint",
			"outputs": [
				{
					"internalType": "uint256",
					"name": "",
					"type": "uint256"
				}
			],
			"stateMutability": "nonpayable",
			"type": "function"
		},
		{
			"inputs": [],
			"name": "name",
			"outputs": [
				{
					"internalType": "string",
					"name": "",
					"type": "string"
				}
			],
			"stateMutability": "view",
			"type": "function"
		},
		{
			"inputs": [],
			"name": "owner",
			"outputs": [
				{
					"internalType": "address",
					"name": "",
					"type": "address"
				}
			],
			"stateMutability": "view",
			"type": "function"
		},
		{
			"inputs": [],
			"name": "pendingSps",
			"outputs": [
				{
					"internalType": "int256",
					"name": "",
					"type": "int256"
				}
			],
			"stateMutability": "view",
			"type": "function"
		},
		{
			"inputs": [
				{
					"internalType": "uint256",
					"name": "assets",
					"type": "uint256"
				}
			],
			"name": "previewDeposit",
			"outputs": [
				{
					"internalType": "uint256",
					"name": "",
					"type": "uint256"
				}
			],
			"stateMutability": "view",
			"type": "function"
		},
		{
			"inputs": [
				{
					"internalType": "uint256",
					"name": "shares",
					"type": "uint256"
				}
			],
			"name": "previewMint",
			"outputs": [
				{
					"internalType": "uint256",
					"name": "",
					"type": "uint256"
				}
			],
			"stateMutability": "view",
			"type": "function"
		},
		{
			"inputs": [
				{
					"internalType": "uint256",
					"name": "shares",
					"type": "uint256"
				}
			],
			"name": "previewRedeem",
			"outputs": [
				{
					"internalType": "uint256",
					"name": "",
					"type": "uint256"
				}
			],
			"stateMutability": "view",
			"type": "function"
		},
		{
			"inputs": [
				{
					"internalType": "uint256",
					"name": "assets",
					"type": "uint256"
				}
			],
			"name": "previewWithdraw",
			"outputs": [
				{
					"internalType": "uint256",
					"name": "",
					"type": "uint256"
				}
			],
			"stateMutability": "view",
			"type": "function"
		},
		{
			"inputs": [
				{
					"internalType": "uint256",
					"name": "shares",
					"type": "uint256"
				},
				{
					"internalType": "address",
					"name": "receiver",
					"type": "address"
				},
				{
					"internalType": "address",
					"name": "owner",
					"type": "address"
				}
			],
			"name": "redeem",
			"outputs": [
				{
					"internalType": "uint256",
					"name": "",
					"type": "uint256"
				}
			],
			"stateMutability": "nonpayable",
			"type": "function"
		},
		{
			"inputs": [
				{
					"internalType": "address",
					"name": "creator_",
					"type": "address"
				}
			],
			"name": "releasable",
			"outputs": [
				{
					"internalType": "uint256",
					"name": "",
					"type": "uint256"
				}
			],
			"stateMutability": "view",
			"type": "function"
		},
		{
			"inputs": [
				{
					"internalType": "address",
					"name": "creator_",
					"type": "address"
				}
			],
			"name": "release",
			"outputs": [
				{
					"internalType": "uint256",
					"name": "amount",
					"type": "uint256"
				}
			],
			"stateMutability": "nonpayable",
			"type": "function"
		},
		{
			"inputs": [],
			"name": "renounceOwnership",
			"outputs": [],
			"stateMutability": "nonpayable",
			"type": "function"
		},
		{
			"inputs": [
				{
					"internalType": "address",
					"name": "",
					"type": "address"
				}
			],
			"name": "salaryDataOf",
			"outputs": [
				{
					"internalType": "uint256",
					"name": "currentSps",
					"type": "uint256"
				},
				{
					"internalType": "uint256",
					"name": "lastReleaseAt",
					"type": "uint256"
				}
			],
			"stateMutability": "view",
			"type": "function"
		},
		{
			"inputs": [
				{
					"internalType": "uint256",
					"name": "salary",
					"type": "uint256"
				}
			],
			"name": "salaryToSps",
			"outputs": [
				{
					"internalType": "uint256",
					"name": "",
					"type": "uint256"
				}
			],
			"stateMutability": "pure",
			"type": "function"
		},
		{
			"inputs": [
				{
					"internalType": "uint256",
					"name": "sps",
					"type": "uint256"
				}
			],
			"name": "spsToSalary",
			"outputs": [
				{
					"internalType": "uint256",
					"name": "",
					"type": "uint256"
				}
			],
			"stateMutability": "pure",
			"type": "function"
		},
		{
			"inputs": [],
			"name": "symbol",
			"outputs": [
				{
					"internalType": "string",
					"name": "",
					"type": "string"
				}
			],
			"stateMutability": "view",
			"type": "function"
		},
		{
			"inputs": [],
			"name": "totalAccumulatedSalary",
			"outputs": [
				{
					"internalType": "uint256",
					"name": "",
					"type": "uint256"
				}
			],
			"stateMutability": "view",
			"type": "function"
		},
		{
			"inputs": [],
			"name": "totalAssets",
			"outputs": [
				{
					"internalType": "uint256",
					"name": "",
					"type": "uint256"
				}
			],
			"stateMutability": "view",
			"type": "function"
		},
		{
			"inputs": [],
			"name": "totalPendingSalary",
			"outputs": [
				{
					"internalType": "uint256",
					"name": "",
					"type": "uint256"
				}
			],
			"stateMutability": "view",
			"type": "function"
		},
		{
			"inputs": [],
			"name": "totalSps",
			"outputs": [
				{
					"internalType": "uint256",
					"name": "",
					"type": "uint256"
				}
			],
			"stateMutability": "view",
			"type": "function"
		},
		{
			"inputs": [],
			"name": "totalSupply",
			"outputs": [
				{
					"internalType": "uint256",
					"name": "",
					"type": "uint256"
				}
			],
			"stateMutability": "view",
			"type": "function"
		},
		{
			"inputs": [
				{
					"internalType": "address",
					"name": "to",
					"type": "address"
				},
				{
					"internalType": "uint256",
					"name": "value",
					"type": "uint256"
				}
			],
			"name": "transfer",
			"outputs": [
				{
					"internalType": "bool",
					"name": "",
					"type": "bool"
				}
			],
			"stateMutability": "nonpayable",
			"type": "function"
		},
		{
			"inputs": [
				{
					"internalType": "address",
					"name": "from",
					"type": "address"
				},
				{
					"internalType": "address",
					"name": "to",
					"type": "address"
				},
				{
					"internalType": "uint256",
					"name": "value",
					"type": "uint256"
				}
			],
			"name": "transferFrom",
			"outputs": [
				{
					"internalType": "bool",
					"name": "",
					"type": "bool"
				}
			],
			"stateMutability": "nonpayable",
			"type": "function"
		},
		{
			"inputs": [
				{
					"internalType": "address",
					"name": "newOwner",
					"type": "address"
				}
			],
			"name": "transferOwnership",
			"outputs": [],
			"stateMutability": "nonpayable",
			"type": "function"
		},
		{
			"inputs": [],
			"name": "turnPublic",
			"outputs": [],
			"stateMutability": "nonpayable",
			"type": "function"
		},
		{
			"inputs": [
				{
					"internalType": "address",
					"name": "",
					"type": "address"
				}
			],
			"name": "updateDataOf",
			"outputs": [
				{
					"internalType": "uint256",
					"name": "expectedSps",
					"type": "uint256"
				},
				{
					"internalType": "uint256",
					"name": "updateTime",
					"type": "uint256"
				}
			],
			"stateMutability": "view",
			"type": "function"
		},
		{
			"inputs": [],
			"name": "updateOldTotalAccumulatedSalary",
			"outputs": [],
			"stateMutability": "nonpayable",
			"type": "function"
		},
		{
			"inputs": [
				{
					"internalType": "address",
					"name": "creator_",
					"type": "address"
				},
				{
					"internalType": "uint256",
					"name": "amount",
					"type": "uint256"
				}
			],
			"name": "updateSalary",
			"outputs": [],
			"stateMutability": "nonpayable",
			"type": "function"
		},
		{
			"inputs": [
				{
					"internalType": "uint256",
					"name": "assets",
					"type": "uint256"
				},
				{
					"internalType": "address",
					"name": "receiver",
					"type": "address"
				},
				{
					"internalType": "address",
					"name": "owner",
					"type": "address"
				}
			],
			"name": "withdraw",
			"outputs": [
				{
					"internalType": "uint256",
					"name": "",
					"type": "uint256"
				}
			],
			"stateMutability": "nonpayable",
			"type": "function"
		}
	]
}