{
	"data": {
		"bytecode": {
			"linkReferences": {},
			"object": "6080604052348015600e575f5ffd5b50615ec38061001c5f395ff3fe608060405234801561000f575f5ffd5b5060043610610029575f3560e01c8063fbd81a641461002d575b5f5ffd5b61004760048036038101906100429190610322565b61005d565b6040516100549190610406565b60405180910390f35b5f8786868987878760405161007190610100565b61008197969594939291906104e9565b604051809103905ff08015801561009a573d5f5f3e3d5ffd5b5090508573ffffffffffffffffffffffffffffffffffffffff167f0e74b7404af17595ff54c39ca597cffa194b9ef34f67d2b2db32efcc52d293bc828a888888886040516100ed96959493929190610564565b60405180910390a2979650505050505050565b6158bc806105d283390190565b5f604051905090565b5f5ffd5b5f5ffd5b5f73ffffffffffffffffffffffffffffffffffffffff82169050919050565b5f6101478261011e565b9050919050565b6101578161013d565b8114610161575f5ffd5b50565b5f813590506101728161014e565b92915050565b5f6101828261013d565b9050919050565b61019281610178565b811461019c575f5ffd5b50565b5f813590506101ad81610189565b92915050565b5f819050919050565b6101c5816101b3565b81146101cf575f5ffd5b50565b5f813590506101e0816101bc565b92915050565b5f5ffd5b5f5ffd5b5f601f19601f8301169050919050565b7f4e487b71000000000000000000000000000000000000000000000000000000005f52604160045260245ffd5b610234826101ee565b810181811067ffffffffffffffff82111715610253576102526101fe565b5b80604052505050565b5f61026561010d565b9050610271828261022b565b919050565b5f67ffffffffffffffff8211156102905761028f6101fe565b5b610299826101ee565b9050602081019050919050565b828183375f83830152505050565b5f6102c66102c184610276565b61025c565b9050828152602081018484840111156102e2576102e16101ea565b5b6102ed8482856102a6565b509392505050565b5f82601f830112610309576103086101e6565b5b81356103198482602086016102b4565b91505092915050565b5f5f5f5f5f5f5f60e0888a03121561033d5761033c610116565b5b5f61034a8a828b01610164565b975050602061035b8a828b0161019f565b965050604061036c8a828b01610164565b955050606061037d8a828b016101d2565b945050608061038e8a828b01610164565b93505060a088013567ffffffffffffffff8111156103af576103ae61011a565b5b6103bb8a828b016102f5565b92505060c088013567ffffffffffffffff8111156103dc576103db61011a565b5b6103e88a828b016102f5565b91505092959891949750929550565b6104008161013d565b82525050565b5f6020820190506104195f8301846103f7565b92915050565b610428816101b3565b82525050565b5f819050919050565b5f61045161044c6104478461011e565b61042e565b61011e565b9050919050565b5f61046282610437565b9050919050565b5f61047382610458565b9050919050565b61048381610469565b82525050565b5f81519050919050565b5f82825260208201905092915050565b8281835e5f83830152505050565b5f6104bb82610489565b6104c58185610493565b93506104d58185602086016104a3565b6104de816101ee565b840191505092915050565b5f60e0820190506104fc5f83018a6103f7565b61050960208301896103f7565b610516604083018861041f565b610523606083018761047a565b61053060808301866103f7565b81810360a083015261054281856104b1565b905081810360c083015261055681846104b1565b905098975050505050505050565b5f60c0820190506105775f8301896103f7565b61058460208301886103f7565b610591604083018761041f565b61059e60608301866103f7565b81810360808301526105b081856104b1565b905081810360a08301526105c481846104b1565b905097965050505050505056fe60c060405262278d00600e555f60115f6101000a81548160ff021916908315150217905550612af8601455348015610035575f5ffd5b506040516158bc3803806158bc83398181016040528101906100579190610ca2565b86868686868686838282885f73ffffffffffffffffffffffffffffffffffffffff168173ffffffffffffffffffffffffffffffffffffffff16036100d2575f6040517f1e4fbdf70000000000000000000000000000000000000000000000000000000081526004016100c99190610d86565b60405180910390fd5b6100e18161038560201b60201c565b5081600490816100f19190610fa6565b5080600590816101019190610fa6565b5050505f5f6101158361044660201b60201c565b9150915081610125576012610127565b805b60ff1660a08160ff16815250508273ffffffffffffffffffffffffffffffffffffffff1660808173ffffffffffffffffffffffffffffffffffffffff16815250505050508660065f6101000a81548173ffffffffffffffffffffffffffffffffffffffff021916908373ffffffffffffffffffffffffffffffffffffffff1602179055508260075f6101000a81548173ffffffffffffffffffffffffffffffffffffffff021916908373ffffffffffffffffffffffffffffffffffffffff1602179055505f6101fb8661054f60201b60201c565b905080600f5f8973ffffffffffffffffffffffffffffffffffffffff1673ffffffffffffffffffffffffffffffffffffffff1681526020019081526020015f205f018190555042600f5f8973ffffffffffffffffffffffffffffffffffffffff1673ffffffffffffffffffffffffffffffffffffffff1681526020019081526020015f206001018190555042600d81905550806008819055508060105f8973ffffffffffffffffffffffffffffffffffffffff1673ffffffffffffffffffffffffffffffffffffffff1681526020019081526020015f205f0181905550610301876102ea61056c60201b60201c565b600a6102f691906111dd565b61058d60201b60201c565b7f49b15d0536554a8fbc082a1fab1f1f7fe05e6f13f44b3c05dac82f103257d6c84261033161061260201b60201c565b61033f6106d160201b60201c565b60405161034e93929190611236565b60405180910390a15050505050505050426012819055506103736106d160201b60201c565b60138190555050505050505050611405565b5f5f5f9054906101000a900473ffffffffffffffffffffffffffffffffffffffff169050815f5f6101000a81548173ffffffffffffffffffffffffffffffffffffffff021916908373ffffffffffffffffffffffffffffffffffffffff1602179055508173ffffffffffffffffffffffffffffffffffffffff168173ffffffffffffffffffffffffffffffffffffffff167f8be0079c531659141344cd1fd0a4f28419497f9722a3daafe3b4186f6b6457e060405160405180910390a35050565b5f5f5f5f8473ffffffffffffffffffffffffffffffffffffffff1660405160240160405160208183030381529060405263313ce56760e01b6020820180517bffffffffffffffffffffffffffffffffffffffffffffffffffffffff83818316178352505050506040516104b991906112af565b5f60405180830381855afa9150503d805f81146104f1576040519150601f19603f3d011682016040523d82523d5f602084013e6104f6565b606091505b509150915081801561050a57506020815110155b15610541575f8180602001905181019061052491906112c5565b905060ff8016811161053f576001819450945050505061054a565b505b5f5f9350935050505b915091565b5f61056582600162278d006106da60201b60201c565b9050919050565b5f61057b6107cb60201b60201c565b60a05161058891906112f0565b905090565b5f73ffffffffffffffffffffffffffffffffffffffff168273ffffffffffffffffffffffffffffffffffffffff16036105fd575f6040517fec442f050000000000000000000000000000000000000000000000000000000081526004016105f49190610d86565b60405180910390fd5b61060e5f83836107d360201b60201c565b5050565b5f5f6106226109ef60201b60201c565b73ffffffffffffffffffffffffffffffffffffffff166370a08231306040518263ffffffff1660e01b815260040161065a9190610d86565b602060405180830381865afa158015610675573d5f5f3e3d5ffd5b505050506040513d601f19601f8201168201806040525081019061069991906112c5565b90505f6106aa6109f860201b60201c565b90508082106106c85780826106bf9190611324565b925050506106ce565b5f925050505b90565b5f600354905090565b5f5f83850290505f5f19858709828110838203039150505f81036107125783828161070857610707611357565b5b04925050506107c4565b80841161073d5761073c6107315f861460126011610a1960201b60201c565b610a3860201b60201c565b5b5f8486880990508281118203915080830392505f855f038616905080860495508084049350600181825f0304019050808302841793505f600287600302189050808702600203810290508087026002038102905080870260020381029050808702600203810290508087026002038102905080870260020381029050808502955050505050505b9392505050565b5f6008905090565b5f73ffffffffffffffffffffffffffffffffffffffff168373ffffffffffffffffffffffffffffffffffffffff1603610823578060035f8282546108179190611384565b925050819055506108f3565b5f60015f8573ffffffffffffffffffffffffffffffffffffffff1673ffffffffffffffffffffffffffffffffffffffff1681526020019081526020015f20549050818110156108ad578381836040517fe450d38c0000000000000000000000000000000000000000000000000000000081526004016108a4939291906113b7565b60405180910390fd5b81810360015f8673ffffffffffffffffffffffffffffffffffffffff1673ffffffffffffffffffffffffffffffffffffffff1681526020019081526020015f2081905550505b5f73ffffffffffffffffffffffffffffffffffffffff168273ffffffffffffffffffffffffffffffffffffffff160361093a578060035f8282540392505081905550610985565b8060015f8473ffffffffffffffffffffffffffffffffffffffff1673ffffffffffffffffffffffffffffffffffffffff1681526020019081526020015f205f82825401925050819055505b8173ffffffffffffffffffffffffffffffffffffffff168373ffffffffffffffffffffffffffffffffffffffff167fddf252ad1be2c89b69c2b068fc378daa952ba7f163c4a11628f55a4df523b3ef836040516109e291906113ec565b60405180910390a3505050565b5f608051905090565b5f600b54610a0a610a4960201b60201c565b610a149190611324565b905090565b5f610a2984610a8260201b60201c565b82841802821890509392505050565b634e487b715f52806020526024601cfd5b5f5f600d5442610a599190611324565b9050610a6f6008548260016106da60201b60201c565b600c54610a7c9190611384565b91505090565b5f8115159050919050565b5f604051905090565b5f5ffd5b5f5ffd5b5f73ffffffffffffffffffffffffffffffffffffffff82169050919050565b5f610ac782610a9e565b9050919050565b610ad781610abd565b8114610ae1575f5ffd5b50565b5f81519050610af281610ace565b92915050565b5f819050919050565b610b0a81610af8565b8114610b14575f5ffd5b50565b5f81519050610b2581610b01565b92915050565b5f610b3582610abd565b9050919050565b610b4581610b2b565b8114610b4f575f5ffd5b50565b5f81519050610b6081610b3c565b92915050565b5f5ffd5b5f5ffd5b5f601f19601f8301169050919050565b7f4e487b71000000000000000000000000000000000000000000000000000000005f52604160045260245ffd5b610bb482610b6e565b810181811067ffffffffffffffff82111715610bd357610bd2610b7e565b5b80604052505050565b5f610be5610a8d565b9050610bf18282610bab565b919050565b5f67ffffffffffffffff821115610c1057610c0f610b7e565b5b610c1982610b6e565b9050602081019050919050565b8281835e5f83830152505050565b5f610c46610c4184610bf6565b610bdc565b905082815260208101848484011115610c6257610c61610b6a565b5b610c6d848285610c26565b509392505050565b5f82601f830112610c8957610c88610b66565b5b8151610c99848260208601610c34565b91505092915050565b5f5f5f5f5f5f5f60e0888a031215610cbd57610cbc610a96565b5b5f610cca8a828b01610ae4565b9750506020610cdb8a828b01610ae4565b9650506040610cec8a828b01610b17565b9550506060610cfd8a828b01610b52565b9450506080610d0e8a828b01610ae4565b93505060a088015167ffffffffffffffff811115610d2f57610d2e610a9a565b5b610d3b8a828b01610c75565b92505060c088015167ffffffffffffffff811115610d5c57610d5b610a9a565b5b610d688a828b01610c75565b91505092959891949750929550565b610d8081610abd565b82525050565b5f602082019050610d995f830184610d77565b92915050565b5f81519050919050565b7f4e487b71000000000000000000000000000000000000000000000000000000005f52602260045260245ffd5b5f6002820490506001821680610ded57607f821691505b602082108103610e0057610dff610da9565b5b50919050565b5f819050815f5260205f209050919050565b5f6020601f8301049050919050565b5f82821b905092915050565b5f60088302610e627fffffffffffffffffffffffffffffffffffffffffffffffffffffffffffffffff82610e27565b610e6c8683610e27565b95508019841693508086168417925050509392505050565b5f819050919050565b5f610ea7610ea2610e9d84610af8565b610e84565b610af8565b9050919050565b5f819050919050565b610ec083610e8d565b610ed4610ecc82610eae565b848454610e33565b825550505050565b5f5f905090565b610eeb610edc565b610ef6818484610eb7565b505050565b5b81811015610f1957610f0e5f82610ee3565b600181019050610efc565b5050565b601f821115610f5e57610f2f81610e06565b610f3884610e18565b81016020851015610f47578190505b610f5b610f5385610e18565b830182610efb565b50505b505050565b5f82821c905092915050565b5f610f7e5f1984600802610f63565b1980831691505092915050565b5f610f968383610f6f565b9150826002028217905092915050565b610faf82610d9f565b67ffffffffffffffff811115610fc857610fc7610b7e565b5b610fd28254610dd6565b610fdd828285610f1d565b5f60209050601f83116001811461100e575f8415610ffc578287015190505b6110068582610f8b565b86555061106d565b601f19841661101c86610e06565b5f5b828110156110435784890151825560018201915060208501945060208101905061101e565b86831015611060578489015161105c601f891682610f6f565b8355505b6001600288020188555050505b505050505050565b7f4e487b71000000000000000000000000000000000000000000000000000000005f52601160045260245ffd5b5f8160011c9050919050565b5f5f8291508390505b60018511156110f7578086048111156110d3576110d2611075565b5b60018516156110e25780820291505b80810290506110f0856110a2565b94506110b7565b94509492505050565b5f8261110f57600190506111ca565b8161111c575f90506111ca565b8160018114611132576002811461113c5761116b565b60019150506111ca565b60ff84111561114e5761114d611075565b5b8360020a91508482111561116557611164611075565b5b506111ca565b5060208310610133831016604e8410600b84101617156111a05782820a90508381111561119b5761119a611075565b5b6111ca565b6111ad84848460016110ae565b925090508184048111156111c4576111c3611075565b5b81810290505b9392505050565b5f60ff82169050919050565b5f6111e782610af8565b91506111f2836111d1565b925061121f7fffffffffffffffffffffffffffffffffffffffffffffffffffffffffffffffff8484611100565b905092915050565b61123081610af8565b82525050565b5f6060820190506112495f830186611227565b6112566020830185611227565b6112636040830184611227565b949350505050565b5f81519050919050565b5f81905092915050565b5f6112898261126b565b6112938185611275565b93506112a3818560208601610c26565b80840191505092915050565b5f6112ba828461127f565b915081905092915050565b5f602082840312156112da576112d9610a96565b5b5f6112e784828501610b17565b91505092915050565b5f6112fa826111d1565b9150611305836111d1565b9250828201905060ff81111561131e5761131d611075565b5b92915050565b5f61132e82610af8565b915061133983610af8565b925082820390508181111561135157611350611075565b5b92915050565b7f4e487b71000000000000000000000000000000000000000000000000000000005f52601260045260245ffd5b5f61138e82610af8565b915061139983610af8565b92508282019050808211156113b1576113b0611075565b5b92915050565b5f6060820190506113ca5f830186610d77565b6113d76020830185611227565b6113e46040830184611227565b949350505050565b5f6020820190506113ff5f830184611227565b92915050565b60805160a0516144886114345f395f6111c501525f81816117ba0152818161320b01526132f701526144885ff3fe608060405234801561000f575f5ffd5b5060043610610325575f3560e01c8063a3f8eace116101b6578063c920c60911610102578063e33b7de3116100a0578063ef8b30f71161007a578063ef8b30f714610a30578063f0bfa6c114610a60578063f2fde38b14610a91578063f8b8e80e14610aad57610325565b8063e33b7de3146109d6578063e6c4ffee146109f4578063e9bb37a014610a1257610325565b8063d643fa05116100dc578063d643fa0514610928578063d905777e14610958578063dc9a153514610988578063dd62ed3e146109a657610325565b8063c920c609146108d0578063ce96cb77146108da578063d0b06f5d1461090a57610325565b8063ba0876521161016f578063c2ce7af311610149578063c2ce7af314610848578063c32e845914610852578063c63d75b614610870578063c6e6f592146108a057610325565b8063ba087652146107f0578063c06b828714610820578063c1955c781461083e57610325565b8063a3f8eace146106e1578063a9059cbb14610711578063aa13e8c214610741578063af86a9531461075f578063b3d7f6b914610790578063b460af94146107c057610325565b8063334c356e116102755780634cdad5061161022e578063715018a611610208578063715018a61461066b5780638da5cb5b1461067557806394bf804d1461069357806395d89b41146106c357610325565b80634cdad506146105db5780636e553f651461060b57806370a082311461063b57610325565b8063334c356e146105055780633795309e1461052157806338d52e0f1461055157806339e761d61461056f578063402d267d1461058d57806340f2ba59146105bd57610325565b80630b4b1c44116102e257806320212cb7116102bc57806320212cb71461047d57806322003f101461049b57806323b872dd146104b7578063313ce567146104e757610325565b80630b4b1c441461041357806318160ddd1461042f578063191655871461044d57610325565b806301e1d1141461032957806305b182ea1461034757806306fdde031461036557806307a2d13a14610383578063095ea7b3146103b35780630a28a477146103e3575b5f5ffd5b610331610ab7565b60405161033e91906134b8565b60405180910390f35b61034f610b6a565b60405161035c91906134b8565b60405180910390f35b61036d610b70565b60405161037a9190613541565b60405180910390f35b61039d6004803603810190610398919061359c565b610c00565b6040516103aa91906134b8565b60405180910390f35b6103cd60048036038101906103c89190613621565b610c12565b6040516103da9190613679565b60405180910390f35b6103fd60048036038101906103f8919061359c565b610c34565b60405161040a91906134b8565b60405180910390f35b61042d6004803603810190610428919061359c565b610c47565b005b610437610d0a565b60405161044491906134b8565b60405180910390f35b61046760048036038101906104629190613692565b610d13565b60405161047491906134b8565b60405180910390f35b610485610e32565b60405161049291906134b8565b60405180910390f35b6104b560048036038101906104b09190613621565b610e38565b005b6104d160048036038101906104cc91906136bd565b61118c565b6040516104de9190613679565b60405180910390f35b6104ef6111ba565b6040516104fc9190613728565b60405180910390f35b61051f600480360381019061051a9190613692565b6111f3565b005b61053b6004803603810190610536919061359c565b6117a0565b60405161054891906134b8565b60405180910390f35b6105596117b7565b6040516105669190613750565b60405180910390f35b6105776117de565b60405161058491906134b8565b60405180910390f35b6105a760048036038101906105a29190613692565b6117e4565b6040516105b491906134b8565b60405180910390f35b6105c5611818565b6040516105d291906134b8565b60405180910390f35b6105f560048036038101906105f0919061359c565b611833565b60405161060291906134b8565b60405180910390f35b61062560048036038101906106209190613769565b611845565b60405161063291906134b8565b60405180910390f35b61065560048036038101906106509190613692565b611860565b60405161066291906134b8565b60405180910390f35b6106736118a6565b005b61067d6118b9565b60405161068a9190613750565b60405180910390f35b6106ad60048036038101906106a89190613769565b6118e0565b6040516106ba91906134b8565b60405180910390f35b6106cb6118fb565b6040516106d89190613541565b60405180910390f35b6106fb60048036038101906106f69190613692565b61198b565b60405161070891906134b8565b60405180910390f35b61072b60048036038101906107269190613621565b611a2e565b6040516107389190613679565b60405180910390f35b610749611a50565b60405161075691906134b8565b60405180910390f35b61077960048036038101906107749190613692565b611a56565b6040516107879291906137a7565b60405180910390f35b6107aa60048036038101906107a5919061359c565b611a76565b6040516107b791906134b8565b60405180910390f35b6107da60048036038101906107d591906137ce565b611a89565b6040516107e791906134b8565b60405180910390f35b61080a600480360381019061080591906137ce565b611aa6565b60405161081791906134b8565b60405180910390f35b610828611ac3565b6040516108359190613836565b60405180910390f35b610846611ac9565b005b610850611ca7565b005b61085a611d02565b60405161086791906134b8565b60405180910390f35b61088a60048036038101906108859190613692565b611d08565b60405161089791906134b8565b60405180910390f35b6108ba60048036038101906108b5919061359c565b611d33565b6040516108c791906134b8565b60405180910390f35b6108d8611d45565b005b6108f460048036038101906108ef9190613692565b611fca565b60405161090191906134b8565b60405180910390f35b610912612040565b60405161091f91906134b8565b60405180910390f35b610942600480360381019061093d919061359c565b612046565b60405161094f91906134b8565b60405180910390f35b610972600480360381019061096d9190613692565b61205d565b60405161097f91906134b8565b60405180910390f35b6109906120c1565b60405161099d9190613679565b60405180910390f35b6109c060048036038101906109bb919061384f565b6120d3565b6040516109cd91906134b8565b60405180910390f35b6109de612155565b6040516109eb91906134b8565b60405180910390f35b6109fc61215b565b604051610a0991906134b8565b60405180910390f35b610a1a61218e565b604051610a2791906134b8565b60405180910390f35b610a4a6004803603810190610a45919061359c565b612195565b604051610a5791906134b8565b60405180910390f35b610a7a6004803603810190610a759190613692565b6121a7565b604051610a889291906137a7565b60405180910390f35b610aab6004803603810190610aa69190613692565b6121c7565b005b610ab561224b565b005b5f5f610ac16117b7565b73ffffffffffffffffffffffffffffffffffffffff166370a08231306040518263ffffffff1660e01b8152600401610af99190613750565b602060405180830381865afa158015610b14573d5f5f3e3d5ffd5b505050506040513d601f19601f82011682018060405250810190610b3891906138a1565b90505f610b43611818565b9050808210610b61578082610b5891906138f9565b92505050610b67565b5f925050505b90565b60145481565b606060048054610b7f90613959565b80601f0160208091040260200160405190810160405280929190818152602001828054610bab90613959565b8015610bf65780601f10610bcd57610100808354040283529160200191610bf6565b820191905f5260205f20905b815481529060010190602001808311610bd957829003601f168201915b5050505050905090565b5f610c0b825f61228b565b9050919050565b5f5f610c1c6122e3565b9050610c298185856122ea565b600191505092915050565b5f610c408260016122fc565b9050919050565b610c4f612354565b610c62610c5a6117b7565b3330846123db565b5f610c6c826117a0565b905080600a5f828254610c7f9190613989565b925050819055507ff6b55bab6d7e270c7d22c26e35d0aac12c5c55ec34526cf4e7fff7015bbdf56282604051610cb591906134b8565b60405180910390a17f49b15d0536554a8fbc082a1fab1f1f7fe05e6f13f44b3c05dac82f103257d6c842610ce7610ab7565b610cef610d0a565b604051610cfe939291906139bc565b60405180910390a15050565b5f600354905090565b5f610d1c61224b565b610d258261198b565b905042600f5f8473ffffffffffffffffffffffffffffffffffffffff1673ffffffffffffffffffffffffffffffffffffffff1681526020019081526020015f206001018190555080600b5f828254610d7d9190613989565b92505081905550610d96610d8f6117b7565b838361245d565b8173ffffffffffffffffffffffffffffffffffffffff167fbb838a6261ee73aa6c6e5ffe262e016e3032e03406b6f3233d523874a2d1bfd582604051610ddc91906134b8565b60405180910390a27f49b15d0536554a8fbc082a1fab1f1f7fe05e6f13f44b3c05dac82f103257d6c842610e0e610ab7565b610e16610d0a565b604051610e25939291906139bc565b60405180910390a1919050565b60135481565b610e40612354565b5f60105f8473ffffffffffffffffffffffffffffffffffffffff1673ffffffffffffffffffffffffffffffffffffffff1681526020019081526020015f206001015414610ec2576040517f08c379a0000000000000000000000000000000000000000000000000000000008152600401610eb990613a3b565b60405180910390fd5b5f610ecc826117a0565b9050600f5f8473ffffffffffffffffffffffffffffffffffffffff1673ffffffffffffffffffffffffffffffffffffffff1681526020019081526020015f205f01548103610f4f576040517f08c379a0000000000000000000000000000000000000000000000000000000008152600401610f4690613aa3565b60405180910390fd5b7f7fffffffffffffffffffffffffffffffffffffffffffffffffffffffffffffff811115610fb2576040517f08c379a0000000000000000000000000000000000000000000000000000000008152600401610fa990613b0b565b60405180910390fd5b600f5f8473ffffffffffffffffffffffffffffffffffffffff1673ffffffffffffffffffffffffffffffffffffffff1681526020019081526020015f205f0154816009546110009190613b29565b61100a9190613b6a565b6009819055506110186124dc565b600e54426110269190613989565b60105f8573ffffffffffffffffffffffffffffffffffffffff1673ffffffffffffffffffffffffffffffffffffffff1681526020019081526020015f20600101819055508060105f8573ffffffffffffffffffffffffffffffffffffffff1673ffffffffffffffffffffffffffffffffffffffff1681526020019081526020015f205f01819055508273ffffffffffffffffffffffffffffffffffffffff167f64144ae9d460c32cc32e8f5dc77d40fbae4600c5575bcb07d755d2a2a4046d7f60105f8673ffffffffffffffffffffffffffffffffffffffff1673ffffffffffffffffffffffffffffffffffffffff1681526020019081526020015f206001015461116f600f5f8873ffffffffffffffffffffffffffffffffffffffff1673ffffffffffffffffffffffffffffffffffffffff1681526020019081526020015f205f0154612046565b8560405161117f939291906139bc565b60405180910390a2505050565b5f5f6111966122e3565b90506111a3858285612558565b6111ae8585856125ea565b60019150509392505050565b5f6111c36126da565b7f00000000000000000000000000000000000000000000000000000000000000006111ee9190613baa565b905090565b5f60105f8373ffffffffffffffffffffffffffffffffffffffff1673ffffffffffffffffffffffffffffffffffffffff1681526020019081526020015f206001015403611275576040517f08c379a000000000000000000000000000000000000000000000000000000000815260040161126c90613c28565b60405180910390fd5b4260105f8373ffffffffffffffffffffffffffffffffffffffff1673ffffffffffffffffffffffffffffffffffffffff1681526020019081526020015f206001015411156112f8576040517f08c379a00000000000000000000000000000000000000000000000000000000081526004016112ef90613c90565b60405180910390fd5b61130181610d13565b505f600f5f8373ffffffffffffffffffffffffffffffffffffffff1673ffffffffffffffffffffffffffffffffffffffff1681526020019081526020015f205f0154036113d05760065f9054906101000a900473ffffffffffffffffffffffffffffffffffffffff1673ffffffffffffffffffffffffffffffffffffffff16638cecfb0f826040518263ffffffff1660e01b81526004016113a29190613750565b5f604051808303815f87803b1580156113b9575f5ffd5b505af11580156113cb573d5f5f3e3d5ffd5b505050505b5f60105f8373ffffffffffffffffffffffffffffffffffffffff1673ffffffffffffffffffffffffffffffffffffffff1681526020019081526020015f205f01540361149e5760065f9054906101000a900473ffffffffffffffffffffffffffffffffffffffff1673ffffffffffffffffffffffffffffffffffffffff16635d11e38d826040518263ffffffff1660e01b81526004016114709190613750565b5f604051808303815f87803b158015611487575f5ffd5b505af1158015611499573d5f5f3e3d5ffd5b505050505b60105f8273ffffffffffffffffffffffffffffffffffffffff1673ffffffffffffffffffffffffffffffffffffffff1681526020019081526020015f205f0154600f5f8373ffffffffffffffffffffffffffffffffffffffff1673ffffffffffffffffffffffffffffffffffffffff1681526020019081526020015f205f015460085461152b91906138f9565b6115359190613989565b600881905550600f5f8273ffffffffffffffffffffffffffffffffffffffff1673ffffffffffffffffffffffffffffffffffffffff1681526020019081526020015f205f015460105f8373ffffffffffffffffffffffffffffffffffffffff1673ffffffffffffffffffffffffffffffffffffffff1681526020019081526020015f205f01546009546115c89190613b29565b6115d29190613b6a565b60098190555060105f8273ffffffffffffffffffffffffffffffffffffffff1673ffffffffffffffffffffffffffffffffffffffff1681526020019081526020015f205f0154600f5f8373ffffffffffffffffffffffffffffffffffffffff1673ffffffffffffffffffffffffffffffffffffffff1681526020019081526020015f205f018190555060105f8273ffffffffffffffffffffffffffffffffffffffff1673ffffffffffffffffffffffffffffffffffffffff1681526020019081526020015f205f5f82015f9055600182015f905550508073ffffffffffffffffffffffffffffffffffffffff167fb99bc8a6db70c04f8499dec757f26846533f241dff2de3c90755757fa165c576611728600f5f8573ffffffffffffffffffffffffffffffffffffffff1673ffffffffffffffffffffffffffffffffffffffff1681526020019081526020015f205f0154612046565b4261173161215b565b61173c600854612046565b60405161174c9493929190613cae565b60405180910390a27f49b15d0536554a8fbc082a1fab1f1f7fe05e6f13f44b3c05dac82f103257d6c84261177e610ab7565b611786610d0a565b604051611795939291906139bc565b60405180910390a150565b5f6117b082600162278d006126e2565b9050919050565b5f7f0000000000000000000000000000000000000000000000000000000000000000905090565b60085481565b5f6118116117f0610d0a565b6118016013546014546127106126e2565b61180b91906138f9565b5f61228b565b9050919050565b5f600b5461182461215b565b61182e91906138f9565b905090565b5f61183e825f61228b565b9050919050565b5f61184e611ac9565b61185883836127c7565b905092915050565b5f60015f8373ffffffffffffffffffffffffffffffffffffffff1673ffffffffffffffffffffffffffffffffffffffff1681526020019081526020015f20549050919050565b6118ae612354565b6118b75f612847565b565b5f5f5f9054906101000a900473ffffffffffffffffffffffffffffffffffffffff16905090565b5f6118e9611ac9565b6118f38383612908565b905092915050565b60606005805461190a90613959565b80601f016020809104026020016040519081016040528092919081815260200182805461193690613959565b80156119815780601f1061195857610100808354040283529160200191611981565b820191905f5260205f20905b81548152906001019060200180831161196457829003601f168201915b5050505050905090565b5f5f600f5f8473ffffffffffffffffffffffffffffffffffffffff1673ffffffffffffffffffffffffffffffffffffffff1681526020019081526020015f2060010154426119d991906138f9565b9050611a26600f5f8573ffffffffffffffffffffffffffffffffffffffff1673ffffffffffffffffffffffffffffffffffffffff1681526020019081526020015f205f01548260016126e2565b915050919050565b5f5f611a386122e3565b9050611a458185856125ea565b600191505092915050565b600e5481565b6010602052805f5260405f205f91509050805f0154908060010154905082565b5f611a8282600161228b565b9050919050565b5f611a92611ac9565b611a9d848484612988565b90509392505050565b5f611aaf611ac9565b611aba848484612a0a565b90509392505050565b60095481565b5f5f60075f9054906101000a900473ffffffffffffffffffffffffffffffffffffffff1673ffffffffffffffffffffffffffffffffffffffff1630604051602401611b149190613750565b6040516020818303038152906040527f1e83409a000000000000000000000000000000000000000000000000000000007bffffffffffffffffffffffffffffffffffffffffffffffffffffffff19166020820180517bffffffffffffffffffffffffffffffffffffffffffffffffffffffff8381831617835250505050604051611b9e9190613d35565b5f604051808303815f865af19150503d805f8114611bd7576040519150601f19603f3d011682016040523d82523d5f602084013e611bdc565b606091505b50915091508115611c5a575f81806020019051810190611bfc91906138a1565b90507fe80d36773458ce7a03850714245b45fa8535fda364366bf7552e38ec63fbf99760075f9054906101000a900473ffffffffffffffffffffffffffffffffffffffff1682604051611c50929190613d4b565b60405180910390a1505b7f49b15d0536554a8fbc082a1fab1f1f7fe05e6f13f44b3c05dac82f103257d6c842611c84610ab7565b611c8c610d0a565b604051611c9b939291906139bc565b60405180910390a15050565b611caf612354565b600160115f6101000a81548160ff0219169083151502179055507f6a5afb95497bfd913ced90018d9ce3aadefa8842c2969b3da15ac9775e3fbceb42604051611cf891906134b8565b60405180910390a1565b600a5481565b5f611d11610d0a565b611d226013546014546127106126e2565b611d2c91906138f9565b9050919050565b5f611d3e825f6122fc565b9050919050565b5f60065f9054906101000a900473ffffffffffffffffffffffffffffffffffffffff1673ffffffffffffffffffffffffffffffffffffffff16638342b22b306040518263ffffffff1660e01b8152600401611da09190613750565b5f60405180830381865afa158015611dba573d5f5f3e3d5ffd5b505050506040513d5f823e3d601f19601f82011682018060405250810190611de29190613ec6565b90505f5f90505f5f90505b8251811015611f43575f5f848381518110611e0b57611e0a613f0d565b5b602002602001015173ffffffffffffffffffffffffffffffffffffffff1630604051602401611e3a9190613750565b6040516020818303038152906040527f1e83409a000000000000000000000000000000000000000000000000000000007bffffffffffffffffffffffffffffffffffffffffffffffffffffffff19166020820180517bffffffffffffffffffffffffffffffffffffffffffffffffffffffff8381831617835250505050604051611ec49190613d35565b5f604051808303815f865af19150503d805f8114611efd576040519150601f19603f3d011682016040523d82523d5f602084013e611f02565b606091505b50915091508115611f34575f81806020019051810190611f2291906138a1565b90508085611f309190613989565b9450505b50508080600101915050611ded565b507fab379771f55fdbaa868c0b35a1003fb47f64fc872a4e4eb9da06b83f6a85563c8282604051611f75929190613ff1565b60405180910390a17f49b15d0536554a8fbc082a1fab1f1f7fe05e6f13f44b3c05dac82f103257d6c842611fa7610ab7565b611faf610d0a565b604051611fbe939291906139bc565b60405180910390a15050565b5f5f611fdd6013546127106014546126e2565b9050611fe883611860565b81611ff1610d0a565b611ffb91906138f9565b111561201b5761201361200d84611860565b5f61228b565b91505061203b565b61203781612027610d0a565b61203191906138f9565b5f61228b565b9150505b919050565b60125481565b5f6120568262278d0060016126e2565b9050919050565b5f5f6120706013546127106014546126e2565b905061207b83611860565b81612084610d0a565b61208e91906138f9565b11156120a55761209d83611860565b9150506120bc565b806120ae610d0a565b6120b891906138f9565b9150505b919050565b60115f9054906101000a900460ff1681565b5f60025f8473ffffffffffffffffffffffffffffffffffffffff1673ffffffffffffffffffffffffffffffffffffffff1681526020019081526020015f205f8373ffffffffffffffffffffffffffffffffffffffff1673ffffffffffffffffffffffffffffffffffffffff1681526020019081526020015f2054905092915050565b600b5481565b5f5f600d544261216b91906138f9565b905061217b6008548260016126e2565b600c546121889190613989565b91505090565b6201518081565b5f6121a0825f6122fc565b9050919050565b600f602052805f5260405f205f91509050805f0154908060010154905082565b6121cf612354565b5f73ffffffffffffffffffffffffffffffffffffffff168173ffffffffffffffffffffffffffffffffffffffff160361223f575f6040517f1e4fbdf70000000000000000000000000000000000000000000000000000000081526004016122369190613750565b60405180910390fd5b61224881612847565b50565b5f600d544261225a91906138f9565b905061226a6008548260016126e2565b600c5f82825461227a9190613989565b9250508190555042600d8190555050565b5f6122db6001612299610ab7565b6122a39190613989565b6122ab6126da565b600a6122b7919061414e565b6122bf610d0a565b6122c99190613989565b8486612a8c909392919063ffffffff16565b905092915050565b5f33905090565b6122f78383836001612ad9565b505050565b5f61234c6123086126da565b600a612314919061414e565b61231c610d0a565b6123269190613989565b6001612330610ab7565b61233a9190613989565b8486612a8c909392919063ffffffff16565b905092915050565b61235c6122e3565b73ffffffffffffffffffffffffffffffffffffffff1661237a6118b9565b73ffffffffffffffffffffffffffffffffffffffff16146123d95761239d6122e3565b6040517f118cdaa70000000000000000000000000000000000000000000000000000000081526004016123d09190613750565b60405180910390fd5b565b612457848573ffffffffffffffffffffffffffffffffffffffff166323b872dd86868660405160240161241093929190614198565b604051602081830303815290604052915060e01b6020820180517bffffffffffffffffffffffffffffffffffffffffffffffffffffffff8381831617835250505050612ca8565b50505050565b6124d7838473ffffffffffffffffffffffffffffffffffffffff1663a9059cbb8585604051602401612490929190613d4b565b604051602081830303815290604052915060e01b6020820180517bffffffffffffffffffffffffffffffffffffffffffffffffffffffff8381831617835250505050612ca8565b505050565b600a6008546124eb91906141fa565b600954131561255657600a54600954131561253b576040517f08c379a0000000000000000000000000000000000000000000000000000000008152600401612532906142ac565b60405180910390fd5b600954600a5f82825461254e91906138f9565b925050819055505b565b5f61256384846120d3565b90507fffffffffffffffffffffffffffffffffffffffffffffffffffffffffffffffff81146125e457818110156125d5578281836040517ffb8f41b20000000000000000000000000000000000000000000000000000000081526004016125cc939291906142ca565b60405180910390fd5b6125e384848484035f612ad9565b5b50505050565b5f73ffffffffffffffffffffffffffffffffffffffff168373ffffffffffffffffffffffffffffffffffffffff160361265a575f6040517f96c6fd1e0000000000000000000000000000000000000000000000000000000081526004016126519190613750565b60405180910390fd5b5f73ffffffffffffffffffffffffffffffffffffffff168273ffffffffffffffffffffffffffffffffffffffff16036126ca575f6040517fec442f050000000000000000000000000000000000000000000000000000000081526004016126c19190613750565b60405180910390fd5b6126d5838383612d43565b505050565b5f6008905090565b5f5f83850290505f5f19858709828110838203039150505f810361271a578382816127105761270f6141cd565b5b04925050506127c0565b808411612739576127386127335f861460126011612f5f565b612f78565b5b5f8486880990508281118203915080830392505f855f038616905080860495508084049350600181825f0304019050808302841793505f600287600302189050808702600203810290508087026002038102905080870260020381029050808702600203810290508087026002038102905080870260020381029050808502955050505050505b9392505050565b5f5f6127d2836117e4565b90508084111561281d578284826040517f79012fb2000000000000000000000000000000000000000000000000000000008152600401612814939291906142ca565b60405180910390fd5b5f61282785612195565b905061283c6128346122e3565b858784612f89565b809250505092915050565b5f5f5f9054906101000a900473ffffffffffffffffffffffffffffffffffffffff169050815f5f6101000a81548173ffffffffffffffffffffffffffffffffffffffff021916908373ffffffffffffffffffffffffffffffffffffffff1602179055508173ffffffffffffffffffffffffffffffffffffffff168173ffffffffffffffffffffffffffffffffffffffff167f8be0079c531659141344cd1fd0a4f28419497f9722a3daafe3b4186f6b6457e060405160405180910390a35050565b5f5f61291383611d08565b90508084111561295e578284826040517f284ff667000000000000000000000000000000000000000000000000000000008152600401612955939291906142ca565b60405180910390fd5b5f61296885611a76565b905061297d6129756122e3565b858388612f89565b809250505092915050565b5f5f61299383611fca565b9050808511156129de578285826040517ffe9cceec0000000000000000000000000000000000000000000000000000000081526004016129d5939291906142ca565b60405180910390fd5b5f6129e886610c34565b90506129fe6129f56122e3565b86868985613055565b80925050509392505050565b5f5f612a158361205d565b905080851115612a60578285826040517fb94abeec000000000000000000000000000000000000000000000000000000008152600401612a57939291906142ca565b60405180910390fd5b5f612a6a86611833565b9050612a80612a776122e3565b8686848a613055565b80925050509392505050565b5f612aba612a9983613123565b8015612ab557505f8480612ab057612aaf6141cd565b5b868809115b613150565b612ac58686866126e2565b612acf9190613989565b9050949350505050565b5f73ffffffffffffffffffffffffffffffffffffffff168473ffffffffffffffffffffffffffffffffffffffff1603612b49575f6040517fe602df05000000000000000000000000000000000000000000000000000000008152600401612b409190613750565b60405180910390fd5b5f73ffffffffffffffffffffffffffffffffffffffff168373ffffffffffffffffffffffffffffffffffffffff1603612bb9575f6040517f94280d62000000000000000000000000000000000000000000000000000000008152600401612bb09190613750565b60405180910390fd5b8160025f8673ffffffffffffffffffffffffffffffffffffffff1673ffffffffffffffffffffffffffffffffffffffff1681526020019081526020015f205f8573ffffffffffffffffffffffffffffffffffffffff1673ffffffffffffffffffffffffffffffffffffffff1681526020019081526020015f20819055508015612ca2578273ffffffffffffffffffffffffffffffffffffffff168473ffffffffffffffffffffffffffffffffffffffff167f8c5be1e5ebec7d5bd14f71427d1e84f3dd0314c0f7b2291e5b200ac8c7c3b92584604051612c9991906134b8565b60405180910390a35b50505050565b5f5f60205f8451602086015f885af180612cc7576040513d5f823e3d81fd5b3d92505f519150505f8214612ce0576001811415612cfb565b5f8473ffffffffffffffffffffffffffffffffffffffff163b145b15612d3d57836040517f5274afe7000000000000000000000000000000000000000000000000000000008152600401612d349190613750565b60405180910390fd5b50505050565b5f73ffffffffffffffffffffffffffffffffffffffff168373ffffffffffffffffffffffffffffffffffffffff1603612d93578060035f828254612d879190613989565b92505081905550612e63565b5f60015f8573ffffffffffffffffffffffffffffffffffffffff1673ffffffffffffffffffffffffffffffffffffffff1681526020019081526020015f2054905081811015612e1d578381836040517fe450d38c000000000000000000000000000000000000000000000000000000008152600401612e14939291906142ca565b60405180910390fd5b81810360015f8673ffffffffffffffffffffffffffffffffffffffff1673ffffffffffffffffffffffffffffffffffffffff1681526020019081526020015f2081905550505b5f73ffffffffffffffffffffffffffffffffffffffff168273ffffffffffffffffffffffffffffffffffffffff1603612eaa578060035f8282540392505081905550612ef5565b8060015f8473ffffffffffffffffffffffffffffffffffffffff1673ffffffffffffffffffffffffffffffffffffffff1681526020019081526020015f205f82825401925050819055505b8173ffffffffffffffffffffffffffffffffffffffff168373ffffffffffffffffffffffffffffffffffffffff167fddf252ad1be2c89b69c2b068fc378daa952ba7f163c4a11628f55a4df523b3ef83604051612f5291906134b8565b60405180910390a3505050565b5f612f6984613150565b82841802821890509392505050565b634e487b715f52806020526024601cfd5b60115f9054906101000a900460ff16612fd7576040517f08c379a0000000000000000000000000000000000000000000000000000000008152600401612fce90614349565b60405180910390fd5b612ff281612fe3610d0a565b612fed9190613989565b61315b565b612ffa6131d7565b61300684848484613206565b7f49b15d0536554a8fbc082a1fab1f1f7fe05e6f13f44b3c05dac82f103257d6c842613030610ab7565b613038610d0a565b604051613047939291906139bc565b60405180910390a150505050565b60115f9054906101000a900460ff166130a3576040517f08c379a000000000000000000000000000000000000000000000000000000000815260040161309a90614349565b60405180910390fd5b6130be816130af610d0a565b6130b991906138f9565b61315b565b6130c66131d7565b6130d385858585856132a9565b7f49b15d0536554a8fbc082a1fab1f1f7fe05e6f13f44b3c05dac82f103257d6c8426130fd610ab7565b613105610d0a565b604051613114939291906139bc565b60405180910390a15050505050565b5f6001600283600381111561313b5761313a614367565b5b6131459190614394565b60ff16149050919050565b5f8115159050919050565b5f61316d6013546127106014546126e2565b90505f6131816013546014546127106126e2565b90508183101580156131935750808311155b6131d2576040517f08c379a00000000000000000000000000000000000000000000000000000000081526004016131c990614434565b60405180910390fd5b505050565b620151806012546131e89190613989565b4210613204576131f6610d0a565b601381905550426012819055505b565b6132327f00000000000000000000000000000000000000000000000000000000000000008530856123db565b61323c83826133a2565b8273ffffffffffffffffffffffffffffffffffffffff168473ffffffffffffffffffffffffffffffffffffffff167fdcbc1c05240f31ff3ad067ef1ee35ce4997762752e3a095284754544f4c709d7848460405161329b9291906137a7565b60405180910390a350505050565b8273ffffffffffffffffffffffffffffffffffffffff168573ffffffffffffffffffffffffffffffffffffffff16146132e8576132e7838683612558565b5b6132f28382613421565b61331d7f0000000000000000000000000000000000000000000000000000000000000000858461245d565b8273ffffffffffffffffffffffffffffffffffffffff168473ffffffffffffffffffffffffffffffffffffffff168673ffffffffffffffffffffffffffffffffffffffff167ffbde797d201c681b91056529119e0b02407c7bb96a4a2c75c01fc9667232c8db85856040516133939291906137a7565b60405180910390a45050505050565b5f73ffffffffffffffffffffffffffffffffffffffff168273ffffffffffffffffffffffffffffffffffffffff1603613412575f6040517fec442f050000000000000000000000000000000000000000000000000000000081526004016134099190613750565b60405180910390fd5b61341d5f8383612d43565b5050565b5f73ffffffffffffffffffffffffffffffffffffffff168273ffffffffffffffffffffffffffffffffffffffff1603613491575f6040517f96c6fd1e0000000000000000000000000000000000000000000000000000000081526004016134889190613750565b60405180910390fd5b61349c825f83612d43565b5050565b5f819050919050565b6134b2816134a0565b82525050565b5f6020820190506134cb5f8301846134a9565b92915050565b5f81519050919050565b5f82825260208201905092915050565b8281835e5f83830152505050565b5f601f19601f8301169050919050565b5f613513826134d1565b61351d81856134db565b935061352d8185602086016134eb565b613536816134f9565b840191505092915050565b5f6020820190508181035f8301526135598184613509565b905092915050565b5f604051905090565b5f5ffd5b5f5ffd5b61357b816134a0565b8114613585575f5ffd5b50565b5f8135905061359681613572565b92915050565b5f602082840312156135b1576135b061356a565b5b5f6135be84828501613588565b91505092915050565b5f73ffffffffffffffffffffffffffffffffffffffff82169050919050565b5f6135f0826135c7565b9050919050565b613600816135e6565b811461360a575f5ffd5b50565b5f8135905061361b816135f7565b92915050565b5f5f604083850312156136375761363661356a565b5b5f6136448582860161360d565b925050602061365585828601613588565b9150509250929050565b5f8115159050919050565b6136738161365f565b82525050565b5f60208201905061368c5f83018461366a565b92915050565b5f602082840312156136a7576136a661356a565b5b5f6136b48482850161360d565b91505092915050565b5f5f5f606084860312156136d4576136d361356a565b5b5f6136e18682870161360d565b93505060206136f28682870161360d565b925050604061370386828701613588565b9150509250925092565b5f60ff82169050919050565b6137228161370d565b82525050565b5f60208201905061373b5f830184613719565b92915050565b61374a816135e6565b82525050565b5f6020820190506137635f830184613741565b92915050565b5f5f6040838503121561377f5761377e61356a565b5b5f61378c85828601613588565b925050602061379d8582860161360d565b9150509250929050565b5f6040820190506137ba5f8301856134a9565b6137c760208301846134a9565b9392505050565b5f5f5f606084860312156137e5576137e461356a565b5b5f6137f286828701613588565b93505060206138038682870161360d565b92505060406138148682870161360d565b9150509250925092565b5f819050919050565b6138308161381e565b82525050565b5f6020820190506138495f830184613827565b92915050565b5f5f604083850312156138655761386461356a565b5b5f6138728582860161360d565b92505060206138838582860161360d565b9150509250929050565b5f8151905061389b81613572565b92915050565b5f602082840312156138b6576138b561356a565b5b5f6138c38482850161388d565b91505092915050565b7f4e487b71000000000000000000000000000000000000000000000000000000005f52601160045260245ffd5b5f613903826134a0565b915061390e836134a0565b9250828203905081811115613926576139256138cc565b5b92915050565b7f4e487b71000000000000000000000000000000000000000000000000000000005f52602260045260245ffd5b5f600282049050600182168061397057607f821691505b6020821081036139835761398261392c565b5b50919050565b5f613993826134a0565b915061399e836134a0565b92508282019050808211156139b6576139b56138cc565b5b92915050565b5f6060820190506139cf5f8301866134a9565b6139dc60208301856134a9565b6139e960408301846134a9565b949350505050565b7f73616c6172792069732077616974696e672075706461746500000000000000005f82015250565b5f613a256018836134db565b9150613a30826139f1565b602082019050919050565b5f6020820190508181035f830152613a5281613a19565b9050919050565b7f73616c61727920697320657175616c20746f206f6c64206f6e650000000000005f82015250565b5f613a8d601a836134db565b9150613a9882613a59565b602082019050919050565b5f6020820190508181035f830152613aba81613a81565b9050919050565b7f56616c7565206578636565647320696e74323536206d61782072616e676500005f82015250565b5f613af5601e836134db565b9150613b0082613ac1565b602082019050919050565b5f6020820190508181035f830152613b2281613ae9565b9050919050565b5f613b338261381e565b9150613b3e8361381e565b92508282019050828112155f8312168382125f841215161715613b6457613b636138cc565b5b92915050565b5f613b748261381e565b9150613b7f8361381e565b925082820390508181125f8412168282135f851215161715613ba457613ba36138cc565b5b92915050565b5f613bb48261370d565b9150613bbf8361370d565b9250828201905060ff811115613bd857613bd76138cc565b5b92915050565b7f6e6f7468696e67206e65656420757064617465000000000000000000000000005f82015250565b5f613c126013836134db565b9150613c1d82613bde565b602082019050919050565b5f6020820190508181035f830152613c3f81613c06565b9050919050565b7f4e6f742074696d6520666f7220757064617465207965740000000000000000005f82015250565b5f613c7a6017836134db565b9150613c8582613c46565b602082019050919050565b5f6020820190508181035f830152613ca781613c6e565b9050919050565b5f608082019050613cc15f8301876134a9565b613cce60208301866134a9565b613cdb60408301856134a9565b613ce860608301846134a9565b95945050505050565b5f81519050919050565b5f81905092915050565b5f613d0f82613cf1565b613d198185613cfb565b9350613d298185602086016134eb565b80840191505092915050565b5f613d408284613d05565b915081905092915050565b5f604082019050613d5e5f830185613741565b613d6b60208301846134a9565b9392505050565b5f5ffd5b7f4e487b71000000000000000000000000000000000000000000000000000000005f52604160045260245ffd5b613dac826134f9565b810181811067ffffffffffffffff82111715613dcb57613dca613d76565b5b80604052505050565b5f613ddd613561565b9050613de98282613da3565b919050565b5f67ffffffffffffffff821115613e0857613e07613d76565b5b602082029050602081019050919050565b5f5ffd5b5f81519050613e2b816135f7565b92915050565b5f613e43613e3e84613dee565b613dd4565b90508083825260208201905060208402830185811115613e6657613e65613e19565b5b835b81811015613e8f5780613e7b8882613e1d565b845260208401935050602081019050613e68565b5050509392505050565b5f82601f830112613ead57613eac613d72565b5b8151613ebd848260208601613e31565b91505092915050565b5f60208284031215613edb57613eda61356a565b5b5f82015167ffffffffffffffff811115613ef857613ef761356e565b5b613f0484828501613e99565b91505092915050565b7f4e487b71000000000000000000000000000000000000000000000000000000005f52603260045260245ffd5b5f81519050919050565b5f82825260208201905092915050565b5f819050602082019050919050565b613f6c816135e6565b82525050565b5f613f7d8383613f63565b60208301905092915050565b5f602082019050919050565b5f613f9f82613f3a565b613fa98185613f44565b9350613fb483613f54565b805f5b83811015613fe4578151613fcb8882613f72565b9750613fd683613f89565b925050600181019050613fb7565b5085935050505092915050565b5f6040820190508181035f8301526140098185613f95565b905061401860208301846134a9565b9392505050565b5f8160011c9050919050565b5f5f8291508390505b6001851115614074578086048111156140505761404f6138cc565b5b600185161561405f5780820291505b808102905061406d8561401f565b9450614034565b94509492505050565b5f8261408c5760019050614147565b81614099575f9050614147565b81600181146140af57600281146140b9576140e8565b6001915050614147565b60ff8411156140cb576140ca6138cc565b5b8360020a9150848211156140e2576140e16138cc565b5b50614147565b5060208310610133831016604e8410600b841016171561411d5782820a905083811115614118576141176138cc565b5b614147565b61412a848484600161402b565b92509050818404811115614141576141406138cc565b5b81810290505b9392505050565b5f614158826134a0565b91506141638361370d565b92506141907fffffffffffffffffffffffffffffffffffffffffffffffffffffffffffffffff848461407d565b905092915050565b5f6060820190506141ab5f830186613741565b6141b86020830185613741565b6141c560408301846134a9565b949350505050565b7f4e487b71000000000000000000000000000000000000000000000000000000005f52601260045260245ffd5b5f6142048261381e565b915061420f8361381e565b92508261421f5761421e6141cd565b5b60015f0383147f800000000000000000000000000000000000000000000000000000000000000083141615614257576142566138cc565b5b828205905092915050565b7f73616c61727920697320746f6f206869676800000000000000000000000000005f82015250565b5f6142966012836134db565b91506142a182614262565b602082019050919050565b5f6020820190508181035f8301526142c38161428a565b9050919050565b5f6060820190506142dd5f830186613741565b6142ea60208301856134a9565b6142f760408301846134a9565b949350505050565b7f6e6f74207075626c6963000000000000000000000000000000000000000000005f82015250565b5f614333600a836134db565b915061433e826142ff565b602082019050919050565b5f6020820190508181035f83015261436081614327565b9050919050565b7f4e487b71000000000000000000000000000000000000000000000000000000005f52602160045260245ffd5b5f61439e8261370d565b91506143a98361370d565b9250826143b9576143b86141cd565b5b828206905092915050565b7f546f74616c53686172657320646576696174696f6e20657863656564732031305f8201527f2500000000000000000000000000000000000000000000000000000000000000602082015250565b5f61441e6021836134db565b9150614429826143c4565b604082019050919050565b5f6020820190508181035f83015261444b81614412565b905091905056fea264697066735822122069147855d04badcc59ae5331befa4b4fd048d1a26aeb2d9ec5584ba5d9b0212764736f6c634300081c0033a264697066735822122006a172c798f3626f4ee2a6eb66e41196edb2d4646faa1408308070d5fb27e57b64736f6c634300081c0033",
			"opcodes": "PUSH1 0x80 PUSH1 0x40 MSTORE CALLVALUE DUP1 ISZERO PUSH1 0xE JUMPI PUSH0 PUSH0 REVERT JUMPDEST POP PUSH2 0x5EC3 DUP1 PUSH2 0x1C PUSH0 CODECOPY PUSH0 RETURN INVALID PUSH1 0x80 PUSH1 0x40 MSTORE CALLVALUE DUP1 ISZERO PUSH2 0xF JUMPI PUSH0 PUSH0 REVERT JUMPDEST POP PUSH1 0x4 CALLDATASIZE LT PUSH2 0x29 JUMPI PUSH0 CALLDATALOAD PUSH1 0xE0 SHR DUP1 PUSH4 0xFBD81A64 EQ PUSH2 0x2D JUMPI JUMPDEST PUSH0 PUSH0 REVERT JUMPDEST PUSH2 0x47 PUSH1 0x4 DUP1 CALLDATASIZE SUB DUP2 ADD SWAP1 PUSH2 0x42 SWAP2 SWAP1 PUSH2 0x322 JUMP JUMPDEST PUSH2 0x5D JUMP JUMPDEST PUSH1 0x40 MLOAD PUSH2 0x54 SWAP2 SWAP1 PUSH2 0x406 JUMP JUMPDEST PUSH1 0x40 MLOAD DUP1 SWAP2 SUB SWAP1 RETURN JUMPDEST PUSH0 DUP8 DUP7 DUP7 DUP10 DUP8 DUP8 DUP8 PUSH1 0x40 MLOAD PUSH2 0x71 SWAP1 PUSH2 0x100 JUMP JUMPDEST PUSH2 0x81 SWAP8 SWAP7 SWAP6 SWAP5 SWAP4 SWAP3 SWAP2 SWAP1 PUSH2 0x4E9 JUMP JUMPDEST PUSH1 0x40 MLOAD DUP1 SWAP2 SUB SWAP1 PUSH0 CREATE DUP1 ISZERO DUP1 ISZERO PUSH2 0x9A JUMPI RETURNDATASIZE PUSH0 PUSH0 RETURNDATACOPY RETURNDATASIZE PUSH0 REVERT JUMPDEST POP SWAP1 POP DUP6 PUSH20 0xFFFFFFFFFFFFFFFFFFFFFFFFFFFFFFFFFFFFFFFF AND PUSH32 0xE74B7404AF17595FF54C39CA597CFFA194B9EF34F67D2B2DB32EFCC52D293BC DUP3 DUP11 DUP9 DUP9 DUP9 DUP9 PUSH1 0x40 MLOAD PUSH2 0xED SWAP7 SWAP6 SWAP5 SWAP4 SWAP3 SWAP2 SWAP1 PUSH2 0x564 JUMP JUMPDEST PUSH1 0x40 MLOAD DUP1 SWAP2 SUB SWAP1 LOG2 SWAP8 SWAP7 POP POP POP POP POP POP POP JUMP JUMPDEST PUSH2 0x58BC DUP1 PUSH2 0x5D2 DUP4 CODECOPY ADD SWAP1 JUMP JUMPDEST PUSH0 PUSH1 0x40 MLOAD SWAP1 POP SWAP1 JUMP JUMPDEST PUSH0 PUSH0 REVERT JUMPDEST PUSH0 PUSH0 REVERT JUMPDEST PUSH0 PUSH20 0xFFFFFFFFFFFFFFFFFFFFFFFFFFFFFFFFFFFFFFFF DUP3 AND SWAP1 POP SWAP2 SWAP1 POP JUMP JUMPDEST PUSH0 PUSH2 0x147 DUP3 PUSH2 0x11E JUMP JUMPDEST SWAP1 POP SWAP2 SWAP1 POP JUMP JUMPDEST PUSH2 0x157 DUP2 PUSH2 0x13D JUMP JUMPDEST DUP2 EQ PUSH2 0x161 JUMPI PUSH0 PUSH0 REVERT JUMPDEST POP JUMP JUMPDEST PUSH0 DUP2 CALLDATALOAD SWAP1 POP PUSH2 0x172 DUP2 PUSH2 0x14E JUMP JUMPDEST SWAP3 SWAP2 POP POP JUMP JUMPDEST PUSH0 PUSH2 0x182 DUP3 PUSH2 0x13D JUMP JUMPDEST SWAP1 POP SWAP2 SWAP1 POP JUMP JUMPDEST PUSH2 0x192 DUP2 PUSH2 0x178 JUMP JUMPDEST DUP2 EQ PUSH2 0x19C JUMPI PUSH0 PUSH0 REVERT JUMPDEST POP JUMP JUMPDEST PUSH0 DUP2 CALLDATALOAD SWAP1 POP PUSH2 0x1AD DUP2 PUSH2 0x189 JUMP JUMPDEST SWAP3 SWAP2 POP POP JUMP JUMPDEST PUSH0 DUP2 SWAP1 POP SWAP2 SWAP1 POP JUMP JUMPDEST PUSH2 0x1C5 DUP2 PUSH2 0x1B3 JUMP JUMPDEST DUP2 EQ PUSH2 0x1CF JUMPI PUSH0 PUSH0 REVERT JUMPDEST POP JUMP JUMPDEST PUSH0 DUP2 CALLDATALOAD SWAP1 POP PUSH2 0x1E0 DUP2 PUSH2 0x1BC JUMP JUMPDEST SWAP3 SWAP2 POP POP JUMP JUMPDEST PUSH0 PUSH0 REVERT JUMPDEST PUSH0 PUSH0 REVERT JUMPDEST PUSH0 PUSH1 0x1F NOT PUSH1 0x1F DUP4 ADD AND SWAP1 POP SWAP2 SWAP1 POP JUMP JUMPDEST PUSH32 0x4E487B7100000000000000000000000000000000000000000000000000000000 PUSH0 MSTORE PUSH1 0x41 PUSH1 0x4 MSTORE PUSH1 0x24 PUSH0 REVERT JUMPDEST PUSH2 0x234 DUP3 PUSH2 0x1EE JUMP JUMPDEST DUP2 ADD DUP2 DUP2 LT PUSH8 0xFFFFFFFFFFFFFFFF DUP3 GT OR ISZERO PUSH2 0x253 JUMPI PUSH2 0x252 PUSH2 0x1FE JUMP JUMPDEST JUMPDEST DUP1 PUSH1 0x40 MSTORE POP POP POP JUMP JUMPDEST PUSH0 PUSH2 0x265 PUSH2 0x10D JUMP JUMPDEST SWAP1 POP PUSH2 0x271 DUP3 DUP3 PUSH2 0x22B JUMP JUMPDEST SWAP2 SWAP1 POP JUMP JUMPDEST PUSH0 PUSH8 0xFFFFFFFFFFFFFFFF DUP3 GT ISZERO PUSH2 0x290 JUMPI PUSH2 0x28F PUSH2 0x1FE JUMP JUMPDEST JUMPDEST PUSH2 0x299 DUP3 PUSH2 0x1EE JUMP JUMPDEST SWAP1 POP PUSH1 0x20 DUP2 ADD SWAP1 POP SWAP2 SWAP1 POP JUMP JUMPDEST DUP3 DUP2 DUP4 CALLDATACOPY PUSH0 DUP4 DUP4 ADD MSTORE POP POP POP JUMP JUMPDEST PUSH0 PUSH2 0x2C6 PUSH2 0x2C1 DUP5 PUSH2 0x276 JUMP JUMPDEST PUSH2 0x25C JUMP JUMPDEST SWAP1 POP DUP3 DUP2 MSTORE PUSH1 0x20 DUP2 ADD DUP5 DUP5 DUP5 ADD GT ISZERO PUSH2 0x2E2 JUMPI PUSH2 0x2E1 PUSH2 0x1EA JUMP JUMPDEST JUMPDEST PUSH2 0x2ED DUP5 DUP3 DUP6 PUSH2 0x2A6 JUMP JUMPDEST POP SWAP4 SWAP3 POP POP POP JUMP JUMPDEST PUSH0 DUP3 PUSH1 0x1F DUP4 ADD SLT PUSH2 0x309 JUMPI PUSH2 0x308 PUSH2 0x1E6 JUMP JUMPDEST JUMPDEST DUP2 CALLDATALOAD PUSH2 0x319 DUP5 DUP3 PUSH1 0x20 DUP7 ADD PUSH2 0x2B4 JUMP JUMPDEST SWAP2 POP POP SWAP3 SWAP2 POP POP JUMP JUMPDEST PUSH0 PUSH0 PUSH0 PUSH0 PUSH0 PUSH0 PUSH0 PUSH1 0xE0 DUP9 DUP11 SUB SLT ISZERO PUSH2 0x33D JUMPI PUSH2 0x33C PUSH2 0x116 JUMP JUMPDEST JUMPDEST PUSH0 PUSH2 0x34A DUP11 DUP3 DUP12 ADD PUSH2 0x164 JUMP JUMPDEST SWAP8 POP POP PUSH1 0x20 PUSH2 0x35B DUP11 DUP3 DUP12 ADD PUSH2 0x19F JUMP JUMPDEST SWAP7 POP POP PUSH1 0x40 PUSH2 0x36C DUP11 DUP3 DUP12 ADD PUSH2 0x164 JUMP JUMPDEST SWAP6 POP POP PUSH1 0x60 PUSH2 0x37D DUP11 DUP3 DUP12 ADD PUSH2 0x1D2 JUMP JUMPDEST SWAP5 POP POP PUSH1 0x80 PUSH2 0x38E DUP11 DUP3 DUP12 ADD PUSH2 0x164 JUMP JUMPDEST SWAP4 POP POP PUSH1 0xA0 DUP9 ADD CALLDATALOAD PUSH8 0xFFFFFFFFFFFFFFFF DUP2 GT ISZERO PUSH2 0x3AF JUMPI PUSH2 0x3AE PUSH2 0x11A JUMP JUMPDEST JUMPDEST PUSH2 0x3BB DUP11 DUP3 DUP12 ADD PUSH2 0x2F5 JUMP JUMPDEST SWAP3 POP POP PUSH1 0xC0 DUP9 ADD CALLDATALOAD PUSH8 0xFFFFFFFFFFFFFFFF DUP2 GT ISZERO PUSH2 0x3DC JUMPI PUSH2 0x3DB PUSH2 0x11A JUMP JUMPDEST JUMPDEST PUSH2 0x3E8 DUP11 DUP3 DUP12 ADD PUSH2 0x2F5 JUMP JUMPDEST SWAP2 POP POP SWAP3 SWAP6 SWAP9 SWAP2 SWAP5 SWAP8 POP SWAP3 SWAP6 POP JUMP JUMPDEST PUSH2 0x400 DUP2 PUSH2 0x13D JUMP JUMPDEST DUP3 MSTORE POP POP JUMP JUMPDEST PUSH0 PUSH1 0x20 DUP3 ADD SWAP1 POP PUSH2 0x419 PUSH0 DUP4 ADD DUP5 PUSH2 0x3F7 JUMP JUMPDEST SWAP3 SWAP2 POP POP JUMP JUMPDEST PUSH2 0x428 DUP2 PUSH2 0x1B3 JUMP JUMPDEST DUP3 MSTORE POP POP JUMP JUMPDEST PUSH0 DUP2 SWAP1 POP SWAP2 SWAP1 POP JUMP JUMPDEST PUSH0 PUSH2 0x451 PUSH2 0x44C PUSH2 0x447 DUP5 PUSH2 0x11E JUMP JUMPDEST PUSH2 0x42E JUMP JUMPDEST PUSH2 0x11E JUMP JUMPDEST SWAP1 POP SWAP2 SWAP1 POP JUMP JUMPDEST PUSH0 PUSH2 0x462 DUP3 PUSH2 0x437 JUMP JUMPDEST SWAP1 POP SWAP2 SWAP1 POP JUMP JUMPDEST PUSH0 PUSH2 0x473 DUP3 PUSH2 0x458 JUMP JUMPDEST SWAP1 POP SWAP2 SWAP1 POP JUMP JUMPDEST PUSH2 0x483 DUP2 PUSH2 0x469 JUMP JUMPDEST DUP3 MSTORE POP POP JUMP JUMPDEST PUSH0 DUP2 MLOAD SWAP1 POP SWAP2 SWAP1 POP JUMP JUMPDEST PUSH0 DUP3 DUP3 MSTORE PUSH1 0x20 DUP3 ADD SWAP1 POP SWAP3 SWAP2 POP POP JUMP JUMPDEST DUP3 DUP2 DUP4 MCOPY PUSH0 DUP4 DUP4 ADD MSTORE POP POP POP JUMP JUMPDEST PUSH0 PUSH2 0x4BB DUP3 PUSH2 0x489 JUMP JUMPDEST PUSH2 0x4C5 DUP2 DUP6 PUSH2 0x493 JUMP JUMPDEST SWAP4 POP PUSH2 0x4D5 DUP2 DUP6 PUSH1 0x20 DUP7 ADD PUSH2 0x4A3 JUMP JUMPDEST PUSH2 0x4DE DUP2 PUSH2 0x1EE JUMP JUMPDEST DUP5 ADD SWAP2 POP POP SWAP3 SWAP2 POP POP JUMP JUMPDEST PUSH0 PUSH1 0xE0 DUP3 ADD SWAP1 POP PUSH2 0x4FC PUSH0 DUP4 ADD DUP11 PUSH2 0x3F7 JUMP JUMPDEST PUSH2 0x509 PUSH1 0x20 DUP4 ADD DUP10 PUSH2 0x3F7 JUMP JUMPDEST PUSH2 0x516 PUSH1 0x40 DUP4 ADD DUP9 PUSH2 0x41F JUMP JUMPDEST PUSH2 0x523 PUSH1 0x60 DUP4 ADD DUP8 PUSH2 0x47A JUMP JUMPDEST PUSH2 0x530 PUSH1 0x80 DUP4 ADD DUP7 PUSH2 0x3F7 JUMP JUMPDEST DUP2 DUP2 SUB PUSH1 0xA0 DUP4 ADD MSTORE PUSH2 0x542 DUP2 DUP6 PUSH2 0x4B1 JUMP JUMPDEST SWAP1 POP DUP2 DUP2 SUB PUSH1 0xC0 DUP4 ADD MSTORE PUSH2 0x556 DUP2 DUP5 PUSH2 0x4B1 JUMP JUMPDEST SWAP1 POP SWAP9 SWAP8 POP POP POP POP POP POP POP POP JUMP JUMPDEST PUSH0 PUSH1 0xC0 DUP3 ADD SWAP1 POP PUSH2 0x577 PUSH0 DUP4 ADD DUP10 PUSH2 0x3F7 JUMP JUMPDEST PUSH2 0x584 PUSH1 0x20 DUP4 ADD DUP9 PUSH2 0x3F7 JUMP JUMPDEST PUSH2 0x591 PUSH1 0x40 DUP4 ADD DUP8 PUSH2 0x41F JUMP JUMPDEST PUSH2 0x59E PUSH1 0x60 DUP4 ADD DUP7 PUSH2 0x3F7 JUMP JUMPDEST DUP2 DUP2 SUB PUSH1 0x80 DUP4 ADD MSTORE PUSH2 0x5B0 DUP2 DUP6 PUSH2 0x4B1 JUMP JUMPDEST SWAP1 POP DUP2 DUP2 SUB PUSH1 0xA0 DUP4 ADD MSTORE PUSH2 0x5C4 DUP2 DUP5 PUSH2 0x4B1 JUMP JUMPDEST SWAP1 POP SWAP8 SWAP7 POP POP POP POP POP POP POP JUMP INVALID PUSH1 0xC0 PUSH1 0x40 MSTORE PUSH3 0x278D00 PUSH1 0xE SSTORE PUSH0 PUSH1 0x11 PUSH0 PUSH2 0x100 EXP DUP2 SLOAD DUP2 PUSH1 0xFF MUL NOT AND SWAP1 DUP4 ISZERO ISZERO MUL OR SWAP1 SSTORE POP PUSH2 0x2AF8 PUSH1 0x14 SSTORE CALLVALUE DUP1 ISZERO PUSH2 0x35 JUMPI PUSH0 PUSH0 REVERT JUMPDEST POP PUSH1 0x40 MLOAD PUSH2 0x58BC CODESIZE SUB DUP1 PUSH2 0x58BC DUP4 CODECOPY DUP2 DUP2 ADD PUSH1 0x40 MSTORE DUP2 ADD SWAP1 PUSH2 0x57 SWAP2 SWAP1 PUSH2 0xCA2 JUMP JUMPDEST DUP7 DUP7 DUP7 DUP7 DUP7 DUP7 DUP7 DUP4 DUP3 DUP3 DUP9 PUSH0 PUSH20 0xFFFFFFFFFFFFFFFFFFFFFFFFFFFFFFFFFFFFFFFF AND DUP2 PUSH20 0xFFFFFFFFFFFFFFFFFFFFFFFFFFFFFFFFFFFFFFFF AND SUB PUSH2 0xD2 JUMPI PUSH0 PUSH1 0x40 MLOAD PUSH32 0x1E4FBDF700000000000000000000000000000000000000000000000000000000 DUP2 MSTORE PUSH1 0x4 ADD PUSH2 0xC9 SWAP2 SWAP1 PUSH2 0xD86 JUMP JUMPDEST PUSH1 0x40 MLOAD DUP1 SWAP2 SUB SWAP1 REVERT JUMPDEST PUSH2 0xE1 DUP2 PUSH2 0x385 PUSH1 0x20 SHL PUSH1 0x20 SHR JUMP JUMPDEST POP DUP2 PUSH1 0x4 SWAP1 DUP2 PUSH2 0xF1 SWAP2 SWAP1 PUSH2 0xFA6 JUMP JUMPDEST POP DUP1 PUSH1 0x5 SWAP1 DUP2 PUSH2 0x101 SWAP2 SWAP1 PUSH2 0xFA6 JUMP JUMPDEST POP POP POP PUSH0 PUSH0 PUSH2 0x115 DUP4 PUSH2 0x446 PUSH1 0x20 SHL PUSH1 0x20 SHR JUMP JUMPDEST SWAP2 POP SWAP2 POP DUP2 PUSH2 0x125 JUMPI PUSH1 0x12 PUSH2 0x127 JUMP JUMPDEST DUP1 JUMPDEST PUSH1 0xFF AND PUSH1 0xA0 DUP2 PUSH1 0xFF AND DUP2 MSTORE POP POP DUP3 PUSH20 0xFFFFFFFFFFFFFFFFFFFFFFFFFFFFFFFFFFFFFFFF AND PUSH1 0x80 DUP2 PUSH20 0xFFFFFFFFFFFFFFFFFFFFFFFFFFFFFFFFFFFFFFFF AND DUP2 MSTORE POP POP POP POP POP DUP7 PUSH1 0x6 PUSH0 PUSH2 0x100 EXP DUP2 SLOAD DUP2 PUSH20 0xFFFFFFFFFFFFFFFFFFFFFFFFFFFFFFFFFFFFFFFF MUL NOT AND SWAP1 DUP4 PUSH20 0xFFFFFFFFFFFFFFFFFFFFFFFFFFFFFFFFFFFFFFFF AND MUL OR SWAP1 SSTORE POP DUP3 PUSH1 0x7 PUSH0 PUSH2 0x100 EXP DUP2 SLOAD DUP2 PUSH20 0xFFFFFFFFFFFFFFFFFFFFFFFFFFFFFFFFFFFFFFFF MUL NOT AND SWAP1 DUP4 PUSH20 0xFFFFFFFFFFFFFFFFFFFFFFFFFFFFFFFFFFFFFFFF AND MUL OR SWAP1 SSTORE POP PUSH0 PUSH2 0x1FB DUP7 PUSH2 0x54F PUSH1 0x20 SHL PUSH1 0x20 SHR JUMP JUMPDEST SWAP1 POP DUP1 PUSH1 0xF PUSH0 DUP10 PUSH20 0xFFFFFFFFFFFFFFFFFFFFFFFFFFFFFFFFFFFFFFFF AND PUSH20 0xFFFFFFFFFFFFFFFFFFFFFFFFFFFFFFFFFFFFFFFF AND DUP2 MSTORE PUSH1 0x20 ADD SWAP1 DUP2 MSTORE PUSH1 0x20 ADD PUSH0 KECCAK256 PUSH0 ADD DUP2 SWAP1 SSTORE POP TIMESTAMP PUSH1 0xF PUSH0 DUP10 PUSH20 0xFFFFFFFFFFFFFFFFFFFFFFFFFFFFFFFFFFFFFFFF AND PUSH20 0xFFFFFFFFFFFFFFFFFFFFFFFFFFFFFFFFFFFFFFFF AND DUP2 MSTORE PUSH1 0x20 ADD SWAP1 DUP2 MSTORE PUSH1 0x20 ADD PUSH0 KECCAK256 PUSH1 0x1 ADD DUP2 SWAP1 SSTORE POP TIMESTAMP PUSH1 0xD DUP2 SWAP1 SSTORE POP DUP1 PUSH1 0x8 DUP2 SWAP1 SSTORE POP DUP1 PUSH1 0x10 PUSH0 DUP10 PUSH20 0xFFFFFFFFFFFFFFFFFFFFFFFFFFFFFFFFFFFFFFFF AND PUSH20 0xFFFFFFFFFFFFFFFFFFFFFFFFFFFFFFFFFFFFFFFF AND DUP2 MSTORE PUSH1 0x20 ADD SWAP1 DUP2 MSTORE PUSH1 0x20 ADD PUSH0 KECCAK256 PUSH0 ADD DUP2 SWAP1 SSTORE POP PUSH2 0x301 DUP8 PUSH2 0x2EA PUSH2 0x56C PUSH1 0x20 SHL PUSH1 0x20 SHR JUMP JUMPDEST PUSH1 0xA PUSH2 0x2F6 SWAP2 SWAP1 PUSH2 0x11DD JUMP JUMPDEST PUSH2 0x58D PUSH1 0x20 SHL PUSH1 0x20 SHR JUMP JUMPDEST PUSH32 0x49B15D0536554A8FBC082A1FAB1F1F7FE05E6F13F44B3C05DAC82F103257D6C8 TIMESTAMP PUSH2 0x331 PUSH2 0x612 PUSH1 0x20 SHL PUSH1 0x20 SHR JUMP JUMPDEST PUSH2 0x33F PUSH2 0x6D1 PUSH1 0x20 SHL PUSH1 0x20 SHR JUMP JUMPDEST PUSH1 0x40 MLOAD PUSH2 0x34E SWAP4 SWAP3 SWAP2 SWAP1 PUSH2 0x1236 JUMP JUMPDEST PUSH1 0x40 MLOAD DUP1 SWAP2 SUB SWAP1 LOG1 POP POP POP POP POP POP POP POP TIMESTAMP PUSH1 0x12 DUP2 SWAP1 SSTORE POP PUSH2 0x373 PUSH2 0x6D1 PUSH1 0x20 SHL PUSH1 0x20 SHR JUMP JUMPDEST PUSH1 0x13 DUP2 SWAP1 SSTORE POP POP POP POP POP POP POP POP PUSH2 0x1405 JUMP JUMPDEST PUSH0 PUSH0 PUSH0 SWAP1 SLOAD SWAP1 PUSH2 0x100 EXP SWAP1 DIV PUSH20 0xFFFFFFFFFFFFFFFFFFFFFFFFFFFFFFFFFFFFFFFF AND SWAP1 POP DUP2 PUSH0 PUSH0 PUSH2 0x100 EXP DUP2 SLOAD DUP2 PUSH20 0xFFFFFFFFFFFFFFFFFFFFFFFFFFFFFFFFFFFFFFFF MUL NOT AND SWAP1 DUP4 PUSH20 0xFFFFFFFFFFFFFFFFFFFFFFFFFFFFFFFFFFFFFFFF AND MUL OR SWAP1 SSTORE POP DUP2 PUSH20 0xFFFFFFFFFFFFFFFFFFFFFFFFFFFFFFFFFFFFFFFF AND DUP2 PUSH20 0xFFFFFFFFFFFFFFFFFFFFFFFFFFFFFFFFFFFFFFFF AND PUSH32 0x8BE0079C531659141344CD1FD0A4F28419497F9722A3DAAFE3B4186F6B6457E0 PUSH1 0x40 MLOAD PUSH1 0x40 MLOAD DUP1 SWAP2 SUB SWAP1 LOG3 POP POP JUMP JUMPDEST PUSH0 PUSH0 PUSH0 PUSH0 DUP5 PUSH20 0xFFFFFFFFFFFFFFFFFFFFFFFFFFFFFFFFFFFFFFFF AND PUSH1 0x40 MLOAD PUSH1 0x24 ADD PUSH1 0x40 MLOAD PUSH1 0x20 DUP2 DUP4 SUB SUB DUP2 MSTORE SWAP1 PUSH1 0x40 MSTORE PUSH4 0x313CE567 PUSH1 0xE0 SHL PUSH1 0x20 DUP3 ADD DUP1 MLOAD PUSH28 0xFFFFFFFFFFFFFFFFFFFFFFFFFFFFFFFFFFFFFFFFFFFFFFFFFFFFFFFF DUP4 DUP2 DUP4 AND OR DUP4 MSTORE POP POP POP POP PUSH1 0x40 MLOAD PUSH2 0x4B9 SWAP2 SWAP1 PUSH2 0x12AF JUMP JUMPDEST PUSH0 PUSH1 0x40 MLOAD DUP1 DUP4 SUB DUP2 DUP6 GAS STATICCALL SWAP2 POP POP RETURNDATASIZE DUP1 PUSH0 DUP2 EQ PUSH2 0x4F1 JUMPI PUSH1 0x40 MLOAD SWAP2 POP PUSH1 0x1F NOT PUSH1 0x3F RETURNDATASIZE ADD AND DUP3 ADD PUSH1 0x40 MSTORE RETURNDATASIZE DUP3 MSTORE RETURNDATASIZE PUSH0 PUSH1 0x20 DUP5 ADD RETURNDATACOPY PUSH2 0x4F6 JUMP JUMPDEST PUSH1 0x60 SWAP2 POP JUMPDEST POP SWAP2 POP SWAP2 POP DUP2 DUP1 ISZERO PUSH2 0x50A JUMPI POP PUSH1 0x20 DUP2 MLOAD LT ISZERO JUMPDEST ISZERO PUSH2 0x541 JUMPI PUSH0 DUP2 DUP1 PUSH1 0x20 ADD SWAP1 MLOAD DUP2 ADD SWAP1 PUSH2 0x524 SWAP2 SWAP1 PUSH2 0x12C5 JUMP JUMPDEST SWAP1 POP PUSH1 0xFF DUP1 AND DUP2 GT PUSH2 0x53F JUMPI PUSH1 0x1 DUP2 SWAP5 POP SWAP5 POP POP POP POP PUSH2 0x54A JUMP JUMPDEST POP JUMPDEST PUSH0 PUSH0 SWAP4 POP SWAP4 POP POP POP JUMPDEST SWAP2 POP SWAP2 JUMP JUMPDEST PUSH0 PUSH2 0x565 DUP3 PUSH1 0x1 PUSH3 0x278D00 PUSH2 0x6DA PUSH1 0x20 SHL PUSH1 0x20 SHR JUMP JUMPDEST SWAP1 POP SWAP2 SWAP1 POP JUMP JUMPDEST PUSH0 PUSH2 0x57B PUSH2 0x7CB PUSH1 0x20 SHL PUSH1 0x20 SHR JUMP JUMPDEST PUSH1 0xA0 MLOAD PUSH2 0x588 SWAP2 SWAP1 PUSH2 0x12F0 JUMP JUMPDEST SWAP1 POP SWAP1 JUMP JUMPDEST PUSH0 PUSH20 0xFFFFFFFFFFFFFFFFFFFFFFFFFFFFFFFFFFFFFFFF AND DUP3 PUSH20 0xFFFFFFFFFFFFFFFFFFFFFFFFFFFFFFFFFFFFFFFF AND SUB PUSH2 0x5FD JUMPI PUSH0 PUSH1 0x40 MLOAD PUSH32 0xEC442F0500000000000000000000000000000000000000000000000000000000 DUP2 MSTORE PUSH1 0x4 ADD PUSH2 0x5F4 SWAP2 SWAP1 PUSH2 0xD86 JUMP JUMPDEST PUSH1 0x40 MLOAD DUP1 SWAP2 SUB SWAP1 REVERT JUMPDEST PUSH2 0x60E PUSH0 DUP4 DUP4 PUSH2 0x7D3 PUSH1 0x20 SHL PUSH1 0x20 SHR JUMP JUMPDEST POP POP JUMP JUMPDEST PUSH0 PUSH0 PUSH2 0x622 PUSH2 0x9EF PUSH1 0x20 SHL PUSH1 0x20 SHR JUMP JUMPDEST PUSH20 0xFFFFFFFFFFFFFFFFFFFFFFFFFFFFFFFFFFFFFFFF AND PUSH4 0x70A08231 ADDRESS PUSH1 0x40 MLOAD DUP3 PUSH4 0xFFFFFFFF AND PUSH1 0xE0 SHL DUP2 MSTORE PUSH1 0x4 ADD PUSH2 0x65A SWAP2 SWAP1 PUSH2 0xD86 JUMP JUMPDEST PUSH1 0x20 PUSH1 0x40 MLOAD DUP1 DUP4 SUB DUP2 DUP7 GAS STATICCALL ISZERO DUP1 ISZERO PUSH2 0x675 JUMPI RETURNDATASIZE PUSH0 PUSH0 RETURNDATACOPY RETURNDATASIZE PUSH0 REVERT JUMPDEST POP POP POP POP PUSH1 0x40 MLOAD RETURNDATASIZE PUSH1 0x1F NOT PUSH1 0x1F DUP3 ADD AND DUP3 ADD DUP1 PUSH1 0x40 MSTORE POP DUP2 ADD SWAP1 PUSH2 0x699 SWAP2 SWAP1 PUSH2 0x12C5 JUMP JUMPDEST SWAP1 POP PUSH0 PUSH2 0x6AA PUSH2 0x9F8 PUSH1 0x20 SHL PUSH1 0x20 SHR JUMP JUMPDEST SWAP1 POP DUP1 DUP3 LT PUSH2 0x6C8 JUMPI DUP1 DUP3 PUSH2 0x6BF SWAP2 SWAP1 PUSH2 0x1324 JUMP JUMPDEST SWAP3 POP POP POP PUSH2 0x6CE JUMP JUMPDEST PUSH0 SWAP3 POP POP POP JUMPDEST SWAP1 JUMP JUMPDEST PUSH0 PUSH1 0x3 SLOAD SWAP1 POP SWAP1 JUMP JUMPDEST PUSH0 PUSH0 DUP4 DUP6 MUL SWAP1 POP PUSH0 PUSH0 NOT DUP6 DUP8 MULMOD DUP3 DUP2 LT DUP4 DUP3 SUB SUB SWAP2 POP POP PUSH0 DUP2 SUB PUSH2 0x712 JUMPI DUP4 DUP3 DUP2 PUSH2 0x708 JUMPI PUSH2 0x707 PUSH2 0x1357 JUMP JUMPDEST JUMPDEST DIV SWAP3 POP POP POP PUSH2 0x7C4 JUMP JUMPDEST DUP1 DUP5 GT PUSH2 0x73D JUMPI PUSH2 0x73C PUSH2 0x731 PUSH0 DUP7 EQ PUSH1 0x12 PUSH1 0x11 PUSH2 0xA19 PUSH1 0x20 SHL PUSH1 0x20 SHR JUMP JUMPDEST PUSH2 0xA38 PUSH1 0x20 SHL PUSH1 0x20 SHR JUMP JUMPDEST JUMPDEST PUSH0 DUP5 DUP7 DUP9 MULMOD SWAP1 POP DUP3 DUP2 GT DUP3 SUB SWAP2 POP DUP1 DUP4 SUB SWAP3 POP PUSH0 DUP6 PUSH0 SUB DUP7 AND SWAP1 POP DUP1 DUP7 DIV SWAP6 POP DUP1 DUP5 DIV SWAP4 POP PUSH1 0x1 DUP2 DUP3 PUSH0 SUB DIV ADD SWAP1 POP DUP1 DUP4 MUL DUP5 OR SWAP4 POP PUSH0 PUSH1 0x2 DUP8 PUSH1 0x3 MUL XOR SWAP1 POP DUP1 DUP8 MUL PUSH1 0x2 SUB DUP2 MUL SWAP1 POP DUP1 DUP8 MUL PUSH1 0x2 SUB DUP2 MUL SWAP1 POP DUP1 DUP8 MUL PUSH1 0x2 SUB DUP2 MUL SWAP1 POP DUP1 DUP8 MUL PUSH1 0x2 SUB DUP2 MUL SWAP1 POP DUP1 DUP8 MUL PUSH1 0x2 SUB DUP2 MUL SWAP1 POP DUP1 DUP8 MUL PUSH1 0x2 SUB DUP2 MUL SWAP1 POP DUP1 DUP6 MUL SWAP6 POP POP POP POP POP POP JUMPDEST SWAP4 SWAP3 POP POP POP JUMP JUMPDEST PUSH0 PUSH1 0x8 SWAP1 POP SWAP1 JUMP JUMPDEST PUSH0 PUSH20 0xFFFFFFFFFFFFFFFFFFFFFFFFFFFFFFFFFFFFFFFF AND DUP4 PUSH20 0xFFFFFFFFFFFFFFFFFFFFFFFFFFFFFFFFFFFFFFFF AND SUB PUSH2 0x823 JUMPI DUP1 PUSH1 0x3 PUSH0 DUP3 DUP3 SLOAD PUSH2 0x817 SWAP2 SWAP1 PUSH2 0x1384 JUMP JUMPDEST SWAP3 POP POP DUP2 SWAP1 SSTORE POP PUSH2 0x8F3 JUMP JUMPDEST PUSH0 PUSH1 0x1 PUSH0 DUP6 PUSH20 0xFFFFFFFFFFFFFFFFFFFFFFFFFFFFFFFFFFFFFFFF AND PUSH20 0xFFFFFFFFFFFFFFFFFFFFFFFFFFFFFFFFFFFFFFFF AND DUP2 MSTORE PUSH1 0x20 ADD SWAP1 DUP2 MSTORE PUSH1 0x20 ADD PUSH0 KECCAK256 SLOAD SWAP1 POP DUP2 DUP2 LT ISZERO PUSH2 0x8AD JUMPI DUP4 DUP2 DUP4 PUSH1 0x40 MLOAD PUSH32 0xE450D38C00000000000000000000000000000000000000000000000000000000 DUP2 MSTORE PUSH1 0x4 ADD PUSH2 0x8A4 SWAP4 SWAP3 SWAP2 SWAP1 PUSH2 0x13B7 JUMP JUMPDEST PUSH1 0x40 MLOAD DUP1 SWAP2 SUB SWAP1 REVERT JUMPDEST DUP2 DUP2 SUB PUSH1 0x1 PUSH0 DUP7 PUSH20 0xFFFFFFFFFFFFFFFFFFFFFFFFFFFFFFFFFFFFFFFF AND PUSH20 0xFFFFFFFFFFFFFFFFFFFFFFFFFFFFFFFFFFFFFFFF AND DUP2 MSTORE PUSH1 0x20 ADD SWAP1 DUP2 MSTORE PUSH1 0x20 ADD PUSH0 KECCAK256 DUP2 SWAP1 SSTORE POP POP JUMPDEST PUSH0 PUSH20 0xFFFFFFFFFFFFFFFFFFFFFFFFFFFFFFFFFFFFFFFF AND DUP3 PUSH20 0xFFFFFFFFFFFFFFFFFFFFFFFFFFFFFFFFFFFFFFFF AND SUB PUSH2 0x93A JUMPI DUP1 PUSH1 0x3 PUSH0 DUP3 DUP3 SLOAD SUB SWAP3 POP POP DUP2 SWAP1 SSTORE POP PUSH2 0x985 JUMP JUMPDEST DUP1 PUSH1 0x1 PUSH0 DUP5 PUSH20 0xFFFFFFFFFFFFFFFFFFFFFFFFFFFFFFFFFFFFFFFF AND PUSH20 0xFFFFFFFFFFFFFFFFFFFFFFFFFFFFFFFFFFFFFFFF AND DUP2 MSTORE PUSH1 0x20 ADD SWAP1 DUP2 MSTORE PUSH1 0x20 ADD PUSH0 KECCAK256 PUSH0 DUP3 DUP3 SLOAD ADD SWAP3 POP POP DUP2 SWAP1 SSTORE POP JUMPDEST DUP2 PUSH20 0xFFFFFFFFFFFFFFFFFFFFFFFFFFFFFFFFFFFFFFFF AND DUP4 PUSH20 0xFFFFFFFFFFFFFFFFFFFFFFFFFFFFFFFFFFFFFFFF AND PUSH32 0xDDF252AD1BE2C89B69C2B068FC378DAA952BA7F163C4A11628F55A4DF523B3EF DUP4 PUSH1 0x40 MLOAD PUSH2 0x9E2 SWAP2 SWAP1 PUSH2 0x13EC JUMP JUMPDEST PUSH1 0x40 MLOAD DUP1 SWAP2 SUB SWAP1 LOG3 POP POP POP JUMP JUMPDEST PUSH0 PUSH1 0x80 MLOAD SWAP1 POP SWAP1 JUMP JUMPDEST PUSH0 PUSH1 0xB SLOAD PUSH2 0xA0A PUSH2 0xA49 PUSH1 0x20 SHL PUSH1 0x20 SHR JUMP JUMPDEST PUSH2 0xA14 SWAP2 SWAP1 PUSH2 0x1324 JUMP JUMPDEST SWAP1 POP SWAP1 JUMP JUMPDEST PUSH0 PUSH2 0xA29 DUP5 PUSH2 0xA82 PUSH1 0x20 SHL PUSH1 0x20 SHR JUMP JUMPDEST DUP3 DUP5 XOR MUL DUP3 XOR SWAP1 POP SWAP4 SWAP3 POP POP POP JUMP JUMPDEST PUSH4 0x4E487B71 PUSH0 MSTORE DUP1 PUSH1 0x20 MSTORE PUSH1 0x24 PUSH1 0x1C REVERT JUMPDEST PUSH0 PUSH0 PUSH1 0xD SLOAD TIMESTAMP PUSH2 0xA59 SWAP2 SWAP1 PUSH2 0x1324 JUMP JUMPDEST SWAP1 POP PUSH2 0xA6F PUSH1 0x8 SLOAD DUP3 PUSH1 0x1 PUSH2 0x6DA PUSH1 0x20 SHL PUSH1 0x20 SHR JUMP JUMPDEST PUSH1 0xC SLOAD PUSH2 0xA7C SWAP2 SWAP1 PUSH2 0x1384 JUMP JUMPDEST SWAP2 POP POP SWAP1 JUMP JUMPDEST PUSH0 DUP2 ISZERO ISZERO SWAP1 POP SWAP2 SWAP1 POP JUMP JUMPDEST PUSH0 PUSH1 0x40 MLOAD SWAP1 POP SWAP1 JUMP JUMPDEST PUSH0 PUSH0 REVERT JUMPDEST PUSH0 PUSH0 REVERT JUMPDEST PUSH0 PUSH20 0xFFFFFFFFFFFFFFFFFFFFFFFFFFFFFFFFFFFFFFFF DUP3 AND SWAP1 POP SWAP2 SWAP1 POP JUMP JUMPDEST PUSH0 PUSH2 0xAC7 DUP3 PUSH2 0xA9E JUMP JUMPDEST SWAP1 POP SWAP2 SWAP1 POP JUMP JUMPDEST PUSH2 0xAD7 DUP2 PUSH2 0xABD JUMP JUMPDEST DUP2 EQ PUSH2 0xAE1 JUMPI PUSH0 PUSH0 REVERT JUMPDEST POP JUMP JUMPDEST PUSH0 DUP2 MLOAD SWAP1 POP PUSH2 0xAF2 DUP2 PUSH2 0xACE JUMP JUMPDEST SWAP3 SWAP2 POP POP JUMP JUMPDEST PUSH0 DUP2 SWAP1 POP SWAP2 SWAP1 POP JUMP JUMPDEST PUSH2 0xB0A DUP2 PUSH2 0xAF8 JUMP JUMPDEST DUP2 EQ PUSH2 0xB14 JUMPI PUSH0 PUSH0 REVERT JUMPDEST POP JUMP JUMPDEST PUSH0 DUP2 MLOAD SWAP1 POP PUSH2 0xB25 DUP2 PUSH2 0xB01 JUMP JUMPDEST SWAP3 SWAP2 POP POP JUMP JUMPDEST PUSH0 PUSH2 0xB35 DUP3 PUSH2 0xABD JUMP JUMPDEST SWAP1 POP SWAP2 SWAP1 POP JUMP JUMPDEST PUSH2 0xB45 DUP2 PUSH2 0xB2B JUMP JUMPDEST DUP2 EQ PUSH2 0xB4F JUMPI PUSH0 PUSH0 REVERT JUMPDEST POP JUMP JUMPDEST PUSH0 DUP2 MLOAD SWAP1 POP PUSH2 0xB60 DUP2 PUSH2 0xB3C JUMP JUMPDEST SWAP3 SWAP2 POP POP JUMP JUMPDEST PUSH0 PUSH0 REVERT JUMPDEST PUSH0 PUSH0 REVERT JUMPDEST PUSH0 PUSH1 0x1F NOT PUSH1 0x1F DUP4 ADD AND SWAP1 POP SWAP2 SWAP1 POP JUMP JUMPDEST PUSH32 0x4E487B7100000000000000000000000000000000000000000000000000000000 PUSH0 MSTORE PUSH1 0x41 PUSH1 0x4 MSTORE PUSH1 0x24 PUSH0 REVERT JUMPDEST PUSH2 0xBB4 DUP3 PUSH2 0xB6E JUMP JUMPDEST DUP2 ADD DUP2 DUP2 LT PUSH8 0xFFFFFFFFFFFFFFFF DUP3 GT OR ISZERO PUSH2 0xBD3 JUMPI PUSH2 0xBD2 PUSH2 0xB7E JUMP JUMPDEST JUMPDEST DUP1 PUSH1 0x40 MSTORE POP POP POP JUMP JUMPDEST PUSH0 PUSH2 0xBE5 PUSH2 0xA8D JUMP JUMPDEST SWAP1 POP PUSH2 0xBF1 DUP3 DUP3 PUSH2 0xBAB JUMP JUMPDEST SWAP2 SWAP1 POP JUMP JUMPDEST PUSH0 PUSH8 0xFFFFFFFFFFFFFFFF DUP3 GT ISZERO PUSH2 0xC10 JUMPI PUSH2 0xC0F PUSH2 0xB7E JUMP JUMPDEST JUMPDEST PUSH2 0xC19 DUP3 PUSH2 0xB6E JUMP JUMPDEST SWAP1 POP PUSH1 0x20 DUP2 ADD SWAP1 POP SWAP2 SWAP1 POP JUMP JUMPDEST DUP3 DUP2 DUP4 MCOPY PUSH0 DUP4 DUP4 ADD MSTORE POP POP POP JUMP JUMPDEST PUSH0 PUSH2 0xC46 PUSH2 0xC41 DUP5 PUSH2 0xBF6 JUMP JUMPDEST PUSH2 0xBDC JUMP JUMPDEST SWAP1 POP DUP3 DUP2 MSTORE PUSH1 0x20 DUP2 ADD DUP5 DUP5 DUP5 ADD GT ISZERO PUSH2 0xC62 JUMPI PUSH2 0xC61 PUSH2 0xB6A JUMP JUMPDEST JUMPDEST PUSH2 0xC6D DUP5 DUP3 DUP6 PUSH2 0xC26 JUMP JUMPDEST POP SWAP4 SWAP3 POP POP POP JUMP JUMPDEST PUSH0 DUP3 PUSH1 0x1F DUP4 ADD SLT PUSH2 0xC89 JUMPI PUSH2 0xC88 PUSH2 0xB66 JUMP JUMPDEST JUMPDEST DUP2 MLOAD PUSH2 0xC99 DUP5 DUP3 PUSH1 0x20 DUP7 ADD PUSH2 0xC34 JUMP JUMPDEST SWAP2 POP POP SWAP3 SWAP2 POP POP JUMP JUMPDEST PUSH0 PUSH0 PUSH0 PUSH0 PUSH0 PUSH0 PUSH0 PUSH1 0xE0 DUP9 DUP11 SUB SLT ISZERO PUSH2 0xCBD JUMPI PUSH2 0xCBC PUSH2 0xA96 JUMP JUMPDEST JUMPDEST PUSH0 PUSH2 0xCCA DUP11 DUP3 DUP12 ADD PUSH2 0xAE4 JUMP JUMPDEST SWAP8 POP POP PUSH1 0x20 PUSH2 0xCDB DUP11 DUP3 DUP12 ADD PUSH2 0xAE4 JUMP JUMPDEST SWAP7 POP POP PUSH1 0x40 PUSH2 0xCEC DUP11 DUP3 DUP12 ADD PUSH2 0xB17 JUMP JUMPDEST SWAP6 POP POP PUSH1 0x60 PUSH2 0xCFD DUP11 DUP3 DUP12 ADD PUSH2 0xB52 JUMP JUMPDEST SWAP5 POP POP PUSH1 0x80 PUSH2 0xD0E DUP11 DUP3 DUP12 ADD PUSH2 0xAE4 JUMP JUMPDEST SWAP4 POP POP PUSH1 0xA0 DUP9 ADD MLOAD PUSH8 0xFFFFFFFFFFFFFFFF DUP2 GT ISZERO PUSH2 0xD2F JUMPI PUSH2 0xD2E PUSH2 0xA9A JUMP JUMPDEST JUMPDEST PUSH2 0xD3B DUP11 DUP3 DUP12 ADD PUSH2 0xC75 JUMP JUMPDEST SWAP3 POP POP PUSH1 0xC0 DUP9 ADD MLOAD PUSH8 0xFFFFFFFFFFFFFFFF DUP2 GT ISZERO PUSH2 0xD5C JUMPI PUSH2 0xD5B PUSH2 0xA9A JUMP JUMPDEST JUMPDEST PUSH2 0xD68 DUP11 DUP3 DUP12 ADD PUSH2 0xC75 JUMP JUMPDEST SWAP2 POP POP SWAP3 SWAP6 SWAP9 SWAP2 SWAP5 SWAP8 POP SWAP3 SWAP6 POP JUMP JUMPDEST PUSH2 0xD80 DUP2 PUSH2 0xABD JUMP JUMPDEST DUP3 MSTORE POP POP JUMP JUMPDEST PUSH0 PUSH1 0x20 DUP3 ADD SWAP1 POP PUSH2 0xD99 PUSH0 DUP4 ADD DUP5 PUSH2 0xD77 JUMP JUMPDEST SWAP3 SWAP2 POP POP JUMP JUMPDEST PUSH0 DUP2 MLOAD SWAP1 POP SWAP2 SWAP1 POP JUMP JUMPDEST PUSH32 0x4E487B7100000000000000000000000000000000000000000000000000000000 PUSH0 MSTORE PUSH1 0x22 PUSH1 0x4 MSTORE PUSH1 0x24 PUSH0 REVERT JUMPDEST PUSH0 PUSH1 0x2 DUP3 DIV SWAP1 POP PUSH1 0x1 DUP3 AND DUP1 PUSH2 0xDED JUMPI PUSH1 0x7F DUP3 AND SWAP2 POP JUMPDEST PUSH1 0x20 DUP3 LT DUP2 SUB PUSH2 0xE00 JUMPI PUSH2 0xDFF PUSH2 0xDA9 JUMP JUMPDEST JUMPDEST POP SWAP2 SWAP1 POP JUMP JUMPDEST PUSH0 DUP2 SWAP1 POP DUP2 PUSH0 MSTORE PUSH1 0x20 PUSH0 KECCAK256 SWAP1 POP SWAP2 SWAP1 POP JUMP JUMPDEST PUSH0 PUSH1 0x20 PUSH1 0x1F DUP4 ADD DIV SWAP1 POP SWAP2 SWAP1 POP JUMP JUMPDEST PUSH0 DUP3 DUP3 SHL SWAP1 POP SWAP3 SWAP2 POP POP JUMP JUMPDEST PUSH0 PUSH1 0x8 DUP4 MUL PUSH2 0xE62 PUSH32 0xFFFFFFFFFFFFFFFFFFFFFFFFFFFFFFFFFFFFFFFFFFFFFFFFFFFFFFFFFFFFFFFF DUP3 PUSH2 0xE27 JUMP JUMPDEST PUSH2 0xE6C DUP7 DUP4 PUSH2 0xE27 JUMP JUMPDEST SWAP6 POP DUP1 NOT DUP5 AND SWAP4 POP DUP1 DUP7 AND DUP5 OR SWAP3 POP POP POP SWAP4 SWAP3 POP POP POP JUMP JUMPDEST PUSH0 DUP2 SWAP1 POP SWAP2 SWAP1 POP JUMP JUMPDEST PUSH0 PUSH2 0xEA7 PUSH2 0xEA2 PUSH2 0xE9D DUP5 PUSH2 0xAF8 JUMP JUMPDEST PUSH2 0xE84 JUMP JUMPDEST PUSH2 0xAF8 JUMP JUMPDEST SWAP1 POP SWAP2 SWAP1 POP JUMP JUMPDEST PUSH0 DUP2 SWAP1 POP SWAP2 SWAP1 POP JUMP JUMPDEST PUSH2 0xEC0 DUP4 PUSH2 0xE8D JUMP JUMPDEST PUSH2 0xED4 PUSH2 0xECC DUP3 PUSH2 0xEAE JUMP JUMPDEST DUP5 DUP5 SLOAD PUSH2 0xE33 JUMP JUMPDEST DUP3 SSTORE POP POP POP POP JUMP JUMPDEST PUSH0 PUSH0 SWAP1 POP SWAP1 JUMP JUMPDEST PUSH2 0xEEB PUSH2 0xEDC JUMP JUMPDEST PUSH2 0xEF6 DUP2 DUP5 DUP5 PUSH2 0xEB7 JUMP JUMPDEST POP POP POP JUMP JUMPDEST JUMPDEST DUP2 DUP2 LT ISZERO PUSH2 0xF19 JUMPI PUSH2 0xF0E PUSH0 DUP3 PUSH2 0xEE3 JUMP JUMPDEST PUSH1 0x1 DUP2 ADD SWAP1 POP PUSH2 0xEFC JUMP JUMPDEST POP POP JUMP JUMPDEST PUSH1 0x1F DUP3 GT ISZERO PUSH2 0xF5E JUMPI PUSH2 0xF2F DUP2 PUSH2 0xE06 JUMP JUMPDEST PUSH2 0xF38 DUP5 PUSH2 0xE18 JUMP JUMPDEST DUP2 ADD PUSH1 0x20 DUP6 LT ISZERO PUSH2 0xF47 JUMPI DUP2 SWAP1 POP JUMPDEST PUSH2 0xF5B PUSH2 0xF53 DUP6 PUSH2 0xE18 JUMP JUMPDEST DUP4 ADD DUP3 PUSH2 0xEFB JUMP JUMPDEST POP POP JUMPDEST POP POP POP JUMP JUMPDEST PUSH0 DUP3 DUP3 SHR SWAP1 POP SWAP3 SWAP2 POP POP JUMP JUMPDEST PUSH0 PUSH2 0xF7E PUSH0 NOT DUP5 PUSH1 0x8 MUL PUSH2 0xF63 JUMP JUMPDEST NOT DUP1 DUP4 AND SWAP2 POP POP SWAP3 SWAP2 POP POP JUMP JUMPDEST PUSH0 PUSH2 0xF96 DUP4 DUP4 PUSH2 0xF6F JUMP JUMPDEST SWAP2 POP DUP3 PUSH1 0x2 MUL DUP3 OR SWAP1 POP SWAP3 SWAP2 POP POP JUMP JUMPDEST PUSH2 0xFAF DUP3 PUSH2 0xD9F JUMP JUMPDEST PUSH8 0xFFFFFFFFFFFFFFFF DUP2 GT ISZERO PUSH2 0xFC8 JUMPI PUSH2 0xFC7 PUSH2 0xB7E JUMP JUMPDEST JUMPDEST PUSH2 0xFD2 DUP3 SLOAD PUSH2 0xDD6 JUMP JUMPDEST PUSH2 0xFDD DUP3 DUP3 DUP6 PUSH2 0xF1D JUMP JUMPDEST PUSH0 PUSH1 0x20 SWAP1 POP PUSH1 0x1F DUP4 GT PUSH1 0x1 DUP2 EQ PUSH2 0x100E JUMPI PUSH0 DUP5 ISZERO PUSH2 0xFFC JUMPI DUP3 DUP8 ADD MLOAD SWAP1 POP JUMPDEST PUSH2 0x1006 DUP6 DUP3 PUSH2 0xF8B JUMP JUMPDEST DUP7 SSTORE POP PUSH2 0x106D JUMP JUMPDEST PUSH1 0x1F NOT DUP5 AND PUSH2 0x101C DUP7 PUSH2 0xE06 JUMP JUMPDEST PUSH0 JUMPDEST DUP3 DUP2 LT ISZERO PUSH2 0x1043 JUMPI DUP5 DUP10 ADD MLOAD DUP3 SSTORE PUSH1 0x1 DUP3 ADD SWAP2 POP PUSH1 0x20 DUP6 ADD SWAP5 POP PUSH1 0x20 DUP2 ADD SWAP1 POP PUSH2 0x101E JUMP JUMPDEST DUP7 DUP4 LT ISZERO PUSH2 0x1060 JUMPI DUP5 DUP10 ADD MLOAD PUSH2 0x105C PUSH1 0x1F DUP10 AND DUP3 PUSH2 0xF6F JUMP JUMPDEST DUP4 SSTORE POP JUMPDEST PUSH1 0x1 PUSH1 0x2 DUP9 MUL ADD DUP9 SSTORE POP POP POP JUMPDEST POP POP POP POP POP POP JUMP JUMPDEST PUSH32 0x4E487B7100000000000000000000000000000000000000000000000000000000 PUSH0 MSTORE PUSH1 0x11 PUSH1 0x4 MSTORE PUSH1 0x24 PUSH0 REVERT JUMPDEST PUSH0 DUP2 PUSH1 0x1 SHR SWAP1 POP SWAP2 SWAP1 POP JUMP JUMPDEST PUSH0 PUSH0 DUP3 SWAP2 POP DUP4 SWAP1 POP JUMPDEST PUSH1 0x1 DUP6 GT ISZERO PUSH2 0x10F7 JUMPI DUP1 DUP7 DIV DUP2 GT ISZERO PUSH2 0x10D3 JUMPI PUSH2 0x10D2 PUSH2 0x1075 JUMP JUMPDEST JUMPDEST PUSH1 0x1 DUP6 AND ISZERO PUSH2 0x10E2 JUMPI DUP1 DUP3 MUL SWAP2 POP JUMPDEST DUP1 DUP2 MUL SWAP1 POP PUSH2 0x10F0 DUP6 PUSH2 0x10A2 JUMP JUMPDEST SWAP5 POP PUSH2 0x10B7 JUMP JUMPDEST SWAP5 POP SWAP5 SWAP3 POP POP POP JUMP JUMPDEST PUSH0 DUP3 PUSH2 0x110F JUMPI PUSH1 0x1 SWAP1 POP PUSH2 0x11CA JUMP JUMPDEST DUP2 PUSH2 0x111C JUMPI PUSH0 SWAP1 POP PUSH2 0x11CA JUMP JUMPDEST DUP2 PUSH1 0x1 DUP2 EQ PUSH2 0x1132 JUMPI PUSH1 0x2 DUP2 EQ PUSH2 0x113C JUMPI PUSH2 0x116B JUMP JUMPDEST PUSH1 0x1 SWAP2 POP POP PUSH2 0x11CA JUMP JUMPDEST PUSH1 0xFF DUP5 GT ISZERO PUSH2 0x114E JUMPI PUSH2 0x114D PUSH2 0x1075 JUMP JUMPDEST JUMPDEST DUP4 PUSH1 0x2 EXP SWAP2 POP DUP5 DUP3 GT ISZERO PUSH2 0x1165 JUMPI PUSH2 0x1164 PUSH2 0x1075 JUMP JUMPDEST JUMPDEST POP PUSH2 0x11CA JUMP JUMPDEST POP PUSH1 0x20 DUP4 LT PUSH2 0x133 DUP4 LT AND PUSH1 0x4E DUP5 LT PUSH1 0xB DUP5 LT AND OR ISZERO PUSH2 0x11A0 JUMPI DUP3 DUP3 EXP SWAP1 POP DUP4 DUP2 GT ISZERO PUSH2 0x119B JUMPI PUSH2 0x119A PUSH2 0x1075 JUMP JUMPDEST JUMPDEST PUSH2 0x11CA JUMP JUMPDEST PUSH2 0x11AD DUP5 DUP5 DUP5 PUSH1 0x1 PUSH2 0x10AE JUMP JUMPDEST SWAP3 POP SWAP1 POP DUP2 DUP5 DIV DUP2 GT ISZERO PUSH2 0x11C4 JUMPI PUSH2 0x11C3 PUSH2 0x1075 JUMP JUMPDEST JUMPDEST DUP2 DUP2 MUL SWAP1 POP JUMPDEST SWAP4 SWAP3 POP POP POP JUMP JUMPDEST PUSH0 PUSH1 0xFF DUP3 AND SWAP1 POP SWAP2 SWAP1 POP JUMP JUMPDEST PUSH0 PUSH2 0x11E7 DUP3 PUSH2 0xAF8 JUMP JUMPDEST SWAP2 POP PUSH2 0x11F2 DUP4 PUSH2 0x11D1 JUMP JUMPDEST SWAP3 POP PUSH2 0x121F PUSH32 0xFFFFFFFFFFFFFFFFFFFFFFFFFFFFFFFFFFFFFFFFFFFFFFFFFFFFFFFFFFFFFFFF DUP5 DUP5 PUSH2 0x1100 JUMP JUMPDEST SWAP1 POP SWAP3 SWAP2 POP POP JUMP JUMPDEST PUSH2 0x1230 DUP2 PUSH2 0xAF8 JUMP JUMPDEST DUP3 MSTORE POP POP JUMP JUMPDEST PUSH0 PUSH1 0x60 DUP3 ADD SWAP1 POP PUSH2 0x1249 PUSH0 DUP4 ADD DUP7 PUSH2 0x1227 JUMP JUMPDEST PUSH2 0x1256 PUSH1 0x20 DUP4 ADD DUP6 PUSH2 0x1227 JUMP JUMPDEST PUSH2 0x1263 PUSH1 0x40 DUP4 ADD DUP5 PUSH2 0x1227 JUMP JUMPDEST SWAP5 SWAP4 POP POP POP POP JUMP JUMPDEST PUSH0 DUP2 MLOAD SWAP1 POP SWAP2 SWAP1 POP JUMP JUMPDEST PUSH0 DUP2 SWAP1 POP SWAP3 SWAP2 POP POP JUMP JUMPDEST PUSH0 PUSH2 0x1289 DUP3 PUSH2 0x126B JUMP JUMPDEST PUSH2 0x1293 DUP2 DUP6 PUSH2 0x1275 JUMP JUMPDEST SWAP4 POP PUSH2 0x12A3 DUP2 DUP6 PUSH1 0x20 DUP7 ADD PUSH2 0xC26 JUMP JUMPDEST DUP1 DUP5 ADD SWAP2 POP POP SWAP3 SWAP2 POP POP JUMP JUMPDEST PUSH0 PUSH2 0x12BA DUP3 DUP5 PUSH2 0x127F JUMP JUMPDEST SWAP2 POP DUP2 SWAP1 POP SWAP3 SWAP2 POP POP JUMP JUMPDEST PUSH0 PUSH1 0x20 DUP3 DUP5 SUB SLT ISZERO PUSH2 0x12DA JUMPI PUSH2 0x12D9 PUSH2 0xA96 JUMP JUMPDEST JUMPDEST PUSH0 PUSH2 0x12E7 DUP5 DUP3 DUP6 ADD PUSH2 0xB17 JUMP JUMPDEST SWAP2 POP POP SWAP3 SWAP2 POP POP JUMP JUMPDEST PUSH0 PUSH2 0x12FA DUP3 PUSH2 0x11D1 JUMP JUMPDEST SWAP2 POP PUSH2 0x1305 DUP4 PUSH2 0x11D1 JUMP JUMPDEST SWAP3 POP DUP3 DUP3 ADD SWAP1 POP PUSH1 0xFF DUP2 GT ISZERO PUSH2 0x131E JUMPI PUSH2 0x131D PUSH2 0x1075 JUMP JUMPDEST JUMPDEST SWAP3 SWAP2 POP POP JUMP JUMPDEST PUSH0 PUSH2 0x132E DUP3 PUSH2 0xAF8 JUMP JUMPDEST SWAP2 POP PUSH2 0x1339 DUP4 PUSH2 0xAF8 JUMP JUMPDEST SWAP3 POP DUP3 DUP3 SUB SWAP1 POP DUP2 DUP2 GT ISZERO PUSH2 0x1351 JUMPI PUSH2 0x1350 PUSH2 0x1075 JUMP JUMPDEST JUMPDEST SWAP3 SWAP2 POP POP JUMP JUMPDEST PUSH32 0x4E487B7100000000000000000000000000000000000000000000000000000000 PUSH0 MSTORE PUSH1 0x12 PUSH1 0x4 MSTORE PUSH1 0x24 PUSH0 REVERT JUMPDEST PUSH0 PUSH2 0x138E DUP3 PUSH2 0xAF8 JUMP JUMPDEST SWAP2 POP PUSH2 0x1399 DUP4 PUSH2 0xAF8 JUMP JUMPDEST SWAP3 POP DUP3 DUP3 ADD SWAP1 POP DUP1 DUP3 GT ISZERO PUSH2 0x13B1 JUMPI PUSH2 0x13B0 PUSH2 0x1075 JUMP JUMPDEST JUMPDEST SWAP3 SWAP2 POP POP JUMP JUMPDEST PUSH0 PUSH1 0x60 DUP3 ADD SWAP1 POP PUSH2 0x13CA PUSH0 DUP4 ADD DUP7 PUSH2 0xD77 JUMP JUMPDEST PUSH2 0x13D7 PUSH1 0x20 DUP4 ADD DUP6 PUSH2 0x1227 JUMP JUMPDEST PUSH2 0x13E4 PUSH1 0x40 DUP4 ADD DUP5 PUSH2 0x1227 JUMP JUMPDEST SWAP5 SWAP4 POP POP POP POP JUMP JUMPDEST PUSH0 PUSH1 0x20 DUP3 ADD SWAP1 POP PUSH2 0x13FF PUSH0 DUP4 ADD DUP5 PUSH2 0x1227 JUMP JUMPDEST SWAP3 SWAP2 POP POP JUMP JUMPDEST PUSH1 0x80 MLOAD PUSH1 0xA0 MLOAD PUSH2 0x4488 PUSH2 0x1434 PUSH0 CODECOPY PUSH0 PUSH2 0x11C5 ADD MSTORE PUSH0 DUP2 DUP2 PUSH2 0x17BA ADD MSTORE DUP2 DUP2 PUSH2 0x320B ADD MSTORE PUSH2 0x32F7 ADD MSTORE PUSH2 0x4488 PUSH0 RETURN INVALID PUSH1 0x80 PUSH1 0x40 MSTORE CALLVALUE DUP1 ISZERO PUSH2 0xF JUMPI PUSH0 PUSH0 REVERT JUMPDEST POP PUSH1 0x4 CALLDATASIZE LT PUSH2 0x325 JUMPI PUSH0 CALLDATALOAD PUSH1 0xE0 SHR DUP1 PUSH4 0xA3F8EACE GT PUSH2 0x1B6 JUMPI DUP1 PUSH4 0xC920C609 GT PUSH2 0x102 JUMPI DUP1 PUSH4 0xE33B7DE3 GT PUSH2 0xA0 JUMPI DUP1 PUSH4 0xEF8B30F7 GT PUSH2 0x7A JUMPI DUP1 PUSH4 0xEF8B30F7 EQ PUSH2 0xA30 JUMPI DUP1 PUSH4 0xF0BFA6C1 EQ PUSH2 0xA60 JUMPI DUP1 PUSH4 0xF2FDE38B EQ PUSH2 0xA91 JUMPI DUP1 PUSH4 0xF8B8E80E EQ PUSH2 0xAAD JUMPI PUSH2 0x325 JUMP JUMPDEST DUP1 PUSH4 0xE33B7DE3 EQ PUSH2 0x9D6 JUMPI DUP1 PUSH4 0xE6C4FFEE EQ PUSH2 0x9F4 JUMPI DUP1 PUSH4 0xE9BB37A0 EQ PUSH2 0xA12 JUMPI PUSH2 0x325 JUMP JUMPDEST DUP1 PUSH4 0xD643FA05 GT PUSH2 0xDC JUMPI DUP1 PUSH4 0xD643FA05 EQ PUSH2 0x928 JUMPI DUP1 PUSH4 0xD905777E EQ PUSH2 0x958 JUMPI DUP1 PUSH4 0xDC9A1535 EQ PUSH2 0x988 JUMPI DUP1 PUSH4 0xDD62ED3E EQ PUSH2 0x9A6 JUMPI PUSH2 0x325 JUMP JUMPDEST DUP1 PUSH4 0xC920C609 EQ PUSH2 0x8D0 JUMPI DUP1 PUSH4 0xCE96CB77 EQ PUSH2 0x8DA JUMPI DUP1 PUSH4 0xD0B06F5D EQ PUSH2 0x90A JUMPI PUSH2 0x325 JUMP JUMPDEST DUP1 PUSH4 0xBA087652 GT PUSH2 0x16F JUMPI DUP1 PUSH4 0xC2CE7AF3 GT PUSH2 0x149 JUMPI DUP1 PUSH4 0xC2CE7AF3 EQ PUSH2 0x848 JUMPI DUP1 PUSH4 0xC32E8459 EQ PUSH2 0x852 JUMPI DUP1 PUSH4 0xC63D75B6 EQ PUSH2 0x870 JUMPI DUP1 PUSH4 0xC6E6F592 EQ PUSH2 0x8A0 JUMPI PUSH2 0x325 JUMP JUMPDEST DUP1 PUSH4 0xBA087652 EQ PUSH2 0x7F0 JUMPI DUP1 PUSH4 0xC06B8287 EQ PUSH2 0x820 JUMPI DUP1 PUSH4 0xC1955C78 EQ PUSH2 0x83E JUMPI PUSH2 0x325 JUMP JUMPDEST DUP1 PUSH4 0xA3F8EACE EQ PUSH2 0x6E1 JUMPI DUP1 PUSH4 0xA9059CBB EQ PUSH2 0x711 JUMPI DUP1 PUSH4 0xAA13E8C2 EQ PUSH2 0x741 JUMPI DUP1 PUSH4 0xAF86A953 EQ PUSH2 0x75F JUMPI DUP1 PUSH4 0xB3D7F6B9 EQ PUSH2 0x790 JUMPI DUP1 PUSH4 0xB460AF94 EQ PUSH2 0x7C0 JUMPI PUSH2 0x325 JUMP JUMPDEST DUP1 PUSH4 0x334C356E GT PUSH2 0x275 JUMPI DUP1 PUSH4 0x4CDAD506 GT PUSH2 0x22E JUMPI DUP1 PUSH4 0x715018A6 GT PUSH2 0x208 JUMPI DUP1 PUSH4 0x715018A6 EQ PUSH2 0x66B JUMPI DUP1 PUSH4 0x8DA5CB5B EQ PUSH2 0x675 JUMPI DUP1 PUSH4 0x94BF804D EQ PUSH2 0x693 JUMPI DUP1 PUSH4 0x95D89B41 EQ PUSH2 0x6C3 JUMPI PUSH2 0x325 JUMP JUMPDEST DUP1 PUSH4 0x4CDAD506 EQ PUSH2 0x5DB JUMPI DUP1 PUSH4 0x6E553F65 EQ PUSH2 0x60B JUMPI DUP1 PUSH4 0x70A08231 EQ PUSH2 0x63B JUMPI PUSH2 0x325 JUMP JUMPDEST DUP1 PUSH4 0x334C356E EQ PUSH2 0x505 JUMPI DUP1 PUSH4 0x3795309E EQ PUSH2 0x521 JUMPI DUP1 PUSH4 0x38D52E0F EQ PUSH2 0x551 JUMPI DUP1 PUSH4 0x39E761D6 EQ PUSH2 0x56F JUMPI DUP1 PUSH4 0x402D267D EQ PUSH2 0x58D JUMPI DUP1 PUSH4 0x40F2BA59 EQ PUSH2 0x5BD JUMPI PUSH2 0x325 JUMP JUMPDEST DUP1 PUSH4 0xB4B1C44 GT PUSH2 0x2E2 JUMPI DUP1 PUSH4 0x20212CB7 GT PUSH2 0x2BC JUMPI DUP1 PUSH4 0x20212CB7 EQ PUSH2 0x47D JUMPI DUP1 PUSH4 0x22003F10 EQ PUSH2 0x49B JUMPI DUP1 PUSH4 0x23B872DD EQ PUSH2 0x4B7 JUMPI DUP1 PUSH4 0x313CE567 EQ PUSH2 0x4E7 JUMPI PUSH2 0x325 JUMP JUMPDEST DUP1 PUSH4 0xB4B1C44 EQ PUSH2 0x413 JUMPI DUP1 PUSH4 0x18160DDD EQ PUSH2 0x42F JUMPI DUP1 PUSH4 0x19165587 EQ PUSH2 0x44D JUMPI PUSH2 0x325 JUMP JUMPDEST DUP1 PUSH4 0x1E1D114 EQ PUSH2 0x329 JUMPI DUP1 PUSH4 0x5B182EA EQ PUSH2 0x347 JUMPI DUP1 PUSH4 0x6FDDE03 EQ PUSH2 0x365 JUMPI DUP1 PUSH4 0x7A2D13A EQ PUSH2 0x383 JUMPI DUP1 PUSH4 0x95EA7B3 EQ PUSH2 0x3B3 JUMPI DUP1 PUSH4 0xA28A477 EQ PUSH2 0x3E3 JUMPI JUMPDEST PUSH0 PUSH0 REVERT JUMPDEST PUSH2 0x331 PUSH2 0xAB7 JUMP JUMPDEST PUSH1 0x40 MLOAD PUSH2 0x33E SWAP2 SWAP1 PUSH2 0x34B8 JUMP JUMPDEST PUSH1 0x40 MLOAD DUP1 SWAP2 SUB SWAP1 RETURN JUMPDEST PUSH2 0x34F PUSH2 0xB6A JUMP JUMPDEST PUSH1 0x40 MLOAD PUSH2 0x35C SWAP2 SWAP1 PUSH2 0x34B8 JUMP JUMPDEST PUSH1 0x40 MLOAD DUP1 SWAP2 SUB SWAP1 RETURN JUMPDEST PUSH2 0x36D PUSH2 0xB70 JUMP JUMPDEST PUSH1 0x40 MLOAD PUSH2 0x37A SWAP2 SWAP1 PUSH2 0x3541 JUMP JUMPDEST PUSH1 0x40 MLOAD DUP1 SWAP2 SUB SWAP1 RETURN JUMPDEST PUSH2 0x39D PUSH1 0x4 DUP1 CALLDATASIZE SUB DUP2 ADD SWAP1 PUSH2 0x398 SWAP2 SWAP1 PUSH2 0x359C JUMP JUMPDEST PUSH2 0xC00 JUMP JUMPDEST PUSH1 0x40 MLOAD PUSH2 0x3AA SWAP2 SWAP1 PUSH2 0x34B8 JUMP JUMPDEST PUSH1 0x40 MLOAD DUP1 SWAP2 SUB SWAP1 RETURN JUMPDEST PUSH2 0x3CD PUSH1 0x4 DUP1 CALLDATASIZE SUB DUP2 ADD SWAP1 PUSH2 0x3C8 SWAP2 SWAP1 PUSH2 0x3621 JUMP JUMPDEST PUSH2 0xC12 JUMP JUMPDEST PUSH1 0x40 MLOAD PUSH2 0x3DA SWAP2 SWAP1 PUSH2 0x3679 JUMP JUMPDEST PUSH1 0x40 MLOAD DUP1 SWAP2 SUB SWAP1 RETURN JUMPDEST PUSH2 0x3FD PUSH1 0x4 DUP1 CALLDATASIZE SUB DUP2 ADD SWAP1 PUSH2 0x3F8 SWAP2 SWAP1 PUSH2 0x359C JUMP JUMPDEST PUSH2 0xC34 JUMP JUMPDEST PUSH1 0x40 MLOAD PUSH2 0x40A SWAP2 SWAP1 PUSH2 0x34B8 JUMP JUMPDEST PUSH1 0x40 MLOAD DUP1 SWAP2 SUB SWAP1 RETURN JUMPDEST PUSH2 0x42D PUSH1 0x4 DUP1 CALLDATASIZE SUB DUP2 ADD SWAP1 PUSH2 0x428 SWAP2 SWAP1 PUSH2 0x359C JUMP JUMPDEST PUSH2 0xC47 JUMP JUMPDEST STOP JUMPDEST PUSH2 0x437 PUSH2 0xD0A JUMP JUMPDEST PUSH1 0x40 MLOAD PUSH2 0x444 SWAP2 SWAP1 PUSH2 0x34B8 JUMP JUMPDEST PUSH1 0x40 MLOAD DUP1 SWAP2 SUB SWAP1 RETURN JUMPDEST PUSH2 0x467 PUSH1 0x4 DUP1 CALLDATASIZE SUB DUP2 ADD SWAP1 PUSH2 0x462 SWAP2 SWAP1 PUSH2 0x3692 JUMP JUMPDEST PUSH2 0xD13 JUMP JUMPDEST PUSH1 0x40 MLOAD PUSH2 0x474 SWAP2 SWAP1 PUSH2 0x34B8 JUMP JUMPDEST PUSH1 0x40 MLOAD DUP1 SWAP2 SUB SWAP1 RETURN JUMPDEST PUSH2 0x485 PUSH2 0xE32 JUMP JUMPDEST PUSH1 0x40 MLOAD PUSH2 0x492 SWAP2 SWAP1 PUSH2 0x34B8 JUMP JUMPDEST PUSH1 0x40 MLOAD DUP1 SWAP2 SUB SWAP1 RETURN JUMPDEST PUSH2 0x4B5 PUSH1 0x4 DUP1 CALLDATASIZE SUB DUP2 ADD SWAP1 PUSH2 0x4B0 SWAP2 SWAP1 PUSH2 0x3621 JUMP JUMPDEST PUSH2 0xE38 JUMP JUMPDEST STOP JUMPDEST PUSH2 0x4D1 PUSH1 0x4 DUP1 CALLDATASIZE SUB DUP2 ADD SWAP1 PUSH2 0x4CC SWAP2 SWAP1 PUSH2 0x36BD JUMP JUMPDEST PUSH2 0x118C JUMP JUMPDEST PUSH1 0x40 MLOAD PUSH2 0x4DE SWAP2 SWAP1 PUSH2 0x3679 JUMP JUMPDEST PUSH1 0x40 MLOAD DUP1 SWAP2 SUB SWAP1 RETURN JUMPDEST PUSH2 0x4EF PUSH2 0x11BA JUMP JUMPDEST PUSH1 0x40 MLOAD PUSH2 0x4FC SWAP2 SWAP1 PUSH2 0x3728 JUMP JUMPDEST PUSH1 0x40 MLOAD DUP1 SWAP2 SUB SWAP1 RETURN JUMPDEST PUSH2 0x51F PUSH1 0x4 DUP1 CALLDATASIZE SUB DUP2 ADD SWAP1 PUSH2 0x51A SWAP2 SWAP1 PUSH2 0x3692 JUMP JUMPDEST PUSH2 0x11F3 JUMP JUMPDEST STOP JUMPDEST PUSH2 0x53B PUSH1 0x4 DUP1 CALLDATASIZE SUB DUP2 ADD SWAP1 PUSH2 0x536 SWAP2 SWAP1 PUSH2 0x359C JUMP JUMPDEST PUSH2 0x17A0 JUMP JUMPDEST PUSH1 0x40 MLOAD PUSH2 0x548 SWAP2 SWAP1 PUSH2 0x34B8 JUMP JUMPDEST PUSH1 0x40 MLOAD DUP1 SWAP2 SUB SWAP1 RETURN JUMPDEST PUSH2 0x559 PUSH2 0x17B7 JUMP JUMPDEST PUSH1 0x40 MLOAD PUSH2 0x566 SWAP2 SWAP1 PUSH2 0x3750 JUMP JUMPDEST PUSH1 0x40 MLOAD DUP1 SWAP2 SUB SWAP1 RETURN JUMPDEST PUSH2 0x577 PUSH2 0x17DE JUMP JUMPDEST PUSH1 0x40 MLOAD PUSH2 0x584 SWAP2 SWAP1 PUSH2 0x34B8 JUMP JUMPDEST PUSH1 0x40 MLOAD DUP1 SWAP2 SUB SWAP1 RETURN JUMPDEST PUSH2 0x5A7 PUSH1 0x4 DUP1 CALLDATASIZE SUB DUP2 ADD SWAP1 PUSH2 0x5A2 SWAP2 SWAP1 PUSH2 0x3692 JUMP JUMPDEST PUSH2 0x17E4 JUMP JUMPDEST PUSH1 0x40 MLOAD PUSH2 0x5B4 SWAP2 SWAP1 PUSH2 0x34B8 JUMP JUMPDEST PUSH1 0x40 MLOAD DUP1 SWAP2 SUB SWAP1 RETURN JUMPDEST PUSH2 0x5C5 PUSH2 0x1818 JUMP JUMPDEST PUSH1 0x40 MLOAD PUSH2 0x5D2 SWAP2 SWAP1 PUSH2 0x34B8 JUMP JUMPDEST PUSH1 0x40 MLOAD DUP1 SWAP2 SUB SWAP1 RETURN JUMPDEST PUSH2 0x5F5 PUSH1 0x4 DUP1 CALLDATASIZE SUB DUP2 ADD SWAP1 PUSH2 0x5F0 SWAP2 SWAP1 PUSH2 0x359C JUMP JUMPDEST PUSH2 0x1833 JUMP JUMPDEST PUSH1 0x40 MLOAD PUSH2 0x602 SWAP2 SWAP1 PUSH2 0x34B8 JUMP JUMPDEST PUSH1 0x40 MLOAD DUP1 SWAP2 SUB SWAP1 RETURN JUMPDEST PUSH2 0x625 PUSH1 0x4 DUP1 CALLDATASIZE SUB DUP2 ADD SWAP1 PUSH2 0x620 SWAP2 SWAP1 PUSH2 0x3769 JUMP JUMPDEST PUSH2 0x1845 JUMP JUMPDEST PUSH1 0x40 MLOAD PUSH2 0x632 SWAP2 SWAP1 PUSH2 0x34B8 JUMP JUMPDEST PUSH1 0x40 MLOAD DUP1 SWAP2 SUB SWAP1 RETURN JUMPDEST PUSH2 0x655 PUSH1 0x4 DUP1 CALLDATASIZE SUB DUP2 ADD SWAP1 PUSH2 0x650 SWAP2 SWAP1 PUSH2 0x3692 JUMP JUMPDEST PUSH2 0x1860 JUMP JUMPDEST PUSH1 0x40 MLOAD PUSH2 0x662 SWAP2 SWAP1 PUSH2 0x34B8 JUMP JUMPDEST PUSH1 0x40 MLOAD DUP1 SWAP2 SUB SWAP1 RETURN JUMPDEST PUSH2 0x673 PUSH2 0x18A6 JUMP JUMPDEST STOP JUMPDEST PUSH2 0x67D PUSH2 0x18B9 JUMP JUMPDEST PUSH1 0x40 MLOAD PUSH2 0x68A SWAP2 SWAP1 PUSH2 0x3750 JUMP JUMPDEST PUSH1 0x40 MLOAD DUP1 SWAP2 SUB SWAP1 RETURN JUMPDEST PUSH2 0x6AD PUSH1 0x4 DUP1 CALLDATASIZE SUB DUP2 ADD SWAP1 PUSH2 0x6A8 SWAP2 SWAP1 PUSH2 0x3769 JUMP JUMPDEST PUSH2 0x18E0 JUMP JUMPDEST PUSH1 0x40 MLOAD PUSH2 0x6BA SWAP2 SWAP1 PUSH2 0x34B8 JUMP JUMPDEST PUSH1 0x40 MLOAD DUP1 SWAP2 SUB SWAP1 RETURN JUMPDEST PUSH2 0x6CB PUSH2 0x18FB JUMP JUMPDEST PUSH1 0x40 MLOAD PUSH2 0x6D8 SWAP2 SWAP1 PUSH2 0x3541 JUMP JUMPDEST PUSH1 0x40 MLOAD DUP1 SWAP2 SUB SWAP1 RETURN JUMPDEST PUSH2 0x6FB PUSH1 0x4 DUP1 CALLDATASIZE SUB DUP2 ADD SWAP1 PUSH2 0x6F6 SWAP2 SWAP1 PUSH2 0x3692 JUMP JUMPDEST PUSH2 0x198B JUMP JUMPDEST PUSH1 0x40 MLOAD PUSH2 0x708 SWAP2 SWAP1 PUSH2 0x34B8 JUMP JUMPDEST PUSH1 0x40 MLOAD DUP1 SWAP2 SUB SWAP1 RETURN JUMPDEST PUSH2 0x72B PUSH1 0x4 DUP1 CALLDATASIZE SUB DUP2 ADD SWAP1 PUSH2 0x726 SWAP2 SWAP1 PUSH2 0x3621 JUMP JUMPDEST PUSH2 0x1A2E JUMP JUMPDEST PUSH1 0x40 MLOAD PUSH2 0x738 SWAP2 SWAP1 PUSH2 0x3679 JUMP JUMPDEST PUSH1 0x40 MLOAD DUP1 SWAP2 SUB SWAP1 RETURN JUMPDEST PUSH2 0x749 PUSH2 0x1A50 JUMP JUMPDEST PUSH1 0x40 MLOAD PUSH2 0x756 SWAP2 SWAP1 PUSH2 0x34B8 JUMP JUMPDEST PUSH1 0x40 MLOAD DUP1 SWAP2 SUB SWAP1 RETURN JUMPDEST PUSH2 0x779 PUSH1 0x4 DUP1 CALLDATASIZE SUB DUP2 ADD SWAP1 PUSH2 0x774 SWAP2 SWAP1 PUSH2 0x3692 JUMP JUMPDEST PUSH2 0x1A56 JUMP JUMPDEST PUSH1 0x40 MLOAD PUSH2 0x787 SWAP3 SWAP2 SWAP1 PUSH2 0x37A7 JUMP JUMPDEST PUSH1 0x40 MLOAD DUP1 SWAP2 SUB SWAP1 RETURN JUMPDEST PUSH2 0x7AA PUSH1 0x4 DUP1 CALLDATASIZE SUB DUP2 ADD SWAP1 PUSH2 0x7A5 SWAP2 SWAP1 PUSH2 0x359C JUMP JUMPDEST PUSH2 0x1A76 JUMP JUMPDEST PUSH1 0x40 MLOAD PUSH2 0x7B7 SWAP2 SWAP1 PUSH2 0x34B8 JUMP JUMPDEST PUSH1 0x40 MLOAD DUP1 SWAP2 SUB SWAP1 RETURN JUMPDEST PUSH2 0x7DA PUSH1 0x4 DUP1 CALLDATASIZE SUB DUP2 ADD SWAP1 PUSH2 0x7D5 SWAP2 SWAP1 PUSH2 0x37CE JUMP JUMPDEST PUSH2 0x1A89 JUMP JUMPDEST PUSH1 0x40 MLOAD PUSH2 0x7E7 SWAP2 SWAP1 PUSH2 0x34B8 JUMP JUMPDEST PUSH1 0x40 MLOAD DUP1 SWAP2 SUB SWAP1 RETURN JUMPDEST PUSH2 0x80A PUSH1 0x4 DUP1 CALLDATASIZE SUB DUP2 ADD SWAP1 PUSH2 0x805 SWAP2 SWAP1 PUSH2 0x37CE JUMP JUMPDEST PUSH2 0x1AA6 JUMP JUMPDEST PUSH1 0x40 MLOAD PUSH2 0x817 SWAP2 SWAP1 PUSH2 0x34B8 JUMP JUMPDEST PUSH1 0x40 MLOAD DUP1 SWAP2 SUB SWAP1 RETURN JUMPDEST PUSH2 0x828 PUSH2 0x1AC3 JUMP JUMPDEST PUSH1 0x40 MLOAD PUSH2 0x835 SWAP2 SWAP1 PUSH2 0x3836 JUMP JUMPDEST PUSH1 0x40 MLOAD DUP1 SWAP2 SUB SWAP1 RETURN JUMPDEST PUSH2 0x846 PUSH2 0x1AC9 JUMP JUMPDEST STOP JUMPDEST PUSH2 0x850 PUSH2 0x1CA7 JUMP JUMPDEST STOP JUMPDEST PUSH2 0x85A PUSH2 0x1D02 JUMP JUMPDEST PUSH1 0x40 MLOAD PUSH2 0x867 SWAP2 SWAP1 PUSH2 0x34B8 JUMP JUMPDEST PUSH1 0x40 MLOAD DUP1 SWAP2 SUB SWAP1 RETURN JUMPDEST PUSH2 0x88A PUSH1 0x4 DUP1 CALLDATASIZE SUB DUP2 ADD SWAP1 PUSH2 0x885 SWAP2 SWAP1 PUSH2 0x3692 JUMP JUMPDEST PUSH2 0x1D08 JUMP JUMPDEST PUSH1 0x40 MLOAD PUSH2 0x897 SWAP2 SWAP1 PUSH2 0x34B8 JUMP JUMPDEST PUSH1 0x40 MLOAD DUP1 SWAP2 SUB SWAP1 RETURN JUMPDEST PUSH2 0x8BA PUSH1 0x4 DUP1 CALLDATASIZE SUB DUP2 ADD SWAP1 PUSH2 0x8B5 SWAP2 SWAP1 PUSH2 0x359C JUMP JUMPDEST PUSH2 0x1D33 JUMP JUMPDEST PUSH1 0x40 MLOAD PUSH2 0x8C7 SWAP2 SWAP1 PUSH2 0x34B8 JUMP JUMPDEST PUSH1 0x40 MLOAD DUP1 SWAP2 SUB SWAP1 RETURN JUMPDEST PUSH2 0x8D8 PUSH2 0x1D45 JUMP JUMPDEST STOP JUMPDEST PUSH2 0x8F4 PUSH1 0x4 DUP1 CALLDATASIZE SUB DUP2 ADD SWAP1 PUSH2 0x8EF SWAP2 SWAP1 PUSH2 0x3692 JUMP JUMPDEST PUSH2 0x1FCA JUMP JUMPDEST PUSH1 0x40 MLOAD PUSH2 0x901 SWAP2 SWAP1 PUSH2 0x34B8 JUMP JUMPDEST PUSH1 0x40 MLOAD DUP1 SWAP2 SUB SWAP1 RETURN JUMPDEST PUSH2 0x912 PUSH2 0x2040 JUMP JUMPDEST PUSH1 0x40 MLOAD PUSH2 0x91F SWAP2 SWAP1 PUSH2 0x34B8 JUMP JUMPDEST PUSH1 0x40 MLOAD DUP1 SWAP2 SUB SWAP1 RETURN JUMPDEST PUSH2 0x942 PUSH1 0x4 DUP1 CALLDATASIZE SUB DUP2 ADD SWAP1 PUSH2 0x93D SWAP2 SWAP1 PUSH2 0x359C JUMP JUMPDEST PUSH2 0x2046 JUMP JUMPDEST PUSH1 0x40 MLOAD PUSH2 0x94F SWAP2 SWAP1 PUSH2 0x34B8 JUMP JUMPDEST PUSH1 0x40 MLOAD DUP1 SWAP2 SUB SWAP1 RETURN JUMPDEST PUSH2 0x972 PUSH1 0x4 DUP1 CALLDATASIZE SUB DUP2 ADD SWAP1 PUSH2 0x96D SWAP2 SWAP1 PUSH2 0x3692 JUMP JUMPDEST PUSH2 0x205D JUMP JUMPDEST PUSH1 0x40 MLOAD PUSH2 0x97F SWAP2 SWAP1 PUSH2 0x34B8 JUMP JUMPDEST PUSH1 0x40 MLOAD DUP1 SWAP2 SUB SWAP1 RETURN JUMPDEST PUSH2 0x990 PUSH2 0x20C1 JUMP JUMPDEST PUSH1 0x40 MLOAD PUSH2 0x99D SWAP2 SWAP1 PUSH2 0x3679 JUMP JUMPDEST PUSH1 0x40 MLOAD DUP1 SWAP2 SUB SWAP1 RETURN JUMPDEST PUSH2 0x9C0 PUSH1 0x4 DUP1 CALLDATASIZE SUB DUP2 ADD SWAP1 PUSH2 0x9BB SWAP2 SWAP1 PUSH2 0x384F JUMP JUMPDEST PUSH2 0x20D3 JUMP JUMPDEST PUSH1 0x40 MLOAD PUSH2 0x9CD SWAP2 SWAP1 PUSH2 0x34B8 JUMP JUMPDEST PUSH1 0x40 MLOAD DUP1 SWAP2 SUB SWAP1 RETURN JUMPDEST PUSH2 0x9DE PUSH2 0x2155 JUMP JUMPDEST PUSH1 0x40 MLOAD PUSH2 0x9EB SWAP2 SWAP1 PUSH2 0x34B8 JUMP JUMPDEST PUSH1 0x40 MLOAD DUP1 SWAP2 SUB SWAP1 RETURN JUMPDEST PUSH2 0x9FC PUSH2 0x215B JUMP JUMPDEST PUSH1 0x40 MLOAD PUSH2 0xA09 SWAP2 SWAP1 PUSH2 0x34B8 JUMP JUMPDEST PUSH1 0x40 MLOAD DUP1 SWAP2 SUB SWAP1 RETURN JUMPDEST PUSH2 0xA1A PUSH2 0x218E JUMP JUMPDEST PUSH1 0x40 MLOAD PUSH2 0xA27 SWAP2 SWAP1 PUSH2 0x34B8 JUMP JUMPDEST PUSH1 0x40 MLOAD DUP1 SWAP2 SUB SWAP1 RETURN JUMPDEST PUSH2 0xA4A PUSH1 0x4 DUP1 CALLDATASIZE SUB DUP2 ADD SWAP1 PUSH2 0xA45 SWAP2 SWAP1 PUSH2 0x359C JUMP JUMPDEST PUSH2 0x2195 JUMP JUMPDEST PUSH1 0x40 MLOAD PUSH2 0xA57 SWAP2 SWAP1 PUSH2 0x34B8 JUMP JUMPDEST PUSH1 0x40 MLOAD DUP1 SWAP2 SUB SWAP1 RETURN JUMPDEST PUSH2 0xA7A PUSH1 0x4 DUP1 CALLDATASIZE SUB DUP2 ADD SWAP1 PUSH2 0xA75 SWAP2 SWAP1 PUSH2 0x3692 JUMP JUMPDEST PUSH2 0x21A7 JUMP JUMPDEST PUSH1 0x40 MLOAD PUSH2 0xA88 SWAP3 SWAP2 SWAP1 PUSH2 0x37A7 JUMP JUMPDEST PUSH1 0x40 MLOAD DUP1 SWAP2 SUB SWAP1 RETURN JUMPDEST PUSH2 0xAAB PUSH1 0x4 DUP1 CALLDATASIZE SUB DUP2 ADD SWAP1 PUSH2 0xAA6 SWAP2 SWAP1 PUSH2 0x3692 JUMP JUMPDEST PUSH2 0x21C7 JUMP JUMPDEST STOP JUMPDEST PUSH2 0xAB5 PUSH2 0x224B JUMP JUMPDEST STOP JUMPDEST PUSH0 PUSH0 PUSH2 0xAC1 PUSH2 0x17B7 JUMP JUMPDEST PUSH20 0xFFFFFFFFFFFFFFFFFFFFFFFFFFFFFFFFFFFFFFFF AND PUSH4 0x70A08231 ADDRESS PUSH1 0x40 MLOAD DUP3 PUSH4 0xFFFFFFFF AND PUSH1 0xE0 SHL DUP2 MSTORE PUSH1 0x4 ADD PUSH2 0xAF9 SWAP2 SWAP1 PUSH2 0x3750 JUMP JUMPDEST PUSH1 0x20 PUSH1 0x40 MLOAD DUP1 DUP4 SUB DUP2 DUP7 GAS STATICCALL ISZERO DUP1 ISZERO PUSH2 0xB14 JUMPI RETURNDATASIZE PUSH0 PUSH0 RETURNDATACOPY RETURNDATASIZE PUSH0 REVERT JUMPDEST POP POP POP POP PUSH1 0x40 MLOAD RETURNDATASIZE PUSH1 0x1F NOT PUSH1 0x1F DUP3 ADD AND DUP3 ADD DUP1 PUSH1 0x40 MSTORE POP DUP2 ADD SWAP1 PUSH2 0xB38 SWAP2 SWAP1 PUSH2 0x38A1 JUMP JUMPDEST SWAP1 POP PUSH0 PUSH2 0xB43 PUSH2 0x1818 JUMP JUMPDEST SWAP1 POP DUP1 DUP3 LT PUSH2 0xB61 JUMPI DUP1 DUP3 PUSH2 0xB58 SWAP2 SWAP1 PUSH2 0x38F9 JUMP JUMPDEST SWAP3 POP POP POP PUSH2 0xB67 JUMP JUMPDEST PUSH0 SWAP3 POP POP POP JUMPDEST SWAP1 JUMP JUMPDEST PUSH1 0x14 SLOAD DUP2 JUMP JUMPDEST PUSH1 0x60 PUSH1 0x4 DUP1 SLOAD PUSH2 0xB7F SWAP1 PUSH2 0x3959 JUMP JUMPDEST DUP1 PUSH1 0x1F ADD PUSH1 0x20 DUP1 SWAP2 DIV MUL PUSH1 0x20 ADD PUSH1 0x40 MLOAD SWAP1 DUP2 ADD PUSH1 0x40 MSTORE DUP1 SWAP3 SWAP2 SWAP1 DUP2 DUP2 MSTORE PUSH1 0x20 ADD DUP3 DUP1 SLOAD PUSH2 0xBAB SWAP1 PUSH2 0x3959 JUMP JUMPDEST DUP1 ISZERO PUSH2 0xBF6 JUMPI DUP1 PUSH1 0x1F LT PUSH2 0xBCD JUMPI PUSH2 0x100 DUP1 DUP4 SLOAD DIV MUL DUP4 MSTORE SWAP2 PUSH1 0x20 ADD SWAP2 PUSH2 0xBF6 JUMP JUMPDEST DUP3 ADD SWAP2 SWAP1 PUSH0 MSTORE PUSH1 0x20 PUSH0 KECCAK256 SWAP1 JUMPDEST DUP2 SLOAD DUP2 MSTORE SWAP1 PUSH1 0x1 ADD SWAP1 PUSH1 0x20 ADD DUP1 DUP4 GT PUSH2 0xBD9 JUMPI DUP3 SWAP1 SUB PUSH1 0x1F AND DUP3 ADD SWAP2 JUMPDEST POP POP POP POP POP SWAP1 POP SWAP1 JUMP JUMPDEST PUSH0 PUSH2 0xC0B DUP3 PUSH0 PUSH2 0x228B JUMP JUMPDEST SWAP1 POP SWAP2 SWAP1 POP JUMP JUMPDEST PUSH0 PUSH0 PUSH2 0xC1C PUSH2 0x22E3 JUMP JUMPDEST SWAP1 POP PUSH2 0xC29 DUP2 DUP6 DUP6 PUSH2 0x22EA JUMP JUMPDEST PUSH1 0x1 SWAP2 POP POP SWAP3 SWAP2 POP POP JUMP JUMPDEST PUSH0 PUSH2 0xC40 DUP3 PUSH1 0x1 PUSH2 0x22FC JUMP JUMPDEST SWAP1 POP SWAP2 SWAP1 POP JUMP JUMPDEST PUSH2 0xC4F PUSH2 0x2354 JUMP JUMPDEST PUSH2 0xC62 PUSH2 0xC5A PUSH2 0x17B7 JUMP JUMPDEST CALLER ADDRESS DUP5 PUSH2 0x23DB JUMP JUMPDEST PUSH0 PUSH2 0xC6C DUP3 PUSH2 0x17A0 JUMP JUMPDEST SWAP1 POP DUP1 PUSH1 0xA PUSH0 DUP3 DUP3 SLOAD PUSH2 0xC7F SWAP2 SWAP1 PUSH2 0x3989 JUMP JUMPDEST SWAP3 POP POP DUP2 SWAP1 SSTORE POP PUSH32 0xF6B55BAB6D7E270C7D22C26E35D0AAC12C5C55EC34526CF4E7FFF7015BBDF562 DUP3 PUSH1 0x40 MLOAD PUSH2 0xCB5 SWAP2 SWAP1 PUSH2 0x34B8 JUMP JUMPDEST PUSH1 0x40 MLOAD DUP1 SWAP2 SUB SWAP1 LOG1 PUSH32 0x49B15D0536554A8FBC082A1FAB1F1F7FE05E6F13F44B3C05DAC82F103257D6C8 TIMESTAMP PUSH2 0xCE7 PUSH2 0xAB7 JUMP JUMPDEST PUSH2 0xCEF PUSH2 0xD0A JUMP JUMPDEST PUSH1 0x40 MLOAD PUSH2 0xCFE SWAP4 SWAP3 SWAP2 SWAP1 PUSH2 0x39BC JUMP JUMPDEST PUSH1 0x40 MLOAD DUP1 SWAP2 SUB SWAP1 LOG1 POP POP JUMP JUMPDEST PUSH0 PUSH1 0x3 SLOAD SWAP1 POP SWAP1 JUMP JUMPDEST PUSH0 PUSH2 0xD1C PUSH2 0x224B JUMP JUMPDEST PUSH2 0xD25 DUP3 PUSH2 0x198B JUMP JUMPDEST SWAP1 POP TIMESTAMP PUSH1 0xF PUSH0 DUP5 PUSH20 0xFFFFFFFFFFFFFFFFFFFFFFFFFFFFFFFFFFFFFFFF AND PUSH20 0xFFFFFFFFFFFFFFFFFFFFFFFFFFFFFFFFFFFFFFFF AND DUP2 MSTORE PUSH1 0x20 ADD SWAP1 DUP2 MSTORE PUSH1 0x20 ADD PUSH0 KECCAK256 PUSH1 0x1 ADD DUP2 SWAP1 SSTORE POP DUP1 PUSH1 0xB PUSH0 DUP3 DUP3 SLOAD PUSH2 0xD7D SWAP2 SWAP1 PUSH2 0x3989 JUMP JUMPDEST SWAP3 POP POP DUP2 SWAP1 SSTORE POP PUSH2 0xD96 PUSH2 0xD8F PUSH2 0x17B7 JUMP JUMPDEST DUP4 DUP4 PUSH2 0x245D JUMP JUMPDEST DUP2 PUSH20 0xFFFFFFFFFFFFFFFFFFFFFFFFFFFFFFFFFFFFFFFF AND PUSH32 0xBB838A6261EE73AA6C6E5FFE262E016E3032E03406B6F3233D523874A2D1BFD5 DUP3 PUSH1 0x40 MLOAD PUSH2 0xDDC SWAP2 SWAP1 PUSH2 0x34B8 JUMP JUMPDEST PUSH1 0x40 MLOAD DUP1 SWAP2 SUB SWAP1 LOG2 PUSH32 0x49B15D0536554A8FBC082A1FAB1F1F7FE05E6F13F44B3C05DAC82F103257D6C8 TIMESTAMP PUSH2 0xE0E PUSH2 0xAB7 JUMP JUMPDEST PUSH2 0xE16 PUSH2 0xD0A JUMP JUMPDEST PUSH1 0x40 MLOAD PUSH2 0xE25 SWAP4 SWAP3 SWAP2 SWAP1 PUSH2 0x39BC JUMP JUMPDEST PUSH1 0x40 MLOAD DUP1 SWAP2 SUB SWAP1 LOG1 SWAP2 SWAP1 POP JUMP JUMPDEST PUSH1 0x13 SLOAD DUP2 JUMP JUMPDEST PUSH2 0xE40 PUSH2 0x2354 JUMP JUMPDEST PUSH0 PUSH1 0x10 PUSH0 DUP5 PUSH20 0xFFFFFFFFFFFFFFFFFFFFFFFFFFFFFFFFFFFFFFFF AND PUSH20 0xFFFFFFFFFFFFFFFFFFFFFFFFFFFFFFFFFFFFFFFF AND DUP2 MSTORE PUSH1 0x20 ADD SWAP1 DUP2 MSTORE PUSH1 0x20 ADD PUSH0 KECCAK256 PUSH1 0x1 ADD SLOAD EQ PUSH2 0xEC2 JUMPI PUSH1 0x40 MLOAD PUSH32 0x8C379A000000000000000000000000000000000000000000000000000000000 DUP2 MSTORE PUSH1 0x4 ADD PUSH2 0xEB9 SWAP1 PUSH2 0x3A3B JUMP JUMPDEST PUSH1 0x40 MLOAD DUP1 SWAP2 SUB SWAP1 REVERT JUMPDEST PUSH0 PUSH2 0xECC DUP3 PUSH2 0x17A0 JUMP JUMPDEST SWAP1 POP PUSH1 0xF PUSH0 DUP5 PUSH20 0xFFFFFFFFFFFFFFFFFFFFFFFFFFFFFFFFFFFFFFFF AND PUSH20 0xFFFFFFFFFFFFFFFFFFFFFFFFFFFFFFFFFFFFFFFF AND DUP2 MSTORE PUSH1 0x20 ADD SWAP1 DUP2 MSTORE PUSH1 0x20 ADD PUSH0 KECCAK256 PUSH0 ADD SLOAD DUP2 SUB PUSH2 0xF4F JUMPI PUSH1 0x40 MLOAD PUSH32 0x8C379A000000000000000000000000000000000000000000000000000000000 DUP2 MSTORE PUSH1 0x4 ADD PUSH2 0xF46 SWAP1 PUSH2 0x3AA3 JUMP JUMPDEST PUSH1 0x40 MLOAD DUP1 SWAP2 SUB SWAP1 REVERT JUMPDEST PUSH32 0x7FFFFFFFFFFFFFFFFFFFFFFFFFFFFFFFFFFFFFFFFFFFFFFFFFFFFFFFFFFFFFFF DUP2 GT ISZERO PUSH2 0xFB2 JUMPI PUSH1 0x40 MLOAD PUSH32 0x8C379A000000000000000000000000000000000000000000000000000000000 DUP2 MSTORE PUSH1 0x4 ADD PUSH2 0xFA9 SWAP1 PUSH2 0x3B0B JUMP JUMPDEST PUSH1 0x40 MLOAD DUP1 SWAP2 SUB SWAP1 REVERT JUMPDEST PUSH1 0xF PUSH0 DUP5 PUSH20 0xFFFFFFFFFFFFFFFFFFFFFFFFFFFFFFFFFFFFFFFF AND PUSH20 0xFFFFFFFFFFFFFFFFFFFFFFFFFFFFFFFFFFFFFFFF AND DUP2 MSTORE PUSH1 0x20 ADD SWAP1 DUP2 MSTORE PUSH1 0x20 ADD PUSH0 KECCAK256 PUSH0 ADD SLOAD DUP2 PUSH1 0x9 SLOAD PUSH2 0x1000 SWAP2 SWAP1 PUSH2 0x3B29 JUMP JUMPDEST PUSH2 0x100A SWAP2 SWAP1 PUSH2 0x3B6A JUMP JUMPDEST PUSH1 0x9 DUP2 SWAP1 SSTORE POP PUSH2 0x1018 PUSH2 0x24DC JUMP JUMPDEST PUSH1 0xE SLOAD TIMESTAMP PUSH2 0x1026 SWAP2 SWAP1 PUSH2 0x3989 JUMP JUMPDEST PUSH1 0x10 PUSH0 DUP6 PUSH20 0xFFFFFFFFFFFFFFFFFFFFFFFFFFFFFFFFFFFFFFFF AND PUSH20 0xFFFFFFFFFFFFFFFFFFFFFFFFFFFFFFFFFFFFFFFF AND DUP2 MSTORE PUSH1 0x20 ADD SWAP1 DUP2 MSTORE PUSH1 0x20 ADD PUSH0 KECCAK256 PUSH1 0x1 ADD DUP2 SWAP1 SSTORE POP DUP1 PUSH1 0x10 PUSH0 DUP6 PUSH20 0xFFFFFFFFFFFFFFFFFFFFFFFFFFFFFFFFFFFFFFFF AND PUSH20 0xFFFFFFFFFFFFFFFFFFFFFFFFFFFFFFFFFFFFFFFF AND DUP2 MSTORE PUSH1 0x20 ADD SWAP1 DUP2 MSTORE PUSH1 0x20 ADD PUSH0 KECCAK256 PUSH0 ADD DUP2 SWAP1 SSTORE POP DUP3 PUSH20 0xFFFFFFFFFFFFFFFFFFFFFFFFFFFFFFFFFFFFFFFF AND PUSH32 0x64144AE9D460C32CC32E8F5DC77D40FBAE4600C5575BCB07D755D2A2A4046D7F PUSH1 0x10 PUSH0 DUP7 PUSH20 0xFFFFFFFFFFFFFFFFFFFFFFFFFFFFFFFFFFFFFFFF AND PUSH20 0xFFFFFFFFFFFFFFFFFFFFFFFFFFFFFFFFFFFFFFFF AND DUP2 MSTORE PUSH1 0x20 ADD SWAP1 DUP2 MSTORE PUSH1 0x20 ADD PUSH0 KECCAK256 PUSH1 0x1 ADD SLOAD PUSH2 0x116F PUSH1 0xF PUSH0 DUP9 PUSH20 0xFFFFFFFFFFFFFFFFFFFFFFFFFFFFFFFFFFFFFFFF AND PUSH20 0xFFFFFFFFFFFFFFFFFFFFFFFFFFFFFFFFFFFFFFFF AND DUP2 MSTORE PUSH1 0x20 ADD SWAP1 DUP2 MSTORE PUSH1 0x20 ADD PUSH0 KECCAK256 PUSH0 ADD SLOAD PUSH2 0x2046 JUMP JUMPDEST DUP6 PUSH1 0x40 MLOAD PUSH2 0x117F SWAP4 SWAP3 SWAP2 SWAP1 PUSH2 0x39BC JUMP JUMPDEST PUSH1 0x40 MLOAD DUP1 SWAP2 SUB SWAP1 LOG2 POP POP POP JUMP JUMPDEST PUSH0 PUSH0 PUSH2 0x1196 PUSH2 0x22E3 JUMP JUMPDEST SWAP1 POP PUSH2 0x11A3 DUP6 DUP3 DUP6 PUSH2 0x2558 JUMP JUMPDEST PUSH2 0x11AE DUP6 DUP6 DUP6 PUSH2 0x25EA JUMP JUMPDEST PUSH1 0x1 SWAP2 POP POP SWAP4 SWAP3 POP POP POP JUMP JUMPDEST PUSH0 PUSH2 0x11C3 PUSH2 0x26DA JUMP JUMPDEST PUSH32 0x0 PUSH2 0x11EE SWAP2 SWAP1 PUSH2 0x3BAA JUMP JUMPDEST SWAP1 POP SWAP1 JUMP JUMPDEST PUSH0 PUSH1 0x10 PUSH0 DUP4 PUSH20 0xFFFFFFFFFFFFFFFFFFFFFFFFFFFFFFFFFFFFFFFF AND PUSH20 0xFFFFFFFFFFFFFFFFFFFFFFFFFFFFFFFFFFFFFFFF AND DUP2 MSTORE PUSH1 0x20 ADD SWAP1 DUP2 MSTORE PUSH1 0x20 ADD PUSH0 KECCAK256 PUSH1 0x1 ADD SLOAD SUB PUSH2 0x1275 JUMPI PUSH1 0x40 MLOAD PUSH32 0x8C379A000000000000000000000000000000000000000000000000000000000 DUP2 MSTORE PUSH1 0x4 ADD PUSH2 0x126C SWAP1 PUSH2 0x3C28 JUMP JUMPDEST PUSH1 0x40 MLOAD DUP1 SWAP2 SUB SWAP1 REVERT JUMPDEST TIMESTAMP PUSH1 0x10 PUSH0 DUP4 PUSH20 0xFFFFFFFFFFFFFFFFFFFFFFFFFFFFFFFFFFFFFFFF AND PUSH20 0xFFFFFFFFFFFFFFFFFFFFFFFFFFFFFFFFFFFFFFFF AND DUP2 MSTORE PUSH1 0x20 ADD SWAP1 DUP2 MSTORE PUSH1 0x20 ADD PUSH0 KECCAK256 PUSH1 0x1 ADD SLOAD GT ISZERO PUSH2 0x12F8 JUMPI PUSH1 0x40 MLOAD PUSH32 0x8C379A000000000000000000000000000000000000000000000000000000000 DUP2 MSTORE PUSH1 0x4 ADD PUSH2 0x12EF SWAP1 PUSH2 0x3C90 JUMP JUMPDEST PUSH1 0x40 MLOAD DUP1 SWAP2 SUB SWAP1 REVERT JUMPDEST PUSH2 0x1301 DUP2 PUSH2 0xD13 JUMP JUMPDEST POP PUSH0 PUSH1 0xF PUSH0 DUP4 PUSH20 0xFFFFFFFFFFFFFFFFFFFFFFFFFFFFFFFFFFFFFFFF AND PUSH20 0xFFFFFFFFFFFFFFFFFFFFFFFFFFFFFFFFFFFFFFFF AND DUP2 MSTORE PUSH1 0x20 ADD SWAP1 DUP2 MSTORE PUSH1 0x20 ADD PUSH0 KECCAK256 PUSH0 ADD SLOAD SUB PUSH2 0x13D0 JUMPI PUSH1 0x6 PUSH0 SWAP1 SLOAD SWAP1 PUSH2 0x100 EXP SWAP1 DIV PUSH20 0xFFFFFFFFFFFFFFFFFFFFFFFFFFFFFFFFFFFFFFFF AND PUSH20 0xFFFFFFFFFFFFFFFFFFFFFFFFFFFFFFFFFFFFFFFF AND PUSH4 0x8CECFB0F DUP3 PUSH1 0x40 MLOAD DUP3 PUSH4 0xFFFFFFFF AND PUSH1 0xE0 SHL DUP2 MSTORE PUSH1 0x4 ADD PUSH2 0x13A2 SWAP2 SWAP1 PUSH2 0x3750 JUMP JUMPDEST PUSH0 PUSH1 0x40 MLOAD DUP1 DUP4 SUB DUP2 PUSH0 DUP8 DUP1 EXTCODESIZE ISZERO DUP1 ISZERO PUSH2 0x13B9 JUMPI PUSH0 PUSH0 REVERT JUMPDEST POP GAS CALL ISZERO DUP1 ISZERO PUSH2 0x13CB JUMPI RETURNDATASIZE PUSH0 PUSH0 RETURNDATACOPY RETURNDATASIZE PUSH0 REVERT JUMPDEST POP POP POP POP JUMPDEST PUSH0 PUSH1 0x10 PUSH0 DUP4 PUSH20 0xFFFFFFFFFFFFFFFFFFFFFFFFFFFFFFFFFFFFFFFF AND PUSH20 0xFFFFFFFFFFFFFFFFFFFFFFFFFFFFFFFFFFFFFFFF AND DUP2 MSTORE PUSH1 0x20 ADD SWAP1 DUP2 MSTORE PUSH1 0x20 ADD PUSH0 KECCAK256 PUSH0 ADD SLOAD SUB PUSH2 0x149E JUMPI PUSH1 0x6 PUSH0 SWAP1 SLOAD SWAP1 PUSH2 0x100 EXP SWAP1 DIV PUSH20 0xFFFFFFFFFFFFFFFFFFFFFFFFFFFFFFFFFFFFFFFF AND PUSH20 0xFFFFFFFFFFFFFFFFFFFFFFFFFFFFFFFFFFFFFFFF AND PUSH4 0x5D11E38D DUP3 PUSH1 0x40 MLOAD DUP3 PUSH4 0xFFFFFFFF AND PUSH1 0xE0 SHL DUP2 MSTORE PUSH1 0x4 ADD PUSH2 0x1470 SWAP2 SWAP1 PUSH2 0x3750 JUMP JUMPDEST PUSH0 PUSH1 0x40 MLOAD DUP1 DUP4 SUB DUP2 PUSH0 DUP8 DUP1 EXTCODESIZE ISZERO DUP1 ISZERO PUSH2 0x1487 JUMPI PUSH0 PUSH0 REVERT JUMPDEST POP GAS CALL ISZERO DUP1 ISZERO PUSH2 0x1499 JUMPI RETURNDATASIZE PUSH0 PUSH0 RETURNDATACOPY RETURNDATASIZE PUSH0 REVERT JUMPDEST POP POP POP POP JUMPDEST PUSH1 0x10 PUSH0 DUP3 PUSH20 0xFFFFFFFFFFFFFFFFFFFFFFFFFFFFFFFFFFFFFFFF AND PUSH20 0xFFFFFFFFFFFFFFFFFFFFFFFFFFFFFFFFFFFFFFFF AND DUP2 MSTORE PUSH1 0x20 ADD SWAP1 DUP2 MSTORE PUSH1 0x20 ADD PUSH0 KECCAK256 PUSH0 ADD SLOAD PUSH1 0xF PUSH0 DUP4 PUSH20 0xFFFFFFFFFFFFFFFFFFFFFFFFFFFFFFFFFFFFFFFF AND PUSH20 0xFFFFFFFFFFFFFFFFFFFFFFFFFFFFFFFFFFFFFFFF AND DUP2 MSTORE PUSH1 0x20 ADD SWAP1 DUP2 MSTORE PUSH1 0x20 ADD PUSH0 KECCAK256 PUSH0 ADD SLOAD PUSH1 0x8 SLOAD PUSH2 0x152B SWAP2 SWAP1 PUSH2 0x38F9 JUMP JUMPDEST PUSH2 0x1535 SWAP2 SWAP1 PUSH2 0x3989 JUMP JUMPDEST PUSH1 0x8 DUP2 SWAP1 SSTORE POP PUSH1 0xF PUSH0 DUP3 PUSH20 0xFFFFFFFFFFFFFFFFFFFFFFFFFFFFFFFFFFFFFFFF AND PUSH20 0xFFFFFFFFFFFFFFFFFFFFFFFFFFFFFFFFFFFFFFFF AND DUP2 MSTORE PUSH1 0x20 ADD SWAP1 DUP2 MSTORE PUSH1 0x20 ADD PUSH0 KECCAK256 PUSH0 ADD SLOAD PUSH1 0x10 PUSH0 DUP4 PUSH20 0xFFFFFFFFFFFFFFFFFFFFFFFFFFFFFFFFFFFFFFFF AND PUSH20 0xFFFFFFFFFFFFFFFFFFFFFFFFFFFFFFFFFFFFFFFF AND DUP2 MSTORE PUSH1 0x20 ADD SWAP1 DUP2 MSTORE PUSH1 0x20 ADD PUSH0 KECCAK256 PUSH0 ADD SLOAD PUSH1 0x9 SLOAD PUSH2 0x15C8 SWAP2 SWAP1 PUSH2 0x3B29 JUMP JUMPDEST PUSH2 0x15D2 SWAP2 SWAP1 PUSH2 0x3B6A JUMP JUMPDEST PUSH1 0x9 DUP2 SWAP1 SSTORE POP PUSH1 0x10 PUSH0 DUP3 PUSH20 0xFFFFFFFFFFFFFFFFFFFFFFFFFFFFFFFFFFFFFFFF AND PUSH20 0xFFFFFFFFFFFFFFFFFFFFFFFFFFFFFFFFFFFFFFFF AND DUP2 MSTORE PUSH1 0x20 ADD SWAP1 DUP2 MSTORE PUSH1 0x20 ADD PUSH0 KECCAK256 PUSH0 ADD SLOAD PUSH1 0xF PUSH0 DUP4 PUSH20 0xFFFFFFFFFFFFFFFFFFFFFFFFFFFFFFFFFFFFFFFF AND PUSH20 0xFFFFFFFFFFFFFFFFFFFFFFFFFFFFFFFFFFFFFFFF AND DUP2 MSTORE PUSH1 0x20 ADD SWAP1 DUP2 MSTORE PUSH1 0x20 ADD PUSH0 KECCAK256 PUSH0 ADD DUP2 SWAP1 SSTORE POP PUSH1 0x10 PUSH0 DUP3 PUSH20 0xFFFFFFFFFFFFFFFFFFFFFFFFFFFFFFFFFFFFFFFF AND PUSH20 0xFFFFFFFFFFFFFFFFFFFFFFFFFFFFFFFFFFFFFFFF AND DUP2 MSTORE PUSH1 0x20 ADD SWAP1 DUP2 MSTORE PUSH1 0x20 ADD PUSH0 KECCAK256 PUSH0 PUSH0 DUP3 ADD PUSH0 SWAP1 SSTORE PUSH1 0x1 DUP3 ADD PUSH0 SWAP1 SSTORE POP POP DUP1 PUSH20 0xFFFFFFFFFFFFFFFFFFFFFFFFFFFFFFFFFFFFFFFF AND PUSH32 0xB99BC8A6DB70C04F8499DEC757F26846533F241DFF2DE3C90755757FA165C576 PUSH2 0x1728 PUSH1 0xF PUSH0 DUP6 PUSH20 0xFFFFFFFFFFFFFFFFFFFFFFFFFFFFFFFFFFFFFFFF AND PUSH20 0xFFFFFFFFFFFFFFFFFFFFFFFFFFFFFFFFFFFFFFFF AND DUP2 MSTORE PUSH1 0x20 ADD SWAP1 DUP2 MSTORE PUSH1 0x20 ADD PUSH0 KECCAK256 PUSH0 ADD SLOAD PUSH2 0x2046 JUMP JUMPDEST TIMESTAMP PUSH2 0x1731 PUSH2 0x215B JUMP JUMPDEST PUSH2 0x173C PUSH1 0x8 SLOAD PUSH2 0x2046 JUMP JUMPDEST PUSH1 0x40 MLOAD PUSH2 0x174C SWAP5 SWAP4 SWAP3 SWAP2 SWAP1 PUSH2 0x3CAE JUMP JUMPDEST PUSH1 0x40 MLOAD DUP1 SWAP2 SUB SWAP1 LOG2 PUSH32 0x49B15D0536554A8FBC082A1FAB1F1F7FE05E6F13F44B3C05DAC82F103257D6C8 TIMESTAMP PUSH2 0x177E PUSH2 0xAB7 JUMP JUMPDEST PUSH2 0x1786 PUSH2 0xD0A JUMP JUMPDEST PUSH1 0x40 MLOAD PUSH2 0x1795 SWAP4 SWAP3 SWAP2 SWAP1 PUSH2 0x39BC JUMP JUMPDEST PUSH1 0x40 MLOAD DUP1 SWAP2 SUB SWAP1 LOG1 POP JUMP JUMPDEST PUSH0 PUSH2 0x17B0 DUP3 PUSH1 0x1 PUSH3 0x278D00 PUSH2 0x26E2 JUMP JUMPDEST SWAP1 POP SWAP2 SWAP1 POP JUMP JUMPDEST PUSH0 PUSH32 0x0 SWAP1 POP SWAP1 JUMP JUMPDEST PUSH1 0x8 SLOAD DUP2 JUMP JUMPDEST PUSH0 PUSH2 0x1811 PUSH2 0x17F0 PUSH2 0xD0A JUMP JUMPDEST PUSH2 0x1801 PUSH1 0x13 SLOAD PUSH1 0x14 SLOAD PUSH2 0x2710 PUSH2 0x26E2 JUMP JUMPDEST PUSH2 0x180B SWAP2 SWAP1 PUSH2 0x38F9 JUMP JUMPDEST PUSH0 PUSH2 0x228B JUMP JUMPDEST SWAP1 POP SWAP2 SWAP1 POP JUMP JUMPDEST PUSH0 PUSH1 0xB SLOAD PUSH2 0x1824 PUSH2 0x215B JUMP JUMPDEST PUSH2 0x182E SWAP2 SWAP1 PUSH2 0x38F9 JUMP JUMPDEST SWAP1 POP SWAP1 JUMP JUMPDEST PUSH0 PUSH2 0x183E DUP3 PUSH0 PUSH2 0x228B JUMP JUMPDEST SWAP1 POP SWAP2 SWAP1 POP JUMP JUMPDEST PUSH0 PUSH2 0x184E PUSH2 0x1AC9 JUMP JUMPDEST PUSH2 0x1858 DUP4 DUP4 PUSH2 0x27C7 JUMP JUMPDEST SWAP1 POP SWAP3 SWAP2 POP POP JUMP JUMPDEST PUSH0 PUSH1 0x1 PUSH0 DUP4 PUSH20 0xFFFFFFFFFFFFFFFFFFFFFFFFFFFFFFFFFFFFFFFF AND PUSH20 0xFFFFFFFFFFFFFFFFFFFFFFFFFFFFFFFFFFFFFFFF AND DUP2 MSTORE PUSH1 0x20 ADD SWAP1 DUP2 MSTORE PUSH1 0x20 ADD PUSH0 KECCAK256 SLOAD SWAP1 POP SWAP2 SWAP1 POP JUMP JUMPDEST PUSH2 0x18AE PUSH2 0x2354 JUMP JUMPDEST PUSH2 0x18B7 PUSH0 PUSH2 0x2847 JUMP JUMPDEST JUMP JUMPDEST PUSH0 PUSH0 PUSH0 SWAP1 SLOAD SWAP1 PUSH2 0x100 EXP SWAP1 DIV PUSH20 0xFFFFFFFFFFFFFFFFFFFFFFFFFFFFFFFFFFFFFFFF AND SWAP1 POP SWAP1 JUMP JUMPDEST PUSH0 PUSH2 0x18E9 PUSH2 0x1AC9 JUMP JUMPDEST PUSH2 0x18F3 DUP4 DUP4 PUSH2 0x2908 JUMP JUMPDEST SWAP1 POP SWAP3 SWAP2 POP POP JUMP JUMPDEST PUSH1 0x60 PUSH1 0x5 DUP1 SLOAD PUSH2 0x190A SWAP1 PUSH2 0x3959 JUMP JUMPDEST DUP1 PUSH1 0x1F ADD PUSH1 0x20 DUP1 SWAP2 DIV MUL PUSH1 0x20 ADD PUSH1 0x40 MLOAD SWAP1 DUP2 ADD PUSH1 0x40 MSTORE DUP1 SWAP3 SWAP2 SWAP1 DUP2 DUP2 MSTORE PUSH1 0x20 ADD DUP3 DUP1 SLOAD PUSH2 0x1936 SWAP1 PUSH2 0x3959 JUMP JUMPDEST DUP1 ISZERO PUSH2 0x1981 JUMPI DUP1 PUSH1 0x1F LT PUSH2 0x1958 JUMPI PUSH2 0x100 DUP1 DUP4 SLOAD DIV MUL DUP4 MSTORE SWAP2 PUSH1 0x20 ADD SWAP2 PUSH2 0x1981 JUMP JUMPDEST DUP3 ADD SWAP2 SWAP1 PUSH0 MSTORE PUSH1 0x20 PUSH0 KECCAK256 SWAP1 JUMPDEST DUP2 SLOAD DUP2 MSTORE SWAP1 PUSH1 0x1 ADD SWAP1 PUSH1 0x20 ADD DUP1 DUP4 GT PUSH2 0x1964 JUMPI DUP3 SWAP1 SUB PUSH1 0x1F AND DUP3 ADD SWAP2 JUMPDEST POP POP POP POP POP SWAP1 POP SWAP1 JUMP JUMPDEST PUSH0 PUSH0 PUSH1 0xF PUSH0 DUP5 PUSH20 0xFFFFFFFFFFFFFFFFFFFFFFFFFFFFFFFFFFFFFFFF AND PUSH20 0xFFFFFFFFFFFFFFFFFFFFFFFFFFFFFFFFFFFFFFFF AND DUP2 MSTORE PUSH1 0x20 ADD SWAP1 DUP2 MSTORE PUSH1 0x20 ADD PUSH0 KECCAK256 PUSH1 0x1 ADD SLOAD TIMESTAMP PUSH2 0x19D9 SWAP2 SWAP1 PUSH2 0x38F9 JUMP JUMPDEST SWAP1 POP PUSH2 0x1A26 PUSH1 0xF PUSH0 DUP6 PUSH20 0xFFFFFFFFFFFFFFFFFFFFFFFFFFFFFFFFFFFFFFFF AND PUSH20 0xFFFFFFFFFFFFFFFFFFFFFFFFFFFFFFFFFFFFFFFF AND DUP2 MSTORE PUSH1 0x20 ADD SWAP1 DUP2 MSTORE PUSH1 0x20 ADD PUSH0 KECCAK256 PUSH0 ADD SLOAD DUP3 PUSH1 0x1 PUSH2 0x26E2 JUMP JUMPDEST SWAP2 POP POP SWAP2 SWAP1 POP JUMP JUMPDEST PUSH0 PUSH0 PUSH2 0x1A38 PUSH2 0x22E3 JUMP JUMPDEST SWAP1 POP PUSH2 0x1A45 DUP2 DUP6 DUP6 PUSH2 0x25EA JUMP JUMPDEST PUSH1 0x1 SWAP2 POP POP SWAP3 SWAP2 POP POP JUMP JUMPDEST PUSH1 0xE SLOAD DUP2 JUMP JUMPDEST PUSH1 0x10 PUSH1 0x20 MSTORE DUP1 PUSH0 MSTORE PUSH1 0x40 PUSH0 KECCAK256 PUSH0 SWAP2 POP SWAP1 POP DUP1 PUSH0 ADD SLOAD SWAP1 DUP1 PUSH1 0x1 ADD SLOAD SWAP1 POP DUP3 JUMP JUMPDEST PUSH0 PUSH2 0x1A82 DUP3 PUSH1 0x1 PUSH2 0x228B JUMP JUMPDEST SWAP1 POP SWAP2 SWAP1 POP JUMP JUMPDEST PUSH0 PUSH2 0x1A92 PUSH2 0x1AC9 JUMP JUMPDEST PUSH2 0x1A9D DUP5 DUP5 DUP5 PUSH2 0x2988 JUMP JUMPDEST SWAP1 POP SWAP4 SWAP3 POP POP POP JUMP JUMPDEST PUSH0 PUSH2 0x1AAF PUSH2 0x1AC9 JUMP JUMPDEST PUSH2 0x1ABA DUP5 DUP5 DUP5 PUSH2 0x2A0A JUMP JUMPDEST SWAP1 POP SWAP4 SWAP3 POP POP POP JUMP JUMPDEST PUSH1 0x9 SLOAD DUP2 JUMP JUMPDEST PUSH0 PUSH0 PUSH1 0x7 PUSH0 SWAP1 SLOAD SWAP1 PUSH2 0x100 EXP SWAP1 DIV PUSH20 0xFFFFFFFFFFFFFFFFFFFFFFFFFFFFFFFFFFFFFFFF AND PUSH20 0xFFFFFFFFFFFFFFFFFFFFFFFFFFFFFFFFFFFFFFFF AND ADDRESS PUSH1 0x40 MLOAD PUSH1 0x24 ADD PUSH2 0x1B14 SWAP2 SWAP1 PUSH2 0x3750 JUMP JUMPDEST PUSH1 0x40 MLOAD PUSH1 0x20 DUP2 DUP4 SUB SUB DUP2 MSTORE SWAP1 PUSH1 0x40 MSTORE PUSH32 0x1E83409A00000000000000000000000000000000000000000000000000000000 PUSH28 0xFFFFFFFFFFFFFFFFFFFFFFFFFFFFFFFFFFFFFFFFFFFFFFFFFFFFFFFF NOT AND PUSH1 0x20 DUP3 ADD DUP1 MLOAD PUSH28 0xFFFFFFFFFFFFFFFFFFFFFFFFFFFFFFFFFFFFFFFFFFFFFFFFFFFFFFFF DUP4 DUP2 DUP4 AND OR DUP4 MSTORE POP POP POP POP PUSH1 0x40 MLOAD PUSH2 0x1B9E SWAP2 SWAP1 PUSH2 0x3D35 JUMP JUMPDEST PUSH0 PUSH1 0x40 MLOAD DUP1 DUP4 SUB DUP2 PUSH0 DUP7 GAS CALL SWAP2 POP POP RETURNDATASIZE DUP1 PUSH0 DUP2 EQ PUSH2 0x1BD7 JUMPI PUSH1 0x40 MLOAD SWAP2 POP PUSH1 0x1F NOT PUSH1 0x3F RETURNDATASIZE ADD AND DUP3 ADD PUSH1 0x40 MSTORE RETURNDATASIZE DUP3 MSTORE RETURNDATASIZE PUSH0 PUSH1 0x20 DUP5 ADD RETURNDATACOPY PUSH2 0x1BDC JUMP JUMPDEST PUSH1 0x60 SWAP2 POP JUMPDEST POP SWAP2 POP SWAP2 POP DUP2 ISZERO PUSH2 0x1C5A JUMPI PUSH0 DUP2 DUP1 PUSH1 0x20 ADD SWAP1 MLOAD DUP2 ADD SWAP1 PUSH2 0x1BFC SWAP2 SWAP1 PUSH2 0x38A1 JUMP JUMPDEST SWAP1 POP PUSH32 0xE80D36773458CE7A03850714245B45FA8535FDA364366BF7552E38EC63FBF997 PUSH1 0x7 PUSH0 SWAP1 SLOAD SWAP1 PUSH2 0x100 EXP SWAP1 DIV PUSH20 0xFFFFFFFFFFFFFFFFFFFFFFFFFFFFFFFFFFFFFFFF AND DUP3 PUSH1 0x40 MLOAD PUSH2 0x1C50 SWAP3 SWAP2 SWAP1 PUSH2 0x3D4B JUMP JUMPDEST PUSH1 0x40 MLOAD DUP1 SWAP2 SUB SWAP1 LOG1 POP JUMPDEST PUSH32 0x49B15D0536554A8FBC082A1FAB1F1F7FE05E6F13F44B3C05DAC82F103257D6C8 TIMESTAMP PUSH2 0x1C84 PUSH2 0xAB7 JUMP JUMPDEST PUSH2 0x1C8C PUSH2 0xD0A JUMP JUMPDEST PUSH1 0x40 MLOAD PUSH2 0x1C9B SWAP4 SWAP3 SWAP2 SWAP1 PUSH2 0x39BC JUMP JUMPDEST PUSH1 0x40 MLOAD DUP1 SWAP2 SUB SWAP1 LOG1 POP POP JUMP JUMPDEST PUSH2 0x1CAF PUSH2 0x2354 JUMP JUMPDEST PUSH1 0x1 PUSH1 0x11 PUSH0 PUSH2 0x100 EXP DUP2 SLOAD DUP2 PUSH1 0xFF MUL NOT AND SWAP1 DUP4 ISZERO ISZERO MUL OR SWAP1 SSTORE POP PUSH32 0x6A5AFB95497BFD913CED90018D9CE3AADEFA8842C2969B3DA15AC9775E3FBCEB TIMESTAMP PUSH1 0x40 MLOAD PUSH2 0x1CF8 SWAP2 SWAP1 PUSH2 0x34B8 JUMP JUMPDEST PUSH1 0x40 MLOAD DUP1 SWAP2 SUB SWAP1 LOG1 JUMP JUMPDEST PUSH1 0xA SLOAD DUP2 JUMP JUMPDEST PUSH0 PUSH2 0x1D11 PUSH2 0xD0A JUMP JUMPDEST PUSH2 0x1D22 PUSH1 0x13 SLOAD PUSH1 0x14 SLOAD PUSH2 0x2710 PUSH2 0x26E2 JUMP JUMPDEST PUSH2 0x1D2C SWAP2 SWAP1 PUSH2 0x38F9 JUMP JUMPDEST SWAP1 POP SWAP2 SWAP1 POP JUMP JUMPDEST PUSH0 PUSH2 0x1D3E DUP3 PUSH0 PUSH2 0x22FC JUMP JUMPDEST SWAP1 POP SWAP2 SWAP1 POP JUMP JUMPDEST PUSH0 PUSH1 0x6 PUSH0 SWAP1 SLOAD SWAP1 PUSH2 0x100 EXP SWAP1 DIV PUSH20 0xFFFFFFFFFFFFFFFFFFFFFFFFFFFFFFFFFFFFFFFF AND PUSH20 0xFFFFFFFFFFFFFFFFFFFFFFFFFFFFFFFFFFFFFFFF AND PUSH4 0x8342B22B ADDRESS PUSH1 0x40 MLOAD DUP3 PUSH4 0xFFFFFFFF AND PUSH1 0xE0 SHL DUP2 MSTORE PUSH1 0x4 ADD PUSH2 0x1DA0 SWAP2 SWAP1 PUSH2 0x3750 JUMP JUMPDEST PUSH0 PUSH1 0x40 MLOAD DUP1 DUP4 SUB DUP2 DUP7 GAS STATICCALL ISZERO DUP1 ISZERO PUSH2 0x1DBA JUMPI RETURNDATASIZE PUSH0 PUSH0 RETURNDATACOPY RETURNDATASIZE PUSH0 REVERT JUMPDEST POP POP POP POP PUSH1 0x40 MLOAD RETURNDATASIZE PUSH0 DUP3 RETURNDATACOPY RETURNDATASIZE PUSH1 0x1F NOT PUSH1 0x1F DUP3 ADD AND DUP3 ADD DUP1 PUSH1 0x40 MSTORE POP DUP2 ADD SWAP1 PUSH2 0x1DE2 SWAP2 SWAP1 PUSH2 0x3EC6 JUMP JUMPDEST SWAP1 POP PUSH0 PUSH0 SWAP1 POP PUSH0 PUSH0 SWAP1 POP JUMPDEST DUP3 MLOAD DUP2 LT ISZERO PUSH2 0x1F43 JUMPI PUSH0 PUSH0 DUP5 DUP4 DUP2 MLOAD DUP2 LT PUSH2 0x1E0B JUMPI PUSH2 0x1E0A PUSH2 0x3F0D JUMP JUMPDEST JUMPDEST PUSH1 0x20 MUL PUSH1 0x20 ADD ADD MLOAD PUSH20 0xFFFFFFFFFFFFFFFFFFFFFFFFFFFFFFFFFFFFFFFF AND ADDRESS PUSH1 0x40 MLOAD PUSH1 0x24 ADD PUSH2 0x1E3A SWAP2 SWAP1 PUSH2 0x3750 JUMP JUMPDEST PUSH1 0x40 MLOAD PUSH1 0x20 DUP2 DUP4 SUB SUB DUP2 MSTORE SWAP1 PUSH1 0x40 MSTORE PUSH32 0x1E83409A00000000000000000000000000000000000000000000000000000000 PUSH28 0xFFFFFFFFFFFFFFFFFFFFFFFFFFFFFFFFFFFFFFFFFFFFFFFFFFFFFFFF NOT AND PUSH1 0x20 DUP3 ADD DUP1 MLOAD PUSH28 0xFFFFFFFFFFFFFFFFFFFFFFFFFFFFFFFFFFFFFFFFFFFFFFFFFFFFFFFF DUP4 DUP2 DUP4 AND OR DUP4 MSTORE POP POP POP POP PUSH1 0x40 MLOAD PUSH2 0x1EC4 SWAP2 SWAP1 PUSH2 0x3D35 JUMP JUMPDEST PUSH0 PUSH1 0x40 MLOAD DUP1 DUP4 SUB DUP2 PUSH0 DUP7 GAS CALL SWAP2 POP POP RETURNDATASIZE DUP1 PUSH0 DUP2 EQ PUSH2 0x1EFD JUMPI PUSH1 0x40 MLOAD SWAP2 POP PUSH1 0x1F NOT PUSH1 0x3F RETURNDATASIZE ADD AND DUP3 ADD PUSH1 0x40 MSTORE RETURNDATASIZE DUP3 MSTORE RETURNDATASIZE PUSH0 PUSH1 0x20 DUP5 ADD RETURNDATACOPY PUSH2 0x1F02 JUMP JUMPDEST PUSH1 0x60 SWAP2 POP JUMPDEST POP SWAP2 POP SWAP2 POP DUP2 ISZERO PUSH2 0x1F34 JUMPI PUSH0 DUP2 DUP1 PUSH1 0x20 ADD SWAP1 MLOAD DUP2 ADD SWAP1 PUSH2 0x1F22 SWAP2 SWAP1 PUSH2 0x38A1 JUMP JUMPDEST SWAP1 POP DUP1 DUP6 PUSH2 0x1F30 SWAP2 SWAP1 PUSH2 0x3989 JUMP JUMPDEST SWAP5 POP POP JUMPDEST POP POP DUP1 DUP1 PUSH1 0x1 ADD SWAP2 POP POP PUSH2 0x1DED JUMP JUMPDEST POP PUSH32 0xAB379771F55FDBAA868C0B35A1003FB47F64FC872A4E4EB9DA06B83F6A85563C DUP3 DUP3 PUSH1 0x40 MLOAD PUSH2 0x1F75 SWAP3 SWAP2 SWAP1 PUSH2 0x3FF1 JUMP JUMPDEST PUSH1 0x40 MLOAD DUP1 SWAP2 SUB SWAP1 LOG1 PUSH32 0x49B15D0536554A8FBC082A1FAB1F1F7FE05E6F13F44B3C05DAC82F103257D6C8 TIMESTAMP PUSH2 0x1FA7 PUSH2 0xAB7 JUMP JUMPDEST PUSH2 0x1FAF PUSH2 0xD0A JUMP JUMPDEST PUSH1 0x40 MLOAD PUSH2 0x1FBE SWAP4 SWAP3 SWAP2 SWAP1 PUSH2 0x39BC JUMP JUMPDEST PUSH1 0x40 MLOAD DUP1 SWAP2 SUB SWAP1 LOG1 POP POP JUMP JUMPDEST PUSH0 PUSH0 PUSH2 0x1FDD PUSH1 0x13 SLOAD PUSH2 0x2710 PUSH1 0x14 SLOAD PUSH2 0x26E2 JUMP JUMPDEST SWAP1 POP PUSH2 0x1FE8 DUP4 PUSH2 0x1860 JUMP JUMPDEST DUP2 PUSH2 0x1FF1 PUSH2 0xD0A JUMP JUMPDEST PUSH2 0x1FFB SWAP2 SWAP1 PUSH2 0x38F9 JUMP JUMPDEST GT ISZERO PUSH2 0x201B JUMPI PUSH2 0x2013 PUSH2 0x200D DUP5 PUSH2 0x1860 JUMP JUMPDEST PUSH0 PUSH2 0x228B JUMP JUMPDEST SWAP2 POP POP PUSH2 0x203B JUMP JUMPDEST PUSH2 0x2037 DUP2 PUSH2 0x2027 PUSH2 0xD0A JUMP JUMPDEST PUSH2 0x2031 SWAP2 SWAP1 PUSH2 0x38F9 JUMP JUMPDEST PUSH0 PUSH2 0x228B JUMP JUMPDEST SWAP2 POP POP JUMPDEST SWAP2 SWAP1 POP JUMP JUMPDEST PUSH1 0x12 SLOAD DUP2 JUMP JUMPDEST PUSH0 PUSH2 0x2056 DUP3 PUSH3 0x278D00 PUSH1 0x1 PUSH2 0x26E2 JUMP JUMPDEST SWAP1 POP SWAP2 SWAP1 POP JUMP JUMPDEST PUSH0 PUSH0 PUSH2 0x2070 PUSH1 0x13 SLOAD PUSH2 0x2710 PUSH1 0x14 SLOAD PUSH2 0x26E2 JUMP JUMPDEST SWAP1 POP PUSH2 0x207B DUP4 PUSH2 0x1860 JUMP JUMPDEST DUP2 PUSH2 0x2084 PUSH2 0xD0A JUMP JUMPDEST PUSH2 0x208E SWAP2 SWAP1 PUSH2 0x38F9 JUMP JUMPDEST GT ISZERO PUSH2 0x20A5 JUMPI PUSH2 0x209D DUP4 PUSH2 0x1860 JUMP JUMPDEST SWAP2 POP POP PUSH2 0x20BC JUMP JUMPDEST DUP1 PUSH2 0x20AE PUSH2 0xD0A JUMP JUMPDEST PUSH2 0x20B8 SWAP2 SWAP1 PUSH2 0x38F9 JUMP JUMPDEST SWAP2 POP POP JUMPDEST SWAP2 SWAP1 POP JUMP JUMPDEST PUSH1 0x11 PUSH0 SWAP1 SLOAD SWAP1 PUSH2 0x100 EXP SWAP1 DIV PUSH1 0xFF AND DUP2 JUMP JUMPDEST PUSH0 PUSH1 0x2 PUSH0 DUP5 PUSH20 0xFFFFFFFFFFFFFFFFFFFFFFFFFFFFFFFFFFFFFFFF AND PUSH20 0xFFFFFFFFFFFFFFFFFFFFFFFFFFFFFFFFFFFFFFFF AND DUP2 MSTORE PUSH1 0x20 ADD SWAP1 DUP2 MSTORE PUSH1 0x20 ADD PUSH0 KECCAK256 PUSH0 DUP4 PUSH20 0xFFFFFFFFFFFFFFFFFFFFFFFFFFFFFFFFFFFFFFFF AND PUSH20 0xFFFFFFFFFFFFFFFFFFFFFFFFFFFFFFFFFFFFFFFF AND DUP2 MSTORE PUSH1 0x20 ADD SWAP1 DUP2 MSTORE PUSH1 0x20 ADD PUSH0 KECCAK256 SLOAD SWAP1 POP SWAP3 SWAP2 POP POP JUMP JUMPDEST PUSH1 0xB SLOAD DUP2 JUMP JUMPDEST PUSH0 PUSH0 PUSH1 0xD SLOAD TIMESTAMP PUSH2 0x216B SWAP2 SWAP1 PUSH2 0x38F9 JUMP JUMPDEST SWAP1 POP PUSH2 0x217B PUSH1 0x8 SLOAD DUP3 PUSH1 0x1 PUSH2 0x26E2 JUMP JUMPDEST PUSH1 0xC SLOAD PUSH2 0x2188 SWAP2 SWAP1 PUSH2 0x3989 JUMP JUMPDEST SWAP2 POP POP SWAP1 JUMP JUMPDEST PUSH3 0x15180 DUP2 JUMP JUMPDEST PUSH0 PUSH2 0x21A0 DUP3 PUSH0 PUSH2 0x22FC JUMP JUMPDEST SWAP1 POP SWAP2 SWAP1 POP JUMP JUMPDEST PUSH1 0xF PUSH1 0x20 MSTORE DUP1 PUSH0 MSTORE PUSH1 0x40 PUSH0 KECCAK256 PUSH0 SWAP2 POP SWAP1 POP DUP1 PUSH0 ADD SLOAD SWAP1 DUP1 PUSH1 0x1 ADD SLOAD SWAP1 POP DUP3 JUMP JUMPDEST PUSH2 0x21CF PUSH2 0x2354 JUMP JUMPDEST PUSH0 PUSH20 0xFFFFFFFFFFFFFFFFFFFFFFFFFFFFFFFFFFFFFFFF AND DUP2 PUSH20 0xFFFFFFFFFFFFFFFFFFFFFFFFFFFFFFFFFFFFFFFF AND SUB PUSH2 0x223F JUMPI PUSH0 PUSH1 0x40 MLOAD PUSH32 0x1E4FBDF700000000000000000000000000000000000000000000000000000000 DUP2 MSTORE PUSH1 0x4 ADD PUSH2 0x2236 SWAP2 SWAP1 PUSH2 0x3750 JUMP JUMPDEST PUSH1 0x40 MLOAD DUP1 SWAP2 SUB SWAP1 REVERT JUMPDEST PUSH2 0x2248 DUP2 PUSH2 0x2847 JUMP JUMPDEST POP JUMP JUMPDEST PUSH0 PUSH1 0xD SLOAD TIMESTAMP PUSH2 0x225A SWAP2 SWAP1 PUSH2 0x38F9 JUMP JUMPDEST SWAP1 POP PUSH2 0x226A PUSH1 0x8 SLOAD DUP3 PUSH1 0x1 PUSH2 0x26E2 JUMP JUMPDEST PUSH1 0xC PUSH0 DUP3 DUP3 SLOAD PUSH2 0x227A SWAP2 SWAP1 PUSH2 0x3989 JUMP JUMPDEST SWAP3 POP POP DUP2 SWAP1 SSTORE POP TIMESTAMP PUSH1 0xD DUP2 SWAP1 SSTORE POP POP JUMP JUMPDEST PUSH0 PUSH2 0x22DB PUSH1 0x1 PUSH2 0x2299 PUSH2 0xAB7 JUMP JUMPDEST PUSH2 0x22A3 SWAP2 SWAP1 PUSH2 0x3989 JUMP JUMPDEST PUSH2 0x22AB PUSH2 0x26DA JUMP JUMPDEST PUSH1 0xA PUSH2 0x22B7 SWAP2 SWAP1 PUSH2 0x414E JUMP JUMPDEST PUSH2 0x22BF PUSH2 0xD0A JUMP JUMPDEST PUSH2 0x22C9 SWAP2 SWAP1 PUSH2 0x3989 JUMP JUMPDEST DUP5 DUP7 PUSH2 0x2A8C SWAP1 SWAP4 SWAP3 SWAP2 SWAP1 PUSH4 0xFFFFFFFF AND JUMP JUMPDEST SWAP1 POP SWAP3 SWAP2 POP POP JUMP JUMPDEST PUSH0 CALLER SWAP1 POP SWAP1 JUMP JUMPDEST PUSH2 0x22F7 DUP4 DUP4 DUP4 PUSH1 0x1 PUSH2 0x2AD9 JUMP JUMPDEST POP POP POP JUMP JUMPDEST PUSH0 PUSH2 0x234C PUSH2 0x2308 PUSH2 0x26DA JUMP JUMPDEST PUSH1 0xA PUSH2 0x2314 SWAP2 SWAP1 PUSH2 0x414E JUMP JUMPDEST PUSH2 0x231C PUSH2 0xD0A JUMP JUMPDEST PUSH2 0x2326 SWAP2 SWAP1 PUSH2 0x3989 JUMP JUMPDEST PUSH1 0x1 PUSH2 0x2330 PUSH2 0xAB7 JUMP JUMPDEST PUSH2 0x233A SWAP2 SWAP1 PUSH2 0x3989 JUMP JUMPDEST DUP5 DUP7 PUSH2 0x2A8C SWAP1 SWAP4 SWAP3 SWAP2 SWAP1 PUSH4 0xFFFFFFFF AND JUMP JUMPDEST SWAP1 POP SWAP3 SWAP2 POP POP JUMP JUMPDEST PUSH2 0x235C PUSH2 0x22E3 JUMP JUMPDEST PUSH20 0xFFFFFFFFFFFFFFFFFFFFFFFFFFFFFFFFFFFFFFFF AND PUSH2 0x237A PUSH2 0x18B9 JUMP JUMPDEST PUSH20 0xFFFFFFFFFFFFFFFFFFFFFFFFFFFFFFFFFFFFFFFF AND EQ PUSH2 0x23D9 JUMPI PUSH2 0x239D PUSH2 0x22E3 JUMP JUMPDEST PUSH1 0x40 MLOAD PUSH32 0x118CDAA700000000000000000000000000000000000000000000000000000000 DUP2 MSTORE PUSH1 0x4 ADD PUSH2 0x23D0 SWAP2 SWAP1 PUSH2 0x3750 JUMP JUMPDEST PUSH1 0x40 MLOAD DUP1 SWAP2 SUB SWAP1 REVERT JUMPDEST JUMP JUMPDEST PUSH2 0x2457 DUP5 DUP6 PUSH20 0xFFFFFFFFFFFFFFFFFFFFFFFFFFFFFFFFFFFFFFFF AND PUSH4 0x23B872DD DUP7 DUP7 DUP7 PUSH1 0x40 MLOAD PUSH1 0x24 ADD PUSH2 0x2410 SWAP4 SWAP3 SWAP2 SWAP1 PUSH2 0x4198 JUMP JUMPDEST PUSH1 0x40 MLOAD PUSH1 0x20 DUP2 DUP4 SUB SUB DUP2 MSTORE SWAP1 PUSH1 0x40 MSTORE SWAP2 POP PUSH1 0xE0 SHL PUSH1 0x20 DUP3 ADD DUP1 MLOAD PUSH28 0xFFFFFFFFFFFFFFFFFFFFFFFFFFFFFFFFFFFFFFFFFFFFFFFFFFFFFFFF DUP4 DUP2 DUP4 AND OR DUP4 MSTORE POP POP POP POP PUSH2 0x2CA8 JUMP JUMPDEST POP POP POP POP JUMP JUMPDEST PUSH2 0x24D7 DUP4 DUP5 PUSH20 0xFFFFFFFFFFFFFFFFFFFFFFFFFFFFFFFFFFFFFFFF AND PUSH4 0xA9059CBB DUP6 DUP6 PUSH1 0x40 MLOAD PUSH1 0x24 ADD PUSH2 0x2490 SWAP3 SWAP2 SWAP1 PUSH2 0x3D4B JUMP JUMPDEST PUSH1 0x40 MLOAD PUSH1 0x20 DUP2 DUP4 SUB SUB DUP2 MSTORE SWAP1 PUSH1 0x40 MSTORE SWAP2 POP PUSH1 0xE0 SHL PUSH1 0x20 DUP3 ADD DUP1 MLOAD PUSH28 0xFFFFFFFFFFFFFFFFFFFFFFFFFFFFFFFFFFFFFFFFFFFFFFFFFFFFFFFF DUP4 DUP2 DUP4 AND OR DUP4 MSTORE POP POP POP POP PUSH2 0x2CA8 JUMP JUMPDEST POP POP POP JUMP JUMPDEST PUSH1 0xA PUSH1 0x8 SLOAD PUSH2 0x24EB SWAP2 SWAP1 PUSH2 0x41FA JUMP JUMPDEST PUSH1 0x9 SLOAD SGT ISZERO PUSH2 0x2556 JUMPI PUSH1 0xA SLOAD PUSH1 0x9 SLOAD SGT ISZERO PUSH2 0x253B JUMPI PUSH1 0x40 MLOAD PUSH32 0x8C379A000000000000000000000000000000000000000000000000000000000 DUP2 MSTORE PUSH1 0x4 ADD PUSH2 0x2532 SWAP1 PUSH2 0x42AC JUMP JUMPDEST PUSH1 0x40 MLOAD DUP1 SWAP2 SUB SWAP1 REVERT JUMPDEST PUSH1 0x9 SLOAD PUSH1 0xA PUSH0 DUP3 DUP3 SLOAD PUSH2 0x254E SWAP2 SWAP1 PUSH2 0x38F9 JUMP JUMPDEST SWAP3 POP POP DUP2 SWAP1 SSTORE POP JUMPDEST JUMP JUMPDEST PUSH0 PUSH2 0x2563 DUP5 DUP5 PUSH2 0x20D3 JUMP JUMPDEST SWAP1 POP PUSH32 0xFFFFFFFFFFFFFFFFFFFFFFFFFFFFFFFFFFFFFFFFFFFFFFFFFFFFFFFFFFFFFFFF DUP2 EQ PUSH2 0x25E4 JUMPI DUP2 DUP2 LT ISZERO PUSH2 0x25D5 JUMPI DUP3 DUP2 DUP4 PUSH1 0x40 MLOAD PUSH32 0xFB8F41B200000000000000000000000000000000000000000000000000000000 DUP2 MSTORE PUSH1 0x4 ADD PUSH2 0x25CC SWAP4 SWAP3 SWAP2 SWAP1 PUSH2 0x42CA JUMP JUMPDEST PUSH1 0x40 MLOAD DUP1 SWAP2 SUB SWAP1 REVERT JUMPDEST PUSH2 0x25E3 DUP5 DUP5 DUP5 DUP5 SUB PUSH0 PUSH2 0x2AD9 JUMP JUMPDEST JUMPDEST POP POP POP POP JUMP JUMPDEST PUSH0 PUSH20 0xFFFFFFFFFFFFFFFFFFFFFFFFFFFFFFFFFFFFFFFF AND DUP4 PUSH20 0xFFFFFFFFFFFFFFFFFFFFFFFFFFFFFFFFFFFFFFFF AND SUB PUSH2 0x265A JUMPI PUSH0 PUSH1 0x40 MLOAD PUSH32 0x96C6FD1E00000000000000000000000000000000000000000000000000000000 DUP2 MSTORE PUSH1 0x4 ADD PUSH2 0x2651 SWAP2 SWAP1 PUSH2 0x3750 JUMP JUMPDEST PUSH1 0x40 MLOAD DUP1 SWAP2 SUB SWAP1 REVERT JUMPDEST PUSH0 PUSH20 0xFFFFFFFFFFFFFFFFFFFFFFFFFFFFFFFFFFFFFFFF AND DUP3 PUSH20 0xFFFFFFFFFFFFFFFFFFFFFFFFFFFFFFFFFFFFFFFF AND SUB PUSH2 0x26CA JUMPI PUSH0 PUSH1 0x40 MLOAD PUSH32 0xEC442F0500000000000000000000000000000000000000000000000000000000 DUP2 MSTORE PUSH1 0x4 ADD PUSH2 0x26C1 SWAP2 SWAP1 PUSH2 0x3750 JUMP JUMPDEST PUSH1 0x40 MLOAD DUP1 SWAP2 SUB SWAP1 REVERT JUMPDEST PUSH2 0x26D5 DUP4 DUP4 DUP4 PUSH2 0x2D43 JUMP JUMPDEST POP POP POP JUMP JUMPDEST PUSH0 PUSH1 0x8 SWAP1 POP SWAP1 JUMP JUMPDEST PUSH0 PUSH0 DUP4 DUP6 MUL SWAP1 POP PUSH0 PUSH0 NOT DUP6 DUP8 MULMOD DUP3 DUP2 LT DUP4 DUP3 SUB SUB SWAP2 POP POP PUSH0 DUP2 SUB PUSH2 0x271A JUMPI DUP4 DUP3 DUP2 PUSH2 0x2710 JUMPI PUSH2 0x270F PUSH2 0x41CD JUMP JUMPDEST JUMPDEST DIV SWAP3 POP POP POP PUSH2 0x27C0 JUMP JUMPDEST DUP1 DUP5 GT PUSH2 0x2739 JUMPI PUSH2 0x2738 PUSH2 0x2733 PUSH0 DUP7 EQ PUSH1 0x12 PUSH1 0x11 PUSH2 0x2F5F JUMP JUMPDEST PUSH2 0x2F78 JUMP JUMPDEST JUMPDEST PUSH0 DUP5 DUP7 DUP9 MULMOD SWAP1 POP DUP3 DUP2 GT DUP3 SUB SWAP2 POP DUP1 DUP4 SUB SWAP3 POP PUSH0 DUP6 PUSH0 SUB DUP7 AND SWAP1 POP DUP1 DUP7 DIV SWAP6 POP DUP1 DUP5 DIV SWAP4 POP PUSH1 0x1 DUP2 DUP3 PUSH0 SUB DIV ADD SWAP1 POP DUP1 DUP4 MUL DUP5 OR SWAP4 POP PUSH0 PUSH1 0x2 DUP8 PUSH1 0x3 MUL XOR SWAP1 POP DUP1 DUP8 MUL PUSH1 0x2 SUB DUP2 MUL SWAP1 POP DUP1 DUP8 MUL PUSH1 0x2 SUB DUP2 MUL SWAP1 POP DUP1 DUP8 MUL PUSH1 0x2 SUB DUP2 MUL SWAP1 POP DUP1 DUP8 MUL PUSH1 0x2 SUB DUP2 MUL SWAP1 POP DUP1 DUP8 MUL PUSH1 0x2 SUB DUP2 MUL SWAP1 POP DUP1 DUP8 MUL PUSH1 0x2 SUB DUP2 MUL SWAP1 POP DUP1 DUP6 MUL SWAP6 POP POP POP POP POP POP JUMPDEST SWAP4 SWAP3 POP POP POP JUMP JUMPDEST PUSH0 PUSH0 PUSH2 0x27D2 DUP4 PUSH2 0x17E4 JUMP JUMPDEST SWAP1 POP DUP1 DUP5 GT ISZERO PUSH2 0x281D JUMPI DUP3 DUP5 DUP3 PUSH1 0x40 MLOAD PUSH32 0x79012FB200000000000000000000000000000000000000000000000000000000 DUP2 MSTORE PUSH1 0x4 ADD PUSH2 0x2814 SWAP4 SWAP3 SWAP2 SWAP1 PUSH2 0x42CA JUMP JUMPDEST PUSH1 0x40 MLOAD DUP1 SWAP2 SUB SWAP1 REVERT JUMPDEST PUSH0 PUSH2 0x2827 DUP6 PUSH2 0x2195 JUMP JUMPDEST SWAP1 POP PUSH2 0x283C PUSH2 0x2834 PUSH2 0x22E3 JUMP JUMPDEST DUP6 DUP8 DUP5 PUSH2 0x2F89 JUMP JUMPDEST DUP1 SWAP3 POP POP POP SWAP3 SWAP2 POP POP JUMP JUMPDEST PUSH0 PUSH0 PUSH0 SWAP1 SLOAD SWAP1 PUSH2 0x100 EXP SWAP1 DIV PUSH20 0xFFFFFFFFFFFFFFFFFFFFFFFFFFFFFFFFFFFFFFFF AND SWAP1 POP DUP2 PUSH0 PUSH0 PUSH2 0x100 EXP DUP2 SLOAD DUP2 PUSH20 0xFFFFFFFFFFFFFFFFFFFFFFFFFFFFFFFFFFFFFFFF MUL NOT AND SWAP1 DUP4 PUSH20 0xFFFFFFFFFFFFFFFFFFFFFFFFFFFFFFFFFFFFFFFF AND MUL OR SWAP1 SSTORE POP DUP2 PUSH20 0xFFFFFFFFFFFFFFFFFFFFFFFFFFFFFFFFFFFFFFFF AND DUP2 PUSH20 0xFFFFFFFFFFFFFFFFFFFFFFFFFFFFFFFFFFFFFFFF AND PUSH32 0x8BE0079C531659141344CD1FD0A4F28419497F9722A3DAAFE3B4186F6B6457E0 PUSH1 0x40 MLOAD PUSH1 0x40 MLOAD DUP1 SWAP2 SUB SWAP1 LOG3 POP POP JUMP JUMPDEST PUSH0 PUSH0 PUSH2 0x2913 DUP4 PUSH2 0x1D08 JUMP JUMPDEST SWAP1 POP DUP1 DUP5 GT ISZERO PUSH2 0x295E JUMPI DUP3 DUP5 DUP3 PUSH1 0x40 MLOAD PUSH32 0x284FF66700000000000000000000000000000000000000000000000000000000 DUP2 MSTORE PUSH1 0x4 ADD PUSH2 0x2955 SWAP4 SWAP3 SWAP2 SWAP1 PUSH2 0x42CA JUMP JUMPDEST PUSH1 0x40 MLOAD DUP1 SWAP2 SUB SWAP1 REVERT JUMPDEST PUSH0 PUSH2 0x2968 DUP6 PUSH2 0x1A76 JUMP JUMPDEST SWAP1 POP PUSH2 0x297D PUSH2 0x2975 PUSH2 0x22E3 JUMP JUMPDEST DUP6 DUP4 DUP9 PUSH2 0x2F89 JUMP JUMPDEST DUP1 SWAP3 POP POP POP SWAP3 SWAP2 POP POP JUMP JUMPDEST PUSH0 PUSH0 PUSH2 0x2993 DUP4 PUSH2 0x1FCA JUMP JUMPDEST SWAP1 POP DUP1 DUP6 GT ISZERO PUSH2 0x29DE JUMPI DUP3 DUP6 DUP3 PUSH1 0x40 MLOAD PUSH32 0xFE9CCEEC00000000000000000000000000000000000000000000000000000000 DUP2 MSTORE PUSH1 0x4 ADD PUSH2 0x29D5 SWAP4 SWAP3 SWAP2 SWAP1 PUSH2 0x42CA JUMP JUMPDEST PUSH1 0x40 MLOAD DUP1 SWAP2 SUB SWAP1 REVERT JUMPDEST PUSH0 PUSH2 0x29E8 DUP7 PUSH2 0xC34 JUMP JUMPDEST SWAP1 POP PUSH2 0x29FE PUSH2 0x29F5 PUSH2 0x22E3 JUMP JUMPDEST DUP7 DUP7 DUP10 DUP6 PUSH2 0x3055 JUMP JUMPDEST DUP1 SWAP3 POP POP POP SWAP4 SWAP3 POP POP POP JUMP JUMPDEST PUSH0 PUSH0 PUSH2 0x2A15 DUP4 PUSH2 0x205D JUMP JUMPDEST SWAP1 POP DUP1 DUP6 GT ISZERO PUSH2 0x2A60 JUMPI DUP3 DUP6 DUP3 PUSH1 0x40 MLOAD PUSH32 0xB94ABEEC00000000000000000000000000000000000000000000000000000000 DUP2 MSTORE PUSH1 0x4 ADD PUSH2 0x2A57 SWAP4 SWAP3 SWAP2 SWAP1 PUSH2 0x42CA JUMP JUMPDEST PUSH1 0x40 MLOAD DUP1 SWAP2 SUB SWAP1 REVERT JUMPDEST PUSH0 PUSH2 0x2A6A DUP7 PUSH2 0x1833 JUMP JUMPDEST SWAP1 POP PUSH2 0x2A80 PUSH2 0x2A77 PUSH2 0x22E3 JUMP JUMPDEST DUP7 DUP7 DUP5 DUP11 PUSH2 0x3055 JUMP JUMPDEST DUP1 SWAP3 POP POP POP SWAP4 SWAP3 POP POP POP JUMP JUMPDEST PUSH0 PUSH2 0x2ABA PUSH2 0x2A99 DUP4 PUSH2 0x3123 JUMP JUMPDEST DUP1 ISZERO PUSH2 0x2AB5 JUMPI POP PUSH0 DUP5 DUP1 PUSH2 0x2AB0 JUMPI PUSH2 0x2AAF PUSH2 0x41CD JUMP JUMPDEST JUMPDEST DUP7 DUP9 MULMOD GT JUMPDEST PUSH2 0x3150 JUMP JUMPDEST PUSH2 0x2AC5 DUP7 DUP7 DUP7 PUSH2 0x26E2 JUMP JUMPDEST PUSH2 0x2ACF SWAP2 SWAP1 PUSH2 0x3989 JUMP JUMPDEST SWAP1 POP SWAP5 SWAP4 POP POP POP POP JUMP JUMPDEST PUSH0 PUSH20 0xFFFFFFFFFFFFFFFFFFFFFFFFFFFFFFFFFFFFFFFF AND DUP5 PUSH20 0xFFFFFFFFFFFFFFFFFFFFFFFFFFFFFFFFFFFFFFFF AND SUB PUSH2 0x2B49 JUMPI PUSH0 PUSH1 0x40 MLOAD PUSH32 0xE602DF0500000000000000000000000000000000000000000000000000000000 DUP2 MSTORE PUSH1 0x4 ADD PUSH2 0x2B40 SWAP2 SWAP1 PUSH2 0x3750 JUMP JUMPDEST PUSH1 0x40 MLOAD DUP1 SWAP2 SUB SWAP1 REVERT JUMPDEST PUSH0 PUSH20 0xFFFFFFFFFFFFFFFFFFFFFFFFFFFFFFFFFFFFFFFF AND DUP4 PUSH20 0xFFFFFFFFFFFFFFFFFFFFFFFFFFFFFFFFFFFFFFFF AND SUB PUSH2 0x2BB9 JUMPI PUSH0 PUSH1 0x40 MLOAD PUSH32 0x94280D6200000000000000000000000000000000000000000000000000000000 DUP2 MSTORE PUSH1 0x4 ADD PUSH2 0x2BB0 SWAP2 SWAP1 PUSH2 0x3750 JUMP JUMPDEST PUSH1 0x40 MLOAD DUP1 SWAP2 SUB SWAP1 REVERT JUMPDEST DUP2 PUSH1 0x2 PUSH0 DUP7 PUSH20 0xFFFFFFFFFFFFFFFFFFFFFFFFFFFFFFFFFFFFFFFF AND PUSH20 0xFFFFFFFFFFFFFFFFFFFFFFFFFFFFFFFFFFFFFFFF AND DUP2 MSTORE PUSH1 0x20 ADD SWAP1 DUP2 MSTORE PUSH1 0x20 ADD PUSH0 KECCAK256 PUSH0 DUP6 PUSH20 0xFFFFFFFFFFFFFFFFFFFFFFFFFFFFFFFFFFFFFFFF AND PUSH20 0xFFFFFFFFFFFFFFFFFFFFFFFFFFFFFFFFFFFFFFFF AND DUP2 MSTORE PUSH1 0x20 ADD SWAP1 DUP2 MSTORE PUSH1 0x20 ADD PUSH0 KECCAK256 DUP2 SWAP1 SSTORE POP DUP1 ISZERO PUSH2 0x2CA2 JUMPI DUP3 PUSH20 0xFFFFFFFFFFFFFFFFFFFFFFFFFFFFFFFFFFFFFFFF AND DUP5 PUSH20 0xFFFFFFFFFFFFFFFFFFFFFFFFFFFFFFFFFFFFFFFF AND PUSH32 0x8C5BE1E5EBEC7D5BD14F71427D1E84F3DD0314C0F7B2291E5B200AC8C7C3B925 DUP5 PUSH1 0x40 MLOAD PUSH2 0x2C99 SWAP2 SWAP1 PUSH2 0x34B8 JUMP JUMPDEST PUSH1 0x40 MLOAD DUP1 SWAP2 SUB SWAP1 LOG3 JUMPDEST POP POP POP POP JUMP JUMPDEST PUSH0 PUSH0 PUSH1 0x20 PUSH0 DUP5 MLOAD PUSH1 0x20 DUP7 ADD PUSH0 DUP9 GAS CALL DUP1 PUSH2 0x2CC7 JUMPI PUSH1 0x40 MLOAD RETURNDATASIZE PUSH0 DUP3 RETURNDATACOPY RETURNDATASIZE DUP2 REVERT JUMPDEST RETURNDATASIZE SWAP3 POP PUSH0 MLOAD SWAP2 POP POP PUSH0 DUP3 EQ PUSH2 0x2CE0 JUMPI PUSH1 0x1 DUP2 EQ ISZERO PUSH2 0x2CFB JUMP JUMPDEST PUSH0 DUP5 PUSH20 0xFFFFFFFFFFFFFFFFFFFFFFFFFFFFFFFFFFFFFFFF AND EXTCODESIZE EQ JUMPDEST ISZERO PUSH2 0x2D3D JUMPI DUP4 PUSH1 0x40 MLOAD PUSH32 0x5274AFE700000000000000000000000000000000000000000000000000000000 DUP2 MSTORE PUSH1 0x4 ADD PUSH2 0x2D34 SWAP2 SWAP1 PUSH2 0x3750 JUMP JUMPDEST PUSH1 0x40 MLOAD DUP1 SWAP2 SUB SWAP1 REVERT JUMPDEST POP POP POP POP JUMP JUMPDEST PUSH0 PUSH20 0xFFFFFFFFFFFFFFFFFFFFFFFFFFFFFFFFFFFFFFFF AND DUP4 PUSH20 0xFFFFFFFFFFFFFFFFFFFFFFFFFFFFFFFFFFFFFFFF AND SUB PUSH2 0x2D93 JUMPI DUP1 PUSH1 0x3 PUSH0 DUP3 DUP3 SLOAD PUSH2 0x2D87 SWAP2 SWAP1 PUSH2 0x3989 JUMP JUMPDEST SWAP3 POP POP DUP2 SWAP1 SSTORE POP PUSH2 0x2E63 JUMP JUMPDEST PUSH0 PUSH1 0x1 PUSH0 DUP6 PUSH20 0xFFFFFFFFFFFFFFFFFFFFFFFFFFFFFFFFFFFFFFFF AND PUSH20 0xFFFFFFFFFFFFFFFFFFFFFFFFFFFFFFFFFFFFFFFF AND DUP2 MSTORE PUSH1 0x20 ADD SWAP1 DUP2 MSTORE PUSH1 0x20 ADD PUSH0 KECCAK256 SLOAD SWAP1 POP DUP2 DUP2 LT ISZERO PUSH2 0x2E1D JUMPI DUP4 DUP2 DUP4 PUSH1 0x40 MLOAD PUSH32 0xE450D38C00000000000000000000000000000000000000000000000000000000 DUP2 MSTORE PUSH1 0x4 ADD PUSH2 0x2E14 SWAP4 SWAP3 SWAP2 SWAP1 PUSH2 0x42CA JUMP JUMPDEST PUSH1 0x40 MLOAD DUP1 SWAP2 SUB SWAP1 REVERT JUMPDEST DUP2 DUP2 SUB PUSH1 0x1 PUSH0 DUP7 PUSH20 0xFFFFFFFFFFFFFFFFFFFFFFFFFFFFFFFFFFFFFFFF AND PUSH20 0xFFFFFFFFFFFFFFFFFFFFFFFFFFFFFFFFFFFFFFFF AND DUP2 MSTORE PUSH1 0x20 ADD SWAP1 DUP2 MSTORE PUSH1 0x20 ADD PUSH0 KECCAK256 DUP2 SWAP1 SSTORE POP POP JUMPDEST PUSH0 PUSH20 0xFFFFFFFFFFFFFFFFFFFFFFFFFFFFFFFFFFFFFFFF AND DUP3 PUSH20 0xFFFFFFFFFFFFFFFFFFFFFFFFFFFFFFFFFFFFFFFF AND SUB PUSH2 0x2EAA JUMPI DUP1 PUSH1 0x3 PUSH0 DUP3 DUP3 SLOAD SUB SWAP3 POP POP DUP2 SWAP1 SSTORE POP PUSH2 0x2EF5 JUMP JUMPDEST DUP1 PUSH1 0x1 PUSH0 DUP5 PUSH20 0xFFFFFFFFFFFFFFFFFFFFFFFFFFFFFFFFFFFFFFFF AND PUSH20 0xFFFFFFFFFFFFFFFFFFFFFFFFFFFFFFFFFFFFFFFF AND DUP2 MSTORE PUSH1 0x20 ADD SWAP1 DUP2 MSTORE PUSH1 0x20 ADD PUSH0 KECCAK256 PUSH0 DUP3 DUP3 SLOAD ADD SWAP3 POP POP DUP2 SWAP1 SSTORE POP JUMPDEST DUP2 PUSH20 0xFFFFFFFFFFFFFFFFFFFFFFFFFFFFFFFFFFFFFFFF AND DUP4 PUSH20 0xFFFFFFFFFFFFFFFFFFFFFFFFFFFFFFFFFFFFFFFF AND PUSH32 0xDDF252AD1BE2C89B69C2B068FC378DAA952BA7F163C4A11628F55A4DF523B3EF DUP4 PUSH1 0x40 MLOAD PUSH2 0x2F52 SWAP2 SWAP1 PUSH2 0x34B8 JUMP JUMPDEST PUSH1 0x40 MLOAD DUP1 SWAP2 SUB SWAP1 LOG3 POP POP POP JUMP JUMPDEST PUSH0 PUSH2 0x2F69 DUP5 PUSH2 0x3150 JUMP JUMPDEST DUP3 DUP5 XOR MUL DUP3 XOR SWAP1 POP SWAP4 SWAP3 POP POP POP JUMP JUMPDEST PUSH4 0x4E487B71 PUSH0 MSTORE DUP1 PUSH1 0x20 MSTORE PUSH1 0x24 PUSH1 0x1C REVERT JUMPDEST PUSH1 0x11 PUSH0 SWAP1 SLOAD SWAP1 PUSH2 0x100 EXP SWAP1 DIV PUSH1 0xFF AND PUSH2 0x2FD7 JUMPI PUSH1 0x40 MLOAD PUSH32 0x8C379A000000000000000000000000000000000000000000000000000000000 DUP2 MSTORE PUSH1 0x4 ADD PUSH2 0x2FCE SWAP1 PUSH2 0x4349 JUMP JUMPDEST PUSH1 0x40 MLOAD DUP1 SWAP2 SUB SWAP1 REVERT JUMPDEST PUSH2 0x2FF2 DUP2 PUSH2 0x2FE3 PUSH2 0xD0A JUMP JUMPDEST PUSH2 0x2FED SWAP2 SWAP1 PUSH2 0x3989 JUMP JUMPDEST PUSH2 0x315B JUMP JUMPDEST PUSH2 0x2FFA PUSH2 0x31D7 JUMP JUMPDEST PUSH2 0x3006 DUP5 DUP5 DUP5 DUP5 PUSH2 0x3206 JUMP JUMPDEST PUSH32 0x49B15D0536554A8FBC082A1FAB1F1F7FE05E6F13F44B3C05DAC82F103257D6C8 TIMESTAMP PUSH2 0x3030 PUSH2 0xAB7 JUMP JUMPDEST PUSH2 0x3038 PUSH2 0xD0A JUMP JUMPDEST PUSH1 0x40 MLOAD PUSH2 0x3047 SWAP4 SWAP3 SWAP2 SWAP1 PUSH2 0x39BC JUMP JUMPDEST PUSH1 0x40 MLOAD DUP1 SWAP2 SUB SWAP1 LOG1 POP POP POP POP JUMP JUMPDEST PUSH1 0x11 PUSH0 SWAP1 SLOAD SWAP1 PUSH2 0x100 EXP SWAP1 DIV PUSH1 0xFF AND PUSH2 0x30A3 JUMPI PUSH1 0x40 MLOAD PUSH32 0x8C379A000000000000000000000000000000000000000000000000000000000 DUP2 MSTORE PUSH1 0x4 ADD PUSH2 0x309A SWAP1 PUSH2 0x4349 JUMP JUMPDEST PUSH1 0x40 MLOAD DUP1 SWAP2 SUB SWAP1 REVERT JUMPDEST PUSH2 0x30BE DUP2 PUSH2 0x30AF PUSH2 0xD0A JUMP JUMPDEST PUSH2 0x30B9 SWAP2 SWAP1 PUSH2 0x38F9 JUMP JUMPDEST PUSH2 0x315B JUMP JUMPDEST PUSH2 0x30C6 PUSH2 0x31D7 JUMP JUMPDEST PUSH2 0x30D3 DUP6 DUP6 DUP6 DUP6 DUP6 PUSH2 0x32A9 JUMP JUMPDEST PUSH32 0x49B15D0536554A8FBC082A1FAB1F1F7FE05E6F13F44B3C05DAC82F103257D6C8 TIMESTAMP PUSH2 0x30FD PUSH2 0xAB7 JUMP JUMPDEST PUSH2 0x3105 PUSH2 0xD0A JUMP JUMPDEST PUSH1 0x40 MLOAD PUSH2 0x3114 SWAP4 SWAP3 SWAP2 SWAP1 PUSH2 0x39BC JUMP JUMPDEST PUSH1 0x40 MLOAD DUP1 SWAP2 SUB SWAP1 LOG1 POP POP POP POP POP JUMP JUMPDEST PUSH0 PUSH1 0x1 PUSH1 0x2 DUP4 PUSH1 0x3 DUP2 GT ISZERO PUSH2 0x313B JUMPI PUSH2 0x313A PUSH2 0x4367 JUMP JUMPDEST JUMPDEST PUSH2 0x3145 SWAP2 SWAP1 PUSH2 0x4394 JUMP JUMPDEST PUSH1 0xFF AND EQ SWAP1 POP SWAP2 SWAP1 POP JUMP JUMPDEST PUSH0 DUP2 ISZERO ISZERO SWAP1 POP SWAP2 SWAP1 POP JUMP JUMPDEST PUSH0 PUSH2 0x316D PUSH1 0x13 SLOAD PUSH2 0x2710 PUSH1 0x14 SLOAD PUSH2 0x26E2 JUMP JUMPDEST SWAP1 POP PUSH0 PUSH2 0x3181 PUSH1 0x13 SLOAD PUSH1 0x14 SLOAD PUSH2 0x2710 PUSH2 0x26E2 JUMP JUMPDEST SWAP1 POP DUP2 DUP4 LT ISZERO DUP1 ISZERO PUSH2 0x3193 JUMPI POP DUP1 DUP4 GT ISZERO JUMPDEST PUSH2 0x31D2 JUMPI PUSH1 0x40 MLOAD PUSH32 0x8C379A000000000000000000000000000000000000000000000000000000000 DUP2 MSTORE PUSH1 0x4 ADD PUSH2 0x31C9 SWAP1 PUSH2 0x4434 JUMP JUMPDEST PUSH1 0x40 MLOAD DUP1 SWAP2 SUB SWAP1 REVERT JUMPDEST POP POP POP JUMP JUMPDEST PUSH3 0x15180 PUSH1 0x12 SLOAD PUSH2 0x31E8 SWAP2 SWAP1 PUSH2 0x3989 JUMP JUMPDEST TIMESTAMP LT PUSH2 0x3204 JUMPI PUSH2 0x31F6 PUSH2 0xD0A JUMP JUMPDEST PUSH1 0x13 DUP2 SWAP1 SSTORE POP TIMESTAMP PUSH1 0x12 DUP2 SWAP1 SSTORE POP JUMPDEST JUMP JUMPDEST PUSH2 0x3232 PUSH32 0x0 DUP6 ADDRESS DUP6 PUSH2 0x23DB JUMP JUMPDEST PUSH2 0x323C DUP4 DUP3 PUSH2 0x33A2 JUMP JUMPDEST DUP3 PUSH20 0xFFFFFFFFFFFFFFFFFFFFFFFFFFFFFFFFFFFFFFFF AND DUP5 PUSH20 0xFFFFFFFFFFFFFFFFFFFFFFFFFFFFFFFFFFFFFFFF AND PUSH32 0xDCBC1C05240F31FF3AD067EF1EE35CE4997762752E3A095284754544F4C709D7 DUP5 DUP5 PUSH1 0x40 MLOAD PUSH2 0x329B SWAP3 SWAP2 SWAP1 PUSH2 0x37A7 JUMP JUMPDEST PUSH1 0x40 MLOAD DUP1 SWAP2 SUB SWAP1 LOG3 POP POP POP POP JUMP JUMPDEST DUP3 PUSH20 0xFFFFFFFFFFFFFFFFFFFFFFFFFFFFFFFFFFFFFFFF AND DUP6 PUSH20 0xFFFFFFFFFFFFFFFFFFFFFFFFFFFFFFFFFFFFFFFF AND EQ PUSH2 0x32E8 JUMPI PUSH2 0x32E7 DUP4 DUP7 DUP4 PUSH2 0x2558 JUMP JUMPDEST JUMPDEST PUSH2 0x32F2 DUP4 DUP3 PUSH2 0x3421 JUMP JUMPDEST PUSH2 0x331D PUSH32 0x0 DUP6 DUP5 PUSH2 0x245D JUMP JUMPDEST DUP3 PUSH20 0xFFFFFFFFFFFFFFFFFFFFFFFFFFFFFFFFFFFFFFFF AND DUP5 PUSH20 0xFFFFFFFFFFFFFFFFFFFFFFFFFFFFFFFFFFFFFFFF AND DUP7 PUSH20 0xFFFFFFFFFFFFFFFFFFFFFFFFFFFFFFFFFFFFFFFF AND PUSH32 0xFBDE797D201C681B91056529119E0B02407C7BB96A4A2C75C01FC9667232C8DB DUP6 DUP6 PUSH1 0x40 MLOAD PUSH2 0x3393 SWAP3 SWAP2 SWAP1 PUSH2 0x37A7 JUMP JUMPDEST PUSH1 0x40 MLOAD DUP1 SWAP2 SUB SWAP1 LOG4 POP POP POP POP POP JUMP JUMPDEST PUSH0 PUSH20 0xFFFFFFFFFFFFFFFFFFFFFFFFFFFFFFFFFFFFFFFF AND DUP3 PUSH20 0xFFFFFFFFFFFFFFFFFFFFFFFFFFFFFFFFFFFFFFFF AND SUB PUSH2 0x3412 JUMPI PUSH0 PUSH1 0x40 MLOAD PUSH32 0xEC442F0500000000000000000000000000000000000000000000000000000000 DUP2 MSTORE PUSH1 0x4 ADD PUSH2 0x3409 SWAP2 SWAP1 PUSH2 0x3750 JUMP JUMPDEST PUSH1 0x40 MLOAD DUP1 SWAP2 SUB SWAP1 REVERT JUMPDEST PUSH2 0x341D PUSH0 DUP4 DUP4 PUSH2 0x2D43 JUMP JUMPDEST POP POP JUMP JUMPDEST PUSH0 PUSH20 0xFFFFFFFFFFFFFFFFFFFFFFFFFFFFFFFFFFFFFFFF AND DUP3 PUSH20 0xFFFFFFFFFFFFFFFFFFFFFFFFFFFFFFFFFFFFFFFF AND SUB PUSH2 0x3491 JUMPI PUSH0 PUSH1 0x40 MLOAD PUSH32 0x96C6FD1E00000000000000000000000000000000000000000000000000000000 DUP2 MSTORE PUSH1 0x4 ADD PUSH2 0x3488 SWAP2 SWAP1 PUSH2 0x3750 JUMP JUMPDEST PUSH1 0x40 MLOAD DUP1 SWAP2 SUB SWAP1 REVERT JUMPDEST PUSH2 0x349C DUP3 PUSH0 DUP4 PUSH2 0x2D43 JUMP JUMPDEST POP POP JUMP JUMPDEST PUSH0 DUP2 SWAP1 POP SWAP2 SWAP1 POP JUMP JUMPDEST PUSH2 0x34B2 DUP2 PUSH2 0x34A0 JUMP JUMPDEST DUP3 MSTORE POP POP JUMP JUMPDEST PUSH0 PUSH1 0x20 DUP3 ADD SWAP1 POP PUSH2 0x34CB PUSH0 DUP4 ADD DUP5 PUSH2 0x34A9 JUMP JUMPDEST SWAP3 SWAP2 POP POP JUMP JUMPDEST PUSH0 DUP2 MLOAD SWAP1 POP SWAP2 SWAP1 POP JUMP JUMPDEST PUSH0 DUP3 DUP3 MSTORE PUSH1 0x20 DUP3 ADD SWAP1 POP SWAP3 SWAP2 POP POP JUMP JUMPDEST DUP3 DUP2 DUP4 MCOPY PUSH0 DUP4 DUP4 ADD MSTORE POP POP POP JUMP JUMPDEST PUSH0 PUSH1 0x1F NOT PUSH1 0x1F DUP4 ADD AND SWAP1 POP SWAP2 SWAP1 POP JUMP JUMPDEST PUSH0 PUSH2 0x3513 DUP3 PUSH2 0x34D1 JUMP JUMPDEST PUSH2 0x351D DUP2 DUP6 PUSH2 0x34DB JUMP JUMPDEST SWAP4 POP PUSH2 0x352D DUP2 DUP6 PUSH1 0x20 DUP7 ADD PUSH2 0x34EB JUMP JUMPDEST PUSH2 0x3536 DUP2 PUSH2 0x34F9 JUMP JUMPDEST DUP5 ADD SWAP2 POP POP SWAP3 SWAP2 POP POP JUMP JUMPDEST PUSH0 PUSH1 0x20 DUP3 ADD SWAP1 POP DUP2 DUP2 SUB PUSH0 DUP4 ADD MSTORE PUSH2 0x3559 DUP2 DUP5 PUSH2 0x3509 JUMP JUMPDEST SWAP1 POP SWAP3 SWAP2 POP POP JUMP JUMPDEST PUSH0 PUSH1 0x40 MLOAD SWAP1 POP SWAP1 JUMP JUMPDEST PUSH0 PUSH0 REVERT JUMPDEST PUSH0 PUSH0 REVERT JUMPDEST PUSH2 0x357B DUP2 PUSH2 0x34A0 JUMP JUMPDEST DUP2 EQ PUSH2 0x3585 JUMPI PUSH0 PUSH0 REVERT JUMPDEST POP JUMP JUMPDEST PUSH0 DUP2 CALLDATALOAD SWAP1 POP PUSH2 0x3596 DUP2 PUSH2 0x3572 JUMP JUMPDEST SWAP3 SWAP2 POP POP JUMP JUMPDEST PUSH0 PUSH1 0x20 DUP3 DUP5 SUB SLT ISZERO PUSH2 0x35B1 JUMPI PUSH2 0x35B0 PUSH2 0x356A JUMP JUMPDEST JUMPDEST PUSH0 PUSH2 0x35BE DUP5 DUP3 DUP6 ADD PUSH2 0x3588 JUMP JUMPDEST SWAP2 POP POP SWAP3 SWAP2 POP POP JUMP JUMPDEST PUSH0 PUSH20 0xFFFFFFFFFFFFFFFFFFFFFFFFFFFFFFFFFFFFFFFF DUP3 AND SWAP1 POP SWAP2 SWAP1 POP JUMP JUMPDEST PUSH0 PUSH2 0x35F0 DUP3 PUSH2 0x35C7 JUMP JUMPDEST SWAP1 POP SWAP2 SWAP1 POP JUMP JUMPDEST PUSH2 0x3600 DUP2 PUSH2 0x35E6 JUMP JUMPDEST DUP2 EQ PUSH2 0x360A JUMPI PUSH0 PUSH0 REVERT JUMPDEST POP JUMP JUMPDEST PUSH0 DUP2 CALLDATALOAD SWAP1 POP PUSH2 0x361B DUP2 PUSH2 0x35F7 JUMP JUMPDEST SWAP3 SWAP2 POP POP JUMP JUMPDEST PUSH0 PUSH0 PUSH1 0x40 DUP4 DUP6 SUB SLT ISZERO PUSH2 0x3637 JUMPI PUSH2 0x3636 PUSH2 0x356A JUMP JUMPDEST JUMPDEST PUSH0 PUSH2 0x3644 DUP6 DUP3 DUP7 ADD PUSH2 0x360D JUMP JUMPDEST SWAP3 POP POP PUSH1 0x20 PUSH2 0x3655 DUP6 DUP3 DUP7 ADD PUSH2 0x3588 JUMP JUMPDEST SWAP2 POP POP SWAP3 POP SWAP3 SWAP1 POP JUMP JUMPDEST PUSH0 DUP2 ISZERO ISZERO SWAP1 POP SWAP2 SWAP1 POP JUMP JUMPDEST PUSH2 0x3673 DUP2 PUSH2 0x365F JUMP JUMPDEST DUP3 MSTORE POP POP JUMP JUMPDEST PUSH0 PUSH1 0x20 DUP3 ADD SWAP1 POP PUSH2 0x368C PUSH0 DUP4 ADD DUP5 PUSH2 0x366A JUMP JUMPDEST SWAP3 SWAP2 POP POP JUMP JUMPDEST PUSH0 PUSH1 0x20 DUP3 DUP5 SUB SLT ISZERO PUSH2 0x36A7 JUMPI PUSH2 0x36A6 PUSH2 0x356A JUMP JUMPDEST JUMPDEST PUSH0 PUSH2 0x36B4 DUP5 DUP3 DUP6 ADD PUSH2 0x360D JUMP JUMPDEST SWAP2 POP POP SWAP3 SWAP2 POP POP JUMP JUMPDEST PUSH0 PUSH0 PUSH0 PUSH1 0x60 DUP5 DUP7 SUB SLT ISZERO PUSH2 0x36D4 JUMPI PUSH2 0x36D3 PUSH2 0x356A JUMP JUMPDEST JUMPDEST PUSH0 PUSH2 0x36E1 DUP7 DUP3 DUP8 ADD PUSH2 0x360D JUMP JUMPDEST SWAP4 POP POP PUSH1 0x20 PUSH2 0x36F2 DUP7 DUP3 DUP8 ADD PUSH2 0x360D JUMP JUMPDEST SWAP3 POP POP PUSH1 0x40 PUSH2 0x3703 DUP7 DUP3 DUP8 ADD PUSH2 0x3588 JUMP JUMPDEST SWAP2 POP POP SWAP3 POP SWAP3 POP SWAP3 JUMP JUMPDEST PUSH0 PUSH1 0xFF DUP3 AND SWAP1 POP SWAP2 SWAP1 POP JUMP JUMPDEST PUSH2 0x3722 DUP2 PUSH2 0x370D JUMP JUMPDEST DUP3 MSTORE POP POP JUMP JUMPDEST PUSH0 PUSH1 0x20 DUP3 ADD SWAP1 POP PUSH2 0x373B PUSH0 DUP4 ADD DUP5 PUSH2 0x3719 JUMP JUMPDEST SWAP3 SWAP2 POP POP JUMP JUMPDEST PUSH2 0x374A DUP2 PUSH2 0x35E6 JUMP JUMPDEST DUP3 MSTORE POP POP JUMP JUMPDEST PUSH0 PUSH1 0x20 DUP3 ADD SWAP1 POP PUSH2 0x3763 PUSH0 DUP4 ADD DUP5 PUSH2 0x3741 JUMP JUMPDEST SWAP3 SWAP2 POP POP JUMP JUMPDEST PUSH0 PUSH0 PUSH1 0x40 DUP4 DUP6 SUB SLT ISZERO PUSH2 0x377F JUMPI PUSH2 0x377E PUSH2 0x356A JUMP JUMPDEST JUMPDEST PUSH0 PUSH2 0x378C DUP6 DUP3 DUP7 ADD PUSH2 0x3588 JUMP JUMPDEST SWAP3 POP POP PUSH1 0x20 PUSH2 0x379D DUP6 DUP3 DUP7 ADD PUSH2 0x360D JUMP JUMPDEST SWAP2 POP POP SWAP3 POP SWAP3 SWAP1 POP JUMP JUMPDEST PUSH0 PUSH1 0x40 DUP3 ADD SWAP1 POP PUSH2 0x37BA PUSH0 DUP4 ADD DUP6 PUSH2 0x34A9 JUMP JUMPDEST PUSH2 0x37C7 PUSH1 0x20 DUP4 ADD DUP5 PUSH2 0x34A9 JUMP JUMPDEST SWAP4 SWAP3 POP POP POP JUMP JUMPDEST PUSH0 PUSH0 PUSH0 PUSH1 0x60 DUP5 DUP7 SUB SLT ISZERO PUSH2 0x37E5 JUMPI PUSH2 0x37E4 PUSH2 0x356A JUMP JUMPDEST JUMPDEST PUSH0 PUSH2 0x37F2 DUP7 DUP3 DUP8 ADD PUSH2 0x3588 JUMP JUMPDEST SWAP4 POP POP PUSH1 0x20 PUSH2 0x3803 DUP7 DUP3 DUP8 ADD PUSH2 0x360D JUMP JUMPDEST SWAP3 POP POP PUSH1 0x40 PUSH2 0x3814 DUP7 DUP3 DUP8 ADD PUSH2 0x360D JUMP JUMPDEST SWAP2 POP POP SWAP3 POP SWAP3 POP SWAP3 JUMP JUMPDEST PUSH0 DUP2 SWAP1 POP SWAP2 SWAP1 POP JUMP JUMPDEST PUSH2 0x3830 DUP2 PUSH2 0x381E JUMP JUMPDEST DUP3 MSTORE POP POP JUMP JUMPDEST PUSH0 PUSH1 0x20 DUP3 ADD SWAP1 POP PUSH2 0x3849 PUSH0 DUP4 ADD DUP5 PUSH2 0x3827 JUMP JUMPDEST SWAP3 SWAP2 POP POP JUMP JUMPDEST PUSH0 PUSH0 PUSH1 0x40 DUP4 DUP6 SUB SLT ISZERO PUSH2 0x3865 JUMPI PUSH2 0x3864 PUSH2 0x356A JUMP JUMPDEST JUMPDEST PUSH0 PUSH2 0x3872 DUP6 DUP3 DUP7 ADD PUSH2 0x360D JUMP JUMPDEST SWAP3 POP POP PUSH1 0x20 PUSH2 0x3883 DUP6 DUP3 DUP7 ADD PUSH2 0x360D JUMP JUMPDEST SWAP2 POP POP SWAP3 POP SWAP3 SWAP1 POP JUMP JUMPDEST PUSH0 DUP2 MLOAD SWAP1 POP PUSH2 0x389B DUP2 PUSH2 0x3572 JUMP JUMPDEST SWAP3 SWAP2 POP POP JUMP JUMPDEST PUSH0 PUSH1 0x20 DUP3 DUP5 SUB SLT ISZERO PUSH2 0x38B6 JUMPI PUSH2 0x38B5 PUSH2 0x356A JUMP JUMPDEST JUMPDEST PUSH0 PUSH2 0x38C3 DUP5 DUP3 DUP6 ADD PUSH2 0x388D JUMP JUMPDEST SWAP2 POP POP SWAP3 SWAP2 POP POP JUMP JUMPDEST PUSH32 0x4E487B7100000000000000000000000000000000000000000000000000000000 PUSH0 MSTORE PUSH1 0x11 PUSH1 0x4 MSTORE PUSH1 0x24 PUSH0 REVERT JUMPDEST PUSH0 PUSH2 0x3903 DUP3 PUSH2 0x34A0 JUMP JUMPDEST SWAP2 POP PUSH2 0x390E DUP4 PUSH2 0x34A0 JUMP JUMPDEST SWAP3 POP DUP3 DUP3 SUB SWAP1 POP DUP2 DUP2 GT ISZERO PUSH2 0x3926 JUMPI PUSH2 0x3925 PUSH2 0x38CC JUMP JUMPDEST JUMPDEST SWAP3 SWAP2 POP POP JUMP JUMPDEST PUSH32 0x4E487B7100000000000000000000000000000000000000000000000000000000 PUSH0 MSTORE PUSH1 0x22 PUSH1 0x4 MSTORE PUSH1 0x24 PUSH0 REVERT JUMPDEST PUSH0 PUSH1 0x2 DUP3 DIV SWAP1 POP PUSH1 0x1 DUP3 AND DUP1 PUSH2 0x3970 JUMPI PUSH1 0x7F DUP3 AND SWAP2 POP JUMPDEST PUSH1 0x20 DUP3 LT DUP2 SUB PUSH2 0x3983 JUMPI PUSH2 0x3982 PUSH2 0x392C JUMP JUMPDEST JUMPDEST POP SWAP2 SWAP1 POP JUMP JUMPDEST PUSH0 PUSH2 0x3993 DUP3 PUSH2 0x34A0 JUMP JUMPDEST SWAP2 POP PUSH2 0x399E DUP4 PUSH2 0x34A0 JUMP JUMPDEST SWAP3 POP DUP3 DUP3 ADD SWAP1 POP DUP1 DUP3 GT ISZERO PUSH2 0x39B6 JUMPI PUSH2 0x39B5 PUSH2 0x38CC JUMP JUMPDEST JUMPDEST SWAP3 SWAP2 POP POP JUMP JUMPDEST PUSH0 PUSH1 0x60 DUP3 ADD SWAP1 POP PUSH2 0x39CF PUSH0 DUP4 ADD DUP7 PUSH2 0x34A9 JUMP JUMPDEST PUSH2 0x39DC PUSH1 0x20 DUP4 ADD DUP6 PUSH2 0x34A9 JUMP JUMPDEST PUSH2 0x39E9 PUSH1 0x40 DUP4 ADD DUP5 PUSH2 0x34A9 JUMP JUMPDEST SWAP5 SWAP4 POP POP POP POP JUMP JUMPDEST PUSH32 0x73616C6172792069732077616974696E67207570646174650000000000000000 PUSH0 DUP3 ADD MSTORE POP JUMP JUMPDEST PUSH0 PUSH2 0x3A25 PUSH1 0x18 DUP4 PUSH2 0x34DB JUMP JUMPDEST SWAP2 POP PUSH2 0x3A30 DUP3 PUSH2 0x39F1 JUMP JUMPDEST PUSH1 0x20 DUP3 ADD SWAP1 POP SWAP2 SWAP1 POP JUMP JUMPDEST PUSH0 PUSH1 0x20 DUP3 ADD SWAP1 POP DUP2 DUP2 SUB PUSH0 DUP4 ADD MSTORE PUSH2 0x3A52 DUP2 PUSH2 0x3A19 JUMP JUMPDEST SWAP1 POP SWAP2 SWAP1 POP JUMP JUMPDEST PUSH32 0x73616C61727920697320657175616C20746F206F6C64206F6E65000000000000 PUSH0 DUP3 ADD MSTORE POP JUMP JUMPDEST PUSH0 PUSH2 0x3A8D PUSH1 0x1A DUP4 PUSH2 0x34DB JUMP JUMPDEST SWAP2 POP PUSH2 0x3A98 DUP3 PUSH2 0x3A59 JUMP JUMPDEST PUSH1 0x20 DUP3 ADD SWAP1 POP SWAP2 SWAP1 POP JUMP JUMPDEST PUSH0 PUSH1 0x20 DUP3 ADD SWAP1 POP DUP2 DUP2 SUB PUSH0 DUP4 ADD MSTORE PUSH2 0x3ABA DUP2 PUSH2 0x3A81 JUMP JUMPDEST SWAP1 POP SWAP2 SWAP1 POP JUMP JUMPDEST PUSH32 0x56616C7565206578636565647320696E74323536206D61782072616E67650000 PUSH0 DUP3 ADD MSTORE POP JUMP JUMPDEST PUSH0 PUSH2 0x3AF5 PUSH1 0x1E DUP4 PUSH2 0x34DB JUMP JUMPDEST SWAP2 POP PUSH2 0x3B00 DUP3 PUSH2 0x3AC1 JUMP JUMPDEST PUSH1 0x20 DUP3 ADD SWAP1 POP SWAP2 SWAP1 POP JUMP JUMPDEST PUSH0 PUSH1 0x20 DUP3 ADD SWAP1 POP DUP2 DUP2 SUB PUSH0 DUP4 ADD MSTORE PUSH2 0x3B22 DUP2 PUSH2 0x3AE9 JUMP JUMPDEST SWAP1 POP SWAP2 SWAP1 POP JUMP JUMPDEST PUSH0 PUSH2 0x3B33 DUP3 PUSH2 0x381E JUMP JUMPDEST SWAP2 POP PUSH2 0x3B3E DUP4 PUSH2 0x381E JUMP JUMPDEST SWAP3 POP DUP3 DUP3 ADD SWAP1 POP DUP3 DUP2 SLT ISZERO PUSH0 DUP4 SLT AND DUP4 DUP3 SLT PUSH0 DUP5 SLT ISZERO AND OR ISZERO PUSH2 0x3B64 JUMPI PUSH2 0x3B63 PUSH2 0x38CC JUMP JUMPDEST JUMPDEST SWAP3 SWAP2 POP POP JUMP JUMPDEST PUSH0 PUSH2 0x3B74 DUP3 PUSH2 0x381E JUMP JUMPDEST SWAP2 POP PUSH2 0x3B7F DUP4 PUSH2 0x381E JUMP JUMPDEST SWAP3 POP DUP3 DUP3 SUB SWAP1 POP DUP2 DUP2 SLT PUSH0 DUP5 SLT AND DUP3 DUP3 SGT PUSH0 DUP6 SLT ISZERO AND OR ISZERO PUSH2 0x3BA4 JUMPI PUSH2 0x3BA3 PUSH2 0x38CC JUMP JUMPDEST JUMPDEST SWAP3 SWAP2 POP POP JUMP JUMPDEST PUSH0 PUSH2 0x3BB4 DUP3 PUSH2 0x370D JUMP JUMPDEST SWAP2 POP PUSH2 0x3BBF DUP4 PUSH2 0x370D JUMP JUMPDEST SWAP3 POP DUP3 DUP3 ADD SWAP1 POP PUSH1 0xFF DUP2 GT ISZERO PUSH2 0x3BD8 JUMPI PUSH2 0x3BD7 PUSH2 0x38CC JUMP JUMPDEST JUMPDEST SWAP3 SWAP2 POP POP JUMP JUMPDEST PUSH32 0x6E6F7468696E67206E6565642075706461746500000000000000000000000000 PUSH0 DUP3 ADD MSTORE POP JUMP JUMPDEST PUSH0 PUSH2 0x3C12 PUSH1 0x13 DUP4 PUSH2 0x34DB JUMP JUMPDEST SWAP2 POP PUSH2 0x3C1D DUP3 PUSH2 0x3BDE JUMP JUMPDEST PUSH1 0x20 DUP3 ADD SWAP1 POP SWAP2 SWAP1 POP JUMP JUMPDEST PUSH0 PUSH1 0x20 DUP3 ADD SWAP1 POP DUP2 DUP2 SUB PUSH0 DUP4 ADD MSTORE PUSH2 0x3C3F DUP2 PUSH2 0x3C06 JUMP JUMPDEST SWAP1 POP SWAP2 SWAP1 POP JUMP JUMPDEST PUSH32 0x4E6F742074696D6520666F722075706461746520796574000000000000000000 PUSH0 DUP3 ADD MSTORE POP JUMP JUMPDEST PUSH0 PUSH2 0x3C7A PUSH1 0x17 DUP4 PUSH2 0x34DB JUMP JUMPDEST SWAP2 POP PUSH2 0x3C85 DUP3 PUSH2 0x3C46 JUMP JUMPDEST PUSH1 0x20 DUP3 ADD SWAP1 POP SWAP2 SWAP1 POP JUMP JUMPDEST PUSH0 PUSH1 0x20 DUP3 ADD SWAP1 POP DUP2 DUP2 SUB PUSH0 DUP4 ADD MSTORE PUSH2 0x3CA7 DUP2 PUSH2 0x3C6E JUMP JUMPDEST SWAP1 POP SWAP2 SWAP1 POP JUMP JUMPDEST PUSH0 PUSH1 0x80 DUP3 ADD SWAP1 POP PUSH2 0x3CC1 PUSH0 DUP4 ADD DUP8 PUSH2 0x34A9 JUMP JUMPDEST PUSH2 0x3CCE PUSH1 0x20 DUP4 ADD DUP7 PUSH2 0x34A9 JUMP JUMPDEST PUSH2 0x3CDB PUSH1 0x40 DUP4 ADD DUP6 PUSH2 0x34A9 JUMP JUMPDEST PUSH2 0x3CE8 PUSH1 0x60 DUP4 ADD DUP5 PUSH2 0x34A9 JUMP JUMPDEST SWAP6 SWAP5 POP POP POP POP POP JUMP JUMPDEST PUSH0 DUP2 MLOAD SWAP1 POP SWAP2 SWAP1 POP JUMP JUMPDEST PUSH0 DUP2 SWAP1 POP SWAP3 SWAP2 POP POP JUMP JUMPDEST PUSH0 PUSH2 0x3D0F DUP3 PUSH2 0x3CF1 JUMP JUMPDEST PUSH2 0x3D19 DUP2 DUP6 PUSH2 0x3CFB JUMP JUMPDEST SWAP4 POP PUSH2 0x3D29 DUP2 DUP6 PUSH1 0x20 DUP7 ADD PUSH2 0x34EB JUMP JUMPDEST DUP1 DUP5 ADD SWAP2 POP POP SWAP3 SWAP2 POP POP JUMP JUMPDEST PUSH0 PUSH2 0x3D40 DUP3 DUP5 PUSH2 0x3D05 JUMP JUMPDEST SWAP2 POP DUP2 SWAP1 POP SWAP3 SWAP2 POP POP JUMP JUMPDEST PUSH0 PUSH1 0x40 DUP3 ADD SWAP1 POP PUSH2 0x3D5E PUSH0 DUP4 ADD DUP6 PUSH2 0x3741 JUMP JUMPDEST PUSH2 0x3D6B PUSH1 0x20 DUP4 ADD DUP5 PUSH2 0x34A9 JUMP JUMPDEST SWAP4 SWAP3 POP POP POP JUMP JUMPDEST PUSH0 PUSH0 REVERT JUMPDEST PUSH32 0x4E487B7100000000000000000000000000000000000000000000000000000000 PUSH0 MSTORE PUSH1 0x41 PUSH1 0x4 MSTORE PUSH1 0x24 PUSH0 REVERT JUMPDEST PUSH2 0x3DAC DUP3 PUSH2 0x34F9 JUMP JUMPDEST DUP2 ADD DUP2 DUP2 LT PUSH8 0xFFFFFFFFFFFFFFFF DUP3 GT OR ISZERO PUSH2 0x3DCB JUMPI PUSH2 0x3DCA PUSH2 0x3D76 JUMP JUMPDEST JUMPDEST DUP1 PUSH1 0x40 MSTORE POP POP POP JUMP JUMPDEST PUSH0 PUSH2 0x3DDD PUSH2 0x3561 JUMP JUMPDEST SWAP1 POP PUSH2 0x3DE9 DUP3 DUP3 PUSH2 0x3DA3 JUMP JUMPDEST SWAP2 SWAP1 POP JUMP JUMPDEST PUSH0 PUSH8 0xFFFFFFFFFFFFFFFF DUP3 GT ISZERO PUSH2 0x3E08 JUMPI PUSH2 0x3E07 PUSH2 0x3D76 JUMP JUMPDEST JUMPDEST PUSH1 0x20 DUP3 MUL SWAP1 POP PUSH1 0x20 DUP2 ADD SWAP1 POP SWAP2 SWAP1 POP JUMP JUMPDEST PUSH0 PUSH0 REVERT JUMPDEST PUSH0 DUP2 MLOAD SWAP1 POP PUSH2 0x3E2B DUP2 PUSH2 0x35F7 JUMP JUMPDEST SWAP3 SWAP2 POP POP JUMP JUMPDEST PUSH0 PUSH2 0x3E43 PUSH2 0x3E3E DUP5 PUSH2 0x3DEE JUMP JUMPDEST PUSH2 0x3DD4 JUMP JUMPDEST SWAP1 POP DUP1 DUP4 DUP3 MSTORE PUSH1 0x20 DUP3 ADD SWAP1 POP PUSH1 0x20 DUP5 MUL DUP4 ADD DUP6 DUP2 GT ISZERO PUSH2 0x3E66 JUMPI PUSH2 0x3E65 PUSH2 0x3E19 JUMP JUMPDEST JUMPDEST DUP4 JUMPDEST DUP2 DUP2 LT ISZERO PUSH2 0x3E8F JUMPI DUP1 PUSH2 0x3E7B DUP9 DUP3 PUSH2 0x3E1D JUMP JUMPDEST DUP5 MSTORE PUSH1 0x20 DUP5 ADD SWAP4 POP POP PUSH1 0x20 DUP2 ADD SWAP1 POP PUSH2 0x3E68 JUMP JUMPDEST POP POP POP SWAP4 SWAP3 POP POP POP JUMP JUMPDEST PUSH0 DUP3 PUSH1 0x1F DUP4 ADD SLT PUSH2 0x3EAD JUMPI PUSH2 0x3EAC PUSH2 0x3D72 JUMP JUMPDEST JUMPDEST DUP2 MLOAD PUSH2 0x3EBD DUP5 DUP3 PUSH1 0x20 DUP7 ADD PUSH2 0x3E31 JUMP JUMPDEST SWAP2 POP POP SWAP3 SWAP2 POP POP JUMP JUMPDEST PUSH0 PUSH1 0x20 DUP3 DUP5 SUB SLT ISZERO PUSH2 0x3EDB JUMPI PUSH2 0x3EDA PUSH2 0x356A JUMP JUMPDEST JUMPDEST PUSH0 DUP3 ADD MLOAD PUSH8 0xFFFFFFFFFFFFFFFF DUP2 GT ISZERO PUSH2 0x3EF8 JUMPI PUSH2 0x3EF7 PUSH2 0x356E JUMP JUMPDEST JUMPDEST PUSH2 0x3F04 DUP5 DUP3 DUP6 ADD PUSH2 0x3E99 JUMP JUMPDEST SWAP2 POP POP SWAP3 SWAP2 POP POP JUMP JUMPDEST PUSH32 0x4E487B7100000000000000000000000000000000000000000000000000000000 PUSH0 MSTORE PUSH1 0x32 PUSH1 0x4 MSTORE PUSH1 0x24 PUSH0 REVERT JUMPDEST PUSH0 DUP2 MLOAD SWAP1 POP SWAP2 SWAP1 POP JUMP JUMPDEST PUSH0 DUP3 DUP3 MSTORE PUSH1 0x20 DUP3 ADD SWAP1 POP SWAP3 SWAP2 POP POP JUMP JUMPDEST PUSH0 DUP2 SWAP1 POP PUSH1 0x20 DUP3 ADD SWAP1 POP SWAP2 SWAP1 POP JUMP JUMPDEST PUSH2 0x3F6C DUP2 PUSH2 0x35E6 JUMP JUMPDEST DUP3 MSTORE POP POP JUMP JUMPDEST PUSH0 PUSH2 0x3F7D DUP4 DUP4 PUSH2 0x3F63 JUMP JUMPDEST PUSH1 0x20 DUP4 ADD SWAP1 POP SWAP3 SWAP2 POP POP JUMP JUMPDEST PUSH0 PUSH1 0x20 DUP3 ADD SWAP1 POP SWAP2 SWAP1 POP JUMP JUMPDEST PUSH0 PUSH2 0x3F9F DUP3 PUSH2 0x3F3A JUMP JUMPDEST PUSH2 0x3FA9 DUP2 DUP6 PUSH2 0x3F44 JUMP JUMPDEST SWAP4 POP PUSH2 0x3FB4 DUP4 PUSH2 0x3F54 JUMP JUMPDEST DUP1 PUSH0 JUMPDEST DUP4 DUP2 LT ISZERO PUSH2 0x3FE4 JUMPI DUP2 MLOAD PUSH2 0x3FCB DUP9 DUP3 PUSH2 0x3F72 JUMP JUMPDEST SWAP8 POP PUSH2 0x3FD6 DUP4 PUSH2 0x3F89 JUMP JUMPDEST SWAP3 POP POP PUSH1 0x1 DUP2 ADD SWAP1 POP PUSH2 0x3FB7 JUMP JUMPDEST POP DUP6 SWAP4 POP POP POP POP SWAP3 SWAP2 POP POP JUMP JUMPDEST PUSH0 PUSH1 0x40 DUP3 ADD SWAP1 POP DUP2 DUP2 SUB PUSH0 DUP4 ADD MSTORE PUSH2 0x4009 DUP2 DUP6 PUSH2 0x3F95 JUMP JUMPDEST SWAP1 POP PUSH2 0x4018 PUSH1 0x20 DUP4 ADD DUP5 PUSH2 0x34A9 JUMP JUMPDEST SWAP4 SWAP3 POP POP POP JUMP JUMPDEST PUSH0 DUP2 PUSH1 0x1 SHR SWAP1 POP SWAP2 SWAP1 POP JUMP JUMPDEST PUSH0 PUSH0 DUP3 SWAP2 POP DUP4 SWAP1 POP JUMPDEST PUSH1 0x1 DUP6 GT ISZERO PUSH2 0x4074 JUMPI DUP1 DUP7 DIV DUP2 GT ISZERO PUSH2 0x4050 JUMPI PUSH2 0x404F PUSH2 0x38CC JUMP JUMPDEST JUMPDEST PUSH1 0x1 DUP6 AND ISZERO PUSH2 0x405F JUMPI DUP1 DUP3 MUL SWAP2 POP JUMPDEST DUP1 DUP2 MUL SWAP1 POP PUSH2 0x406D DUP6 PUSH2 0x401F JUMP JUMPDEST SWAP5 POP PUSH2 0x4034 JUMP JUMPDEST SWAP5 POP SWAP5 SWAP3 POP POP POP JUMP JUMPDEST PUSH0 DUP3 PUSH2 0x408C JUMPI PUSH1 0x1 SWAP1 POP PUSH2 0x4147 JUMP JUMPDEST DUP2 PUSH2 0x4099 JUMPI PUSH0 SWAP1 POP PUSH2 0x4147 JUMP JUMPDEST DUP2 PUSH1 0x1 DUP2 EQ PUSH2 0x40AF JUMPI PUSH1 0x2 DUP2 EQ PUSH2 0x40B9 JUMPI PUSH2 0x40E8 JUMP JUMPDEST PUSH1 0x1 SWAP2 POP POP PUSH2 0x4147 JUMP JUMPDEST PUSH1 0xFF DUP5 GT ISZERO PUSH2 0x40CB JUMPI PUSH2 0x40CA PUSH2 0x38CC JUMP JUMPDEST JUMPDEST DUP4 PUSH1 0x2 EXP SWAP2 POP DUP5 DUP3 GT ISZERO PUSH2 0x40E2 JUMPI PUSH2 0x40E1 PUSH2 0x38CC JUMP JUMPDEST JUMPDEST POP PUSH2 0x4147 JUMP JUMPDEST POP PUSH1 0x20 DUP4 LT PUSH2 0x133 DUP4 LT AND PUSH1 0x4E DUP5 LT PUSH1 0xB DUP5 LT AND OR ISZERO PUSH2 0x411D JUMPI DUP3 DUP3 EXP SWAP1 POP DUP4 DUP2 GT ISZERO PUSH2 0x4118 JUMPI PUSH2 0x4117 PUSH2 0x38CC JUMP JUMPDEST JUMPDEST PUSH2 0x4147 JUMP JUMPDEST PUSH2 0x412A DUP5 DUP5 DUP5 PUSH1 0x1 PUSH2 0x402B JUMP JUMPDEST SWAP3 POP SWAP1 POP DUP2 DUP5 DIV DUP2 GT ISZERO PUSH2 0x4141 JUMPI PUSH2 0x4140 PUSH2 0x38CC JUMP JUMPDEST JUMPDEST DUP2 DUP2 MUL SWAP1 POP JUMPDEST SWAP4 SWAP3 POP POP POP JUMP JUMPDEST PUSH0 PUSH2 0x4158 DUP3 PUSH2 0x34A0 JUMP JUMPDEST SWAP2 POP PUSH2 0x4163 DUP4 PUSH2 0x370D JUMP JUMPDEST SWAP3 POP PUSH2 0x4190 PUSH32 0xFFFFFFFFFFFFFFFFFFFFFFFFFFFFFFFFFFFFFFFFFFFFFFFFFFFFFFFFFFFFFFFF DUP5 DUP5 PUSH2 0x407D JUMP JUMPDEST SWAP1 POP SWAP3 SWAP2 POP POP JUMP JUMPDEST PUSH0 PUSH1 0x60 DUP3 ADD SWAP1 POP PUSH2 0x41AB PUSH0 DUP4 ADD DUP7 PUSH2 0x3741 JUMP JUMPDEST PUSH2 0x41B8 PUSH1 0x20 DUP4 ADD DUP6 PUSH2 0x3741 JUMP JUMPDEST PUSH2 0x41C5 PUSH1 0x40 DUP4 ADD DUP5 PUSH2 0x34A9 JUMP JUMPDEST SWAP5 SWAP4 POP POP POP POP JUMP JUMPDEST PUSH32 0x4E487B7100000000000000000000000000000000000000000000000000000000 PUSH0 MSTORE PUSH1 0x12 PUSH1 0x4 MSTORE PUSH1 0x24 PUSH0 REVERT JUMPDEST PUSH0 PUSH2 0x4204 DUP3 PUSH2 0x381E JUMP JUMPDEST SWAP2 POP PUSH2 0x420F DUP4 PUSH2 0x381E JUMP JUMPDEST SWAP3 POP DUP3 PUSH2 0x421F JUMPI PUSH2 0x421E PUSH2 0x41CD JUMP JUMPDEST JUMPDEST PUSH1 0x1 PUSH0 SUB DUP4 EQ PUSH32 0x8000000000000000000000000000000000000000000000000000000000000000 DUP4 EQ AND ISZERO PUSH2 0x4257 JUMPI PUSH2 0x4256 PUSH2 0x38CC JUMP JUMPDEST JUMPDEST DUP3 DUP3 SDIV SWAP1 POP SWAP3 SWAP2 POP POP JUMP JUMPDEST PUSH32 0x73616C61727920697320746F6F20686967680000000000000000000000000000 PUSH0 DUP3 ADD MSTORE POP JUMP JUMPDEST PUSH0 PUSH2 0x4296 PUSH1 0x12 DUP4 PUSH2 0x34DB JUMP JUMPDEST SWAP2 POP PUSH2 0x42A1 DUP3 PUSH2 0x4262 JUMP JUMPDEST PUSH1 0x20 DUP3 ADD SWAP1 POP SWAP2 SWAP1 POP JUMP JUMPDEST PUSH0 PUSH1 0x20 DUP3 ADD SWAP1 POP DUP2 DUP2 SUB PUSH0 DUP4 ADD MSTORE PUSH2 0x42C3 DUP2 PUSH2 0x428A JUMP JUMPDEST SWAP1 POP SWAP2 SWAP1 POP JUMP JUMPDEST PUSH0 PUSH1 0x60 DUP3 ADD SWAP1 POP PUSH2 0x42DD PUSH0 DUP4 ADD DUP7 PUSH2 0x3741 JUMP JUMPDEST PUSH2 0x42EA PUSH1 0x20 DUP4 ADD DUP6 PUSH2 0x34A9 JUMP JUMPDEST PUSH2 0x42F7 PUSH1 0x40 DUP4 ADD DUP5 PUSH2 0x34A9 JUMP JUMPDEST SWAP5 SWAP4 POP POP POP POP JUMP JUMPDEST PUSH32 0x6E6F74207075626C696300000000000000000000000000000000000000000000 PUSH0 DUP3 ADD MSTORE POP JUMP JUMPDEST PUSH0 PUSH2 0x4333 PUSH1 0xA DUP4 PUSH2 0x34DB JUMP JUMPDEST SWAP2 POP PUSH2 0x433E DUP3 PUSH2 0x42FF JUMP JUMPDEST PUSH1 0x20 DUP3 ADD SWAP1 POP SWAP2 SWAP1 POP JUMP JUMPDEST PUSH0 PUSH1 0x20 DUP3 ADD SWAP1 POP DUP2 DUP2 SUB PUSH0 DUP4 ADD MSTORE PUSH2 0x4360 DUP2 PUSH2 0x4327 JUMP JUMPDEST SWAP1 POP SWAP2 SWAP1 POP JUMP JUMPDEST PUSH32 0x4E487B7100000000000000000000000000000000000000000000000000000000 PUSH0 MSTORE PUSH1 0x21 PUSH1 0x4 MSTORE PUSH1 0x24 PUSH0 REVERT JUMPDEST PUSH0 PUSH2 0x439E DUP3 PUSH2 0x370D JUMP JUMPDEST SWAP2 POP PUSH2 0x43A9 DUP4 PUSH2 0x370D JUMP JUMPDEST SWAP3 POP DUP3 PUSH2 0x43B9 JUMPI PUSH2 0x43B8 PUSH2 0x41CD JUMP JUMPDEST JUMPDEST DUP3 DUP3 MOD SWAP1 POP SWAP3 SWAP2 POP POP JUMP JUMPDEST PUSH32 0x546F74616C53686172657320646576696174696F6E2065786365656473203130 PUSH0 DUP3 ADD MSTORE PUSH32 0x2500000000000000000000000000000000000000000000000000000000000000 PUSH1 0x20 DUP3 ADD MSTORE POP JUMP JUMPDEST PUSH0 PUSH2 0x441E PUSH1 0x21 DUP4 PUSH2 0x34DB JUMP JUMPDEST SWAP2 POP PUSH2 0x4429 DUP3 PUSH2 0x43C4 JUMP JUMPDEST PUSH1 0x40 DUP3 ADD SWAP1 POP SWAP2 SWAP1 POP JUMP JUMPDEST PUSH0 PUSH1 0x20 DUP3 ADD SWAP1 POP DUP2 DUP2 SUB PUSH0 DUP4 ADD MSTORE PUSH2 0x444B DUP2 PUSH2 0x4412 JUMP JUMPDEST SWAP1 POP SWAP2 SWAP1 POP JUMP INVALID LOG2 PUSH5 0x6970667358 0x22 SLT KECCAK256 PUSH10 0x147855D04BADCC59AE53 BALANCE 0xBE STATICCALL 0x4B 0x4F 0xD0 BASEFEE 0xD1 LOG2 PUSH11 0xEB2D9EC5584BA5D9B02127 PUSH5 0x736F6C6343 STOP ADDMOD SHR STOP CALLER LOG2 PUSH5 0x6970667358 0x22 SLT KECCAK256 MOD LOG1 PUSH19 0xC798F3626F4EE2A6EB66E41196EDB2D4646FAA EQ ADDMOD ADDRESS DUP1 PUSH17 0xD5FB27E57B64736F6C634300081C003300 "
		},
		"gasEstimates": {
			"creation": {
				"codeDepositCost": "4851800",
				"executionCost": "5728",
				"totalCost": "4857528"
			},
			"external": {
				"deploySponsor(address,address,address,uint256,address,string,string)": "infinite"
			}
		},
		"methodIdentifiers": {
			"deploySponsor(address,address,address,uint256,address,string,string)": "fbd81a64"
		}
	},
	"abi": [
		{
			"anonymous": false,
			"inputs": [
				{
					"indexed": true,
					"internalType": "address",
					"name": "owner",
					"type": "address"
				},
				{
					"indexed": false,
					"internalType": "address",
					"name": "sponsorAddress",
					"type": "address"
				},
				{
					"indexed": false,
					"internalType": "address",
					"name": "router",
					"type": "address"
				},
				{
					"indexed": false,
					"internalType": "uint256",
					"name": "amount",
					"type": "uint256"
				},
				{
					"indexed": false,
					"internalType": "address",
					"name": "company",
					"type": "address"
				},
				{
					"indexed": false,
					"internalType": "string",
					"name": "name",
					"type": "string"
				},
				{
					"indexed": false,
					"internalType": "string",
					"name": "symbol",
					"type": "string"
				}
			],
			"name": "SponsorDeployed",
			"type": "event"
		},
		{
			"inputs": [
				{
					"internalType": "address",
					"name": "router",
					"type": "address"
				},
				{
					"internalType": "contract IERC20",
					"name": "asset",
					"type": "address"
				},
				{
					"internalType": "address",
					"name": "owner",
					"type": "address"
				},
				{
					"internalType": "uint256",
					"name": "amount",
					"type": "uint256"
				},
				{
					"internalType": "address",
					"name": "company",
					"type": "address"
				},
				{
					"internalType": "string",
					"name": "name",
					"type": "string"
				},
				{
					"internalType": "string",
					"name": "symbol",
					"type": "string"
				}
			],
			"name": "deploySponsor",
			"outputs": [
				{
					"internalType": "address",
					"name": "sponsor",
					"type": "address"
				}
			],
			"stateMutability": "nonpayable",
			"type": "function"
		}
	]
}